{"contracts/ZkHarvest.sol":{"ZkHarvest":{"abi":[{"inputs":[{"internalType":"contract ZkHarvestToken","name":"_zkh","type":"address"},{"internalType":"contract ITreasurer","name":"_treasurer","type":"address"},{"internalType":"address","name":"_dev","type":"address"},{"internalType":"address","name":"_feeCollector","type":"address"},{"internalType":"uint256","name":"_initZKHPerSecond","type":"uint256"},{"internalType":"uint256","name":"_startTime","type":"uint256"}],"stateMutability":"nonpayable","type":"constructor"},{"anonymous":false,"inputs":[{"indexed":false,"internalType":"uint256","name":"id","type":"uint256"},{"indexed":true,"internalType":"string","name":"name","type":"string"},{"indexed":false,"internalType":"uint256","name":"allocPoints","type":"uint256"}],"name":"CategoryCreate","type":"event"},{"anonymous":false,"inputs":[{"indexed":false,"internalType":"uint256","name":"id","type":"uint256"},{"indexed":false,"internalType":"uint256","name":"allocPoints","type":"uint256"}],"name":"CategoryEdit","type":"event"},{"anonymous":false,"inputs":[{"indexed":true,"internalType":"address","name":"user","type":"address"},{"indexed":true,"internalType":"uint256","name":"pid","type":"uint256"},{"indexed":false,"internalType":"uint256","name":"amount","type":"uint256"},{"indexed":false,"internalType":"uint256","name":"fee","type":"uint256"}],"name":"Deposit","type":"event"},{"anonymous":false,"inputs":[{"indexed":true,"internalType":"address","name":"user","type":"address"},{"indexed":true,"internalType":"uint256","name":"pid","type":"uint256"},{"indexed":false,"internalType":"uint256","name":"amount","type":"uint256"}],"name":"EmergencyWithdraw","type":"event"},{"anonymous":false,"inputs":[{"indexed":true,"internalType":"address","name":"previousOwner","type":"address"},{"indexed":true,"internalType":"address","name":"newOwner","type":"address"}],"name":"OwnershipTransferred","type":"event"},{"anonymous":false,"inputs":[{"indexed":true,"internalType":"address","name":"token","type":"address"},{"indexed":true,"internalType":"uint256","name":"catId","type":"uint256"},{"indexed":false,"internalType":"uint256","name":"allocPoints","type":"uint256"},{"indexed":false,"internalType":"uint256","name":"depositFeeBP","type":"uint256"},{"indexed":false,"internalType":"uint256","name":"harvestInterval","type":"uint256"}],"name":"PoolCreate","type":"event"},{"anonymous":false,"inputs":[{"indexed":true,"internalType":"address","name":"token","type":"address"},{"indexed":true,"internalType":"uint256","name":"catId","type":"uint256"},{"indexed":false,"internalType":"uint256","name":"allocPoints","type":"uint256"},{"indexed":false,"internalType":"uint256","name":"depositFeeBP","type":"uint256"},{"indexed":false,"internalType":"uint256","name":"harvestInterval","type":"uint256"}],"name":"PoolEdit","type":"event"},{"anonymous":false,"inputs":[{"indexed":true,"internalType":"address","name":"user","type":"address"},{"indexed":true,"internalType":"uint256","name":"pid","type":"uint256"},{"indexed":false,"internalType":"uint256","name":"amount","type":"uint256"}],"name":"Withdraw","type":"event"},{"inputs":[],"name":"MAX_DEPOSIT_FEE_BP","outputs":[{"internalType":"uint256","name":"","type":"uint256"}],"stateMutability":"view","type":"function"},{"inputs":[],"name":"MAX_HARVEST_INTERVAL","outputs":[{"internalType":"uint256","name":"","type":"uint256"}],"stateMutability":"view","type":"function"},{"inputs":[],"name":"MAX_ZKH_PER_SECOND","outputs":[{"internalType":"uint256","name":"","type":"uint256"}],"stateMutability":"view","type":"function"},{"inputs":[],"name":"ZKHPerSecond","outputs":[{"internalType":"uint256","name":"","type":"uint256"}],"stateMutability":"view","type":"function"},{"inputs":[{"internalType":"uint256","name":"_poolId","type":"uint256"},{"internalType":"address","name":"_user","type":"address"}],"name":"canHarvest","outputs":[{"internalType":"bool","name":"","type":"bool"}],"stateMutability":"view","type":"function"},{"inputs":[{"internalType":"uint256","name":"","type":"uint256"}],"name":"catInfo","outputs":[{"internalType":"uint256","name":"allocPoints","type":"uint256"},{"internalType":"uint256","name":"totalPoolAllocPoints","type":"uint256"},{"internalType":"string","name":"name","type":"string"}],"stateMutability":"view","type":"function"},{"inputs":[{"internalType":"uint256","name":"","type":"uint256"},{"internalType":"uint256","name":"","type":"uint256"}],"name":"catPools","outputs":[{"internalType":"uint256","name":"","type":"uint256"}],"stateMutability":"view","type":"function"},{"inputs":[],"name":"categoriesLength","outputs":[{"internalType":"uint256","name":"","type":"uint256"}],"stateMutability":"view","type":"function"},{"inputs":[{"internalType":"string","name":"_name","type":"string"},{"internalType":"uint256","name":"_allocPoints","type":"uint256"},{"internalType":"bool","name":"_withUpdate","type":"bool"}],"name":"createCategory","outputs":[],"stateMutability":"nonpayable","type":"function"},{"inputs":[{"internalType":"uint256","name":"_catId","type":"uint256"},{"internalType":"contract IERC20","name":"_token","type":"address"},{"internalType":"uint256","name":"_allocPoints","type":"uint256"},{"internalType":"uint256","name":"_depositFeeBP","type":"uint256"},{"internalType":"uint256","name":"_harvestInterval","type":"uint256"},{"internalType":"bool","name":"_withUpdate","type":"bool"}],"name":"createPool","outputs":[],"stateMutability":"nonpayable","type":"function"},{"inputs":[{"internalType":"uint256","name":"_poolId","type":"uint256"},{"internalType":"uint256","name":"_amount","type":"uint256"}],"name":"deposit","outputs":[],"stateMutability":"nonpayable","type":"function"},{"inputs":[],"name":"dev","outputs":[{"internalType":"address","name":"","type":"address"}],"stateMutability":"view","type":"function"},{"inputs":[],"name":"devZKHPerSecond","outputs":[{"internalType":"uint256","name":"","type":"uint256"}],"stateMutability":"view","type":"function"},{"inputs":[{"internalType":"uint256","name":"_catId","type":"uint256"},{"internalType":"uint256","name":"_allocPoints","type":"uint256"},{"internalType":"bool","name":"_withUpdate","type":"bool"}],"name":"editCategory","outputs":[],"stateMutability":"nonpayable","type":"function"},{"inputs":[{"internalType":"uint256","name":"_poolId","type":"uint256"},{"internalType":"uint256","name":"_allocPoints","type":"uint256"},{"internalType":"uint256","name":"_depositFeeBP","type":"uint256"},{"internalType":"uint256","name":"_harvestInterval","type":"uint256"},{"internalType":"bool","name":"_withUpdate","type":"bool"}],"name":"editPool","outputs":[],"stateMutability":"nonpayable","type":"function"},{"inputs":[],"name":"elapsedTime","outputs":[{"internalType":"uint256","name":"","type":"uint256"}],"stateMutability":"view","type":"function"},{"inputs":[{"internalType":"uint256","name":"_poolId","type":"uint256"}],"name":"emergencyWithdraw","outputs":[],"stateMutability":"nonpayable","type":"function"},{"inputs":[],"name":"endTime","outputs":[{"internalType":"uint256","name":"","type":"uint256"}],"stateMutability":"view","type":"function"},{"inputs":[],"name":"farmingDuration","outputs":[{"internalType":"uint256","name":"","type":"uint256"}],"stateMutability":"view","type":"function"},{"inputs":[],"name":"feeCollector","outputs":[{"internalType":"address","name":"","type":"address"}],"stateMutability":"view","type":"function"},{"inputs":[{"internalType":"uint256","name":"_from","type":"uint256"},{"internalType":"uint256","name":"_to","type":"uint256"}],"name":"getMultiplier","outputs":[{"internalType":"uint256","name":"","type":"uint256"}],"stateMutability":"view","type":"function"},{"inputs":[],"name":"massUpdatePools","outputs":[],"stateMutability":"nonpayable","type":"function"},{"inputs":[],"name":"owner","outputs":[{"internalType":"address","name":"","type":"address"}],"stateMutability":"view","type":"function"},{"inputs":[{"internalType":"uint256","name":"_poolId","type":"uint256"},{"internalType":"address","name":"_user","type":"address"}],"name":"pendingReward","outputs":[{"internalType":"uint256","name":"","type":"uint256"},{"internalType":"uint256","name":"","type":"uint256"}],"stateMutability":"view","type":"function"},{"inputs":[{"internalType":"uint256","name":"","type":"uint256"}],"name":"poolInfo","outputs":[{"internalType":"contract IERC20","name":"token","type":"address"},{"internalType":"uint256","name":"catId","type":"uint256"},{"internalType":"uint256","name":"allocPoints","type":"uint256"},{"internalType":"uint256","name":"lastRewardTime","type":"uint256"},{"internalType":"uint256","name":"accZKHPerShare","type":"uint256"},{"internalType":"uint256","name":"depositFeeBP","type":"uint256"},{"internalType":"uint256","name":"harvestInterval","type":"uint256"}],"stateMutability":"view","type":"function"},{"inputs":[{"internalType":"uint256","name":"_catId","type":"uint256"}],"name":"poolsInCategory","outputs":[{"internalType":"uint256[]","name":"","type":"uint256[]"}],"stateMutability":"view","type":"function"},{"inputs":[],"name":"poolsLength","outputs":[{"internalType":"uint256","name":"","type":"uint256"}],"stateMutability":"view","type":"function"},{"inputs":[],"name":"renounceOwnership","outputs":[],"stateMutability":"nonpayable","type":"function"},{"inputs":[],"name":"rewardZKHPerSecond","outputs":[{"internalType":"uint256","name":"","type":"uint256"}],"stateMutability":"view","type":"function"},{"inputs":[],"name":"startTime","outputs":[{"internalType":"uint256","name":"","type":"uint256"}],"stateMutability":"view","type":"function"},{"inputs":[{"internalType":"address","name":"","type":"address"}],"name":"tokensAdded","outputs":[{"internalType":"uint256","name":"","type":"uint256"}],"stateMutability":"view","type":"function"},{"inputs":[],"name":"totalCatAllocPoints","outputs":[{"internalType":"uint256","name":"","type":"uint256"}],"stateMutability":"view","type":"function"},{"inputs":[{"internalType":"address","name":"newOwner","type":"address"}],"name":"transferOwnership","outputs":[],"stateMutability":"nonpayable","type":"function"},{"inputs":[],"name":"treasurer","outputs":[{"internalType":"contract ITreasurer","name":"","type":"address"}],"stateMutability":"view","type":"function"},{"inputs":[{"internalType":"address","name":"_newDev","type":"address"}],"name":"updateDev","outputs":[],"stateMutability":"nonpayable","type":"function"},{"inputs":[{"internalType":"bool","name":"_withUpdate","type":"bool"}],"name":"updateEndTime","outputs":[],"stateMutability":"nonpayable","type":"function"},{"inputs":[{"internalType":"address","name":"_newFeeCollector","type":"address"}],"name":"updateFeeCollector","outputs":[],"stateMutability":"nonpayable","type":"function"},{"inputs":[{"internalType":"uint256","name":"_poolId","type":"uint256"}],"name":"updatePool","outputs":[],"stateMutability":"nonpayable","type":"function"},{"inputs":[{"internalType":"uint256","name":"_newStartTime","type":"uint256"}],"name":"updateStartTime","outputs":[],"stateMutability":"nonpayable","type":"function"},{"inputs":[{"internalType":"uint256","name":"_newZKHPerSecond","type":"uint256"},{"internalType":"bool","name":"_withUpdate","type":"bool"}],"name":"updateZKHPerSecond","outputs":[],"stateMutability":"nonpayable","type":"function"},{"inputs":[{"internalType":"uint256","name":"","type":"uint256"},{"internalType":"address","name":"","type":"address"}],"name":"userInfo","outputs":[{"internalType":"uint256","name":"amount","type":"uint256"},{"internalType":"uint256","name":"rewardDebt","type":"uint256"},{"internalType":"uint256","name":"nextHarvestTime","type":"uint256"},{"internalType":"uint256","name":"lockedReward","type":"uint256"}],"stateMutability":"view","type":"function"},{"inputs":[{"internalType":"uint256","name":"_poolId","type":"uint256"},{"internalType":"uint256","name":"_amount","type":"uint256"}],"name":"withdraw","outputs":[],"stateMutability":"nonpayable","type":"function"},{"inputs":[],"name":"zkh","outputs":[{"internalType":"contract ZkHarvestToken","name":"","type":"address"}],"stateMutability":"view","type":"function"}],"evm":{"bytecode":{"linkReferences":{},"object":"60c060405260006004553480156200001657600080fd5b506040516200543e3803806200543e83398181016040528101906200003c9190620005ce565b6200005c62000050620003d360201b60201c565b620003db60201b60201c565b600180819055508573ffffffffffffffffffffffffffffffffffffffff1660808173ffffffffffffffffffffffffffffffffffffffff16815250508473ffffffffffffffffffffffffffffffffffffffff1660a08173ffffffffffffffffffffffffffffffffffffffff168152505067403fbf9e8bb284be82111562000119576040517f08c379a00000000000000000000000000000000000000000000000000000000081526004016200011090620006cb565b60405180910390fd5b600a826200012891906200074b565b600881905550600854826200013e919062000783565b600981905550600073ffffffffffffffffffffffffffffffffffffffff168473ffffffffffffffffffffffffffffffffffffffff1603620001b6576040517f08c379a0000000000000000000000000000000000000000000000000000000008152600401620001ad9062000834565b60405180910390fd5b83600a60006101000a81548173ffffffffffffffffffffffffffffffffffffffff021916908373ffffffffffffffffffffffffffffffffffffffff160217905550600073ffffffffffffffffffffffffffffffffffffffff168373ffffffffffffffffffffffffffffffffffffffff160362000269576040517f08c379a00000000000000000000000000000000000000000000000000000000081526004016200026090620008cc565b60405180910390fd5b82600b60006101000a81548173ffffffffffffffffffffffffffffffffffffffff021916908373ffffffffffffffffffffffffffffffffffffffff16021790555080600c8190555042600c541015620002c45742600c819055505b818673ffffffffffffffffffffffffffffffffffffffff1663a2309ff86040518163ffffffff1660e01b8152600401602060405180830381865afa15801562000311573d6000803e3d6000fd5b505050506040513d601f19601f82011682018060405250810190620003379190620008ee565b8773ffffffffffffffffffffffffffffffffffffffff1663d5abeb016040518163ffffffff1660e01b8152600401602060405180830381865afa15801562000383573d6000803e3d6000fd5b505050506040513d601f19601f82011682018060405250810190620003a99190620008ee565b620003b5919062000783565b620003c191906200074b565b600d8190555050505050505062000920565b600033905090565b60008060009054906101000a900473ffffffffffffffffffffffffffffffffffffffff169050816000806101000a81548173ffffffffffffffffffffffffffffffffffffffff021916908373ffffffffffffffffffffffffffffffffffffffff1602179055508173ffffffffffffffffffffffffffffffffffffffff168173ffffffffffffffffffffffffffffffffffffffff167f8be0079c531659141344cd1fd0a4f28419497f9722a3daafe3b4186f6b6457e060405160405180910390a35050565b600080fd5b600073ffffffffffffffffffffffffffffffffffffffff82169050919050565b6000620004d182620004a4565b9050919050565b6000620004e582620004c4565b9050919050565b620004f781620004d8565b81146200050357600080fd5b50565b6000815190506200051781620004ec565b92915050565b60006200052a82620004c4565b9050919050565b6200053c816200051d565b81146200054857600080fd5b50565b6000815190506200055c8162000531565b92915050565b6200056d81620004c4565b81146200057957600080fd5b50565b6000815190506200058d8162000562565b92915050565b6000819050919050565b620005a88162000593565b8114620005b457600080fd5b50565b600081519050620005c8816200059d565b92915050565b60008060008060008060c08789031215620005ee57620005ed6200049f565b5b6000620005fe89828a0162000506565b96505060206200061189828a016200054b565b95505060406200062489828a016200057c565b94505060606200063789828a016200057c565b93505060806200064a89828a01620005b7565b92505060a06200065d89828a01620005b7565b9150509295509295509295565b600082825260208201905092915050565b7f5a6b486172766573743a20746f6f2068696768205a4b48207265776172640000600082015250565b6000620006b3601e836200066a565b9150620006c0826200067b565b602082019050919050565b60006020820190508181036000830152620006e681620006a4565b9050919050565b7f4e487b7100000000000000000000000000000000000000000000000000000000600052601260045260246000fd5b7f4e487b7100000000000000000000000000000000000000000000000000000000600052601160045260246000fd5b6000620007588262000593565b9150620007658362000593565b925082620007785762000777620006ed565b5b828204905092915050565b6000620007908262000593565b91506200079d8362000593565b9250828203905081811115620007b857620007b76200071c565b5b92915050565b7f5a6b48617276657374204465763a206e756c6c2061646472657373206e6f742060008201527f7065726d69747465640000000000000000000000000000000000000000000000602082015250565b60006200081c6029836200066a565b91506200082982620007be565b604082019050919050565b600060208201905081810360008301526200084f816200080d565b9050919050565b7f5a6b486172766573742046656520436f6c6c6563746f723a206e756c6c20616460008201527f6472657373206e6f74207065726d697474656400000000000000000000000000602082015250565b6000620008b46033836200066a565b9150620008c18262000856565b604082019050919050565b60006020820190508181036000830152620008e781620008a5565b9050919050565b6000602082840312156200090757620009066200049f565b5b60006200091784828501620005b7565b91505092915050565b60805160a051614ac7620009776000396000818161145b0152818161270001526129230152600081816113320152818161141f015281816114cd0152818161217801528181612a7a0152612b090152614ac76000f3fe608060405234801561001057600080fd5b50600436106102695760003560e01c806366b0d80d1161015157806393f1a40b116100c3578063c415b95c11610087578063c415b95c14610722578063d2c35ce814610740578063e2bbb1581461075c578063ec7dccb414610778578063f2fde38b146107a8578063fda49eb4146107c457610269565b806393f1a40b1461064057806398969e8214610673578063ab806935146106a4578063aee1198b146106d4578063bbab0f64146106f257610269565b80637a10c5d2116101155780637a10c5d21461057c57806383ab85ff1461059a5780638da5cb5b146105b85780638dbb1e3a146105d657806391cca3db14610606578063934c19381461062457610269565b806366b0d80d146104e8578063715018a61461051a57806373661e691461052457806375c7fbc21461054257806378e979251461055e57610269565b8063441a3e70116101ea57806351eb05a6116101ae57806351eb05a6146104505780635312ea8e1461046c5780635b647eb0146104885780635f5552ea146104a45780636245f148146104c0578063630b5ba1146104de57610269565b8063441a3e70146103c057806344ea8a37146103dc5780634633ec52146103f85780634e2f9bea1461041457806351453f9d1461043257610269565b8063277c95f611610231578063277c95f61461031a5780632c7192d8146103385780632e6c998d146103545780633197cbb61461038457806337caa6e7146103a257610269565b806306bcf02f1461026e5780630c7d67631461028a5780630d15e044146102a85780631526fe27146102c65780632716ae66146102fc575b600080fd5b61028860048036038101906102839190612fee565b6107e2565b005b6102926108c2565b60405161029f919061302a565b60405180910390f35b6102b06108c8565b6040516102bd919061302a565b60405180910390f35b6102e060048036038101906102db9190612fee565b6108cf565b6040516102f397969594939291906130c4565b60405180910390f35b610304610941565b604051610311919061302a565b60405180910390f35b61032261094e565b60405161032f919061302a565b60405180910390f35b610352600480360381019061034d919061316b565b610954565b005b61036e60048036038101906103699190613224565b610c34565b60405161037b9190613273565b60405180910390f35b61038c610c95565b604051610399919061302a565b60405180910390f35b6103aa610cac565b6040516103b7919061302a565b60405180910390f35b6103da60048036038101906103d5919061328e565b610cb2565b005b6103f660048036038101906103f19190613333565b610e8d565b005b610412600480360381019061040d91906133a7565b610fdc565b005b61041c6110e6565b604051610429919061302a565b60405180910390f35b61043a6110ec565b604051610447919061302a565b60405180910390f35b61046a60048036038101906104659190612fee565b611115565b005b61048660048036038101906104819190612fee565b611584565b005b6104a2600480360381019061049d9190613438565b6116e1565b005b6104be60048036038101906104b991906134c5565b611a9b565b005b6104c8611b30565b6040516104d5919061302a565b60405180910390f35b6104e6611b47565b005b61050260048036038101906104fd9190612fee565b611b7c565b60405161051193929190613595565b60405180910390f35b610522611c3e565b005b61052c611c52565b604051610539919061302a565b60405180910390f35b61055c600480360381019061055791906135d3565b611c5f565b005b610566611c81565b604051610573919061302a565b60405180910390f35b610584611c87565b604051610591919061302a565b60405180910390f35b6105a2611c93565b6040516105af919061302a565b60405180910390f35b6105c0611c99565b6040516105cd919061360f565b60405180910390f35b6105f060048036038101906105eb919061328e565b611cc2565b6040516105fd919061302a565b60405180910390f35b61060e611d12565b60405161061b919061360f565b60405180910390f35b61063e6004803603810190610639919061362a565b611d38565b005b61065a60048036038101906106559190613224565b611e7b565b60405161066a9493929190613657565b60405180910390f35b61068d60048036038101906106889190613224565b611eb8565b60405161069b92919061369c565b60405180910390f35b6106be60048036038101906106b99190612fee565b61210b565b6040516106cb9190613783565b60405180910390f35b6106dc612176565b6040516106e991906137c6565b60405180910390f35b61070c6004803603810190610707919061362a565b61219a565b604051610719919061302a565b60405180910390f35b61072a6121b2565b604051610737919061360f565b60405180910390f35b61075a6004803603810190610755919061362a565b6121d8565b005b6107766004803603810190610771919061328e565b61231b565b005b610792600480360381019061078d919061328e565b61264a565b60405161079f919061302a565b60405180910390f35b6107c260048036038101906107bd919061362a565b61267b565b005b6107cc6126fe565b6040516107d99190613802565b60405180910390f35b6107ea612722565b600c54421061082e576040517f08c379a0000000000000000000000000000000000000000000000000000000008152600401610825906138b5565b60405180910390fd5b600060058054905014610876576040517f08c379a000000000000000000000000000000000000000000000000000000000815260040161086d9061396d565b60405180910390fd5b4281116108b8576040517f08c379a00000000000000000000000000000000000000000000000000000000081526004016108af906139ff565b60405180910390fd5b80600c8190555050565b600d5481565b6201518081565b600581815481106108df57600080fd5b90600052602060002090600702016000915090508060000160009054906101000a900473ffffffffffffffffffffffffffffffffffffffff16908060010154908060020154908060030154908060040154908060050154908060060154905087565b6000600580549050905090565b60045481565b61095c612722565b60058054905085106109a3576040517f08c379a000000000000000000000000000000000000000000000000000000000815260040161099a90613a6b565b60405180910390fd5b620151808211156109e9576040517f08c379a00000000000000000000000000000000000000000000000000000000081526004016109e090613afd565b60405180910390fd5b610190831115610a2e576040517f08c379a0000000000000000000000000000000000000000000000000000000008152600401610a2590613b69565b60405180910390fd5b8015610a3d57610a3c611b47565b5b600060058681548110610a5357610a52613b89565b5b90600052602060002090600702016001015490508460058781548110610a7c57610a7b613b89565b5b90600052602060002090600702016002015460028381548110610aa257610aa1613b89565b5b906000526020600020906003020160010154610abe9190613be7565b610ac89190613c1b565b60028281548110610adc57610adb613b89565b5b9060005260206000209060030201600101819055508460058781548110610b0657610b05613b89565b5b9060005260206000209060070201600201819055508360058781548110610b3057610b2f613b89565b5b9060005260206000209060070201600501819055508260058781548110610b5a57610b59613b89565b5b90600052602060002090600702016006018190555060058681548110610b8357610b82613b89565b5b90600052602060002090600702016001015460058781548110610ba957610ba8613b89565b5b906000526020600020906007020160000160009054906101000a900473ffffffffffffffffffffffffffffffffffffffff1673ffffffffffffffffffffffffffffffffffffffff167fd516bf05712248cfe5d9bb7e6016f2a8ae61c8cbda723aac3059cd9cbc173fde878787604051610c2493929190613c4f565b60405180910390a3505050505050565b60006007600084815260200190815260200160002060008373ffffffffffffffffffffffffffffffffffffffff1673ffffffffffffffffffffffffffffffffffffffff16815260200190815260200160002060020154421015905092915050565b6000600d54600c54610ca79190613c1b565b905090565b61019081565b610cba6127a0565b600060058381548110610cd057610ccf613b89565b5b9060005260206000209060070201905060006007600085815260200190815260200160002060003373ffffffffffffffffffffffffffffffffffffffff1673ffffffffffffffffffffffffffffffffffffffff16815260200190815260200160002090508281600001541015610d7b576040517f08c379a0000000000000000000000000000000000000000000000000000000008152600401610d7290613cd2565b60405180910390fd5b610d8484611115565b610d8d846127ef565b82816000016000828254610da19190613be7565b92505081905550670de0b6b3a764000082600401548260000154610dc59190613cf2565b610dcf9190613d63565b81600101819055506000831115610e3057610e2f33848460000160009054906101000a900473ffffffffffffffffffffffffffffffffffffffff1673ffffffffffffffffffffffffffffffffffffffff166129e19092919063ffffffff16565b5b833373ffffffffffffffffffffffffffffffffffffffff167ff279e6a1f5e320cca91135676d9cb6e44ca8a08c0b88342bcdb1144f6511b56885604051610e77919061302a565b60405180910390a35050610e89612a67565b5050565b610e95612722565b8015610ea457610ea3611b47565b5b8160046000828254610eb69190613c1b565b92505081905550600260405180606001604052808481526020016000815260200186868080601f016020809104026020016040519081016040528093929190818152602001838380828437600081840152601f19601f82011690508083019250505050505050815250908060018154018082558091505060019003906000526020600020906003020160009091909190915060008201518160000155602082015181600101556040820151816002019081610f719190613fc5565b5050508383604051610f849291906140d6565b60405180910390207f2693e3e53273a2771d7b42da08be41fadb0ab4b1043fb6b0d2c67883e708a48b6001600280549050610fbf9190613be7565b84604051610fce92919061369c565b60405180910390a250505050565b610fe4612722565b600280549050831061102b576040517f08c379a000000000000000000000000000000000000000000000000000000000815260040161102290614161565b60405180910390fd5b801561103a57611039611b47565b5b816002848154811061104f5761104e613b89565b5b90600052602060002090600302016000015460045461106e9190613be7565b6110789190613c1b565b600481905550816002848154811061109357611092613b89565b5b9060005260206000209060030201600001819055507f4db1ff07b777d5d3cb772fbe3aac7d1db9eee1c30cb9edeb557b329989e5b7e783836040516110d992919061369c565b60405180910390a1505050565b60095481565b6000600c5442111561110d57600c54426111069190613be7565b9050611112565b600090505b90565b60006005828154811061112b5761112a613b89565b5b90600052602060002090600702019050806003015442111580611152575060008160020154145b8061118657506000600282600101548154811061117257611171613b89565b5b906000526020600020906003020160000154145b156111915750611581565b60006111a1826003015442611cc2565b9050600081036111bb574282600301819055505050611581565b60008260000160009054906101000a900473ffffffffffffffffffffffffffffffffffffffff1673ffffffffffffffffffffffffffffffffffffffff166370a08231306040518263ffffffff1660e01b815260040161121a919061360f565b602060405180830381865afa158015611237573d6000803e3d6000fd5b505050506040513d601f19601f8201168201806040525081019061125b9190614196565b90506000600284600101548154811061127757611276613b89565b5b906000526020600020906003020190506000600454826000015483600101548760020154600954886112a99190613cf2565b6112b39190613cf2565b6112bd9190613d63565b6112c79190613cf2565b6112d19190613d63565b90506000600454836000015484600101548860020154600854896112f59190613cf2565b6112ff9190613cf2565b6113099190613d63565b6113139190613cf2565b61131d9190613d63565b9050428660030181905550600084036113e4577f000000000000000000000000000000000000000000000000000000000000000073ffffffffffffffffffffffffffffffffffffffff166340c10f19600a60009054906101000a900473ffffffffffffffffffffffffffffffffffffffff16846040518363ffffffff1660e01b81526004016113ad9291906141c3565b600060405180830381600087803b1580156113c757600080fd5b505af11580156113db573d6000803e3d6000fd5b505050506114cb565b83670de0b6b3a7640000836113f99190613cf2565b6114039190613d63565b8660040160008282546114169190613c1b565b925050819055507f000000000000000000000000000000000000000000000000000000000000000073ffffffffffffffffffffffffffffffffffffffff166340c10f197f0000000000000000000000000000000000000000000000000000000000000000846040518363ffffffff1660e01b81526004016114989291906141c3565b600060405180830381600087803b1580156114b257600080fd5b505af11580156114c6573d6000803e3d6000fd5b505050505b7f000000000000000000000000000000000000000000000000000000000000000073ffffffffffffffffffffffffffffffffffffffff166340c10f19600a60009054906101000a900473ffffffffffffffffffffffffffffffffffffffff16836040518363ffffffff1660e01b81526004016115489291906141c3565b600060405180830381600087803b15801561156257600080fd5b505af1158015611576573d6000803e3d6000fd5b505050505050505050505b50565b61158c6127a0565b6000600582815481106115a2576115a1613b89565b5b9060005260206000209060070201905060006007600084815260200190815260200160002060003373ffffffffffffffffffffffffffffffffffffffff1673ffffffffffffffffffffffffffffffffffffffff16815260200190815260200160002090506116593382600001548460000160009054906101000a900473ffffffffffffffffffffffffffffffffffffffff1673ffffffffffffffffffffffffffffffffffffffff166129e19092919063ffffffff16565b823373ffffffffffffffffffffffffffffffffffffffff167fbb757047c2b5f3974fe26b7c10f732e7bce710b0952a71082702781e62ae059583600001546040516116a4919061302a565b60405180910390a36000816000018190555060008160010181905550600081600301819055506000816002018190555050506116de612a67565b50565b6116e9612722565b6002805490508610611730576040517f08c379a000000000000000000000000000000000000000000000000000000000815260040161172790614161565b60405180910390fd5b62015180821115611776576040517f08c379a000000000000000000000000000000000000000000000000000000000815260040161176d90613afd565b60405180910390fd5b6101908311156117bb576040517f08c379a00000000000000000000000000000000000000000000000000000000081526004016117b290613b69565b60405180910390fd5b60008590506000600660008373ffffffffffffffffffffffffffffffffffffffff1673ffffffffffffffffffffffffffffffffffffffff1681526020019081526020016000205414611842576040517f08c379a00000000000000000000000000000000000000000000000000000000081526004016118399061425e565b60405180910390fd5b811561185157611850611b47565b5b6000600c54421161186457600c54611866565b425b9050856002898154811061187d5761187c613b89565b5b9060005260206000209060030201600101600082825461189d9190613c1b565b9250508190555060016005805490506118b69190613c1b565b600660008473ffffffffffffffffffffffffffffffffffffffff1673ffffffffffffffffffffffffffffffffffffffff1681526020019081526020016000208190555060056040518060e001604052808973ffffffffffffffffffffffffffffffffffffffff1681526020018a81526020018881526020018381526020016000815260200187815260200186815250908060018154018082558091505060019003906000526020600020906007020160009091909190915060008201518160000160006101000a81548173ffffffffffffffffffffffffffffffffffffffff021916908373ffffffffffffffffffffffffffffffffffffffff1602179055506020820151816001015560408201518160020155606082015181600301556080820151816004015560a0820151816005015560c082015181600601555050600360008981526020019081526020016000206001600580549050611a189190613be7565b9080600181540180825580915050600190039060005260206000200160009091909190915055878273ffffffffffffffffffffffffffffffffffffffff167f075a2211ef19062dfbd74d88bb38de002cee015815ad5b453fb3c903947b8151888888604051611a8993929190613c4f565b60405180910390a35050505050505050565b611aa3612722565b67403fbf9e8bb284be821115611aee576040517f08c379a0000000000000000000000000000000000000000000000000000000008152600401611ae5906142ca565b60405180910390fd5b8015611afd57611afc611b47565b5b600a82611b0a9190613d63565b60088190555060085482611b1e9190613be7565b600981905550611b2c612a70565b5050565b6000600954600854611b429190613c1b565b905090565b6000600580549050905060005b81811015611b7857611b6581611115565b8080611b70906142ea565b915050611b54565b5050565b60028181548110611b8c57600080fd5b9060005260206000209060030201600091509050806000015490806001015490806002018054611bbb90613df2565b80601f0160208091040260200160405190810160405280929190818152602001828054611be790613df2565b8015611c345780601f10611c0957610100808354040283529160200191611c34565b820191906000526020600020905b815481529060010190602001808311611c1757829003601f168201915b5050505050905083565b611c46612722565b611c506000612bc4565b565b6000600280549050905090565b611c67612722565b8015611c7657611c75611b47565b5b611c7e612a70565b50565b600c5481565b67403fbf9e8bb284be81565b60085481565b60008060009054906101000a900473ffffffffffffffffffffffffffffffffffffffff16905090565b600080611ccd610c95565b9050808410611ce0576000915050611d0c565b80831115611cfc578381611cf49190613be7565b915050611d0c565b8383611d089190613be7565b9150505b92915050565b600a60009054906101000a900473ffffffffffffffffffffffffffffffffffffffff1681565b600a60009054906101000a900473ffffffffffffffffffffffffffffffffffffffff1673ffffffffffffffffffffffffffffffffffffffff163373ffffffffffffffffffffffffffffffffffffffff1614611dc8576040517f08c379a0000000000000000000000000000000000000000000000000000000008152600401611dbf906143a4565b60405180910390fd5b600073ffffffffffffffffffffffffffffffffffffffff168173ffffffffffffffffffffffffffffffffffffffff1603611e37576040517f08c379a0000000000000000000000000000000000000000000000000000000008152600401611e2e90614436565b60405180910390fd5b80600a60006101000a81548173ffffffffffffffffffffffffffffffffffffffff021916908373ffffffffffffffffffffffffffffffffffffffff16021790555050565b6007602052816000526040600020602052806000526040600020600091509150508060000154908060010154908060020154908060030154905084565b600080600060058581548110611ed157611ed0613b89565b5b9060005260206000209060070201905060006007600087815260200190815260200160002060008673ffffffffffffffffffffffffffffffffffffffff1673ffffffffffffffffffffffffffffffffffffffff168152602001908152602001600020905060006002836001015481548110611f4f57611f4e613b89565b5b9060005260206000209060030201905060008360040154905060008460000160009054906101000a900473ffffffffffffffffffffffffffffffffffffffff1673ffffffffffffffffffffffffffffffffffffffff166370a08231306040518263ffffffff1660e01b8152600401611fc7919061360f565b602060405180830381865afa158015611fe4573d6000803e3d6000fd5b505050506040513d601f19601f820116820180604052508101906120089190614196565b905084600301544211801561201e575060008114155b156120b9576000612033866003015442611cc2565b9050600081146120b75760006004548560000154866001015489600201546009548661205f9190613cf2565b6120699190613cf2565b6120739190613d63565b61207d9190613cf2565b6120879190613d63565b905082670de0b6b3a76400008261209e9190613cf2565b6120a89190613d63565b846120b39190613c1b565b9350505b505b83600301548460010154670de0b6b3a76400008487600001546120dc9190613cf2565b6120e69190613d63565b6120f09190613be7565b6120fa9190613c1b565b429650965050505050509250929050565b60606003600083815260200190815260200160002080548060200260200160405190810160405280929190818152602001828054801561216a57602002820191906000526020600020905b815481526020019060010190808311612156575b50505050509050919050565b7f000000000000000000000000000000000000000000000000000000000000000081565b60066020528060005260406000206000915090505481565b600b60009054906101000a900473ffffffffffffffffffffffffffffffffffffffff1681565b600b60009054906101000a900473ffffffffffffffffffffffffffffffffffffffff1673ffffffffffffffffffffffffffffffffffffffff163373ffffffffffffffffffffffffffffffffffffffff1614612268576040517f08c379a000000000000000000000000000000000000000000000000000000000815260040161225f906144c8565b60405180910390fd5b600073ffffffffffffffffffffffffffffffffffffffff168173ffffffffffffffffffffffffffffffffffffffff16036122d7576040517f08c379a00000000000000000000000000000000000000000000000000000000081526004016122ce9061455a565b60405180910390fd5b80600b60006101000a81548173ffffffffffffffffffffffffffffffffffffffff021916908373ffffffffffffffffffffffffffffffffffffffff16021790555050565b6123236127a0565b60006005838154811061233957612338613b89565b5b906000526020600020906007020190506000816002015403612390576040517f08c379a0000000000000000000000000000000000000000000000000000000008152600401612387906145ec565b60405180910390fd5b600060028260010154815481106123aa576123a9613b89565b5b906000526020600020906003020160000154036123fc576040517f08c379a00000000000000000000000000000000000000000000000000000000081526004016123f39061467e565b60405180910390fd5b60006007600085815260200190815260200160002060003373ffffffffffffffffffffffffffffffffffffffff1673ffffffffffffffffffffffffffffffffffffffff168152602001908152602001600020905061245984611115565b612462846127ef565b60006127108360050154856124779190613cf2565b6124819190613d63565b905060008411156125bb576124dd3330868660000160009054906101000a900473ffffffffffffffffffffffffffffffffffffffff1673ffffffffffffffffffffffffffffffffffffffff16612c88909392919063ffffffff16565b6000836005015411156125865761255b600b60009054906101000a900473ffffffffffffffffffffffffffffffffffffffff16828560000160009054906101000a900473ffffffffffffffffffffffffffffffffffffffff1673ffffffffffffffffffffffffffffffffffffffff166129e19092919063ffffffff16565b80846125679190613be7565b82600001600082825461257a9190613c1b565b925050819055506125a2565b8382600001600082825461259a9190613c1b565b925050819055505b8260060154426125b29190613c1b565b82600201819055505b670de0b6b3a7640000836004015483600001546125d89190613cf2565b6125e29190613d63565b8260010181905550843373ffffffffffffffffffffffffffffffffffffffff167f36af321ec8d3c75236829c5317affd40ddb308863a1236d2d277a4025cccee1e868460405161263392919061369c565b60405180910390a3505050612646612a67565b5050565b6003602052816000526040600020818154811061266657600080fd5b90600052602060002001600091509150505481565b612683612722565b600073ffffffffffffffffffffffffffffffffffffffff168173ffffffffffffffffffffffffffffffffffffffff16036126f2576040517f08c379a00000000000000000000000000000000000000000000000000000000081526004016126e990614710565b60405180910390fd5b6126fb81612bc4565b50565b7f000000000000000000000000000000000000000000000000000000000000000081565b61272a612d11565b73ffffffffffffffffffffffffffffffffffffffff16612748611c99565b73ffffffffffffffffffffffffffffffffffffffff161461279e576040517f08c379a00000000000000000000000000000000000000000000000000000000081526004016127959061477c565b60405180910390fd5b565b6002600154036127e5576040517f08c379a00000000000000000000000000000000000000000000000000000000081526004016127dc906147e8565b60405180910390fd5b6002600181905550565b60006005828154811061280557612804613b89565b5b9060005260206000209060070201905060006007600084815260200190815260200160002060003373ffffffffffffffffffffffffffffffffffffffff1673ffffffffffffffffffffffffffffffffffffffff1681526020019081526020016000209050600081600201540361288e578160060154426128859190613c1b565b81600201819055505b60008160010154670de0b6b3a7640000846004015484600001546128b29190613cf2565b6128bc9190613d63565b6128c69190613be7565b9050816002015442106129b55760008111806128e6575060008260030154115b156129b05760008260030154826128fd9190613c1b565b9050600083600301819055508360060154426129199190613c1b565b83600201819055507f000000000000000000000000000000000000000000000000000000000000000073ffffffffffffffffffffffffffffffffffffffff1663e4e103dc33836040518363ffffffff1660e01b815260040161297c9291906141c3565b600060405180830381600087803b15801561299657600080fd5b505af11580156129aa573d6000803e3d6000fd5b50505050505b6129db565b60008111156129da57808260030160008282546129d29190613c1b565b925050819055505b5b50505050565b612a628363a9059cbb60e01b8484604051602401612a009291906141c3565b604051602081830303815290604052907bffffffffffffffffffffffffffffffffffffffffffffffffffffffff19166020820180517bffffffffffffffffffffffffffffffffffffffffffffffffffffffff8381831617835250505050612d19565b505050565b60018081905550565b612a78611b30565b7f000000000000000000000000000000000000000000000000000000000000000073ffffffffffffffffffffffffffffffffffffffff1663a2309ff86040518163ffffffff1660e01b8152600401602060405180830381865afa158015612ae3573d6000803e3d6000fd5b505050506040513d601f19601f82011682018060405250810190612b079190614196565b7f000000000000000000000000000000000000000000000000000000000000000073ffffffffffffffffffffffffffffffffffffffff1663d5abeb016040518163ffffffff1660e01b8152600401602060405180830381865afa158015612b72573d6000803e3d6000fd5b505050506040513d601f19601f82011682018060405250810190612b969190614196565b612ba09190613be7565b612baa9190613d63565b612bb26110ec565b612bbc9190613c1b565b600d81905550565b60008060009054906101000a900473ffffffffffffffffffffffffffffffffffffffff169050816000806101000a81548173ffffffffffffffffffffffffffffffffffffffff021916908373ffffffffffffffffffffffffffffffffffffffff1602179055508173ffffffffffffffffffffffffffffffffffffffff168173ffffffffffffffffffffffffffffffffffffffff167f8be0079c531659141344cd1fd0a4f28419497f9722a3daafe3b4186f6b6457e060405160405180910390a35050565b612d0b846323b872dd60e01b858585604051602401612ca993929190614808565b604051602081830303815290604052907bffffffffffffffffffffffffffffffffffffffffffffffffffffffff19166020820180517bffffffffffffffffffffffffffffffffffffffffffffffffffffffff8381831617835250505050612d19565b50505050565b600033905090565b6000612d7b826040518060400160405280602081526020017f5361666545524332303a206c6f772d6c6576656c2063616c6c206661696c65648152508573ffffffffffffffffffffffffffffffffffffffff16612de19092919063ffffffff16565b9050600081511480612d9d575080806020019051810190612d9c9190614854565b5b612ddc576040517f08c379a0000000000000000000000000000000000000000000000000000000008152600401612dd3906148f3565b60405180910390fd5b505050565b6060612df08484600085612df9565b90509392505050565b606082471015612e3e576040517f08c379a0000000000000000000000000000000000000000000000000000000008152600401612e3590614985565b60405180910390fd5b6000808673ffffffffffffffffffffffffffffffffffffffff168587604051612e6791906149ec565b60006040518083038185875af1925050503d8060008114612ea4576040519150601f19603f3d011682016040523d82523d6000602084013e612ea9565b606091505b5091509150612eba87838387612ec6565b92505050949350505050565b60608315612f28576000835103612f2057612ee085612f3b565b612f1f576040517f08c379a0000000000000000000000000000000000000000000000000000000008152600401612f1690614a4f565b60405180910390fd5b5b829050612f33565b612f328383612f5e565b5b949350505050565b6000808273ffffffffffffffffffffffffffffffffffffffff163b119050919050565b600082511115612f715781518083602001fd5b806040517f08c379a0000000000000000000000000000000000000000000000000000000008152600401612fa59190614a6f565b60405180910390fd5b600080fd5b600080fd5b6000819050919050565b612fcb81612fb8565b8114612fd657600080fd5b50565b600081359050612fe881612fc2565b92915050565b60006020828403121561300457613003612fae565b5b600061301284828501612fd9565b91505092915050565b61302481612fb8565b82525050565b600060208201905061303f600083018461301b565b92915050565b600073ffffffffffffffffffffffffffffffffffffffff82169050919050565b6000819050919050565b600061308a61308561308084613045565b613065565b613045565b9050919050565b600061309c8261306f565b9050919050565b60006130ae82613091565b9050919050565b6130be816130a3565b82525050565b600060e0820190506130d9600083018a6130b5565b6130e6602083018961301b565b6130f3604083018861301b565b613100606083018761301b565b61310d608083018661301b565b61311a60a083018561301b565b61312760c083018461301b565b98975050505050505050565b60008115159050919050565b61314881613133565b811461315357600080fd5b50565b6000813590506131658161313f565b92915050565b600080600080600060a0868803121561318757613186612fae565b5b600061319588828901612fd9565b95505060206131a688828901612fd9565b94505060406131b788828901612fd9565b93505060606131c888828901612fd9565b92505060806131d988828901613156565b9150509295509295909350565b60006131f182613045565b9050919050565b613201816131e6565b811461320c57600080fd5b50565b60008135905061321e816131f8565b92915050565b6000806040838503121561323b5761323a612fae565b5b600061324985828601612fd9565b925050602061325a8582860161320f565b9150509250929050565b61326d81613133565b82525050565b60006020820190506132886000830184613264565b92915050565b600080604083850312156132a5576132a4612fae565b5b60006132b385828601612fd9565b92505060206132c485828601612fd9565b9150509250929050565b600080fd5b600080fd5b600080fd5b60008083601f8401126132f3576132f26132ce565b5b8235905067ffffffffffffffff8111156133105761330f6132d3565b5b60208301915083600182028301111561332c5761332b6132d8565b5b9250929050565b6000806000806060858703121561334d5761334c612fae565b5b600085013567ffffffffffffffff81111561336b5761336a612fb3565b5b613377878288016132dd565b9450945050602061338a87828801612fd9565b925050604061339b87828801613156565b91505092959194509250565b6000806000606084860312156133c0576133bf612fae565b5b60006133ce86828701612fd9565b93505060206133df86828701612fd9565b92505060406133f086828701613156565b9150509250925092565b6000613405826131e6565b9050919050565b613415816133fa565b811461342057600080fd5b50565b6000813590506134328161340c565b92915050565b60008060008060008060c0878903121561345557613454612fae565b5b600061346389828a01612fd9565b965050602061347489828a01613423565b955050604061348589828a01612fd9565b945050606061349689828a01612fd9565b93505060806134a789828a01612fd9565b92505060a06134b889828a01613156565b9150509295509295509295565b600080604083850312156134dc576134db612fae565b5b60006134ea85828601612fd9565b92505060206134fb85828601613156565b9150509250929050565b600081519050919050565b600082825260208201905092915050565b60005b8381101561353f578082015181840152602081019050613524565b60008484015250505050565b6000601f19601f8301169050919050565b600061356782613505565b6135718185613510565b9350613581818560208601613521565b61358a8161354b565b840191505092915050565b60006060820190506135aa600083018661301b565b6135b7602083018561301b565b81810360408301526135c9818461355c565b9050949350505050565b6000602082840312156135e9576135e8612fae565b5b60006135f784828501613156565b91505092915050565b613609816131e6565b82525050565b60006020820190506136246000830184613600565b92915050565b6000602082840312156136405761363f612fae565b5b600061364e8482850161320f565b91505092915050565b600060808201905061366c600083018761301b565b613679602083018661301b565b613686604083018561301b565b613693606083018461301b565b95945050505050565b60006040820190506136b1600083018561301b565b6136be602083018461301b565b9392505050565b600081519050919050565b600082825260208201905092915050565b6000819050602082019050919050565b6136fa81612fb8565b82525050565b600061370c83836136f1565b60208301905092915050565b6000602082019050919050565b6000613730826136c5565b61373a81856136d0565b9350613745836136e1565b8060005b8381101561377657815161375d8882613700565b975061376883613718565b925050600181019050613749565b5085935050505092915050565b6000602082019050818103600083015261379d8184613725565b905092915050565b60006137b082613091565b9050919050565b6137c0816137a5565b82525050565b60006020820190506137db60008301846137b7565b92915050565b60006137ec82613091565b9050919050565b6137fc816137e1565b82525050565b600060208201905061381760008301846137f3565b92915050565b7f5a6b486172766573743a2043616e6e6f74206368616e6765207374617274546960008201527f6d65206166746572206661726d696e672068617320616c72656164792073746160208201527f727465642e000000000000000000000000000000000000000000000000000000604082015250565b600061389f604583613510565b91506138aa8261381d565b606082019050919050565b600060208201905081810360008301526138ce81613892565b9050919050565b7f5a6b486172766573743a2043616e6e6f74206368616e6765207374617274546960008201527f6d65206166746572206120706f6f6c20686173206265656e207265676973746560208201527f7265642e00000000000000000000000000000000000000000000000000000000604082015250565b6000613957604483613510565b9150613962826138d5565b606082019050919050565b600060208201905081810360008301526139868161394a565b9050919050565b7f5a6b486172766573743a2043616e6e6f74206368616e6765207374617274546960008201527f6d652077697468206120706173742074696d657374616d702e00000000000000602082015250565b60006139e9603983613510565b91506139f48261398d565b604082019050919050565b60006020820190508181036000830152613a18816139dc565b9050919050565b7f5a6b486172766573743a20706f6f6c20646f6573206e6f742065786973740000600082015250565b6000613a55601e83613510565b9150613a6082613a1f565b602082019050919050565b60006020820190508181036000830152613a8481613a48565b9050919050565b7f5a6b486172766573743a20746f6f2068696768206861727665737420696e746560008201527f7276616c00000000000000000000000000000000000000000000000000000000602082015250565b6000613ae7602483613510565b9150613af282613a8b565b604082019050919050565b60006020820190508181036000830152613b1681613ada565b9050919050565b7f5a6b486172766573743a20746f6f2068696768206465706f7369742066656500600082015250565b6000613b53601f83613510565b9150613b5e82613b1d565b602082019050919050565b60006020820190508181036000830152613b8281613b46565b9050919050565b7f4e487b7100000000000000000000000000000000000000000000000000000000600052603260045260246000fd5b7f4e487b7100000000000000000000000000000000000000000000000000000000600052601160045260246000fd5b6000613bf282612fb8565b9150613bfd83612fb8565b9250828203905081811115613c1557613c14613bb8565b5b92915050565b6000613c2682612fb8565b9150613c3183612fb8565b9250828201905080821115613c4957613c48613bb8565b5b92915050565b6000606082019050613c64600083018661301b565b613c71602083018561301b565b613c7e604083018461301b565b949350505050565b7f5a6b486172766573743a20626164207769746864726177616c00000000000000600082015250565b6000613cbc601983613510565b9150613cc782613c86565b602082019050919050565b60006020820190508181036000830152613ceb81613caf565b9050919050565b6000613cfd82612fb8565b9150613d0883612fb8565b9250828202613d1681612fb8565b91508282048414831517613d2d57613d2c613bb8565b5b5092915050565b7f4e487b7100000000000000000000000000000000000000000000000000000000600052601260045260246000fd5b6000613d6e82612fb8565b9150613d7983612fb8565b925082613d8957613d88613d34565b5b828204905092915050565b7f4e487b7100000000000000000000000000000000000000000000000000000000600052604160045260246000fd5b7f4e487b7100000000000000000000000000000000000000000000000000000000600052602260045260246000fd5b60006002820490506001821680613e0a57607f821691505b602082108103613e1d57613e1c613dc3565b5b50919050565b60008190508160005260206000209050919050565b60006020601f8301049050919050565b600082821b905092915050565b600060088302613e857fffffffffffffffffffffffffffffffffffffffffffffffffffffffffffffffff82613e48565b613e8f8683613e48565b95508019841693508086168417925050509392505050565b6000613ec2613ebd613eb884612fb8565b613065565b612fb8565b9050919050565b6000819050919050565b613edc83613ea7565b613ef0613ee882613ec9565b848454613e55565b825550505050565b600090565b613f05613ef8565b613f10818484613ed3565b505050565b5b81811015613f3457613f29600082613efd565b600181019050613f16565b5050565b601f821115613f7957613f4a81613e23565b613f5384613e38565b81016020851015613f62578190505b613f76613f6e85613e38565b830182613f15565b50505b505050565b600082821c905092915050565b6000613f9c60001984600802613f7e565b1980831691505092915050565b6000613fb58383613f8b565b9150826002028217905092915050565b613fce82613505565b67ffffffffffffffff811115613fe757613fe6613d94565b5b613ff18254613df2565b613ffc828285613f38565b600060209050601f83116001811461402f576000841561401d578287015190505b6140278582613fa9565b86555061408f565b601f19841661403d86613e23565b60005b8281101561406557848901518255600182019150602085019450602081019050614040565b86831015614082578489015161407e601f891682613f8b565b8355505b6001600288020188555050505b505050505050565b600081905092915050565b82818337600083830152505050565b60006140bd8385614097565b93506140ca8385846140a2565b82840190509392505050565b60006140e38284866140b1565b91508190509392505050565b7f5a6b486172766573743a2063617465676f727920646f6573206e6f742065786960008201527f7374000000000000000000000000000000000000000000000000000000000000602082015250565b600061414b602283613510565b9150614156826140ef565b604082019050919050565b6000602082019050818103600083015261417a8161413e565b9050919050565b60008151905061419081612fc2565b92915050565b6000602082840312156141ac576141ab612fae565b5b60006141ba84828501614181565b91505092915050565b60006040820190506141d86000830185613600565b6141e5602083018461301b565b9392505050565b7f5a6b486172766573743a20746f6b656e20616c7265616479207265676973746560008201527f7265640000000000000000000000000000000000000000000000000000000000602082015250565b6000614248602383613510565b9150614253826141ec565b604082019050919050565b600060208201905081810360008301526142778161423b565b9050919050565b7f5a6b486172766573743a20746f6f2068696768205a4b48207265776172640000600082015250565b60006142b4601e83613510565b91506142bf8261427e565b602082019050919050565b600060208201905081810360008301526142e3816142a7565b9050919050565b60006142f582612fb8565b91507fffffffffffffffffffffffffffffffffffffffffffffffffffffffffffffffff820361432757614326613bb8565b5b600182019050919050565b7f5a6b48617276657374204465763a2063616c6c6572206973206e6f742074686560008201527f2064657600000000000000000000000000000000000000000000000000000000602082015250565b600061438e602483613510565b915061439982614332565b604082019050919050565b600060208201905081810360008301526143bd81614381565b9050919050565b7f5a6b48617276657374204465763a206e756c6c2061646472657373206e6f742060008201527f7065726d69747465640000000000000000000000000000000000000000000000602082015250565b6000614420602983613510565b915061442b826143c4565b604082019050919050565b6000602082019050818103600083015261444f81614413565b9050919050565b7f5a6b486172766573742046656520436f6c6c6563746f723a2063616c6c65722060008201527f6973206e6f74207468652066656520636f6c6c6563746f720000000000000000602082015250565b60006144b2603883613510565b91506144bd82614456565b604082019050919050565b600060208201905081810360008301526144e1816144a5565b9050919050565b7f5a6b486172766573742046656520436f6c6c6563746f723a206e756c6c20616460008201527f6472657373206e6f74207065726d697474656400000000000000000000000000602082015250565b6000614544603383613510565b915061454f826144e8565b604082019050919050565b6000602082019050818103600083015261457381614537565b9050919050565b7f5a6b48617276657374204465706f7369743a20706f6f6c20697320646973616260008201527f6c65640000000000000000000000000000000000000000000000000000000000602082015250565b60006145d6602383613510565b91506145e18261457a565b604082019050919050565b60006020820190508181036000830152614605816145c9565b9050919050565b7f5a6b48617276657374204465706f7369743a2063617465676f7279206973206460008201527f697361626c656400000000000000000000000000000000000000000000000000602082015250565b6000614668602783613510565b91506146738261460c565b604082019050919050565b600060208201905081810360008301526146978161465b565b9050919050565b7f4f776e61626c653a206e6577206f776e657220697320746865207a65726f206160008201527f6464726573730000000000000000000000000000000000000000000000000000602082015250565b60006146fa602683613510565b91506147058261469e565b604082019050919050565b60006020820190508181036000830152614729816146ed565b9050919050565b7f4f776e61626c653a2063616c6c6572206973206e6f7420746865206f776e6572600082015250565b6000614766602083613510565b915061477182614730565b602082019050919050565b6000602082019050818103600083015261479581614759565b9050919050565b7f5265656e7472616e637947756172643a207265656e7472616e742063616c6c00600082015250565b60006147d2601f83613510565b91506147dd8261479c565b602082019050919050565b60006020820190508181036000830152614801816147c5565b9050919050565b600060608201905061481d6000830186613600565b61482a6020830185613600565b614837604083018461301b565b949350505050565b60008151905061484e8161313f565b92915050565b60006020828403121561486a57614869612fae565b5b60006148788482850161483f565b91505092915050565b7f5361666545524332303a204552433230206f7065726174696f6e20646964206e60008201527f6f74207375636365656400000000000000000000000000000000000000000000602082015250565b60006148dd602a83613510565b91506148e882614881565b604082019050919050565b6000602082019050818103600083015261490c816148d0565b9050919050565b7f416464726573733a20696e73756666696369656e742062616c616e636520666f60008201527f722063616c6c0000000000000000000000000000000000000000000000000000602082015250565b600061496f602683613510565b915061497a82614913565b604082019050919050565b6000602082019050818103600083015261499e81614962565b9050919050565b600081519050919050565b600081905092915050565b60006149c6826149a5565b6149d081856149b0565b93506149e0818560208601613521565b80840191505092915050565b60006149f882846149bb565b915081905092915050565b7f416464726573733a2063616c6c20746f206e6f6e2d636f6e7472616374000000600082015250565b6000614a39601d83613510565b9150614a4482614a03565b602082019050919050565b60006020820190508181036000830152614a6881614a2c565b9050919050565b60006020820190508181036000830152614a89818461355c565b90509291505056fea264697066735822122082aee1383c6b56c30e2efcb400a627c2d8ea9bf40afcee8846c104d2127d180264736f6c63430008120033","opcodes":"PUSH1 0xC0 PUSH1 0x40 MSTORE PUSH1 0x0 PUSH1 0x4 SSTORE CALLVALUE DUP1 ISZERO PUSH3 0x16 JUMPI PUSH1 0x0 DUP1 REVERT JUMPDEST POP PUSH1 0x40 MLOAD PUSH3 0x543E CODESIZE SUB DUP1 PUSH3 0x543E DUP4 CODECOPY DUP2 DUP2 ADD PUSH1 0x40 MSTORE DUP2 ADD SWAP1 PUSH3 0x3C SWAP2 SWAP1 PUSH3 0x5CE JUMP JUMPDEST PUSH3 0x5C PUSH3 0x50 PUSH3 0x3D3 PUSH1 0x20 SHL PUSH1 0x20 SHR JUMP JUMPDEST PUSH3 0x3DB PUSH1 0x20 SHL PUSH1 0x20 SHR JUMP JUMPDEST PUSH1 0x1 DUP1 DUP2 SWAP1 SSTORE POP DUP6 PUSH20 0xFFFFFFFFFFFFFFFFFFFFFFFFFFFFFFFFFFFFFFFF AND PUSH1 0x80 DUP2 PUSH20 0xFFFFFFFFFFFFFFFFFFFFFFFFFFFFFFFFFFFFFFFF AND DUP2 MSTORE POP POP DUP5 PUSH20 0xFFFFFFFFFFFFFFFFFFFFFFFFFFFFFFFFFFFFFFFF AND PUSH1 0xA0 DUP2 PUSH20 0xFFFFFFFFFFFFFFFFFFFFFFFFFFFFFFFFFFFFFFFF AND DUP2 MSTORE POP POP PUSH8 0x403FBF9E8BB284BE DUP3 GT ISZERO PUSH3 0x119 JUMPI PUSH1 0x40 MLOAD PUSH32 0x8C379A000000000000000000000000000000000000000000000000000000000 DUP2 MSTORE PUSH1 0x4 ADD PUSH3 0x110 SWAP1 PUSH3 0x6CB JUMP JUMPDEST PUSH1 0x40 MLOAD DUP1 SWAP2 SUB SWAP1 REVERT JUMPDEST PUSH1 0xA DUP3 PUSH3 0x128 SWAP2 SWAP1 PUSH3 0x74B JUMP JUMPDEST PUSH1 0x8 DUP2 SWAP1 SSTORE POP PUSH1 0x8 SLOAD DUP3 PUSH3 0x13E SWAP2 SWAP1 PUSH3 0x783 JUMP JUMPDEST PUSH1 0x9 DUP2 SWAP1 SSTORE POP PUSH1 0x0 PUSH20 0xFFFFFFFFFFFFFFFFFFFFFFFFFFFFFFFFFFFFFFFF AND DUP5 PUSH20 0xFFFFFFFFFFFFFFFFFFFFFFFFFFFFFFFFFFFFFFFF AND SUB PUSH3 0x1B6 JUMPI PUSH1 0x40 MLOAD PUSH32 0x8C379A000000000000000000000000000000000000000000000000000000000 DUP2 MSTORE PUSH1 0x4 ADD PUSH3 0x1AD SWAP1 PUSH3 0x834 JUMP JUMPDEST PUSH1 0x40 MLOAD DUP1 SWAP2 SUB SWAP1 REVERT JUMPDEST DUP4 PUSH1 0xA PUSH1 0x0 PUSH2 0x100 EXP DUP2 SLOAD DUP2 PUSH20 0xFFFFFFFFFFFFFFFFFFFFFFFFFFFFFFFFFFFFFFFF MUL NOT AND SWAP1 DUP4 PUSH20 0xFFFFFFFFFFFFFFFFFFFFFFFFFFFFFFFFFFFFFFFF AND MUL OR SWAP1 SSTORE POP PUSH1 0x0 PUSH20 0xFFFFFFFFFFFFFFFFFFFFFFFFFFFFFFFFFFFFFFFF AND DUP4 PUSH20 0xFFFFFFFFFFFFFFFFFFFFFFFFFFFFFFFFFFFFFFFF AND SUB PUSH3 0x269 JUMPI PUSH1 0x40 MLOAD PUSH32 0x8C379A000000000000000000000000000000000000000000000000000000000 DUP2 MSTORE PUSH1 0x4 ADD PUSH3 0x260 SWAP1 PUSH3 0x8CC JUMP JUMPDEST PUSH1 0x40 MLOAD DUP1 SWAP2 SUB SWAP1 REVERT JUMPDEST DUP3 PUSH1 0xB PUSH1 0x0 PUSH2 0x100 EXP DUP2 SLOAD DUP2 PUSH20 0xFFFFFFFFFFFFFFFFFFFFFFFFFFFFFFFFFFFFFFFF MUL NOT AND SWAP1 DUP4 PUSH20 0xFFFFFFFFFFFFFFFFFFFFFFFFFFFFFFFFFFFFFFFF AND MUL OR SWAP1 SSTORE POP DUP1 PUSH1 0xC DUP2 SWAP1 SSTORE POP TIMESTAMP PUSH1 0xC SLOAD LT ISZERO PUSH3 0x2C4 JUMPI TIMESTAMP PUSH1 0xC DUP2 SWAP1 SSTORE POP JUMPDEST DUP2 DUP7 PUSH20 0xFFFFFFFFFFFFFFFFFFFFFFFFFFFFFFFFFFFFFFFF AND PUSH4 0xA2309FF8 PUSH1 0x40 MLOAD DUP2 PUSH4 0xFFFFFFFF AND PUSH1 0xE0 SHL DUP2 MSTORE PUSH1 0x4 ADD PUSH1 0x20 PUSH1 0x40 MLOAD DUP1 DUP4 SUB DUP2 DUP7 GAS STATICCALL ISZERO DUP1 ISZERO PUSH3 0x311 JUMPI RETURNDATASIZE PUSH1 0x0 DUP1 RETURNDATACOPY RETURNDATASIZE PUSH1 0x0 REVERT JUMPDEST POP POP POP POP PUSH1 0x40 MLOAD RETURNDATASIZE PUSH1 0x1F NOT PUSH1 0x1F DUP3 ADD AND DUP3 ADD DUP1 PUSH1 0x40 MSTORE POP DUP2 ADD SWAP1 PUSH3 0x337 SWAP2 SWAP1 PUSH3 0x8EE JUMP JUMPDEST DUP8 PUSH20 0xFFFFFFFFFFFFFFFFFFFFFFFFFFFFFFFFFFFFFFFF AND PUSH4 0xD5ABEB01 PUSH1 0x40 MLOAD DUP2 PUSH4 0xFFFFFFFF AND PUSH1 0xE0 SHL DUP2 MSTORE PUSH1 0x4 ADD PUSH1 0x20 PUSH1 0x40 MLOAD DUP1 DUP4 SUB DUP2 DUP7 GAS STATICCALL ISZERO DUP1 ISZERO PUSH3 0x383 JUMPI RETURNDATASIZE PUSH1 0x0 DUP1 RETURNDATACOPY RETURNDATASIZE PUSH1 0x0 REVERT JUMPDEST POP POP POP POP PUSH1 0x40 MLOAD RETURNDATASIZE PUSH1 0x1F NOT PUSH1 0x1F DUP3 ADD AND DUP3 ADD DUP1 PUSH1 0x40 MSTORE POP DUP2 ADD SWAP1 PUSH3 0x3A9 SWAP2 SWAP1 PUSH3 0x8EE JUMP JUMPDEST PUSH3 0x3B5 SWAP2 SWAP1 PUSH3 0x783 JUMP JUMPDEST PUSH3 0x3C1 SWAP2 SWAP1 PUSH3 0x74B JUMP JUMPDEST PUSH1 0xD DUP2 SWAP1 SSTORE POP POP POP POP POP POP POP PUSH3 0x920 JUMP JUMPDEST PUSH1 0x0 CALLER SWAP1 POP SWAP1 JUMP JUMPDEST PUSH1 0x0 DUP1 PUSH1 0x0 SWAP1 SLOAD SWAP1 PUSH2 0x100 EXP SWAP1 DIV PUSH20 0xFFFFFFFFFFFFFFFFFFFFFFFFFFFFFFFFFFFFFFFF AND SWAP1 POP DUP2 PUSH1 0x0 DUP1 PUSH2 0x100 EXP DUP2 SLOAD DUP2 PUSH20 0xFFFFFFFFFFFFFFFFFFFFFFFFFFFFFFFFFFFFFFFF MUL NOT AND SWAP1 DUP4 PUSH20 0xFFFFFFFFFFFFFFFFFFFFFFFFFFFFFFFFFFFFFFFF AND MUL OR SWAP1 SSTORE POP DUP2 PUSH20 0xFFFFFFFFFFFFFFFFFFFFFFFFFFFFFFFFFFFFFFFF AND DUP2 PUSH20 0xFFFFFFFFFFFFFFFFFFFFFFFFFFFFFFFFFFFFFFFF AND PUSH32 0x8BE0079C531659141344CD1FD0A4F28419497F9722A3DAAFE3B4186F6B6457E0 PUSH1 0x40 MLOAD PUSH1 0x40 MLOAD DUP1 SWAP2 SUB SWAP1 LOG3 POP POP JUMP JUMPDEST PUSH1 0x0 DUP1 REVERT JUMPDEST PUSH1 0x0 PUSH20 0xFFFFFFFFFFFFFFFFFFFFFFFFFFFFFFFFFFFFFFFF DUP3 AND SWAP1 POP SWAP2 SWAP1 POP JUMP JUMPDEST PUSH1 0x0 PUSH3 0x4D1 DUP3 PUSH3 0x4A4 JUMP JUMPDEST SWAP1 POP SWAP2 SWAP1 POP JUMP JUMPDEST PUSH1 0x0 PUSH3 0x4E5 DUP3 PUSH3 0x4C4 JUMP JUMPDEST SWAP1 POP SWAP2 SWAP1 POP JUMP JUMPDEST PUSH3 0x4F7 DUP2 PUSH3 0x4D8 JUMP JUMPDEST DUP2 EQ PUSH3 0x503 JUMPI PUSH1 0x0 DUP1 REVERT JUMPDEST POP JUMP JUMPDEST PUSH1 0x0 DUP2 MLOAD SWAP1 POP PUSH3 0x517 DUP2 PUSH3 0x4EC JUMP JUMPDEST SWAP3 SWAP2 POP POP JUMP JUMPDEST PUSH1 0x0 PUSH3 0x52A DUP3 PUSH3 0x4C4 JUMP JUMPDEST SWAP1 POP SWAP2 SWAP1 POP JUMP JUMPDEST PUSH3 0x53C DUP2 PUSH3 0x51D JUMP JUMPDEST DUP2 EQ PUSH3 0x548 JUMPI PUSH1 0x0 DUP1 REVERT JUMPDEST POP JUMP JUMPDEST PUSH1 0x0 DUP2 MLOAD SWAP1 POP PUSH3 0x55C DUP2 PUSH3 0x531 JUMP JUMPDEST SWAP3 SWAP2 POP POP JUMP JUMPDEST PUSH3 0x56D DUP2 PUSH3 0x4C4 JUMP JUMPDEST DUP2 EQ PUSH3 0x579 JUMPI PUSH1 0x0 DUP1 REVERT JUMPDEST POP JUMP JUMPDEST PUSH1 0x0 DUP2 MLOAD SWAP1 POP PUSH3 0x58D DUP2 PUSH3 0x562 JUMP JUMPDEST SWAP3 SWAP2 POP POP JUMP JUMPDEST PUSH1 0x0 DUP2 SWAP1 POP SWAP2 SWAP1 POP JUMP JUMPDEST PUSH3 0x5A8 DUP2 PUSH3 0x593 JUMP JUMPDEST DUP2 EQ PUSH3 0x5B4 JUMPI PUSH1 0x0 DUP1 REVERT JUMPDEST POP JUMP JUMPDEST PUSH1 0x0 DUP2 MLOAD SWAP1 POP PUSH3 0x5C8 DUP2 PUSH3 0x59D JUMP JUMPDEST SWAP3 SWAP2 POP POP JUMP JUMPDEST PUSH1 0x0 DUP1 PUSH1 0x0 DUP1 PUSH1 0x0 DUP1 PUSH1 0xC0 DUP8 DUP10 SUB SLT ISZERO PUSH3 0x5EE JUMPI PUSH3 0x5ED PUSH3 0x49F JUMP JUMPDEST JUMPDEST PUSH1 0x0 PUSH3 0x5FE DUP10 DUP3 DUP11 ADD PUSH3 0x506 JUMP JUMPDEST SWAP7 POP POP PUSH1 0x20 PUSH3 0x611 DUP10 DUP3 DUP11 ADD PUSH3 0x54B JUMP JUMPDEST SWAP6 POP POP PUSH1 0x40 PUSH3 0x624 DUP10 DUP3 DUP11 ADD PUSH3 0x57C JUMP JUMPDEST SWAP5 POP POP PUSH1 0x60 PUSH3 0x637 DUP10 DUP3 DUP11 ADD PUSH3 0x57C JUMP JUMPDEST SWAP4 POP POP PUSH1 0x80 PUSH3 0x64A DUP10 DUP3 DUP11 ADD PUSH3 0x5B7 JUMP JUMPDEST SWAP3 POP POP PUSH1 0xA0 PUSH3 0x65D DUP10 DUP3 DUP11 ADD PUSH3 0x5B7 JUMP JUMPDEST SWAP2 POP POP SWAP3 SWAP6 POP SWAP3 SWAP6 POP SWAP3 SWAP6 JUMP JUMPDEST PUSH1 0x0 DUP3 DUP3 MSTORE PUSH1 0x20 DUP3 ADD SWAP1 POP SWAP3 SWAP2 POP POP JUMP JUMPDEST PUSH32 0x5A6B486172766573743A20746F6F2068696768205A4B48207265776172640000 PUSH1 0x0 DUP3 ADD MSTORE POP JUMP JUMPDEST PUSH1 0x0 PUSH3 0x6B3 PUSH1 0x1E DUP4 PUSH3 0x66A JUMP JUMPDEST SWAP2 POP PUSH3 0x6C0 DUP3 PUSH3 0x67B JUMP JUMPDEST PUSH1 0x20 DUP3 ADD SWAP1 POP SWAP2 SWAP1 POP JUMP JUMPDEST PUSH1 0x0 PUSH1 0x20 DUP3 ADD SWAP1 POP DUP2 DUP2 SUB PUSH1 0x0 DUP4 ADD MSTORE PUSH3 0x6E6 DUP2 PUSH3 0x6A4 JUMP JUMPDEST SWAP1 POP SWAP2 SWAP1 POP JUMP JUMPDEST PUSH32 0x4E487B7100000000000000000000000000000000000000000000000000000000 PUSH1 0x0 MSTORE PUSH1 0x12 PUSH1 0x4 MSTORE PUSH1 0x24 PUSH1 0x0 REVERT JUMPDEST PUSH32 0x4E487B7100000000000000000000000000000000000000000000000000000000 PUSH1 0x0 MSTORE PUSH1 0x11 PUSH1 0x4 MSTORE PUSH1 0x24 PUSH1 0x0 REVERT JUMPDEST PUSH1 0x0 PUSH3 0x758 DUP3 PUSH3 0x593 JUMP JUMPDEST SWAP2 POP PUSH3 0x765 DUP4 PUSH3 0x593 JUMP JUMPDEST SWAP3 POP DUP3 PUSH3 0x778 JUMPI PUSH3 0x777 PUSH3 0x6ED JUMP JUMPDEST JUMPDEST DUP3 DUP3 DIV SWAP1 POP SWAP3 SWAP2 POP POP JUMP JUMPDEST PUSH1 0x0 PUSH3 0x790 DUP3 PUSH3 0x593 JUMP JUMPDEST SWAP2 POP PUSH3 0x79D DUP4 PUSH3 0x593 JUMP JUMPDEST SWAP3 POP DUP3 DUP3 SUB SWAP1 POP DUP2 DUP2 GT ISZERO PUSH3 0x7B8 JUMPI PUSH3 0x7B7 PUSH3 0x71C JUMP JUMPDEST JUMPDEST SWAP3 SWAP2 POP POP JUMP JUMPDEST PUSH32 0x5A6B48617276657374204465763A206E756C6C2061646472657373206E6F7420 PUSH1 0x0 DUP3 ADD MSTORE PUSH32 0x7065726D69747465640000000000000000000000000000000000000000000000 PUSH1 0x20 DUP3 ADD MSTORE POP JUMP JUMPDEST PUSH1 0x0 PUSH3 0x81C PUSH1 0x29 DUP4 PUSH3 0x66A JUMP JUMPDEST SWAP2 POP PUSH3 0x829 DUP3 PUSH3 0x7BE JUMP JUMPDEST PUSH1 0x40 DUP3 ADD SWAP1 POP SWAP2 SWAP1 POP JUMP JUMPDEST PUSH1 0x0 PUSH1 0x20 DUP3 ADD SWAP1 POP DUP2 DUP2 SUB PUSH1 0x0 DUP4 ADD MSTORE PUSH3 0x84F DUP2 PUSH3 0x80D JUMP JUMPDEST SWAP1 POP SWAP2 SWAP1 POP JUMP JUMPDEST PUSH32 0x5A6B486172766573742046656520436F6C6C6563746F723A206E756C6C206164 PUSH1 0x0 DUP3 ADD MSTORE PUSH32 0x6472657373206E6F74207065726D697474656400000000000000000000000000 PUSH1 0x20 DUP3 ADD MSTORE POP JUMP JUMPDEST PUSH1 0x0 PUSH3 0x8B4 PUSH1 0x33 DUP4 PUSH3 0x66A JUMP JUMPDEST SWAP2 POP PUSH3 0x8C1 DUP3 PUSH3 0x856 JUMP JUMPDEST PUSH1 0x40 DUP3 ADD SWAP1 POP SWAP2 SWAP1 POP JUMP JUMPDEST PUSH1 0x0 PUSH1 0x20 DUP3 ADD SWAP1 POP DUP2 DUP2 SUB PUSH1 0x0 DUP4 ADD MSTORE PUSH3 0x8E7 DUP2 PUSH3 0x8A5 JUMP JUMPDEST SWAP1 POP SWAP2 SWAP1 POP JUMP JUMPDEST PUSH1 0x0 PUSH1 0x20 DUP3 DUP5 SUB SLT ISZERO PUSH3 0x907 JUMPI PUSH3 0x906 PUSH3 0x49F JUMP JUMPDEST JUMPDEST PUSH1 0x0 PUSH3 0x917 DUP5 DUP3 DUP6 ADD PUSH3 0x5B7 JUMP JUMPDEST SWAP2 POP POP SWAP3 SWAP2 POP POP JUMP JUMPDEST PUSH1 0x80 MLOAD PUSH1 0xA0 MLOAD PUSH2 0x4AC7 PUSH3 0x977 PUSH1 0x0 CODECOPY PUSH1 0x0 DUP2 DUP2 PUSH2 0x145B ADD MSTORE DUP2 DUP2 PUSH2 0x2700 ADD MSTORE PUSH2 0x2923 ADD MSTORE PUSH1 0x0 DUP2 DUP2 PUSH2 0x1332 ADD MSTORE DUP2 DUP2 PUSH2 0x141F ADD MSTORE DUP2 DUP2 PUSH2 0x14CD ADD MSTORE DUP2 DUP2 PUSH2 0x2178 ADD MSTORE DUP2 DUP2 PUSH2 0x2A7A ADD MSTORE PUSH2 0x2B09 ADD MSTORE PUSH2 0x4AC7 PUSH1 0x0 RETURN INVALID PUSH1 0x80 PUSH1 0x40 MSTORE CALLVALUE DUP1 ISZERO PUSH2 0x10 JUMPI PUSH1 0x0 DUP1 REVERT JUMPDEST POP PUSH1 0x4 CALLDATASIZE LT PUSH2 0x269 JUMPI PUSH1 0x0 CALLDATALOAD PUSH1 0xE0 SHR DUP1 PUSH4 0x66B0D80D GT PUSH2 0x151 JUMPI DUP1 PUSH4 0x93F1A40B GT PUSH2 0xC3 JUMPI DUP1 PUSH4 0xC415B95C GT PUSH2 0x87 JUMPI DUP1 PUSH4 0xC415B95C EQ PUSH2 0x722 JUMPI DUP1 PUSH4 0xD2C35CE8 EQ PUSH2 0x740 JUMPI DUP1 PUSH4 0xE2BBB158 EQ PUSH2 0x75C JUMPI DUP1 PUSH4 0xEC7DCCB4 EQ PUSH2 0x778 JUMPI DUP1 PUSH4 0xF2FDE38B EQ PUSH2 0x7A8 JUMPI DUP1 PUSH4 0xFDA49EB4 EQ PUSH2 0x7C4 JUMPI PUSH2 0x269 JUMP JUMPDEST DUP1 PUSH4 0x93F1A40B EQ PUSH2 0x640 JUMPI DUP1 PUSH4 0x98969E82 EQ PUSH2 0x673 JUMPI DUP1 PUSH4 0xAB806935 EQ PUSH2 0x6A4 JUMPI DUP1 PUSH4 0xAEE1198B EQ PUSH2 0x6D4 JUMPI DUP1 PUSH4 0xBBAB0F64 EQ PUSH2 0x6F2 JUMPI PUSH2 0x269 JUMP JUMPDEST DUP1 PUSH4 0x7A10C5D2 GT PUSH2 0x115 JUMPI DUP1 PUSH4 0x7A10C5D2 EQ PUSH2 0x57C JUMPI DUP1 PUSH4 0x83AB85FF EQ PUSH2 0x59A JUMPI DUP1 PUSH4 0x8DA5CB5B EQ PUSH2 0x5B8 JUMPI DUP1 PUSH4 0x8DBB1E3A EQ PUSH2 0x5D6 JUMPI DUP1 PUSH4 0x91CCA3DB EQ PUSH2 0x606 JUMPI DUP1 PUSH4 0x934C1938 EQ PUSH2 0x624 JUMPI PUSH2 0x269 JUMP JUMPDEST DUP1 PUSH4 0x66B0D80D EQ PUSH2 0x4E8 JUMPI DUP1 PUSH4 0x715018A6 EQ PUSH2 0x51A JUMPI DUP1 PUSH4 0x73661E69 EQ PUSH2 0x524 JUMPI DUP1 PUSH4 0x75C7FBC2 EQ PUSH2 0x542 JUMPI DUP1 PUSH4 0x78E97925 EQ PUSH2 0x55E JUMPI PUSH2 0x269 JUMP JUMPDEST DUP1 PUSH4 0x441A3E70 GT PUSH2 0x1EA JUMPI DUP1 PUSH4 0x51EB05A6 GT PUSH2 0x1AE JUMPI DUP1 PUSH4 0x51EB05A6 EQ PUSH2 0x450 JUMPI DUP1 PUSH4 0x5312EA8E EQ PUSH2 0x46C JUMPI DUP1 PUSH4 0x5B647EB0 EQ PUSH2 0x488 JUMPI DUP1 PUSH4 0x5F5552EA EQ PUSH2 0x4A4 JUMPI DUP1 PUSH4 0x6245F148 EQ PUSH2 0x4C0 JUMPI DUP1 PUSH4 0x630B5BA1 EQ PUSH2 0x4DE JUMPI PUSH2 0x269 JUMP JUMPDEST DUP1 PUSH4 0x441A3E70 EQ PUSH2 0x3C0 JUMPI DUP1 PUSH4 0x44EA8A37 EQ PUSH2 0x3DC JUMPI DUP1 PUSH4 0x4633EC52 EQ PUSH2 0x3F8 JUMPI DUP1 PUSH4 0x4E2F9BEA EQ PUSH2 0x414 JUMPI DUP1 PUSH4 0x51453F9D EQ PUSH2 0x432 JUMPI PUSH2 0x269 JUMP JUMPDEST DUP1 PUSH4 0x277C95F6 GT PUSH2 0x231 JUMPI DUP1 PUSH4 0x277C95F6 EQ PUSH2 0x31A JUMPI DUP1 PUSH4 0x2C7192D8 EQ PUSH2 0x338 JUMPI DUP1 PUSH4 0x2E6C998D EQ PUSH2 0x354 JUMPI DUP1 PUSH4 0x3197CBB6 EQ PUSH2 0x384 JUMPI DUP1 PUSH4 0x37CAA6E7 EQ PUSH2 0x3A2 JUMPI PUSH2 0x269 JUMP JUMPDEST DUP1 PUSH4 0x6BCF02F EQ PUSH2 0x26E JUMPI DUP1 PUSH4 0xC7D6763 EQ PUSH2 0x28A JUMPI DUP1 PUSH4 0xD15E044 EQ PUSH2 0x2A8 JUMPI DUP1 PUSH4 0x1526FE27 EQ PUSH2 0x2C6 JUMPI DUP1 PUSH4 0x2716AE66 EQ PUSH2 0x2FC JUMPI JUMPDEST PUSH1 0x0 DUP1 REVERT JUMPDEST PUSH2 0x288 PUSH1 0x4 DUP1 CALLDATASIZE SUB DUP2 ADD SWAP1 PUSH2 0x283 SWAP2 SWAP1 PUSH2 0x2FEE JUMP JUMPDEST PUSH2 0x7E2 JUMP JUMPDEST STOP JUMPDEST PUSH2 0x292 PUSH2 0x8C2 JUMP JUMPDEST PUSH1 0x40 MLOAD PUSH2 0x29F SWAP2 SWAP1 PUSH2 0x302A JUMP JUMPDEST PUSH1 0x40 MLOAD DUP1 SWAP2 SUB SWAP1 RETURN JUMPDEST PUSH2 0x2B0 PUSH2 0x8C8 JUMP JUMPDEST PUSH1 0x40 MLOAD PUSH2 0x2BD SWAP2 SWAP1 PUSH2 0x302A JUMP JUMPDEST PUSH1 0x40 MLOAD DUP1 SWAP2 SUB SWAP1 RETURN JUMPDEST PUSH2 0x2E0 PUSH1 0x4 DUP1 CALLDATASIZE SUB DUP2 ADD SWAP1 PUSH2 0x2DB SWAP2 SWAP1 PUSH2 0x2FEE JUMP JUMPDEST PUSH2 0x8CF JUMP JUMPDEST PUSH1 0x40 MLOAD PUSH2 0x2F3 SWAP8 SWAP7 SWAP6 SWAP5 SWAP4 SWAP3 SWAP2 SWAP1 PUSH2 0x30C4 JUMP JUMPDEST PUSH1 0x40 MLOAD DUP1 SWAP2 SUB SWAP1 RETURN JUMPDEST PUSH2 0x304 PUSH2 0x941 JUMP JUMPDEST PUSH1 0x40 MLOAD PUSH2 0x311 SWAP2 SWAP1 PUSH2 0x302A JUMP JUMPDEST PUSH1 0x40 MLOAD DUP1 SWAP2 SUB SWAP1 RETURN JUMPDEST PUSH2 0x322 PUSH2 0x94E JUMP JUMPDEST PUSH1 0x40 MLOAD PUSH2 0x32F SWAP2 SWAP1 PUSH2 0x302A JUMP JUMPDEST PUSH1 0x40 MLOAD DUP1 SWAP2 SUB SWAP1 RETURN JUMPDEST PUSH2 0x352 PUSH1 0x4 DUP1 CALLDATASIZE SUB DUP2 ADD SWAP1 PUSH2 0x34D SWAP2 SWAP1 PUSH2 0x316B JUMP JUMPDEST PUSH2 0x954 JUMP JUMPDEST STOP JUMPDEST PUSH2 0x36E PUSH1 0x4 DUP1 CALLDATASIZE SUB DUP2 ADD SWAP1 PUSH2 0x369 SWAP2 SWAP1 PUSH2 0x3224 JUMP JUMPDEST PUSH2 0xC34 JUMP JUMPDEST PUSH1 0x40 MLOAD PUSH2 0x37B SWAP2 SWAP1 PUSH2 0x3273 JUMP JUMPDEST PUSH1 0x40 MLOAD DUP1 SWAP2 SUB SWAP1 RETURN JUMPDEST PUSH2 0x38C PUSH2 0xC95 JUMP JUMPDEST PUSH1 0x40 MLOAD PUSH2 0x399 SWAP2 SWAP1 PUSH2 0x302A JUMP JUMPDEST PUSH1 0x40 MLOAD DUP1 SWAP2 SUB SWAP1 RETURN JUMPDEST PUSH2 0x3AA PUSH2 0xCAC JUMP JUMPDEST PUSH1 0x40 MLOAD PUSH2 0x3B7 SWAP2 SWAP1 PUSH2 0x302A JUMP JUMPDEST PUSH1 0x40 MLOAD DUP1 SWAP2 SUB SWAP1 RETURN JUMPDEST PUSH2 0x3DA PUSH1 0x4 DUP1 CALLDATASIZE SUB DUP2 ADD SWAP1 PUSH2 0x3D5 SWAP2 SWAP1 PUSH2 0x328E JUMP JUMPDEST PUSH2 0xCB2 JUMP JUMPDEST STOP JUMPDEST PUSH2 0x3F6 PUSH1 0x4 DUP1 CALLDATASIZE SUB DUP2 ADD SWAP1 PUSH2 0x3F1 SWAP2 SWAP1 PUSH2 0x3333 JUMP JUMPDEST PUSH2 0xE8D JUMP JUMPDEST STOP JUMPDEST PUSH2 0x412 PUSH1 0x4 DUP1 CALLDATASIZE SUB DUP2 ADD SWAP1 PUSH2 0x40D SWAP2 SWAP1 PUSH2 0x33A7 JUMP JUMPDEST PUSH2 0xFDC JUMP JUMPDEST STOP JUMPDEST PUSH2 0x41C PUSH2 0x10E6 JUMP JUMPDEST PUSH1 0x40 MLOAD PUSH2 0x429 SWAP2 SWAP1 PUSH2 0x302A JUMP JUMPDEST PUSH1 0x40 MLOAD DUP1 SWAP2 SUB SWAP1 RETURN JUMPDEST PUSH2 0x43A PUSH2 0x10EC JUMP JUMPDEST PUSH1 0x40 MLOAD PUSH2 0x447 SWAP2 SWAP1 PUSH2 0x302A JUMP JUMPDEST PUSH1 0x40 MLOAD DUP1 SWAP2 SUB SWAP1 RETURN JUMPDEST PUSH2 0x46A PUSH1 0x4 DUP1 CALLDATASIZE SUB DUP2 ADD SWAP1 PUSH2 0x465 SWAP2 SWAP1 PUSH2 0x2FEE JUMP JUMPDEST PUSH2 0x1115 JUMP JUMPDEST STOP JUMPDEST PUSH2 0x486 PUSH1 0x4 DUP1 CALLDATASIZE SUB DUP2 ADD SWAP1 PUSH2 0x481 SWAP2 SWAP1 PUSH2 0x2FEE JUMP JUMPDEST PUSH2 0x1584 JUMP JUMPDEST STOP JUMPDEST PUSH2 0x4A2 PUSH1 0x4 DUP1 CALLDATASIZE SUB DUP2 ADD SWAP1 PUSH2 0x49D SWAP2 SWAP1 PUSH2 0x3438 JUMP JUMPDEST PUSH2 0x16E1 JUMP JUMPDEST STOP JUMPDEST PUSH2 0x4BE PUSH1 0x4 DUP1 CALLDATASIZE SUB DUP2 ADD SWAP1 PUSH2 0x4B9 SWAP2 SWAP1 PUSH2 0x34C5 JUMP JUMPDEST PUSH2 0x1A9B JUMP JUMPDEST STOP JUMPDEST PUSH2 0x4C8 PUSH2 0x1B30 JUMP JUMPDEST PUSH1 0x40 MLOAD PUSH2 0x4D5 SWAP2 SWAP1 PUSH2 0x302A JUMP JUMPDEST PUSH1 0x40 MLOAD DUP1 SWAP2 SUB SWAP1 RETURN JUMPDEST PUSH2 0x4E6 PUSH2 0x1B47 JUMP JUMPDEST STOP JUMPDEST PUSH2 0x502 PUSH1 0x4 DUP1 CALLDATASIZE SUB DUP2 ADD SWAP1 PUSH2 0x4FD SWAP2 SWAP1 PUSH2 0x2FEE JUMP JUMPDEST PUSH2 0x1B7C JUMP JUMPDEST PUSH1 0x40 MLOAD PUSH2 0x511 SWAP4 SWAP3 SWAP2 SWAP1 PUSH2 0x3595 JUMP JUMPDEST PUSH1 0x40 MLOAD DUP1 SWAP2 SUB SWAP1 RETURN JUMPDEST PUSH2 0x522 PUSH2 0x1C3E JUMP JUMPDEST STOP JUMPDEST PUSH2 0x52C PUSH2 0x1C52 JUMP JUMPDEST PUSH1 0x40 MLOAD PUSH2 0x539 SWAP2 SWAP1 PUSH2 0x302A JUMP JUMPDEST PUSH1 0x40 MLOAD DUP1 SWAP2 SUB SWAP1 RETURN JUMPDEST PUSH2 0x55C PUSH1 0x4 DUP1 CALLDATASIZE SUB DUP2 ADD SWAP1 PUSH2 0x557 SWAP2 SWAP1 PUSH2 0x35D3 JUMP JUMPDEST PUSH2 0x1C5F JUMP JUMPDEST STOP JUMPDEST PUSH2 0x566 PUSH2 0x1C81 JUMP JUMPDEST PUSH1 0x40 MLOAD PUSH2 0x573 SWAP2 SWAP1 PUSH2 0x302A JUMP JUMPDEST PUSH1 0x40 MLOAD DUP1 SWAP2 SUB SWAP1 RETURN JUMPDEST PUSH2 0x584 PUSH2 0x1C87 JUMP JUMPDEST PUSH1 0x40 MLOAD PUSH2 0x591 SWAP2 SWAP1 PUSH2 0x302A JUMP JUMPDEST PUSH1 0x40 MLOAD DUP1 SWAP2 SUB SWAP1 RETURN JUMPDEST PUSH2 0x5A2 PUSH2 0x1C93 JUMP JUMPDEST PUSH1 0x40 MLOAD PUSH2 0x5AF SWAP2 SWAP1 PUSH2 0x302A JUMP JUMPDEST PUSH1 0x40 MLOAD DUP1 SWAP2 SUB SWAP1 RETURN JUMPDEST PUSH2 0x5C0 PUSH2 0x1C99 JUMP JUMPDEST PUSH1 0x40 MLOAD PUSH2 0x5CD SWAP2 SWAP1 PUSH2 0x360F JUMP JUMPDEST PUSH1 0x40 MLOAD DUP1 SWAP2 SUB SWAP1 RETURN JUMPDEST PUSH2 0x5F0 PUSH1 0x4 DUP1 CALLDATASIZE SUB DUP2 ADD SWAP1 PUSH2 0x5EB SWAP2 SWAP1 PUSH2 0x328E JUMP JUMPDEST PUSH2 0x1CC2 JUMP JUMPDEST PUSH1 0x40 MLOAD PUSH2 0x5FD SWAP2 SWAP1 PUSH2 0x302A JUMP JUMPDEST PUSH1 0x40 MLOAD DUP1 SWAP2 SUB SWAP1 RETURN JUMPDEST PUSH2 0x60E PUSH2 0x1D12 JUMP JUMPDEST PUSH1 0x40 MLOAD PUSH2 0x61B SWAP2 SWAP1 PUSH2 0x360F JUMP JUMPDEST PUSH1 0x40 MLOAD DUP1 SWAP2 SUB SWAP1 RETURN JUMPDEST PUSH2 0x63E PUSH1 0x4 DUP1 CALLDATASIZE SUB DUP2 ADD SWAP1 PUSH2 0x639 SWAP2 SWAP1 PUSH2 0x362A JUMP JUMPDEST PUSH2 0x1D38 JUMP JUMPDEST STOP JUMPDEST PUSH2 0x65A PUSH1 0x4 DUP1 CALLDATASIZE SUB DUP2 ADD SWAP1 PUSH2 0x655 SWAP2 SWAP1 PUSH2 0x3224 JUMP JUMPDEST PUSH2 0x1E7B JUMP JUMPDEST PUSH1 0x40 MLOAD PUSH2 0x66A SWAP5 SWAP4 SWAP3 SWAP2 SWAP1 PUSH2 0x3657 JUMP JUMPDEST PUSH1 0x40 MLOAD DUP1 SWAP2 SUB SWAP1 RETURN JUMPDEST PUSH2 0x68D PUSH1 0x4 DUP1 CALLDATASIZE SUB DUP2 ADD SWAP1 PUSH2 0x688 SWAP2 SWAP1 PUSH2 0x3224 JUMP JUMPDEST PUSH2 0x1EB8 JUMP JUMPDEST PUSH1 0x40 MLOAD PUSH2 0x69B SWAP3 SWAP2 SWAP1 PUSH2 0x369C JUMP JUMPDEST PUSH1 0x40 MLOAD DUP1 SWAP2 SUB SWAP1 RETURN JUMPDEST PUSH2 0x6BE PUSH1 0x4 DUP1 CALLDATASIZE SUB DUP2 ADD SWAP1 PUSH2 0x6B9 SWAP2 SWAP1 PUSH2 0x2FEE JUMP JUMPDEST PUSH2 0x210B JUMP JUMPDEST PUSH1 0x40 MLOAD PUSH2 0x6CB SWAP2 SWAP1 PUSH2 0x3783 JUMP JUMPDEST PUSH1 0x40 MLOAD DUP1 SWAP2 SUB SWAP1 RETURN JUMPDEST PUSH2 0x6DC PUSH2 0x2176 JUMP JUMPDEST PUSH1 0x40 MLOAD PUSH2 0x6E9 SWAP2 SWAP1 PUSH2 0x37C6 JUMP JUMPDEST PUSH1 0x40 MLOAD DUP1 SWAP2 SUB SWAP1 RETURN JUMPDEST PUSH2 0x70C PUSH1 0x4 DUP1 CALLDATASIZE SUB DUP2 ADD SWAP1 PUSH2 0x707 SWAP2 SWAP1 PUSH2 0x362A JUMP JUMPDEST PUSH2 0x219A JUMP JUMPDEST PUSH1 0x40 MLOAD PUSH2 0x719 SWAP2 SWAP1 PUSH2 0x302A JUMP JUMPDEST PUSH1 0x40 MLOAD DUP1 SWAP2 SUB SWAP1 RETURN JUMPDEST PUSH2 0x72A PUSH2 0x21B2 JUMP JUMPDEST PUSH1 0x40 MLOAD PUSH2 0x737 SWAP2 SWAP1 PUSH2 0x360F JUMP JUMPDEST PUSH1 0x40 MLOAD DUP1 SWAP2 SUB SWAP1 RETURN JUMPDEST PUSH2 0x75A PUSH1 0x4 DUP1 CALLDATASIZE SUB DUP2 ADD SWAP1 PUSH2 0x755 SWAP2 SWAP1 PUSH2 0x362A JUMP JUMPDEST PUSH2 0x21D8 JUMP JUMPDEST STOP JUMPDEST PUSH2 0x776 PUSH1 0x4 DUP1 CALLDATASIZE SUB DUP2 ADD SWAP1 PUSH2 0x771 SWAP2 SWAP1 PUSH2 0x328E JUMP JUMPDEST PUSH2 0x231B JUMP JUMPDEST STOP JUMPDEST PUSH2 0x792 PUSH1 0x4 DUP1 CALLDATASIZE SUB DUP2 ADD SWAP1 PUSH2 0x78D SWAP2 SWAP1 PUSH2 0x328E JUMP JUMPDEST PUSH2 0x264A JUMP JUMPDEST PUSH1 0x40 MLOAD PUSH2 0x79F SWAP2 SWAP1 PUSH2 0x302A JUMP JUMPDEST PUSH1 0x40 MLOAD DUP1 SWAP2 SUB SWAP1 RETURN JUMPDEST PUSH2 0x7C2 PUSH1 0x4 DUP1 CALLDATASIZE SUB DUP2 ADD SWAP1 PUSH2 0x7BD SWAP2 SWAP1 PUSH2 0x362A JUMP JUMPDEST PUSH2 0x267B JUMP JUMPDEST STOP JUMPDEST PUSH2 0x7CC PUSH2 0x26FE JUMP JUMPDEST PUSH1 0x40 MLOAD PUSH2 0x7D9 SWAP2 SWAP1 PUSH2 0x3802 JUMP JUMPDEST PUSH1 0x40 MLOAD DUP1 SWAP2 SUB SWAP1 RETURN JUMPDEST PUSH2 0x7EA PUSH2 0x2722 JUMP JUMPDEST PUSH1 0xC SLOAD TIMESTAMP LT PUSH2 0x82E JUMPI PUSH1 0x40 MLOAD PUSH32 0x8C379A000000000000000000000000000000000000000000000000000000000 DUP2 MSTORE PUSH1 0x4 ADD PUSH2 0x825 SWAP1 PUSH2 0x38B5 JUMP JUMPDEST PUSH1 0x40 MLOAD DUP1 SWAP2 SUB SWAP1 REVERT JUMPDEST PUSH1 0x0 PUSH1 0x5 DUP1 SLOAD SWAP1 POP EQ PUSH2 0x876 JUMPI PUSH1 0x40 MLOAD PUSH32 0x8C379A000000000000000000000000000000000000000000000000000000000 DUP2 MSTORE PUSH1 0x4 ADD PUSH2 0x86D SWAP1 PUSH2 0x396D JUMP JUMPDEST PUSH1 0x40 MLOAD DUP1 SWAP2 SUB SWAP1 REVERT JUMPDEST TIMESTAMP DUP2 GT PUSH2 0x8B8 JUMPI PUSH1 0x40 MLOAD PUSH32 0x8C379A000000000000000000000000000000000000000000000000000000000 DUP2 MSTORE PUSH1 0x4 ADD PUSH2 0x8AF SWAP1 PUSH2 0x39FF JUMP JUMPDEST PUSH1 0x40 MLOAD DUP1 SWAP2 SUB SWAP1 REVERT JUMPDEST DUP1 PUSH1 0xC DUP2 SWAP1 SSTORE POP POP JUMP JUMPDEST PUSH1 0xD SLOAD DUP2 JUMP JUMPDEST PUSH3 0x15180 DUP2 JUMP JUMPDEST PUSH1 0x5 DUP2 DUP2 SLOAD DUP2 LT PUSH2 0x8DF JUMPI PUSH1 0x0 DUP1 REVERT JUMPDEST SWAP1 PUSH1 0x0 MSTORE PUSH1 0x20 PUSH1 0x0 KECCAK256 SWAP1 PUSH1 0x7 MUL ADD PUSH1 0x0 SWAP2 POP SWAP1 POP DUP1 PUSH1 0x0 ADD PUSH1 0x0 SWAP1 SLOAD SWAP1 PUSH2 0x100 EXP SWAP1 DIV PUSH20 0xFFFFFFFFFFFFFFFFFFFFFFFFFFFFFFFFFFFFFFFF AND SWAP1 DUP1 PUSH1 0x1 ADD SLOAD SWAP1 DUP1 PUSH1 0x2 ADD SLOAD SWAP1 DUP1 PUSH1 0x3 ADD SLOAD SWAP1 DUP1 PUSH1 0x4 ADD SLOAD SWAP1 DUP1 PUSH1 0x5 ADD SLOAD SWAP1 DUP1 PUSH1 0x6 ADD SLOAD SWAP1 POP DUP8 JUMP JUMPDEST PUSH1 0x0 PUSH1 0x5 DUP1 SLOAD SWAP1 POP SWAP1 POP SWAP1 JUMP JUMPDEST PUSH1 0x4 SLOAD DUP2 JUMP JUMPDEST PUSH2 0x95C PUSH2 0x2722 JUMP JUMPDEST PUSH1 0x5 DUP1 SLOAD SWAP1 POP DUP6 LT PUSH2 0x9A3 JUMPI PUSH1 0x40 MLOAD PUSH32 0x8C379A000000000000000000000000000000000000000000000000000000000 DUP2 MSTORE PUSH1 0x4 ADD PUSH2 0x99A SWAP1 PUSH2 0x3A6B JUMP JUMPDEST PUSH1 0x40 MLOAD DUP1 SWAP2 SUB SWAP1 REVERT JUMPDEST PUSH3 0x15180 DUP3 GT ISZERO PUSH2 0x9E9 JUMPI PUSH1 0x40 MLOAD PUSH32 0x8C379A000000000000000000000000000000000000000000000000000000000 DUP2 MSTORE PUSH1 0x4 ADD PUSH2 0x9E0 SWAP1 PUSH2 0x3AFD JUMP JUMPDEST PUSH1 0x40 MLOAD DUP1 SWAP2 SUB SWAP1 REVERT JUMPDEST PUSH2 0x190 DUP4 GT ISZERO PUSH2 0xA2E JUMPI PUSH1 0x40 MLOAD PUSH32 0x8C379A000000000000000000000000000000000000000000000000000000000 DUP2 MSTORE PUSH1 0x4 ADD PUSH2 0xA25 SWAP1 PUSH2 0x3B69 JUMP JUMPDEST PUSH1 0x40 MLOAD DUP1 SWAP2 SUB SWAP1 REVERT JUMPDEST DUP1 ISZERO PUSH2 0xA3D JUMPI PUSH2 0xA3C PUSH2 0x1B47 JUMP JUMPDEST JUMPDEST PUSH1 0x0 PUSH1 0x5 DUP7 DUP2 SLOAD DUP2 LT PUSH2 0xA53 JUMPI PUSH2 0xA52 PUSH2 0x3B89 JUMP JUMPDEST JUMPDEST SWAP1 PUSH1 0x0 MSTORE PUSH1 0x20 PUSH1 0x0 KECCAK256 SWAP1 PUSH1 0x7 MUL ADD PUSH1 0x1 ADD SLOAD SWAP1 POP DUP5 PUSH1 0x5 DUP8 DUP2 SLOAD DUP2 LT PUSH2 0xA7C JUMPI PUSH2 0xA7B PUSH2 0x3B89 JUMP JUMPDEST JUMPDEST SWAP1 PUSH1 0x0 MSTORE PUSH1 0x20 PUSH1 0x0 KECCAK256 SWAP1 PUSH1 0x7 MUL ADD PUSH1 0x2 ADD SLOAD PUSH1 0x2 DUP4 DUP2 SLOAD DUP2 LT PUSH2 0xAA2 JUMPI PUSH2 0xAA1 PUSH2 0x3B89 JUMP JUMPDEST JUMPDEST SWAP1 PUSH1 0x0 MSTORE PUSH1 0x20 PUSH1 0x0 KECCAK256 SWAP1 PUSH1 0x3 MUL ADD PUSH1 0x1 ADD SLOAD PUSH2 0xABE SWAP2 SWAP1 PUSH2 0x3BE7 JUMP JUMPDEST PUSH2 0xAC8 SWAP2 SWAP1 PUSH2 0x3C1B JUMP JUMPDEST PUSH1 0x2 DUP3 DUP2 SLOAD DUP2 LT PUSH2 0xADC JUMPI PUSH2 0xADB PUSH2 0x3B89 JUMP JUMPDEST JUMPDEST SWAP1 PUSH1 0x0 MSTORE PUSH1 0x20 PUSH1 0x0 KECCAK256 SWAP1 PUSH1 0x3 MUL ADD PUSH1 0x1 ADD DUP2 SWAP1 SSTORE POP DUP5 PUSH1 0x5 DUP8 DUP2 SLOAD DUP2 LT PUSH2 0xB06 JUMPI PUSH2 0xB05 PUSH2 0x3B89 JUMP JUMPDEST JUMPDEST SWAP1 PUSH1 0x0 MSTORE PUSH1 0x20 PUSH1 0x0 KECCAK256 SWAP1 PUSH1 0x7 MUL ADD PUSH1 0x2 ADD DUP2 SWAP1 SSTORE POP DUP4 PUSH1 0x5 DUP8 DUP2 SLOAD DUP2 LT PUSH2 0xB30 JUMPI PUSH2 0xB2F PUSH2 0x3B89 JUMP JUMPDEST JUMPDEST SWAP1 PUSH1 0x0 MSTORE PUSH1 0x20 PUSH1 0x0 KECCAK256 SWAP1 PUSH1 0x7 MUL ADD PUSH1 0x5 ADD DUP2 SWAP1 SSTORE POP DUP3 PUSH1 0x5 DUP8 DUP2 SLOAD DUP2 LT PUSH2 0xB5A JUMPI PUSH2 0xB59 PUSH2 0x3B89 JUMP JUMPDEST JUMPDEST SWAP1 PUSH1 0x0 MSTORE PUSH1 0x20 PUSH1 0x0 KECCAK256 SWAP1 PUSH1 0x7 MUL ADD PUSH1 0x6 ADD DUP2 SWAP1 SSTORE POP PUSH1 0x5 DUP7 DUP2 SLOAD DUP2 LT PUSH2 0xB83 JUMPI PUSH2 0xB82 PUSH2 0x3B89 JUMP JUMPDEST JUMPDEST SWAP1 PUSH1 0x0 MSTORE PUSH1 0x20 PUSH1 0x0 KECCAK256 SWAP1 PUSH1 0x7 MUL ADD PUSH1 0x1 ADD SLOAD PUSH1 0x5 DUP8 DUP2 SLOAD DUP2 LT PUSH2 0xBA9 JUMPI PUSH2 0xBA8 PUSH2 0x3B89 JUMP JUMPDEST JUMPDEST SWAP1 PUSH1 0x0 MSTORE PUSH1 0x20 PUSH1 0x0 KECCAK256 SWAP1 PUSH1 0x7 MUL ADD PUSH1 0x0 ADD PUSH1 0x0 SWAP1 SLOAD SWAP1 PUSH2 0x100 EXP SWAP1 DIV PUSH20 0xFFFFFFFFFFFFFFFFFFFFFFFFFFFFFFFFFFFFFFFF AND PUSH20 0xFFFFFFFFFFFFFFFFFFFFFFFFFFFFFFFFFFFFFFFF AND PUSH32 0xD516BF05712248CFE5D9BB7E6016F2A8AE61C8CBDA723AAC3059CD9CBC173FDE DUP8 DUP8 DUP8 PUSH1 0x40 MLOAD PUSH2 0xC24 SWAP4 SWAP3 SWAP2 SWAP1 PUSH2 0x3C4F JUMP JUMPDEST PUSH1 0x40 MLOAD DUP1 SWAP2 SUB SWAP1 LOG3 POP POP POP POP POP POP JUMP JUMPDEST PUSH1 0x0 PUSH1 0x7 PUSH1 0x0 DUP5 DUP2 MSTORE PUSH1 0x20 ADD SWAP1 DUP2 MSTORE PUSH1 0x20 ADD PUSH1 0x0 KECCAK256 PUSH1 0x0 DUP4 PUSH20 0xFFFFFFFFFFFFFFFFFFFFFFFFFFFFFFFFFFFFFFFF AND PUSH20 0xFFFFFFFFFFFFFFFFFFFFFFFFFFFFFFFFFFFFFFFF AND DUP2 MSTORE PUSH1 0x20 ADD SWAP1 DUP2 MSTORE PUSH1 0x20 ADD PUSH1 0x0 KECCAK256 PUSH1 0x2 ADD SLOAD TIMESTAMP LT ISZERO SWAP1 POP SWAP3 SWAP2 POP POP JUMP JUMPDEST PUSH1 0x0 PUSH1 0xD SLOAD PUSH1 0xC SLOAD PUSH2 0xCA7 SWAP2 SWAP1 PUSH2 0x3C1B JUMP JUMPDEST SWAP1 POP SWAP1 JUMP JUMPDEST PUSH2 0x190 DUP2 JUMP JUMPDEST PUSH2 0xCBA PUSH2 0x27A0 JUMP JUMPDEST PUSH1 0x0 PUSH1 0x5 DUP4 DUP2 SLOAD DUP2 LT PUSH2 0xCD0 JUMPI PUSH2 0xCCF PUSH2 0x3B89 JUMP JUMPDEST JUMPDEST SWAP1 PUSH1 0x0 MSTORE PUSH1 0x20 PUSH1 0x0 KECCAK256 SWAP1 PUSH1 0x7 MUL ADD SWAP1 POP PUSH1 0x0 PUSH1 0x7 PUSH1 0x0 DUP6 DUP2 MSTORE PUSH1 0x20 ADD SWAP1 DUP2 MSTORE PUSH1 0x20 ADD PUSH1 0x0 KECCAK256 PUSH1 0x0 CALLER PUSH20 0xFFFFFFFFFFFFFFFFFFFFFFFFFFFFFFFFFFFFFFFF AND PUSH20 0xFFFFFFFFFFFFFFFFFFFFFFFFFFFFFFFFFFFFFFFF AND DUP2 MSTORE PUSH1 0x20 ADD SWAP1 DUP2 MSTORE PUSH1 0x20 ADD PUSH1 0x0 KECCAK256 SWAP1 POP DUP3 DUP2 PUSH1 0x0 ADD SLOAD LT ISZERO PUSH2 0xD7B JUMPI PUSH1 0x40 MLOAD PUSH32 0x8C379A000000000000000000000000000000000000000000000000000000000 DUP2 MSTORE PUSH1 0x4 ADD PUSH2 0xD72 SWAP1 PUSH2 0x3CD2 JUMP JUMPDEST PUSH1 0x40 MLOAD DUP1 SWAP2 SUB SWAP1 REVERT JUMPDEST PUSH2 0xD84 DUP5 PUSH2 0x1115 JUMP JUMPDEST PUSH2 0xD8D DUP5 PUSH2 0x27EF JUMP JUMPDEST DUP3 DUP2 PUSH1 0x0 ADD PUSH1 0x0 DUP3 DUP3 SLOAD PUSH2 0xDA1 SWAP2 SWAP1 PUSH2 0x3BE7 JUMP JUMPDEST SWAP3 POP POP DUP2 SWAP1 SSTORE POP PUSH8 0xDE0B6B3A7640000 DUP3 PUSH1 0x4 ADD SLOAD DUP3 PUSH1 0x0 ADD SLOAD PUSH2 0xDC5 SWAP2 SWAP1 PUSH2 0x3CF2 JUMP JUMPDEST PUSH2 0xDCF SWAP2 SWAP1 PUSH2 0x3D63 JUMP JUMPDEST DUP2 PUSH1 0x1 ADD DUP2 SWAP1 SSTORE POP PUSH1 0x0 DUP4 GT ISZERO PUSH2 0xE30 JUMPI PUSH2 0xE2F CALLER DUP5 DUP5 PUSH1 0x0 ADD PUSH1 0x0 SWAP1 SLOAD SWAP1 PUSH2 0x100 EXP SWAP1 DIV PUSH20 0xFFFFFFFFFFFFFFFFFFFFFFFFFFFFFFFFFFFFFFFF AND PUSH20 0xFFFFFFFFFFFFFFFFFFFFFFFFFFFFFFFFFFFFFFFF AND PUSH2 0x29E1 SWAP1 SWAP3 SWAP2 SWAP1 PUSH4 0xFFFFFFFF AND JUMP JUMPDEST JUMPDEST DUP4 CALLER PUSH20 0xFFFFFFFFFFFFFFFFFFFFFFFFFFFFFFFFFFFFFFFF AND PUSH32 0xF279E6A1F5E320CCA91135676D9CB6E44CA8A08C0B88342BCDB1144F6511B568 DUP6 PUSH1 0x40 MLOAD PUSH2 0xE77 SWAP2 SWAP1 PUSH2 0x302A JUMP JUMPDEST PUSH1 0x40 MLOAD DUP1 SWAP2 SUB SWAP1 LOG3 POP POP PUSH2 0xE89 PUSH2 0x2A67 JUMP JUMPDEST POP POP JUMP JUMPDEST PUSH2 0xE95 PUSH2 0x2722 JUMP JUMPDEST DUP1 ISZERO PUSH2 0xEA4 JUMPI PUSH2 0xEA3 PUSH2 0x1B47 JUMP JUMPDEST JUMPDEST DUP2 PUSH1 0x4 PUSH1 0x0 DUP3 DUP3 SLOAD PUSH2 0xEB6 SWAP2 SWAP1 PUSH2 0x3C1B JUMP JUMPDEST SWAP3 POP POP DUP2 SWAP1 SSTORE POP PUSH1 0x2 PUSH1 0x40 MLOAD DUP1 PUSH1 0x60 ADD PUSH1 0x40 MSTORE DUP1 DUP5 DUP2 MSTORE PUSH1 0x20 ADD PUSH1 0x0 DUP2 MSTORE PUSH1 0x20 ADD DUP7 DUP7 DUP1 DUP1 PUSH1 0x1F ADD PUSH1 0x20 DUP1 SWAP2 DIV MUL PUSH1 0x20 ADD PUSH1 0x40 MLOAD SWAP1 DUP2 ADD PUSH1 0x40 MSTORE DUP1 SWAP4 SWAP3 SWAP2 SWAP1 DUP2 DUP2 MSTORE PUSH1 0x20 ADD DUP4 DUP4 DUP1 DUP3 DUP5 CALLDATACOPY PUSH1 0x0 DUP2 DUP5 ADD MSTORE PUSH1 0x1F NOT PUSH1 0x1F DUP3 ADD AND SWAP1 POP DUP1 DUP4 ADD SWAP3 POP POP POP POP POP POP POP DUP2 MSTORE POP SWAP1 DUP1 PUSH1 0x1 DUP2 SLOAD ADD DUP1 DUP3 SSTORE DUP1 SWAP2 POP POP PUSH1 0x1 SWAP1 SUB SWAP1 PUSH1 0x0 MSTORE PUSH1 0x20 PUSH1 0x0 KECCAK256 SWAP1 PUSH1 0x3 MUL ADD PUSH1 0x0 SWAP1 SWAP2 SWAP1 SWAP2 SWAP1 SWAP2 POP PUSH1 0x0 DUP3 ADD MLOAD DUP2 PUSH1 0x0 ADD SSTORE PUSH1 0x20 DUP3 ADD MLOAD DUP2 PUSH1 0x1 ADD SSTORE PUSH1 0x40 DUP3 ADD MLOAD DUP2 PUSH1 0x2 ADD SWAP1 DUP2 PUSH2 0xF71 SWAP2 SWAP1 PUSH2 0x3FC5 JUMP JUMPDEST POP POP POP DUP4 DUP4 PUSH1 0x40 MLOAD PUSH2 0xF84 SWAP3 SWAP2 SWAP1 PUSH2 0x40D6 JUMP JUMPDEST PUSH1 0x40 MLOAD DUP1 SWAP2 SUB SWAP1 KECCAK256 PUSH32 0x2693E3E53273A2771D7B42DA08BE41FADB0AB4B1043FB6B0D2C67883E708A48B PUSH1 0x1 PUSH1 0x2 DUP1 SLOAD SWAP1 POP PUSH2 0xFBF SWAP2 SWAP1 PUSH2 0x3BE7 JUMP JUMPDEST DUP5 PUSH1 0x40 MLOAD PUSH2 0xFCE SWAP3 SWAP2 SWAP1 PUSH2 0x369C JUMP JUMPDEST PUSH1 0x40 MLOAD DUP1 SWAP2 SUB SWAP1 LOG2 POP POP POP POP JUMP JUMPDEST PUSH2 0xFE4 PUSH2 0x2722 JUMP JUMPDEST PUSH1 0x2 DUP1 SLOAD SWAP1 POP DUP4 LT PUSH2 0x102B JUMPI PUSH1 0x40 MLOAD PUSH32 0x8C379A000000000000000000000000000000000000000000000000000000000 DUP2 MSTORE PUSH1 0x4 ADD PUSH2 0x1022 SWAP1 PUSH2 0x4161 JUMP JUMPDEST PUSH1 0x40 MLOAD DUP1 SWAP2 SUB SWAP1 REVERT JUMPDEST DUP1 ISZERO PUSH2 0x103A JUMPI PUSH2 0x1039 PUSH2 0x1B47 JUMP JUMPDEST JUMPDEST DUP2 PUSH1 0x2 DUP5 DUP2 SLOAD DUP2 LT PUSH2 0x104F JUMPI PUSH2 0x104E PUSH2 0x3B89 JUMP JUMPDEST JUMPDEST SWAP1 PUSH1 0x0 MSTORE PUSH1 0x20 PUSH1 0x0 KECCAK256 SWAP1 PUSH1 0x3 MUL ADD PUSH1 0x0 ADD SLOAD PUSH1 0x4 SLOAD PUSH2 0x106E SWAP2 SWAP1 PUSH2 0x3BE7 JUMP JUMPDEST PUSH2 0x1078 SWAP2 SWAP1 PUSH2 0x3C1B JUMP JUMPDEST PUSH1 0x4 DUP2 SWAP1 SSTORE POP DUP2 PUSH1 0x2 DUP5 DUP2 SLOAD DUP2 LT PUSH2 0x1093 JUMPI PUSH2 0x1092 PUSH2 0x3B89 JUMP JUMPDEST JUMPDEST SWAP1 PUSH1 0x0 MSTORE PUSH1 0x20 PUSH1 0x0 KECCAK256 SWAP1 PUSH1 0x3 MUL ADD PUSH1 0x0 ADD DUP2 SWAP1 SSTORE POP PUSH32 0x4DB1FF07B777D5D3CB772FBE3AAC7D1DB9EEE1C30CB9EDEB557B329989E5B7E7 DUP4 DUP4 PUSH1 0x40 MLOAD PUSH2 0x10D9 SWAP3 SWAP2 SWAP1 PUSH2 0x369C JUMP JUMPDEST PUSH1 0x40 MLOAD DUP1 SWAP2 SUB SWAP1 LOG1 POP POP POP JUMP JUMPDEST PUSH1 0x9 SLOAD DUP2 JUMP JUMPDEST PUSH1 0x0 PUSH1 0xC SLOAD TIMESTAMP GT ISZERO PUSH2 0x110D JUMPI PUSH1 0xC SLOAD TIMESTAMP PUSH2 0x1106 SWAP2 SWAP1 PUSH2 0x3BE7 JUMP JUMPDEST SWAP1 POP PUSH2 0x1112 JUMP JUMPDEST PUSH1 0x0 SWAP1 POP JUMPDEST SWAP1 JUMP JUMPDEST PUSH1 0x0 PUSH1 0x5 DUP3 DUP2 SLOAD DUP2 LT PUSH2 0x112B JUMPI PUSH2 0x112A PUSH2 0x3B89 JUMP JUMPDEST JUMPDEST SWAP1 PUSH1 0x0 MSTORE PUSH1 0x20 PUSH1 0x0 KECCAK256 SWAP1 PUSH1 0x7 MUL ADD SWAP1 POP DUP1 PUSH1 0x3 ADD SLOAD TIMESTAMP GT ISZERO DUP1 PUSH2 0x1152 JUMPI POP PUSH1 0x0 DUP2 PUSH1 0x2 ADD SLOAD EQ JUMPDEST DUP1 PUSH2 0x1186 JUMPI POP PUSH1 0x0 PUSH1 0x2 DUP3 PUSH1 0x1 ADD SLOAD DUP2 SLOAD DUP2 LT PUSH2 0x1172 JUMPI PUSH2 0x1171 PUSH2 0x3B89 JUMP JUMPDEST JUMPDEST SWAP1 PUSH1 0x0 MSTORE PUSH1 0x20 PUSH1 0x0 KECCAK256 SWAP1 PUSH1 0x3 MUL ADD PUSH1 0x0 ADD SLOAD EQ JUMPDEST ISZERO PUSH2 0x1191 JUMPI POP PUSH2 0x1581 JUMP JUMPDEST PUSH1 0x0 PUSH2 0x11A1 DUP3 PUSH1 0x3 ADD SLOAD TIMESTAMP PUSH2 0x1CC2 JUMP JUMPDEST SWAP1 POP PUSH1 0x0 DUP2 SUB PUSH2 0x11BB JUMPI TIMESTAMP DUP3 PUSH1 0x3 ADD DUP2 SWAP1 SSTORE POP POP POP PUSH2 0x1581 JUMP JUMPDEST PUSH1 0x0 DUP3 PUSH1 0x0 ADD PUSH1 0x0 SWAP1 SLOAD SWAP1 PUSH2 0x100 EXP SWAP1 DIV PUSH20 0xFFFFFFFFFFFFFFFFFFFFFFFFFFFFFFFFFFFFFFFF AND PUSH20 0xFFFFFFFFFFFFFFFFFFFFFFFFFFFFFFFFFFFFFFFF AND PUSH4 0x70A08231 ADDRESS PUSH1 0x40 MLOAD DUP3 PUSH4 0xFFFFFFFF AND PUSH1 0xE0 SHL DUP2 MSTORE PUSH1 0x4 ADD PUSH2 0x121A SWAP2 SWAP1 PUSH2 0x360F JUMP JUMPDEST PUSH1 0x20 PUSH1 0x40 MLOAD DUP1 DUP4 SUB DUP2 DUP7 GAS STATICCALL ISZERO DUP1 ISZERO PUSH2 0x1237 JUMPI RETURNDATASIZE PUSH1 0x0 DUP1 RETURNDATACOPY RETURNDATASIZE PUSH1 0x0 REVERT JUMPDEST POP POP POP POP PUSH1 0x40 MLOAD RETURNDATASIZE PUSH1 0x1F NOT PUSH1 0x1F DUP3 ADD AND DUP3 ADD DUP1 PUSH1 0x40 MSTORE POP DUP2 ADD SWAP1 PUSH2 0x125B SWAP2 SWAP1 PUSH2 0x4196 JUMP JUMPDEST SWAP1 POP PUSH1 0x0 PUSH1 0x2 DUP5 PUSH1 0x1 ADD SLOAD DUP2 SLOAD DUP2 LT PUSH2 0x1277 JUMPI PUSH2 0x1276 PUSH2 0x3B89 JUMP JUMPDEST JUMPDEST SWAP1 PUSH1 0x0 MSTORE PUSH1 0x20 PUSH1 0x0 KECCAK256 SWAP1 PUSH1 0x3 MUL ADD SWAP1 POP PUSH1 0x0 PUSH1 0x4 SLOAD DUP3 PUSH1 0x0 ADD SLOAD DUP4 PUSH1 0x1 ADD SLOAD DUP8 PUSH1 0x2 ADD SLOAD PUSH1 0x9 SLOAD DUP9 PUSH2 0x12A9 SWAP2 SWAP1 PUSH2 0x3CF2 JUMP JUMPDEST PUSH2 0x12B3 SWAP2 SWAP1 PUSH2 0x3CF2 JUMP JUMPDEST PUSH2 0x12BD SWAP2 SWAP1 PUSH2 0x3D63 JUMP JUMPDEST PUSH2 0x12C7 SWAP2 SWAP1 PUSH2 0x3CF2 JUMP JUMPDEST PUSH2 0x12D1 SWAP2 SWAP1 PUSH2 0x3D63 JUMP JUMPDEST SWAP1 POP PUSH1 0x0 PUSH1 0x4 SLOAD DUP4 PUSH1 0x0 ADD SLOAD DUP5 PUSH1 0x1 ADD SLOAD DUP9 PUSH1 0x2 ADD SLOAD PUSH1 0x8 SLOAD DUP10 PUSH2 0x12F5 SWAP2 SWAP1 PUSH2 0x3CF2 JUMP JUMPDEST PUSH2 0x12FF SWAP2 SWAP1 PUSH2 0x3CF2 JUMP JUMPDEST PUSH2 0x1309 SWAP2 SWAP1 PUSH2 0x3D63 JUMP JUMPDEST PUSH2 0x1313 SWAP2 SWAP1 PUSH2 0x3CF2 JUMP JUMPDEST PUSH2 0x131D SWAP2 SWAP1 PUSH2 0x3D63 JUMP JUMPDEST SWAP1 POP TIMESTAMP DUP7 PUSH1 0x3 ADD DUP2 SWAP1 SSTORE POP PUSH1 0x0 DUP5 SUB PUSH2 0x13E4 JUMPI PUSH32 0x0 PUSH20 0xFFFFFFFFFFFFFFFFFFFFFFFFFFFFFFFFFFFFFFFF AND PUSH4 0x40C10F19 PUSH1 0xA PUSH1 0x0 SWAP1 SLOAD SWAP1 PUSH2 0x100 EXP SWAP1 DIV PUSH20 0xFFFFFFFFFFFFFFFFFFFFFFFFFFFFFFFFFFFFFFFF AND DUP5 PUSH1 0x40 MLOAD DUP4 PUSH4 0xFFFFFFFF AND PUSH1 0xE0 SHL DUP2 MSTORE PUSH1 0x4 ADD PUSH2 0x13AD SWAP3 SWAP2 SWAP1 PUSH2 0x41C3 JUMP JUMPDEST PUSH1 0x0 PUSH1 0x40 MLOAD DUP1 DUP4 SUB DUP2 PUSH1 0x0 DUP8 DUP1 EXTCODESIZE ISZERO DUP1 ISZERO PUSH2 0x13C7 JUMPI PUSH1 0x0 DUP1 REVERT JUMPDEST POP GAS CALL ISZERO DUP1 ISZERO PUSH2 0x13DB JUMPI RETURNDATASIZE PUSH1 0x0 DUP1 RETURNDATACOPY RETURNDATASIZE PUSH1 0x0 REVERT JUMPDEST POP POP POP POP PUSH2 0x14CB JUMP JUMPDEST DUP4 PUSH8 0xDE0B6B3A7640000 DUP4 PUSH2 0x13F9 SWAP2 SWAP1 PUSH2 0x3CF2 JUMP JUMPDEST PUSH2 0x1403 SWAP2 SWAP1 PUSH2 0x3D63 JUMP JUMPDEST DUP7 PUSH1 0x4 ADD PUSH1 0x0 DUP3 DUP3 SLOAD PUSH2 0x1416 SWAP2 SWAP1 PUSH2 0x3C1B JUMP JUMPDEST SWAP3 POP POP DUP2 SWAP1 SSTORE POP PUSH32 0x0 PUSH20 0xFFFFFFFFFFFFFFFFFFFFFFFFFFFFFFFFFFFFFFFF AND PUSH4 0x40C10F19 PUSH32 0x0 DUP5 PUSH1 0x40 MLOAD DUP4 PUSH4 0xFFFFFFFF AND PUSH1 0xE0 SHL DUP2 MSTORE PUSH1 0x4 ADD PUSH2 0x1498 SWAP3 SWAP2 SWAP1 PUSH2 0x41C3 JUMP JUMPDEST PUSH1 0x0 PUSH1 0x40 MLOAD DUP1 DUP4 SUB DUP2 PUSH1 0x0 DUP8 DUP1 EXTCODESIZE ISZERO DUP1 ISZERO PUSH2 0x14B2 JUMPI PUSH1 0x0 DUP1 REVERT JUMPDEST POP GAS CALL ISZERO DUP1 ISZERO PUSH2 0x14C6 JUMPI RETURNDATASIZE PUSH1 0x0 DUP1 RETURNDATACOPY RETURNDATASIZE PUSH1 0x0 REVERT JUMPDEST POP POP POP POP JUMPDEST PUSH32 0x0 PUSH20 0xFFFFFFFFFFFFFFFFFFFFFFFFFFFFFFFFFFFFFFFF AND PUSH4 0x40C10F19 PUSH1 0xA PUSH1 0x0 SWAP1 SLOAD SWAP1 PUSH2 0x100 EXP SWAP1 DIV PUSH20 0xFFFFFFFFFFFFFFFFFFFFFFFFFFFFFFFFFFFFFFFF AND DUP4 PUSH1 0x40 MLOAD DUP4 PUSH4 0xFFFFFFFF AND PUSH1 0xE0 SHL DUP2 MSTORE PUSH1 0x4 ADD PUSH2 0x1548 SWAP3 SWAP2 SWAP1 PUSH2 0x41C3 JUMP JUMPDEST PUSH1 0x0 PUSH1 0x40 MLOAD DUP1 DUP4 SUB DUP2 PUSH1 0x0 DUP8 DUP1 EXTCODESIZE ISZERO DUP1 ISZERO PUSH2 0x1562 JUMPI PUSH1 0x0 DUP1 REVERT JUMPDEST POP GAS CALL ISZERO DUP1 ISZERO PUSH2 0x1576 JUMPI RETURNDATASIZE PUSH1 0x0 DUP1 RETURNDATACOPY RETURNDATASIZE PUSH1 0x0 REVERT JUMPDEST POP POP POP POP POP POP POP POP POP POP JUMPDEST POP JUMP JUMPDEST PUSH2 0x158C PUSH2 0x27A0 JUMP JUMPDEST PUSH1 0x0 PUSH1 0x5 DUP3 DUP2 SLOAD DUP2 LT PUSH2 0x15A2 JUMPI PUSH2 0x15A1 PUSH2 0x3B89 JUMP JUMPDEST JUMPDEST SWAP1 PUSH1 0x0 MSTORE PUSH1 0x20 PUSH1 0x0 KECCAK256 SWAP1 PUSH1 0x7 MUL ADD SWAP1 POP PUSH1 0x0 PUSH1 0x7 PUSH1 0x0 DUP5 DUP2 MSTORE PUSH1 0x20 ADD SWAP1 DUP2 MSTORE PUSH1 0x20 ADD PUSH1 0x0 KECCAK256 PUSH1 0x0 CALLER PUSH20 0xFFFFFFFFFFFFFFFFFFFFFFFFFFFFFFFFFFFFFFFF AND PUSH20 0xFFFFFFFFFFFFFFFFFFFFFFFFFFFFFFFFFFFFFFFF AND DUP2 MSTORE PUSH1 0x20 ADD SWAP1 DUP2 MSTORE PUSH1 0x20 ADD PUSH1 0x0 KECCAK256 SWAP1 POP PUSH2 0x1659 CALLER DUP3 PUSH1 0x0 ADD SLOAD DUP5 PUSH1 0x0 ADD PUSH1 0x0 SWAP1 SLOAD SWAP1 PUSH2 0x100 EXP SWAP1 DIV PUSH20 0xFFFFFFFFFFFFFFFFFFFFFFFFFFFFFFFFFFFFFFFF AND PUSH20 0xFFFFFFFFFFFFFFFFFFFFFFFFFFFFFFFFFFFFFFFF AND PUSH2 0x29E1 SWAP1 SWAP3 SWAP2 SWAP1 PUSH4 0xFFFFFFFF AND JUMP JUMPDEST DUP3 CALLER PUSH20 0xFFFFFFFFFFFFFFFFFFFFFFFFFFFFFFFFFFFFFFFF AND PUSH32 0xBB757047C2B5F3974FE26B7C10F732E7BCE710B0952A71082702781E62AE0595 DUP4 PUSH1 0x0 ADD SLOAD PUSH1 0x40 MLOAD PUSH2 0x16A4 SWAP2 SWAP1 PUSH2 0x302A JUMP JUMPDEST PUSH1 0x40 MLOAD DUP1 SWAP2 SUB SWAP1 LOG3 PUSH1 0x0 DUP2 PUSH1 0x0 ADD DUP2 SWAP1 SSTORE POP PUSH1 0x0 DUP2 PUSH1 0x1 ADD DUP2 SWAP1 SSTORE POP PUSH1 0x0 DUP2 PUSH1 0x3 ADD DUP2 SWAP1 SSTORE POP PUSH1 0x0 DUP2 PUSH1 0x2 ADD DUP2 SWAP1 SSTORE POP POP POP PUSH2 0x16DE PUSH2 0x2A67 JUMP JUMPDEST POP JUMP JUMPDEST PUSH2 0x16E9 PUSH2 0x2722 JUMP JUMPDEST PUSH1 0x2 DUP1 SLOAD SWAP1 POP DUP7 LT PUSH2 0x1730 JUMPI PUSH1 0x40 MLOAD PUSH32 0x8C379A000000000000000000000000000000000000000000000000000000000 DUP2 MSTORE PUSH1 0x4 ADD PUSH2 0x1727 SWAP1 PUSH2 0x4161 JUMP JUMPDEST PUSH1 0x40 MLOAD DUP1 SWAP2 SUB SWAP1 REVERT JUMPDEST PUSH3 0x15180 DUP3 GT ISZERO PUSH2 0x1776 JUMPI PUSH1 0x40 MLOAD PUSH32 0x8C379A000000000000000000000000000000000000000000000000000000000 DUP2 MSTORE PUSH1 0x4 ADD PUSH2 0x176D SWAP1 PUSH2 0x3AFD JUMP JUMPDEST PUSH1 0x40 MLOAD DUP1 SWAP2 SUB SWAP1 REVERT JUMPDEST PUSH2 0x190 DUP4 GT ISZERO PUSH2 0x17BB JUMPI PUSH1 0x40 MLOAD PUSH32 0x8C379A000000000000000000000000000000000000000000000000000000000 DUP2 MSTORE PUSH1 0x4 ADD PUSH2 0x17B2 SWAP1 PUSH2 0x3B69 JUMP JUMPDEST PUSH1 0x40 MLOAD DUP1 SWAP2 SUB SWAP1 REVERT JUMPDEST PUSH1 0x0 DUP6 SWAP1 POP PUSH1 0x0 PUSH1 0x6 PUSH1 0x0 DUP4 PUSH20 0xFFFFFFFFFFFFFFFFFFFFFFFFFFFFFFFFFFFFFFFF AND PUSH20 0xFFFFFFFFFFFFFFFFFFFFFFFFFFFFFFFFFFFFFFFF AND DUP2 MSTORE PUSH1 0x20 ADD SWAP1 DUP2 MSTORE PUSH1 0x20 ADD PUSH1 0x0 KECCAK256 SLOAD EQ PUSH2 0x1842 JUMPI PUSH1 0x40 MLOAD PUSH32 0x8C379A000000000000000000000000000000000000000000000000000000000 DUP2 MSTORE PUSH1 0x4 ADD PUSH2 0x1839 SWAP1 PUSH2 0x425E JUMP JUMPDEST PUSH1 0x40 MLOAD DUP1 SWAP2 SUB SWAP1 REVERT JUMPDEST DUP2 ISZERO PUSH2 0x1851 JUMPI PUSH2 0x1850 PUSH2 0x1B47 JUMP JUMPDEST JUMPDEST PUSH1 0x0 PUSH1 0xC SLOAD TIMESTAMP GT PUSH2 0x1864 JUMPI PUSH1 0xC SLOAD PUSH2 0x1866 JUMP JUMPDEST TIMESTAMP JUMPDEST SWAP1 POP DUP6 PUSH1 0x2 DUP10 DUP2 SLOAD DUP2 LT PUSH2 0x187D JUMPI PUSH2 0x187C PUSH2 0x3B89 JUMP JUMPDEST JUMPDEST SWAP1 PUSH1 0x0 MSTORE PUSH1 0x20 PUSH1 0x0 KECCAK256 SWAP1 PUSH1 0x3 MUL ADD PUSH1 0x1 ADD PUSH1 0x0 DUP3 DUP3 SLOAD PUSH2 0x189D SWAP2 SWAP1 PUSH2 0x3C1B JUMP JUMPDEST SWAP3 POP POP DUP2 SWAP1 SSTORE POP PUSH1 0x1 PUSH1 0x5 DUP1 SLOAD SWAP1 POP PUSH2 0x18B6 SWAP2 SWAP1 PUSH2 0x3C1B JUMP JUMPDEST PUSH1 0x6 PUSH1 0x0 DUP5 PUSH20 0xFFFFFFFFFFFFFFFFFFFFFFFFFFFFFFFFFFFFFFFF AND PUSH20 0xFFFFFFFFFFFFFFFFFFFFFFFFFFFFFFFFFFFFFFFF AND DUP2 MSTORE PUSH1 0x20 ADD SWAP1 DUP2 MSTORE PUSH1 0x20 ADD PUSH1 0x0 KECCAK256 DUP2 SWAP1 SSTORE POP PUSH1 0x5 PUSH1 0x40 MLOAD DUP1 PUSH1 0xE0 ADD PUSH1 0x40 MSTORE DUP1 DUP10 PUSH20 0xFFFFFFFFFFFFFFFFFFFFFFFFFFFFFFFFFFFFFFFF AND DUP2 MSTORE PUSH1 0x20 ADD DUP11 DUP2 MSTORE PUSH1 0x20 ADD DUP9 DUP2 MSTORE PUSH1 0x20 ADD DUP4 DUP2 MSTORE PUSH1 0x20 ADD PUSH1 0x0 DUP2 MSTORE PUSH1 0x20 ADD DUP8 DUP2 MSTORE PUSH1 0x20 ADD DUP7 DUP2 MSTORE POP SWAP1 DUP1 PUSH1 0x1 DUP2 SLOAD ADD DUP1 DUP3 SSTORE DUP1 SWAP2 POP POP PUSH1 0x1 SWAP1 SUB SWAP1 PUSH1 0x0 MSTORE PUSH1 0x20 PUSH1 0x0 KECCAK256 SWAP1 PUSH1 0x7 MUL ADD PUSH1 0x0 SWAP1 SWAP2 SWAP1 SWAP2 SWAP1 SWAP2 POP PUSH1 0x0 DUP3 ADD MLOAD DUP2 PUSH1 0x0 ADD PUSH1 0x0 PUSH2 0x100 EXP DUP2 SLOAD DUP2 PUSH20 0xFFFFFFFFFFFFFFFFFFFFFFFFFFFFFFFFFFFFFFFF MUL NOT AND SWAP1 DUP4 PUSH20 0xFFFFFFFFFFFFFFFFFFFFFFFFFFFFFFFFFFFFFFFF AND MUL OR SWAP1 SSTORE POP PUSH1 0x20 DUP3 ADD MLOAD DUP2 PUSH1 0x1 ADD SSTORE PUSH1 0x40 DUP3 ADD MLOAD DUP2 PUSH1 0x2 ADD SSTORE PUSH1 0x60 DUP3 ADD MLOAD DUP2 PUSH1 0x3 ADD SSTORE PUSH1 0x80 DUP3 ADD MLOAD DUP2 PUSH1 0x4 ADD SSTORE PUSH1 0xA0 DUP3 ADD MLOAD DUP2 PUSH1 0x5 ADD SSTORE PUSH1 0xC0 DUP3 ADD MLOAD DUP2 PUSH1 0x6 ADD SSTORE POP POP PUSH1 0x3 PUSH1 0x0 DUP10 DUP2 MSTORE PUSH1 0x20 ADD SWAP1 DUP2 MSTORE PUSH1 0x20 ADD PUSH1 0x0 KECCAK256 PUSH1 0x1 PUSH1 0x5 DUP1 SLOAD SWAP1 POP PUSH2 0x1A18 SWAP2 SWAP1 PUSH2 0x3BE7 JUMP JUMPDEST SWAP1 DUP1 PUSH1 0x1 DUP2 SLOAD ADD DUP1 DUP3 SSTORE DUP1 SWAP2 POP POP PUSH1 0x1 SWAP1 SUB SWAP1 PUSH1 0x0 MSTORE PUSH1 0x20 PUSH1 0x0 KECCAK256 ADD PUSH1 0x0 SWAP1 SWAP2 SWAP1 SWAP2 SWAP1 SWAP2 POP SSTORE DUP8 DUP3 PUSH20 0xFFFFFFFFFFFFFFFFFFFFFFFFFFFFFFFFFFFFFFFF AND PUSH32 0x75A2211EF19062DFBD74D88BB38DE002CEE015815AD5B453FB3C903947B8151 DUP9 DUP9 DUP9 PUSH1 0x40 MLOAD PUSH2 0x1A89 SWAP4 SWAP3 SWAP2 SWAP1 PUSH2 0x3C4F JUMP JUMPDEST PUSH1 0x40 MLOAD DUP1 SWAP2 SUB SWAP1 LOG3 POP POP POP POP POP POP POP POP JUMP JUMPDEST PUSH2 0x1AA3 PUSH2 0x2722 JUMP JUMPDEST PUSH8 0x403FBF9E8BB284BE DUP3 GT ISZERO PUSH2 0x1AEE JUMPI PUSH1 0x40 MLOAD PUSH32 0x8C379A000000000000000000000000000000000000000000000000000000000 DUP2 MSTORE PUSH1 0x4 ADD PUSH2 0x1AE5 SWAP1 PUSH2 0x42CA JUMP JUMPDEST PUSH1 0x40 MLOAD DUP1 SWAP2 SUB SWAP1 REVERT JUMPDEST DUP1 ISZERO PUSH2 0x1AFD JUMPI PUSH2 0x1AFC PUSH2 0x1B47 JUMP JUMPDEST JUMPDEST PUSH1 0xA DUP3 PUSH2 0x1B0A SWAP2 SWAP1 PUSH2 0x3D63 JUMP JUMPDEST PUSH1 0x8 DUP2 SWAP1 SSTORE POP PUSH1 0x8 SLOAD DUP3 PUSH2 0x1B1E SWAP2 SWAP1 PUSH2 0x3BE7 JUMP JUMPDEST PUSH1 0x9 DUP2 SWAP1 SSTORE POP PUSH2 0x1B2C PUSH2 0x2A70 JUMP JUMPDEST POP POP JUMP JUMPDEST PUSH1 0x0 PUSH1 0x9 SLOAD PUSH1 0x8 SLOAD PUSH2 0x1B42 SWAP2 SWAP1 PUSH2 0x3C1B JUMP JUMPDEST SWAP1 POP SWAP1 JUMP JUMPDEST PUSH1 0x0 PUSH1 0x5 DUP1 SLOAD SWAP1 POP SWAP1 POP PUSH1 0x0 JUMPDEST DUP2 DUP2 LT ISZERO PUSH2 0x1B78 JUMPI PUSH2 0x1B65 DUP2 PUSH2 0x1115 JUMP JUMPDEST DUP1 DUP1 PUSH2 0x1B70 SWAP1 PUSH2 0x42EA JUMP JUMPDEST SWAP2 POP POP PUSH2 0x1B54 JUMP JUMPDEST POP POP JUMP JUMPDEST PUSH1 0x2 DUP2 DUP2 SLOAD DUP2 LT PUSH2 0x1B8C JUMPI PUSH1 0x0 DUP1 REVERT JUMPDEST SWAP1 PUSH1 0x0 MSTORE PUSH1 0x20 PUSH1 0x0 KECCAK256 SWAP1 PUSH1 0x3 MUL ADD PUSH1 0x0 SWAP2 POP SWAP1 POP DUP1 PUSH1 0x0 ADD SLOAD SWAP1 DUP1 PUSH1 0x1 ADD SLOAD SWAP1 DUP1 PUSH1 0x2 ADD DUP1 SLOAD PUSH2 0x1BBB SWAP1 PUSH2 0x3DF2 JUMP JUMPDEST DUP1 PUSH1 0x1F ADD PUSH1 0x20 DUP1 SWAP2 DIV MUL PUSH1 0x20 ADD PUSH1 0x40 MLOAD SWAP1 DUP2 ADD PUSH1 0x40 MSTORE DUP1 SWAP3 SWAP2 SWAP1 DUP2 DUP2 MSTORE PUSH1 0x20 ADD DUP3 DUP1 SLOAD PUSH2 0x1BE7 SWAP1 PUSH2 0x3DF2 JUMP JUMPDEST DUP1 ISZERO PUSH2 0x1C34 JUMPI DUP1 PUSH1 0x1F LT PUSH2 0x1C09 JUMPI PUSH2 0x100 DUP1 DUP4 SLOAD DIV MUL DUP4 MSTORE SWAP2 PUSH1 0x20 ADD SWAP2 PUSH2 0x1C34 JUMP JUMPDEST DUP3 ADD SWAP2 SWAP1 PUSH1 0x0 MSTORE PUSH1 0x20 PUSH1 0x0 KECCAK256 SWAP1 JUMPDEST DUP2 SLOAD DUP2 MSTORE SWAP1 PUSH1 0x1 ADD SWAP1 PUSH1 0x20 ADD DUP1 DUP4 GT PUSH2 0x1C17 JUMPI DUP3 SWAP1 SUB PUSH1 0x1F AND DUP3 ADD SWAP2 JUMPDEST POP POP POP POP POP SWAP1 POP DUP4 JUMP JUMPDEST PUSH2 0x1C46 PUSH2 0x2722 JUMP JUMPDEST PUSH2 0x1C50 PUSH1 0x0 PUSH2 0x2BC4 JUMP JUMPDEST JUMP JUMPDEST PUSH1 0x0 PUSH1 0x2 DUP1 SLOAD SWAP1 POP SWAP1 POP SWAP1 JUMP JUMPDEST PUSH2 0x1C67 PUSH2 0x2722 JUMP JUMPDEST DUP1 ISZERO PUSH2 0x1C76 JUMPI PUSH2 0x1C75 PUSH2 0x1B47 JUMP JUMPDEST JUMPDEST PUSH2 0x1C7E PUSH2 0x2A70 JUMP JUMPDEST POP JUMP JUMPDEST PUSH1 0xC SLOAD DUP2 JUMP JUMPDEST PUSH8 0x403FBF9E8BB284BE DUP2 JUMP JUMPDEST PUSH1 0x8 SLOAD DUP2 JUMP JUMPDEST PUSH1 0x0 DUP1 PUSH1 0x0 SWAP1 SLOAD SWAP1 PUSH2 0x100 EXP SWAP1 DIV PUSH20 0xFFFFFFFFFFFFFFFFFFFFFFFFFFFFFFFFFFFFFFFF AND SWAP1 POP SWAP1 JUMP JUMPDEST PUSH1 0x0 DUP1 PUSH2 0x1CCD PUSH2 0xC95 JUMP JUMPDEST SWAP1 POP DUP1 DUP5 LT PUSH2 0x1CE0 JUMPI PUSH1 0x0 SWAP2 POP POP PUSH2 0x1D0C JUMP JUMPDEST DUP1 DUP4 GT ISZERO PUSH2 0x1CFC JUMPI DUP4 DUP2 PUSH2 0x1CF4 SWAP2 SWAP1 PUSH2 0x3BE7 JUMP JUMPDEST SWAP2 POP POP PUSH2 0x1D0C JUMP JUMPDEST DUP4 DUP4 PUSH2 0x1D08 SWAP2 SWAP1 PUSH2 0x3BE7 JUMP JUMPDEST SWAP2 POP POP JUMPDEST SWAP3 SWAP2 POP POP JUMP JUMPDEST PUSH1 0xA PUSH1 0x0 SWAP1 SLOAD SWAP1 PUSH2 0x100 EXP SWAP1 DIV PUSH20 0xFFFFFFFFFFFFFFFFFFFFFFFFFFFFFFFFFFFFFFFF AND DUP2 JUMP JUMPDEST PUSH1 0xA PUSH1 0x0 SWAP1 SLOAD SWAP1 PUSH2 0x100 EXP SWAP1 DIV PUSH20 0xFFFFFFFFFFFFFFFFFFFFFFFFFFFFFFFFFFFFFFFF AND PUSH20 0xFFFFFFFFFFFFFFFFFFFFFFFFFFFFFFFFFFFFFFFF AND CALLER PUSH20 0xFFFFFFFFFFFFFFFFFFFFFFFFFFFFFFFFFFFFFFFF AND EQ PUSH2 0x1DC8 JUMPI PUSH1 0x40 MLOAD PUSH32 0x8C379A000000000000000000000000000000000000000000000000000000000 DUP2 MSTORE PUSH1 0x4 ADD PUSH2 0x1DBF SWAP1 PUSH2 0x43A4 JUMP JUMPDEST PUSH1 0x40 MLOAD DUP1 SWAP2 SUB SWAP1 REVERT JUMPDEST PUSH1 0x0 PUSH20 0xFFFFFFFFFFFFFFFFFFFFFFFFFFFFFFFFFFFFFFFF AND DUP2 PUSH20 0xFFFFFFFFFFFFFFFFFFFFFFFFFFFFFFFFFFFFFFFF AND SUB PUSH2 0x1E37 JUMPI PUSH1 0x40 MLOAD PUSH32 0x8C379A000000000000000000000000000000000000000000000000000000000 DUP2 MSTORE PUSH1 0x4 ADD PUSH2 0x1E2E SWAP1 PUSH2 0x4436 JUMP JUMPDEST PUSH1 0x40 MLOAD DUP1 SWAP2 SUB SWAP1 REVERT JUMPDEST DUP1 PUSH1 0xA PUSH1 0x0 PUSH2 0x100 EXP DUP2 SLOAD DUP2 PUSH20 0xFFFFFFFFFFFFFFFFFFFFFFFFFFFFFFFFFFFFFFFF MUL NOT AND SWAP1 DUP4 PUSH20 0xFFFFFFFFFFFFFFFFFFFFFFFFFFFFFFFFFFFFFFFF AND MUL OR SWAP1 SSTORE POP POP JUMP JUMPDEST PUSH1 0x7 PUSH1 0x20 MSTORE DUP2 PUSH1 0x0 MSTORE PUSH1 0x40 PUSH1 0x0 KECCAK256 PUSH1 0x20 MSTORE DUP1 PUSH1 0x0 MSTORE PUSH1 0x40 PUSH1 0x0 KECCAK256 PUSH1 0x0 SWAP2 POP SWAP2 POP POP DUP1 PUSH1 0x0 ADD SLOAD SWAP1 DUP1 PUSH1 0x1 ADD SLOAD SWAP1 DUP1 PUSH1 0x2 ADD SLOAD SWAP1 DUP1 PUSH1 0x3 ADD SLOAD SWAP1 POP DUP5 JUMP JUMPDEST PUSH1 0x0 DUP1 PUSH1 0x0 PUSH1 0x5 DUP6 DUP2 SLOAD DUP2 LT PUSH2 0x1ED1 JUMPI PUSH2 0x1ED0 PUSH2 0x3B89 JUMP JUMPDEST JUMPDEST SWAP1 PUSH1 0x0 MSTORE PUSH1 0x20 PUSH1 0x0 KECCAK256 SWAP1 PUSH1 0x7 MUL ADD SWAP1 POP PUSH1 0x0 PUSH1 0x7 PUSH1 0x0 DUP8 DUP2 MSTORE PUSH1 0x20 ADD SWAP1 DUP2 MSTORE PUSH1 0x20 ADD PUSH1 0x0 KECCAK256 PUSH1 0x0 DUP7 PUSH20 0xFFFFFFFFFFFFFFFFFFFFFFFFFFFFFFFFFFFFFFFF AND PUSH20 0xFFFFFFFFFFFFFFFFFFFFFFFFFFFFFFFFFFFFFFFF AND DUP2 MSTORE PUSH1 0x20 ADD SWAP1 DUP2 MSTORE PUSH1 0x20 ADD PUSH1 0x0 KECCAK256 SWAP1 POP PUSH1 0x0 PUSH1 0x2 DUP4 PUSH1 0x1 ADD SLOAD DUP2 SLOAD DUP2 LT PUSH2 0x1F4F JUMPI PUSH2 0x1F4E PUSH2 0x3B89 JUMP JUMPDEST JUMPDEST SWAP1 PUSH1 0x0 MSTORE PUSH1 0x20 PUSH1 0x0 KECCAK256 SWAP1 PUSH1 0x3 MUL ADD SWAP1 POP PUSH1 0x0 DUP4 PUSH1 0x4 ADD SLOAD SWAP1 POP PUSH1 0x0 DUP5 PUSH1 0x0 ADD PUSH1 0x0 SWAP1 SLOAD SWAP1 PUSH2 0x100 EXP SWAP1 DIV PUSH20 0xFFFFFFFFFFFFFFFFFFFFFFFFFFFFFFFFFFFFFFFF AND PUSH20 0xFFFFFFFFFFFFFFFFFFFFFFFFFFFFFFFFFFFFFFFF AND PUSH4 0x70A08231 ADDRESS PUSH1 0x40 MLOAD DUP3 PUSH4 0xFFFFFFFF AND PUSH1 0xE0 SHL DUP2 MSTORE PUSH1 0x4 ADD PUSH2 0x1FC7 SWAP2 SWAP1 PUSH2 0x360F JUMP JUMPDEST PUSH1 0x20 PUSH1 0x40 MLOAD DUP1 DUP4 SUB DUP2 DUP7 GAS STATICCALL ISZERO DUP1 ISZERO PUSH2 0x1FE4 JUMPI RETURNDATASIZE PUSH1 0x0 DUP1 RETURNDATACOPY RETURNDATASIZE PUSH1 0x0 REVERT JUMPDEST POP POP POP POP PUSH1 0x40 MLOAD RETURNDATASIZE PUSH1 0x1F NOT PUSH1 0x1F DUP3 ADD AND DUP3 ADD DUP1 PUSH1 0x40 MSTORE POP DUP2 ADD SWAP1 PUSH2 0x2008 SWAP2 SWAP1 PUSH2 0x4196 JUMP JUMPDEST SWAP1 POP DUP5 PUSH1 0x3 ADD SLOAD TIMESTAMP GT DUP1 ISZERO PUSH2 0x201E JUMPI POP PUSH1 0x0 DUP2 EQ ISZERO JUMPDEST ISZERO PUSH2 0x20B9 JUMPI PUSH1 0x0 PUSH2 0x2033 DUP7 PUSH1 0x3 ADD SLOAD TIMESTAMP PUSH2 0x1CC2 JUMP JUMPDEST SWAP1 POP PUSH1 0x0 DUP2 EQ PUSH2 0x20B7 JUMPI PUSH1 0x0 PUSH1 0x4 SLOAD DUP6 PUSH1 0x0 ADD SLOAD DUP7 PUSH1 0x1 ADD SLOAD DUP10 PUSH1 0x2 ADD SLOAD PUSH1 0x9 SLOAD DUP7 PUSH2 0x205F SWAP2 SWAP1 PUSH2 0x3CF2 JUMP JUMPDEST PUSH2 0x2069 SWAP2 SWAP1 PUSH2 0x3CF2 JUMP JUMPDEST PUSH2 0x2073 SWAP2 SWAP1 PUSH2 0x3D63 JUMP JUMPDEST PUSH2 0x207D SWAP2 SWAP1 PUSH2 0x3CF2 JUMP JUMPDEST PUSH2 0x2087 SWAP2 SWAP1 PUSH2 0x3D63 JUMP JUMPDEST SWAP1 POP DUP3 PUSH8 0xDE0B6B3A7640000 DUP3 PUSH2 0x209E SWAP2 SWAP1 PUSH2 0x3CF2 JUMP JUMPDEST PUSH2 0x20A8 SWAP2 SWAP1 PUSH2 0x3D63 JUMP JUMPDEST DUP5 PUSH2 0x20B3 SWAP2 SWAP1 PUSH2 0x3C1B JUMP JUMPDEST SWAP4 POP POP JUMPDEST POP JUMPDEST DUP4 PUSH1 0x3 ADD SLOAD DUP5 PUSH1 0x1 ADD SLOAD PUSH8 0xDE0B6B3A7640000 DUP5 DUP8 PUSH1 0x0 ADD SLOAD PUSH2 0x20DC SWAP2 SWAP1 PUSH2 0x3CF2 JUMP JUMPDEST PUSH2 0x20E6 SWAP2 SWAP1 PUSH2 0x3D63 JUMP JUMPDEST PUSH2 0x20F0 SWAP2 SWAP1 PUSH2 0x3BE7 JUMP JUMPDEST PUSH2 0x20FA SWAP2 SWAP1 PUSH2 0x3C1B JUMP JUMPDEST TIMESTAMP SWAP7 POP SWAP7 POP POP POP POP POP POP SWAP3 POP SWAP3 SWAP1 POP JUMP JUMPDEST PUSH1 0x60 PUSH1 0x3 PUSH1 0x0 DUP4 DUP2 MSTORE PUSH1 0x20 ADD SWAP1 DUP2 MSTORE PUSH1 0x20 ADD PUSH1 0x0 KECCAK256 DUP1 SLOAD DUP1 PUSH1 0x20 MUL PUSH1 0x20 ADD PUSH1 0x40 MLOAD SWAP1 DUP2 ADD PUSH1 0x40 MSTORE DUP1 SWAP3 SWAP2 SWAP1 DUP2 DUP2 MSTORE PUSH1 0x20 ADD DUP3 DUP1 SLOAD DUP1 ISZERO PUSH2 0x216A JUMPI PUSH1 0x20 MUL DUP3 ADD SWAP2 SWAP1 PUSH1 0x0 MSTORE PUSH1 0x20 PUSH1 0x0 KECCAK256 SWAP1 JUMPDEST DUP2 SLOAD DUP2 MSTORE PUSH1 0x20 ADD SWAP1 PUSH1 0x1 ADD SWAP1 DUP1 DUP4 GT PUSH2 0x2156 JUMPI JUMPDEST POP POP POP POP POP SWAP1 POP SWAP2 SWAP1 POP JUMP JUMPDEST PUSH32 0x0 DUP2 JUMP JUMPDEST PUSH1 0x6 PUSH1 0x20 MSTORE DUP1 PUSH1 0x0 MSTORE PUSH1 0x40 PUSH1 0x0 KECCAK256 PUSH1 0x0 SWAP2 POP SWAP1 POP SLOAD DUP2 JUMP JUMPDEST PUSH1 0xB PUSH1 0x0 SWAP1 SLOAD SWAP1 PUSH2 0x100 EXP SWAP1 DIV PUSH20 0xFFFFFFFFFFFFFFFFFFFFFFFFFFFFFFFFFFFFFFFF AND DUP2 JUMP JUMPDEST PUSH1 0xB PUSH1 0x0 SWAP1 SLOAD SWAP1 PUSH2 0x100 EXP SWAP1 DIV PUSH20 0xFFFFFFFFFFFFFFFFFFFFFFFFFFFFFFFFFFFFFFFF AND PUSH20 0xFFFFFFFFFFFFFFFFFFFFFFFFFFFFFFFFFFFFFFFF AND CALLER PUSH20 0xFFFFFFFFFFFFFFFFFFFFFFFFFFFFFFFFFFFFFFFF AND EQ PUSH2 0x2268 JUMPI PUSH1 0x40 MLOAD PUSH32 0x8C379A000000000000000000000000000000000000000000000000000000000 DUP2 MSTORE PUSH1 0x4 ADD PUSH2 0x225F SWAP1 PUSH2 0x44C8 JUMP JUMPDEST PUSH1 0x40 MLOAD DUP1 SWAP2 SUB SWAP1 REVERT JUMPDEST PUSH1 0x0 PUSH20 0xFFFFFFFFFFFFFFFFFFFFFFFFFFFFFFFFFFFFFFFF AND DUP2 PUSH20 0xFFFFFFFFFFFFFFFFFFFFFFFFFFFFFFFFFFFFFFFF AND SUB PUSH2 0x22D7 JUMPI PUSH1 0x40 MLOAD PUSH32 0x8C379A000000000000000000000000000000000000000000000000000000000 DUP2 MSTORE PUSH1 0x4 ADD PUSH2 0x22CE SWAP1 PUSH2 0x455A JUMP JUMPDEST PUSH1 0x40 MLOAD DUP1 SWAP2 SUB SWAP1 REVERT JUMPDEST DUP1 PUSH1 0xB PUSH1 0x0 PUSH2 0x100 EXP DUP2 SLOAD DUP2 PUSH20 0xFFFFFFFFFFFFFFFFFFFFFFFFFFFFFFFFFFFFFFFF MUL NOT AND SWAP1 DUP4 PUSH20 0xFFFFFFFFFFFFFFFFFFFFFFFFFFFFFFFFFFFFFFFF AND MUL OR SWAP1 SSTORE POP POP JUMP JUMPDEST PUSH2 0x2323 PUSH2 0x27A0 JUMP JUMPDEST PUSH1 0x0 PUSH1 0x5 DUP4 DUP2 SLOAD DUP2 LT PUSH2 0x2339 JUMPI PUSH2 0x2338 PUSH2 0x3B89 JUMP JUMPDEST JUMPDEST SWAP1 PUSH1 0x0 MSTORE PUSH1 0x20 PUSH1 0x0 KECCAK256 SWAP1 PUSH1 0x7 MUL ADD SWAP1 POP PUSH1 0x0 DUP2 PUSH1 0x2 ADD SLOAD SUB PUSH2 0x2390 JUMPI PUSH1 0x40 MLOAD PUSH32 0x8C379A000000000000000000000000000000000000000000000000000000000 DUP2 MSTORE PUSH1 0x4 ADD PUSH2 0x2387 SWAP1 PUSH2 0x45EC JUMP JUMPDEST PUSH1 0x40 MLOAD DUP1 SWAP2 SUB SWAP1 REVERT JUMPDEST PUSH1 0x0 PUSH1 0x2 DUP3 PUSH1 0x1 ADD SLOAD DUP2 SLOAD DUP2 LT PUSH2 0x23AA JUMPI PUSH2 0x23A9 PUSH2 0x3B89 JUMP JUMPDEST JUMPDEST SWAP1 PUSH1 0x0 MSTORE PUSH1 0x20 PUSH1 0x0 KECCAK256 SWAP1 PUSH1 0x3 MUL ADD PUSH1 0x0 ADD SLOAD SUB PUSH2 0x23FC JUMPI PUSH1 0x40 MLOAD PUSH32 0x8C379A000000000000000000000000000000000000000000000000000000000 DUP2 MSTORE PUSH1 0x4 ADD PUSH2 0x23F3 SWAP1 PUSH2 0x467E JUMP JUMPDEST PUSH1 0x40 MLOAD DUP1 SWAP2 SUB SWAP1 REVERT JUMPDEST PUSH1 0x0 PUSH1 0x7 PUSH1 0x0 DUP6 DUP2 MSTORE PUSH1 0x20 ADD SWAP1 DUP2 MSTORE PUSH1 0x20 ADD PUSH1 0x0 KECCAK256 PUSH1 0x0 CALLER PUSH20 0xFFFFFFFFFFFFFFFFFFFFFFFFFFFFFFFFFFFFFFFF AND PUSH20 0xFFFFFFFFFFFFFFFFFFFFFFFFFFFFFFFFFFFFFFFF AND DUP2 MSTORE PUSH1 0x20 ADD SWAP1 DUP2 MSTORE PUSH1 0x20 ADD PUSH1 0x0 KECCAK256 SWAP1 POP PUSH2 0x2459 DUP5 PUSH2 0x1115 JUMP JUMPDEST PUSH2 0x2462 DUP5 PUSH2 0x27EF JUMP JUMPDEST PUSH1 0x0 PUSH2 0x2710 DUP4 PUSH1 0x5 ADD SLOAD DUP6 PUSH2 0x2477 SWAP2 SWAP1 PUSH2 0x3CF2 JUMP JUMPDEST PUSH2 0x2481 SWAP2 SWAP1 PUSH2 0x3D63 JUMP JUMPDEST SWAP1 POP PUSH1 0x0 DUP5 GT ISZERO PUSH2 0x25BB JUMPI PUSH2 0x24DD CALLER ADDRESS DUP7 DUP7 PUSH1 0x0 ADD PUSH1 0x0 SWAP1 SLOAD SWAP1 PUSH2 0x100 EXP SWAP1 DIV PUSH20 0xFFFFFFFFFFFFFFFFFFFFFFFFFFFFFFFFFFFFFFFF AND PUSH20 0xFFFFFFFFFFFFFFFFFFFFFFFFFFFFFFFFFFFFFFFF AND PUSH2 0x2C88 SWAP1 SWAP4 SWAP3 SWAP2 SWAP1 PUSH4 0xFFFFFFFF AND JUMP JUMPDEST PUSH1 0x0 DUP4 PUSH1 0x5 ADD SLOAD GT ISZERO PUSH2 0x2586 JUMPI PUSH2 0x255B PUSH1 0xB PUSH1 0x0 SWAP1 SLOAD SWAP1 PUSH2 0x100 EXP SWAP1 DIV PUSH20 0xFFFFFFFFFFFFFFFFFFFFFFFFFFFFFFFFFFFFFFFF AND DUP3 DUP6 PUSH1 0x0 ADD PUSH1 0x0 SWAP1 SLOAD SWAP1 PUSH2 0x100 EXP SWAP1 DIV PUSH20 0xFFFFFFFFFFFFFFFFFFFFFFFFFFFFFFFFFFFFFFFF AND PUSH20 0xFFFFFFFFFFFFFFFFFFFFFFFFFFFFFFFFFFFFFFFF AND PUSH2 0x29E1 SWAP1 SWAP3 SWAP2 SWAP1 PUSH4 0xFFFFFFFF AND JUMP JUMPDEST DUP1 DUP5 PUSH2 0x2567 SWAP2 SWAP1 PUSH2 0x3BE7 JUMP JUMPDEST DUP3 PUSH1 0x0 ADD PUSH1 0x0 DUP3 DUP3 SLOAD PUSH2 0x257A SWAP2 SWAP1 PUSH2 0x3C1B JUMP JUMPDEST SWAP3 POP POP DUP2 SWAP1 SSTORE POP PUSH2 0x25A2 JUMP JUMPDEST DUP4 DUP3 PUSH1 0x0 ADD PUSH1 0x0 DUP3 DUP3 SLOAD PUSH2 0x259A SWAP2 SWAP1 PUSH2 0x3C1B JUMP JUMPDEST SWAP3 POP POP DUP2 SWAP1 SSTORE POP JUMPDEST DUP3 PUSH1 0x6 ADD SLOAD TIMESTAMP PUSH2 0x25B2 SWAP2 SWAP1 PUSH2 0x3C1B JUMP JUMPDEST DUP3 PUSH1 0x2 ADD DUP2 SWAP1 SSTORE POP JUMPDEST PUSH8 0xDE0B6B3A7640000 DUP4 PUSH1 0x4 ADD SLOAD DUP4 PUSH1 0x0 ADD SLOAD PUSH2 0x25D8 SWAP2 SWAP1 PUSH2 0x3CF2 JUMP JUMPDEST PUSH2 0x25E2 SWAP2 SWAP1 PUSH2 0x3D63 JUMP JUMPDEST DUP3 PUSH1 0x1 ADD DUP2 SWAP1 SSTORE POP DUP5 CALLER PUSH20 0xFFFFFFFFFFFFFFFFFFFFFFFFFFFFFFFFFFFFFFFF AND PUSH32 0x36AF321EC8D3C75236829C5317AFFD40DDB308863A1236D2D277A4025CCCEE1E DUP7 DUP5 PUSH1 0x40 MLOAD PUSH2 0x2633 SWAP3 SWAP2 SWAP1 PUSH2 0x369C JUMP JUMPDEST PUSH1 0x40 MLOAD DUP1 SWAP2 SUB SWAP1 LOG3 POP POP POP PUSH2 0x2646 PUSH2 0x2A67 JUMP JUMPDEST POP POP JUMP JUMPDEST PUSH1 0x3 PUSH1 0x20 MSTORE DUP2 PUSH1 0x0 MSTORE PUSH1 0x40 PUSH1 0x0 KECCAK256 DUP2 DUP2 SLOAD DUP2 LT PUSH2 0x2666 JUMPI PUSH1 0x0 DUP1 REVERT JUMPDEST SWAP1 PUSH1 0x0 MSTORE PUSH1 0x20 PUSH1 0x0 KECCAK256 ADD PUSH1 0x0 SWAP2 POP SWAP2 POP POP SLOAD DUP2 JUMP JUMPDEST PUSH2 0x2683 PUSH2 0x2722 JUMP JUMPDEST PUSH1 0x0 PUSH20 0xFFFFFFFFFFFFFFFFFFFFFFFFFFFFFFFFFFFFFFFF AND DUP2 PUSH20 0xFFFFFFFFFFFFFFFFFFFFFFFFFFFFFFFFFFFFFFFF AND SUB PUSH2 0x26F2 JUMPI PUSH1 0x40 MLOAD PUSH32 0x8C379A000000000000000000000000000000000000000000000000000000000 DUP2 MSTORE PUSH1 0x4 ADD PUSH2 0x26E9 SWAP1 PUSH2 0x4710 JUMP JUMPDEST PUSH1 0x40 MLOAD DUP1 SWAP2 SUB SWAP1 REVERT JUMPDEST PUSH2 0x26FB DUP2 PUSH2 0x2BC4 JUMP JUMPDEST POP JUMP JUMPDEST PUSH32 0x0 DUP2 JUMP JUMPDEST PUSH2 0x272A PUSH2 0x2D11 JUMP JUMPDEST PUSH20 0xFFFFFFFFFFFFFFFFFFFFFFFFFFFFFFFFFFFFFFFF AND PUSH2 0x2748 PUSH2 0x1C99 JUMP JUMPDEST PUSH20 0xFFFFFFFFFFFFFFFFFFFFFFFFFFFFFFFFFFFFFFFF AND EQ PUSH2 0x279E JUMPI PUSH1 0x40 MLOAD PUSH32 0x8C379A000000000000000000000000000000000000000000000000000000000 DUP2 MSTORE PUSH1 0x4 ADD PUSH2 0x2795 SWAP1 PUSH2 0x477C JUMP JUMPDEST PUSH1 0x40 MLOAD DUP1 SWAP2 SUB SWAP1 REVERT JUMPDEST JUMP JUMPDEST PUSH1 0x2 PUSH1 0x1 SLOAD SUB PUSH2 0x27E5 JUMPI PUSH1 0x40 MLOAD PUSH32 0x8C379A000000000000000000000000000000000000000000000000000000000 DUP2 MSTORE PUSH1 0x4 ADD PUSH2 0x27DC SWAP1 PUSH2 0x47E8 JUMP JUMPDEST PUSH1 0x40 MLOAD DUP1 SWAP2 SUB SWAP1 REVERT JUMPDEST PUSH1 0x2 PUSH1 0x1 DUP2 SWAP1 SSTORE POP JUMP JUMPDEST PUSH1 0x0 PUSH1 0x5 DUP3 DUP2 SLOAD DUP2 LT PUSH2 0x2805 JUMPI PUSH2 0x2804 PUSH2 0x3B89 JUMP JUMPDEST JUMPDEST SWAP1 PUSH1 0x0 MSTORE PUSH1 0x20 PUSH1 0x0 KECCAK256 SWAP1 PUSH1 0x7 MUL ADD SWAP1 POP PUSH1 0x0 PUSH1 0x7 PUSH1 0x0 DUP5 DUP2 MSTORE PUSH1 0x20 ADD SWAP1 DUP2 MSTORE PUSH1 0x20 ADD PUSH1 0x0 KECCAK256 PUSH1 0x0 CALLER PUSH20 0xFFFFFFFFFFFFFFFFFFFFFFFFFFFFFFFFFFFFFFFF AND PUSH20 0xFFFFFFFFFFFFFFFFFFFFFFFFFFFFFFFFFFFFFFFF AND DUP2 MSTORE PUSH1 0x20 ADD SWAP1 DUP2 MSTORE PUSH1 0x20 ADD PUSH1 0x0 KECCAK256 SWAP1 POP PUSH1 0x0 DUP2 PUSH1 0x2 ADD SLOAD SUB PUSH2 0x288E JUMPI DUP2 PUSH1 0x6 ADD SLOAD TIMESTAMP PUSH2 0x2885 SWAP2 SWAP1 PUSH2 0x3C1B JUMP JUMPDEST DUP2 PUSH1 0x2 ADD DUP2 SWAP1 SSTORE POP JUMPDEST PUSH1 0x0 DUP2 PUSH1 0x1 ADD SLOAD PUSH8 0xDE0B6B3A7640000 DUP5 PUSH1 0x4 ADD SLOAD DUP5 PUSH1 0x0 ADD SLOAD PUSH2 0x28B2 SWAP2 SWAP1 PUSH2 0x3CF2 JUMP JUMPDEST PUSH2 0x28BC SWAP2 SWAP1 PUSH2 0x3D63 JUMP JUMPDEST PUSH2 0x28C6 SWAP2 SWAP1 PUSH2 0x3BE7 JUMP JUMPDEST SWAP1 POP DUP2 PUSH1 0x2 ADD SLOAD TIMESTAMP LT PUSH2 0x29B5 JUMPI PUSH1 0x0 DUP2 GT DUP1 PUSH2 0x28E6 JUMPI POP PUSH1 0x0 DUP3 PUSH1 0x3 ADD SLOAD GT JUMPDEST ISZERO PUSH2 0x29B0 JUMPI PUSH1 0x0 DUP3 PUSH1 0x3 ADD SLOAD DUP3 PUSH2 0x28FD SWAP2 SWAP1 PUSH2 0x3C1B JUMP JUMPDEST SWAP1 POP PUSH1 0x0 DUP4 PUSH1 0x3 ADD DUP2 SWAP1 SSTORE POP DUP4 PUSH1 0x6 ADD SLOAD TIMESTAMP PUSH2 0x2919 SWAP2 SWAP1 PUSH2 0x3C1B JUMP JUMPDEST DUP4 PUSH1 0x2 ADD DUP2 SWAP1 SSTORE POP PUSH32 0x0 PUSH20 0xFFFFFFFFFFFFFFFFFFFFFFFFFFFFFFFFFFFFFFFF AND PUSH4 0xE4E103DC CALLER DUP4 PUSH1 0x40 MLOAD DUP4 PUSH4 0xFFFFFFFF AND PUSH1 0xE0 SHL DUP2 MSTORE PUSH1 0x4 ADD PUSH2 0x297C SWAP3 SWAP2 SWAP1 PUSH2 0x41C3 JUMP JUMPDEST PUSH1 0x0 PUSH1 0x40 MLOAD DUP1 DUP4 SUB DUP2 PUSH1 0x0 DUP8 DUP1 EXTCODESIZE ISZERO DUP1 ISZERO PUSH2 0x2996 JUMPI PUSH1 0x0 DUP1 REVERT JUMPDEST POP GAS CALL ISZERO DUP1 ISZERO PUSH2 0x29AA JUMPI RETURNDATASIZE PUSH1 0x0 DUP1 RETURNDATACOPY RETURNDATASIZE PUSH1 0x0 REVERT JUMPDEST POP POP POP POP POP JUMPDEST PUSH2 0x29DB JUMP JUMPDEST PUSH1 0x0 DUP2 GT ISZERO PUSH2 0x29DA JUMPI DUP1 DUP3 PUSH1 0x3 ADD PUSH1 0x0 DUP3 DUP3 SLOAD PUSH2 0x29D2 SWAP2 SWAP1 PUSH2 0x3C1B JUMP JUMPDEST SWAP3 POP POP DUP2 SWAP1 SSTORE POP JUMPDEST JUMPDEST POP POP POP POP JUMP JUMPDEST PUSH2 0x2A62 DUP4 PUSH4 0xA9059CBB PUSH1 0xE0 SHL DUP5 DUP5 PUSH1 0x40 MLOAD PUSH1 0x24 ADD PUSH2 0x2A00 SWAP3 SWAP2 SWAP1 PUSH2 0x41C3 JUMP JUMPDEST PUSH1 0x40 MLOAD PUSH1 0x20 DUP2 DUP4 SUB SUB DUP2 MSTORE SWAP1 PUSH1 0x40 MSTORE SWAP1 PUSH28 0xFFFFFFFFFFFFFFFFFFFFFFFFFFFFFFFFFFFFFFFFFFFFFFFFFFFFFFFF NOT AND PUSH1 0x20 DUP3 ADD DUP1 MLOAD PUSH28 0xFFFFFFFFFFFFFFFFFFFFFFFFFFFFFFFFFFFFFFFFFFFFFFFFFFFFFFFF DUP4 DUP2 DUP4 AND OR DUP4 MSTORE POP POP POP POP PUSH2 0x2D19 JUMP JUMPDEST POP POP POP JUMP JUMPDEST PUSH1 0x1 DUP1 DUP2 SWAP1 SSTORE POP JUMP JUMPDEST PUSH2 0x2A78 PUSH2 0x1B30 JUMP JUMPDEST PUSH32 0x0 PUSH20 0xFFFFFFFFFFFFFFFFFFFFFFFFFFFFFFFFFFFFFFFF AND PUSH4 0xA2309FF8 PUSH1 0x40 MLOAD DUP2 PUSH4 0xFFFFFFFF AND PUSH1 0xE0 SHL DUP2 MSTORE PUSH1 0x4 ADD PUSH1 0x20 PUSH1 0x40 MLOAD DUP1 DUP4 SUB DUP2 DUP7 GAS STATICCALL ISZERO DUP1 ISZERO PUSH2 0x2AE3 JUMPI RETURNDATASIZE PUSH1 0x0 DUP1 RETURNDATACOPY RETURNDATASIZE PUSH1 0x0 REVERT JUMPDEST POP POP POP POP PUSH1 0x40 MLOAD RETURNDATASIZE PUSH1 0x1F NOT PUSH1 0x1F DUP3 ADD AND DUP3 ADD DUP1 PUSH1 0x40 MSTORE POP DUP2 ADD SWAP1 PUSH2 0x2B07 SWAP2 SWAP1 PUSH2 0x4196 JUMP JUMPDEST PUSH32 0x0 PUSH20 0xFFFFFFFFFFFFFFFFFFFFFFFFFFFFFFFFFFFFFFFF AND PUSH4 0xD5ABEB01 PUSH1 0x40 MLOAD DUP2 PUSH4 0xFFFFFFFF AND PUSH1 0xE0 SHL DUP2 MSTORE PUSH1 0x4 ADD PUSH1 0x20 PUSH1 0x40 MLOAD DUP1 DUP4 SUB DUP2 DUP7 GAS STATICCALL ISZERO DUP1 ISZERO PUSH2 0x2B72 JUMPI RETURNDATASIZE PUSH1 0x0 DUP1 RETURNDATACOPY RETURNDATASIZE PUSH1 0x0 REVERT JUMPDEST POP POP POP POP PUSH1 0x40 MLOAD RETURNDATASIZE PUSH1 0x1F NOT PUSH1 0x1F DUP3 ADD AND DUP3 ADD DUP1 PUSH1 0x40 MSTORE POP DUP2 ADD SWAP1 PUSH2 0x2B96 SWAP2 SWAP1 PUSH2 0x4196 JUMP JUMPDEST PUSH2 0x2BA0 SWAP2 SWAP1 PUSH2 0x3BE7 JUMP JUMPDEST PUSH2 0x2BAA SWAP2 SWAP1 PUSH2 0x3D63 JUMP JUMPDEST PUSH2 0x2BB2 PUSH2 0x10EC JUMP JUMPDEST PUSH2 0x2BBC SWAP2 SWAP1 PUSH2 0x3C1B JUMP JUMPDEST PUSH1 0xD DUP2 SWAP1 SSTORE POP JUMP JUMPDEST PUSH1 0x0 DUP1 PUSH1 0x0 SWAP1 SLOAD SWAP1 PUSH2 0x100 EXP SWAP1 DIV PUSH20 0xFFFFFFFFFFFFFFFFFFFFFFFFFFFFFFFFFFFFFFFF AND SWAP1 POP DUP2 PUSH1 0x0 DUP1 PUSH2 0x100 EXP DUP2 SLOAD DUP2 PUSH20 0xFFFFFFFFFFFFFFFFFFFFFFFFFFFFFFFFFFFFFFFF MUL NOT AND SWAP1 DUP4 PUSH20 0xFFFFFFFFFFFFFFFFFFFFFFFFFFFFFFFFFFFFFFFF AND MUL OR SWAP1 SSTORE POP DUP2 PUSH20 0xFFFFFFFFFFFFFFFFFFFFFFFFFFFFFFFFFFFFFFFF AND DUP2 PUSH20 0xFFFFFFFFFFFFFFFFFFFFFFFFFFFFFFFFFFFFFFFF AND PUSH32 0x8BE0079C531659141344CD1FD0A4F28419497F9722A3DAAFE3B4186F6B6457E0 PUSH1 0x40 MLOAD PUSH1 0x40 MLOAD DUP1 SWAP2 SUB SWAP1 LOG3 POP POP JUMP JUMPDEST PUSH2 0x2D0B DUP5 PUSH4 0x23B872DD PUSH1 0xE0 SHL DUP6 DUP6 DUP6 PUSH1 0x40 MLOAD PUSH1 0x24 ADD PUSH2 0x2CA9 SWAP4 SWAP3 SWAP2 SWAP1 PUSH2 0x4808 JUMP JUMPDEST PUSH1 0x40 MLOAD PUSH1 0x20 DUP2 DUP4 SUB SUB DUP2 MSTORE SWAP1 PUSH1 0x40 MSTORE SWAP1 PUSH28 0xFFFFFFFFFFFFFFFFFFFFFFFFFFFFFFFFFFFFFFFFFFFFFFFFFFFFFFFF NOT AND PUSH1 0x20 DUP3 ADD DUP1 MLOAD PUSH28 0xFFFFFFFFFFFFFFFFFFFFFFFFFFFFFFFFFFFFFFFFFFFFFFFFFFFFFFFF DUP4 DUP2 DUP4 AND OR DUP4 MSTORE POP POP POP POP PUSH2 0x2D19 JUMP JUMPDEST POP POP POP POP JUMP JUMPDEST PUSH1 0x0 CALLER SWAP1 POP SWAP1 JUMP JUMPDEST PUSH1 0x0 PUSH2 0x2D7B DUP3 PUSH1 0x40 MLOAD DUP1 PUSH1 0x40 ADD PUSH1 0x40 MSTORE DUP1 PUSH1 0x20 DUP2 MSTORE PUSH1 0x20 ADD PUSH32 0x5361666545524332303A206C6F772D6C6576656C2063616C6C206661696C6564 DUP2 MSTORE POP DUP6 PUSH20 0xFFFFFFFFFFFFFFFFFFFFFFFFFFFFFFFFFFFFFFFF AND PUSH2 0x2DE1 SWAP1 SWAP3 SWAP2 SWAP1 PUSH4 0xFFFFFFFF AND JUMP JUMPDEST SWAP1 POP PUSH1 0x0 DUP2 MLOAD EQ DUP1 PUSH2 0x2D9D JUMPI POP DUP1 DUP1 PUSH1 0x20 ADD SWAP1 MLOAD DUP2 ADD SWAP1 PUSH2 0x2D9C SWAP2 SWAP1 PUSH2 0x4854 JUMP JUMPDEST JUMPDEST PUSH2 0x2DDC JUMPI PUSH1 0x40 MLOAD PUSH32 0x8C379A000000000000000000000000000000000000000000000000000000000 DUP2 MSTORE PUSH1 0x4 ADD PUSH2 0x2DD3 SWAP1 PUSH2 0x48F3 JUMP JUMPDEST PUSH1 0x40 MLOAD DUP1 SWAP2 SUB SWAP1 REVERT JUMPDEST POP POP POP JUMP JUMPDEST PUSH1 0x60 PUSH2 0x2DF0 DUP5 DUP5 PUSH1 0x0 DUP6 PUSH2 0x2DF9 JUMP JUMPDEST SWAP1 POP SWAP4 SWAP3 POP POP POP JUMP JUMPDEST PUSH1 0x60 DUP3 SELFBALANCE LT ISZERO PUSH2 0x2E3E JUMPI PUSH1 0x40 MLOAD PUSH32 0x8C379A000000000000000000000000000000000000000000000000000000000 DUP2 MSTORE PUSH1 0x4 ADD PUSH2 0x2E35 SWAP1 PUSH2 0x4985 JUMP JUMPDEST PUSH1 0x40 MLOAD DUP1 SWAP2 SUB SWAP1 REVERT JUMPDEST PUSH1 0x0 DUP1 DUP7 PUSH20 0xFFFFFFFFFFFFFFFFFFFFFFFFFFFFFFFFFFFFFFFF AND DUP6 DUP8 PUSH1 0x40 MLOAD PUSH2 0x2E67 SWAP2 SWAP1 PUSH2 0x49EC JUMP JUMPDEST PUSH1 0x0 PUSH1 0x40 MLOAD DUP1 DUP4 SUB DUP2 DUP6 DUP8 GAS CALL SWAP3 POP POP POP RETURNDATASIZE DUP1 PUSH1 0x0 DUP2 EQ PUSH2 0x2EA4 JUMPI PUSH1 0x40 MLOAD SWAP2 POP PUSH1 0x1F NOT PUSH1 0x3F RETURNDATASIZE ADD AND DUP3 ADD PUSH1 0x40 MSTORE RETURNDATASIZE DUP3 MSTORE RETURNDATASIZE PUSH1 0x0 PUSH1 0x20 DUP5 ADD RETURNDATACOPY PUSH2 0x2EA9 JUMP JUMPDEST PUSH1 0x60 SWAP2 POP JUMPDEST POP SWAP2 POP SWAP2 POP PUSH2 0x2EBA DUP8 DUP4 DUP4 DUP8 PUSH2 0x2EC6 JUMP JUMPDEST SWAP3 POP POP POP SWAP5 SWAP4 POP POP POP POP JUMP JUMPDEST PUSH1 0x60 DUP4 ISZERO PUSH2 0x2F28 JUMPI PUSH1 0x0 DUP4 MLOAD SUB PUSH2 0x2F20 JUMPI PUSH2 0x2EE0 DUP6 PUSH2 0x2F3B JUMP JUMPDEST PUSH2 0x2F1F JUMPI PUSH1 0x40 MLOAD PUSH32 0x8C379A000000000000000000000000000000000000000000000000000000000 DUP2 MSTORE PUSH1 0x4 ADD PUSH2 0x2F16 SWAP1 PUSH2 0x4A4F JUMP JUMPDEST PUSH1 0x40 MLOAD DUP1 SWAP2 SUB SWAP1 REVERT JUMPDEST JUMPDEST DUP3 SWAP1 POP PUSH2 0x2F33 JUMP JUMPDEST PUSH2 0x2F32 DUP4 DUP4 PUSH2 0x2F5E JUMP JUMPDEST JUMPDEST SWAP5 SWAP4 POP POP POP POP JUMP JUMPDEST PUSH1 0x0 DUP1 DUP3 PUSH20 0xFFFFFFFFFFFFFFFFFFFFFFFFFFFFFFFFFFFFFFFF AND EXTCODESIZE GT SWAP1 POP SWAP2 SWAP1 POP JUMP JUMPDEST PUSH1 0x0 DUP3 MLOAD GT ISZERO PUSH2 0x2F71 JUMPI DUP2 MLOAD DUP1 DUP4 PUSH1 0x20 ADD REVERT JUMPDEST DUP1 PUSH1 0x40 MLOAD PUSH32 0x8C379A000000000000000000000000000000000000000000000000000000000 DUP2 MSTORE PUSH1 0x4 ADD PUSH2 0x2FA5 SWAP2 SWAP1 PUSH2 0x4A6F JUMP JUMPDEST PUSH1 0x40 MLOAD DUP1 SWAP2 SUB SWAP1 REVERT JUMPDEST PUSH1 0x0 DUP1 REVERT JUMPDEST PUSH1 0x0 DUP1 REVERT JUMPDEST PUSH1 0x0 DUP2 SWAP1 POP SWAP2 SWAP1 POP JUMP JUMPDEST PUSH2 0x2FCB DUP2 PUSH2 0x2FB8 JUMP JUMPDEST DUP2 EQ PUSH2 0x2FD6 JUMPI PUSH1 0x0 DUP1 REVERT JUMPDEST POP JUMP JUMPDEST PUSH1 0x0 DUP2 CALLDATALOAD SWAP1 POP PUSH2 0x2FE8 DUP2 PUSH2 0x2FC2 JUMP JUMPDEST SWAP3 SWAP2 POP POP JUMP JUMPDEST PUSH1 0x0 PUSH1 0x20 DUP3 DUP5 SUB SLT ISZERO PUSH2 0x3004 JUMPI PUSH2 0x3003 PUSH2 0x2FAE JUMP JUMPDEST JUMPDEST PUSH1 0x0 PUSH2 0x3012 DUP5 DUP3 DUP6 ADD PUSH2 0x2FD9 JUMP JUMPDEST SWAP2 POP POP SWAP3 SWAP2 POP POP JUMP JUMPDEST PUSH2 0x3024 DUP2 PUSH2 0x2FB8 JUMP JUMPDEST DUP3 MSTORE POP POP JUMP JUMPDEST PUSH1 0x0 PUSH1 0x20 DUP3 ADD SWAP1 POP PUSH2 0x303F PUSH1 0x0 DUP4 ADD DUP5 PUSH2 0x301B JUMP JUMPDEST SWAP3 SWAP2 POP POP JUMP JUMPDEST PUSH1 0x0 PUSH20 0xFFFFFFFFFFFFFFFFFFFFFFFFFFFFFFFFFFFFFFFF DUP3 AND SWAP1 POP SWAP2 SWAP1 POP JUMP JUMPDEST PUSH1 0x0 DUP2 SWAP1 POP SWAP2 SWAP1 POP JUMP JUMPDEST PUSH1 0x0 PUSH2 0x308A PUSH2 0x3085 PUSH2 0x3080 DUP5 PUSH2 0x3045 JUMP JUMPDEST PUSH2 0x3065 JUMP JUMPDEST PUSH2 0x3045 JUMP JUMPDEST SWAP1 POP SWAP2 SWAP1 POP JUMP JUMPDEST PUSH1 0x0 PUSH2 0x309C DUP3 PUSH2 0x306F JUMP JUMPDEST SWAP1 POP SWAP2 SWAP1 POP JUMP JUMPDEST PUSH1 0x0 PUSH2 0x30AE DUP3 PUSH2 0x3091 JUMP JUMPDEST SWAP1 POP SWAP2 SWAP1 POP JUMP JUMPDEST PUSH2 0x30BE DUP2 PUSH2 0x30A3 JUMP JUMPDEST DUP3 MSTORE POP POP JUMP JUMPDEST PUSH1 0x0 PUSH1 0xE0 DUP3 ADD SWAP1 POP PUSH2 0x30D9 PUSH1 0x0 DUP4 ADD DUP11 PUSH2 0x30B5 JUMP JUMPDEST PUSH2 0x30E6 PUSH1 0x20 DUP4 ADD DUP10 PUSH2 0x301B JUMP JUMPDEST PUSH2 0x30F3 PUSH1 0x40 DUP4 ADD DUP9 PUSH2 0x301B JUMP JUMPDEST PUSH2 0x3100 PUSH1 0x60 DUP4 ADD DUP8 PUSH2 0x301B JUMP JUMPDEST PUSH2 0x310D PUSH1 0x80 DUP4 ADD DUP7 PUSH2 0x301B JUMP JUMPDEST PUSH2 0x311A PUSH1 0xA0 DUP4 ADD DUP6 PUSH2 0x301B JUMP JUMPDEST PUSH2 0x3127 PUSH1 0xC0 DUP4 ADD DUP5 PUSH2 0x301B JUMP JUMPDEST SWAP9 SWAP8 POP POP POP POP POP POP POP POP JUMP JUMPDEST PUSH1 0x0 DUP2 ISZERO ISZERO SWAP1 POP SWAP2 SWAP1 POP JUMP JUMPDEST PUSH2 0x3148 DUP2 PUSH2 0x3133 JUMP JUMPDEST DUP2 EQ PUSH2 0x3153 JUMPI PUSH1 0x0 DUP1 REVERT JUMPDEST POP JUMP JUMPDEST PUSH1 0x0 DUP2 CALLDATALOAD SWAP1 POP PUSH2 0x3165 DUP2 PUSH2 0x313F JUMP JUMPDEST SWAP3 SWAP2 POP POP JUMP JUMPDEST PUSH1 0x0 DUP1 PUSH1 0x0 DUP1 PUSH1 0x0 PUSH1 0xA0 DUP7 DUP9 SUB SLT ISZERO PUSH2 0x3187 JUMPI PUSH2 0x3186 PUSH2 0x2FAE JUMP JUMPDEST JUMPDEST PUSH1 0x0 PUSH2 0x3195 DUP9 DUP3 DUP10 ADD PUSH2 0x2FD9 JUMP JUMPDEST SWAP6 POP POP PUSH1 0x20 PUSH2 0x31A6 DUP9 DUP3 DUP10 ADD PUSH2 0x2FD9 JUMP JUMPDEST SWAP5 POP POP PUSH1 0x40 PUSH2 0x31B7 DUP9 DUP3 DUP10 ADD PUSH2 0x2FD9 JUMP JUMPDEST SWAP4 POP POP PUSH1 0x60 PUSH2 0x31C8 DUP9 DUP3 DUP10 ADD PUSH2 0x2FD9 JUMP JUMPDEST SWAP3 POP POP PUSH1 0x80 PUSH2 0x31D9 DUP9 DUP3 DUP10 ADD PUSH2 0x3156 JUMP JUMPDEST SWAP2 POP POP SWAP3 SWAP6 POP SWAP3 SWAP6 SWAP1 SWAP4 POP JUMP JUMPDEST PUSH1 0x0 PUSH2 0x31F1 DUP3 PUSH2 0x3045 JUMP JUMPDEST SWAP1 POP SWAP2 SWAP1 POP JUMP JUMPDEST PUSH2 0x3201 DUP2 PUSH2 0x31E6 JUMP JUMPDEST DUP2 EQ PUSH2 0x320C JUMPI PUSH1 0x0 DUP1 REVERT JUMPDEST POP JUMP JUMPDEST PUSH1 0x0 DUP2 CALLDATALOAD SWAP1 POP PUSH2 0x321E DUP2 PUSH2 0x31F8 JUMP JUMPDEST SWAP3 SWAP2 POP POP JUMP JUMPDEST PUSH1 0x0 DUP1 PUSH1 0x40 DUP4 DUP6 SUB SLT ISZERO PUSH2 0x323B JUMPI PUSH2 0x323A PUSH2 0x2FAE JUMP JUMPDEST JUMPDEST PUSH1 0x0 PUSH2 0x3249 DUP6 DUP3 DUP7 ADD PUSH2 0x2FD9 JUMP JUMPDEST SWAP3 POP POP PUSH1 0x20 PUSH2 0x325A DUP6 DUP3 DUP7 ADD PUSH2 0x320F JUMP JUMPDEST SWAP2 POP POP SWAP3 POP SWAP3 SWAP1 POP JUMP JUMPDEST PUSH2 0x326D DUP2 PUSH2 0x3133 JUMP JUMPDEST DUP3 MSTORE POP POP JUMP JUMPDEST PUSH1 0x0 PUSH1 0x20 DUP3 ADD SWAP1 POP PUSH2 0x3288 PUSH1 0x0 DUP4 ADD DUP5 PUSH2 0x3264 JUMP JUMPDEST SWAP3 SWAP2 POP POP JUMP JUMPDEST PUSH1 0x0 DUP1 PUSH1 0x40 DUP4 DUP6 SUB SLT ISZERO PUSH2 0x32A5 JUMPI PUSH2 0x32A4 PUSH2 0x2FAE JUMP JUMPDEST JUMPDEST PUSH1 0x0 PUSH2 0x32B3 DUP6 DUP3 DUP7 ADD PUSH2 0x2FD9 JUMP JUMPDEST SWAP3 POP POP PUSH1 0x20 PUSH2 0x32C4 DUP6 DUP3 DUP7 ADD PUSH2 0x2FD9 JUMP JUMPDEST SWAP2 POP POP SWAP3 POP SWAP3 SWAP1 POP JUMP JUMPDEST PUSH1 0x0 DUP1 REVERT JUMPDEST PUSH1 0x0 DUP1 REVERT JUMPDEST PUSH1 0x0 DUP1 REVERT JUMPDEST PUSH1 0x0 DUP1 DUP4 PUSH1 0x1F DUP5 ADD SLT PUSH2 0x32F3 JUMPI PUSH2 0x32F2 PUSH2 0x32CE JUMP JUMPDEST JUMPDEST DUP3 CALLDATALOAD SWAP1 POP PUSH8 0xFFFFFFFFFFFFFFFF DUP2 GT ISZERO PUSH2 0x3310 JUMPI PUSH2 0x330F PUSH2 0x32D3 JUMP JUMPDEST JUMPDEST PUSH1 0x20 DUP4 ADD SWAP2 POP DUP4 PUSH1 0x1 DUP3 MUL DUP4 ADD GT ISZERO PUSH2 0x332C JUMPI PUSH2 0x332B PUSH2 0x32D8 JUMP JUMPDEST JUMPDEST SWAP3 POP SWAP3 SWAP1 POP JUMP JUMPDEST PUSH1 0x0 DUP1 PUSH1 0x0 DUP1 PUSH1 0x60 DUP6 DUP8 SUB SLT ISZERO PUSH2 0x334D JUMPI PUSH2 0x334C PUSH2 0x2FAE JUMP JUMPDEST JUMPDEST PUSH1 0x0 DUP6 ADD CALLDATALOAD PUSH8 0xFFFFFFFFFFFFFFFF DUP2 GT ISZERO PUSH2 0x336B JUMPI PUSH2 0x336A PUSH2 0x2FB3 JUMP JUMPDEST JUMPDEST PUSH2 0x3377 DUP8 DUP3 DUP9 ADD PUSH2 0x32DD JUMP JUMPDEST SWAP5 POP SWAP5 POP POP PUSH1 0x20 PUSH2 0x338A DUP8 DUP3 DUP9 ADD PUSH2 0x2FD9 JUMP JUMPDEST SWAP3 POP POP PUSH1 0x40 PUSH2 0x339B DUP8 DUP3 DUP9 ADD PUSH2 0x3156 JUMP JUMPDEST SWAP2 POP POP SWAP3 SWAP6 SWAP2 SWAP5 POP SWAP3 POP JUMP JUMPDEST PUSH1 0x0 DUP1 PUSH1 0x0 PUSH1 0x60 DUP5 DUP7 SUB SLT ISZERO PUSH2 0x33C0 JUMPI PUSH2 0x33BF PUSH2 0x2FAE JUMP JUMPDEST JUMPDEST PUSH1 0x0 PUSH2 0x33CE DUP7 DUP3 DUP8 ADD PUSH2 0x2FD9 JUMP JUMPDEST SWAP4 POP POP PUSH1 0x20 PUSH2 0x33DF DUP7 DUP3 DUP8 ADD PUSH2 0x2FD9 JUMP JUMPDEST SWAP3 POP POP PUSH1 0x40 PUSH2 0x33F0 DUP7 DUP3 DUP8 ADD PUSH2 0x3156 JUMP JUMPDEST SWAP2 POP POP SWAP3 POP SWAP3 POP SWAP3 JUMP JUMPDEST PUSH1 0x0 PUSH2 0x3405 DUP3 PUSH2 0x31E6 JUMP JUMPDEST SWAP1 POP SWAP2 SWAP1 POP JUMP JUMPDEST PUSH2 0x3415 DUP2 PUSH2 0x33FA JUMP JUMPDEST DUP2 EQ PUSH2 0x3420 JUMPI PUSH1 0x0 DUP1 REVERT JUMPDEST POP JUMP JUMPDEST PUSH1 0x0 DUP2 CALLDATALOAD SWAP1 POP PUSH2 0x3432 DUP2 PUSH2 0x340C JUMP JUMPDEST SWAP3 SWAP2 POP POP JUMP JUMPDEST PUSH1 0x0 DUP1 PUSH1 0x0 DUP1 PUSH1 0x0 DUP1 PUSH1 0xC0 DUP8 DUP10 SUB SLT ISZERO PUSH2 0x3455 JUMPI PUSH2 0x3454 PUSH2 0x2FAE JUMP JUMPDEST JUMPDEST PUSH1 0x0 PUSH2 0x3463 DUP10 DUP3 DUP11 ADD PUSH2 0x2FD9 JUMP JUMPDEST SWAP7 POP POP PUSH1 0x20 PUSH2 0x3474 DUP10 DUP3 DUP11 ADD PUSH2 0x3423 JUMP JUMPDEST SWAP6 POP POP PUSH1 0x40 PUSH2 0x3485 DUP10 DUP3 DUP11 ADD PUSH2 0x2FD9 JUMP JUMPDEST SWAP5 POP POP PUSH1 0x60 PUSH2 0x3496 DUP10 DUP3 DUP11 ADD PUSH2 0x2FD9 JUMP JUMPDEST SWAP4 POP POP PUSH1 0x80 PUSH2 0x34A7 DUP10 DUP3 DUP11 ADD PUSH2 0x2FD9 JUMP JUMPDEST SWAP3 POP POP PUSH1 0xA0 PUSH2 0x34B8 DUP10 DUP3 DUP11 ADD PUSH2 0x3156 JUMP JUMPDEST SWAP2 POP POP SWAP3 SWAP6 POP SWAP3 SWAP6 POP SWAP3 SWAP6 JUMP JUMPDEST PUSH1 0x0 DUP1 PUSH1 0x40 DUP4 DUP6 SUB SLT ISZERO PUSH2 0x34DC JUMPI PUSH2 0x34DB PUSH2 0x2FAE JUMP JUMPDEST JUMPDEST PUSH1 0x0 PUSH2 0x34EA DUP6 DUP3 DUP7 ADD PUSH2 0x2FD9 JUMP JUMPDEST SWAP3 POP POP PUSH1 0x20 PUSH2 0x34FB DUP6 DUP3 DUP7 ADD PUSH2 0x3156 JUMP JUMPDEST SWAP2 POP POP SWAP3 POP SWAP3 SWAP1 POP JUMP JUMPDEST PUSH1 0x0 DUP2 MLOAD SWAP1 POP SWAP2 SWAP1 POP JUMP JUMPDEST PUSH1 0x0 DUP3 DUP3 MSTORE PUSH1 0x20 DUP3 ADD SWAP1 POP SWAP3 SWAP2 POP POP JUMP JUMPDEST PUSH1 0x0 JUMPDEST DUP4 DUP2 LT ISZERO PUSH2 0x353F JUMPI DUP1 DUP3 ADD MLOAD DUP2 DUP5 ADD MSTORE PUSH1 0x20 DUP2 ADD SWAP1 POP PUSH2 0x3524 JUMP JUMPDEST PUSH1 0x0 DUP5 DUP5 ADD MSTORE POP POP POP POP JUMP JUMPDEST PUSH1 0x0 PUSH1 0x1F NOT PUSH1 0x1F DUP4 ADD AND SWAP1 POP SWAP2 SWAP1 POP JUMP JUMPDEST PUSH1 0x0 PUSH2 0x3567 DUP3 PUSH2 0x3505 JUMP JUMPDEST PUSH2 0x3571 DUP2 DUP6 PUSH2 0x3510 JUMP JUMPDEST SWAP4 POP PUSH2 0x3581 DUP2 DUP6 PUSH1 0x20 DUP7 ADD PUSH2 0x3521 JUMP JUMPDEST PUSH2 0x358A DUP2 PUSH2 0x354B JUMP JUMPDEST DUP5 ADD SWAP2 POP POP SWAP3 SWAP2 POP POP JUMP JUMPDEST PUSH1 0x0 PUSH1 0x60 DUP3 ADD SWAP1 POP PUSH2 0x35AA PUSH1 0x0 DUP4 ADD DUP7 PUSH2 0x301B JUMP JUMPDEST PUSH2 0x35B7 PUSH1 0x20 DUP4 ADD DUP6 PUSH2 0x301B JUMP JUMPDEST DUP2 DUP2 SUB PUSH1 0x40 DUP4 ADD MSTORE PUSH2 0x35C9 DUP2 DUP5 PUSH2 0x355C JUMP JUMPDEST SWAP1 POP SWAP5 SWAP4 POP POP POP POP JUMP JUMPDEST PUSH1 0x0 PUSH1 0x20 DUP3 DUP5 SUB SLT ISZERO PUSH2 0x35E9 JUMPI PUSH2 0x35E8 PUSH2 0x2FAE JUMP JUMPDEST JUMPDEST PUSH1 0x0 PUSH2 0x35F7 DUP5 DUP3 DUP6 ADD PUSH2 0x3156 JUMP JUMPDEST SWAP2 POP POP SWAP3 SWAP2 POP POP JUMP JUMPDEST PUSH2 0x3609 DUP2 PUSH2 0x31E6 JUMP JUMPDEST DUP3 MSTORE POP POP JUMP JUMPDEST PUSH1 0x0 PUSH1 0x20 DUP3 ADD SWAP1 POP PUSH2 0x3624 PUSH1 0x0 DUP4 ADD DUP5 PUSH2 0x3600 JUMP JUMPDEST SWAP3 SWAP2 POP POP JUMP JUMPDEST PUSH1 0x0 PUSH1 0x20 DUP3 DUP5 SUB SLT ISZERO PUSH2 0x3640 JUMPI PUSH2 0x363F PUSH2 0x2FAE JUMP JUMPDEST JUMPDEST PUSH1 0x0 PUSH2 0x364E DUP5 DUP3 DUP6 ADD PUSH2 0x320F JUMP JUMPDEST SWAP2 POP POP SWAP3 SWAP2 POP POP JUMP JUMPDEST PUSH1 0x0 PUSH1 0x80 DUP3 ADD SWAP1 POP PUSH2 0x366C PUSH1 0x0 DUP4 ADD DUP8 PUSH2 0x301B JUMP JUMPDEST PUSH2 0x3679 PUSH1 0x20 DUP4 ADD DUP7 PUSH2 0x301B JUMP JUMPDEST PUSH2 0x3686 PUSH1 0x40 DUP4 ADD DUP6 PUSH2 0x301B JUMP JUMPDEST PUSH2 0x3693 PUSH1 0x60 DUP4 ADD DUP5 PUSH2 0x301B JUMP JUMPDEST SWAP6 SWAP5 POP POP POP POP POP JUMP JUMPDEST PUSH1 0x0 PUSH1 0x40 DUP3 ADD SWAP1 POP PUSH2 0x36B1 PUSH1 0x0 DUP4 ADD DUP6 PUSH2 0x301B JUMP JUMPDEST PUSH2 0x36BE PUSH1 0x20 DUP4 ADD DUP5 PUSH2 0x301B JUMP JUMPDEST SWAP4 SWAP3 POP POP POP JUMP JUMPDEST PUSH1 0x0 DUP2 MLOAD SWAP1 POP SWAP2 SWAP1 POP JUMP JUMPDEST PUSH1 0x0 DUP3 DUP3 MSTORE PUSH1 0x20 DUP3 ADD SWAP1 POP SWAP3 SWAP2 POP POP JUMP JUMPDEST PUSH1 0x0 DUP2 SWAP1 POP PUSH1 0x20 DUP3 ADD SWAP1 POP SWAP2 SWAP1 POP JUMP JUMPDEST PUSH2 0x36FA DUP2 PUSH2 0x2FB8 JUMP JUMPDEST DUP3 MSTORE POP POP JUMP JUMPDEST PUSH1 0x0 PUSH2 0x370C DUP4 DUP4 PUSH2 0x36F1 JUMP JUMPDEST PUSH1 0x20 DUP4 ADD SWAP1 POP SWAP3 SWAP2 POP POP JUMP JUMPDEST PUSH1 0x0 PUSH1 0x20 DUP3 ADD SWAP1 POP SWAP2 SWAP1 POP JUMP JUMPDEST PUSH1 0x0 PUSH2 0x3730 DUP3 PUSH2 0x36C5 JUMP JUMPDEST PUSH2 0x373A DUP2 DUP6 PUSH2 0x36D0 JUMP JUMPDEST SWAP4 POP PUSH2 0x3745 DUP4 PUSH2 0x36E1 JUMP JUMPDEST DUP1 PUSH1 0x0 JUMPDEST DUP4 DUP2 LT ISZERO PUSH2 0x3776 JUMPI DUP2 MLOAD PUSH2 0x375D DUP9 DUP3 PUSH2 0x3700 JUMP JUMPDEST SWAP8 POP PUSH2 0x3768 DUP4 PUSH2 0x3718 JUMP JUMPDEST SWAP3 POP POP PUSH1 0x1 DUP2 ADD SWAP1 POP PUSH2 0x3749 JUMP JUMPDEST POP DUP6 SWAP4 POP POP POP POP SWAP3 SWAP2 POP POP JUMP JUMPDEST PUSH1 0x0 PUSH1 0x20 DUP3 ADD SWAP1 POP DUP2 DUP2 SUB PUSH1 0x0 DUP4 ADD MSTORE PUSH2 0x379D DUP2 DUP5 PUSH2 0x3725 JUMP JUMPDEST SWAP1 POP SWAP3 SWAP2 POP POP JUMP JUMPDEST PUSH1 0x0 PUSH2 0x37B0 DUP3 PUSH2 0x3091 JUMP JUMPDEST SWAP1 POP SWAP2 SWAP1 POP JUMP JUMPDEST PUSH2 0x37C0 DUP2 PUSH2 0x37A5 JUMP JUMPDEST DUP3 MSTORE POP POP JUMP JUMPDEST PUSH1 0x0 PUSH1 0x20 DUP3 ADD SWAP1 POP PUSH2 0x37DB PUSH1 0x0 DUP4 ADD DUP5 PUSH2 0x37B7 JUMP JUMPDEST SWAP3 SWAP2 POP POP JUMP JUMPDEST PUSH1 0x0 PUSH2 0x37EC DUP3 PUSH2 0x3091 JUMP JUMPDEST SWAP1 POP SWAP2 SWAP1 POP JUMP JUMPDEST PUSH2 0x37FC DUP2 PUSH2 0x37E1 JUMP JUMPDEST DUP3 MSTORE POP POP JUMP JUMPDEST PUSH1 0x0 PUSH1 0x20 DUP3 ADD SWAP1 POP PUSH2 0x3817 PUSH1 0x0 DUP4 ADD DUP5 PUSH2 0x37F3 JUMP JUMPDEST SWAP3 SWAP2 POP POP JUMP JUMPDEST PUSH32 0x5A6B486172766573743A2043616E6E6F74206368616E67652073746172745469 PUSH1 0x0 DUP3 ADD MSTORE PUSH32 0x6D65206166746572206661726D696E672068617320616C726561647920737461 PUSH1 0x20 DUP3 ADD MSTORE PUSH32 0x727465642E000000000000000000000000000000000000000000000000000000 PUSH1 0x40 DUP3 ADD MSTORE POP JUMP JUMPDEST PUSH1 0x0 PUSH2 0x389F PUSH1 0x45 DUP4 PUSH2 0x3510 JUMP JUMPDEST SWAP2 POP PUSH2 0x38AA DUP3 PUSH2 0x381D JUMP JUMPDEST PUSH1 0x60 DUP3 ADD SWAP1 POP SWAP2 SWAP1 POP JUMP JUMPDEST PUSH1 0x0 PUSH1 0x20 DUP3 ADD SWAP1 POP DUP2 DUP2 SUB PUSH1 0x0 DUP4 ADD MSTORE PUSH2 0x38CE DUP2 PUSH2 0x3892 JUMP JUMPDEST SWAP1 POP SWAP2 SWAP1 POP JUMP JUMPDEST PUSH32 0x5A6B486172766573743A2043616E6E6F74206368616E67652073746172745469 PUSH1 0x0 DUP3 ADD MSTORE PUSH32 0x6D65206166746572206120706F6F6C20686173206265656E2072656769737465 PUSH1 0x20 DUP3 ADD MSTORE PUSH32 0x7265642E00000000000000000000000000000000000000000000000000000000 PUSH1 0x40 DUP3 ADD MSTORE POP JUMP JUMPDEST PUSH1 0x0 PUSH2 0x3957 PUSH1 0x44 DUP4 PUSH2 0x3510 JUMP JUMPDEST SWAP2 POP PUSH2 0x3962 DUP3 PUSH2 0x38D5 JUMP JUMPDEST PUSH1 0x60 DUP3 ADD SWAP1 POP SWAP2 SWAP1 POP JUMP JUMPDEST PUSH1 0x0 PUSH1 0x20 DUP3 ADD SWAP1 POP DUP2 DUP2 SUB PUSH1 0x0 DUP4 ADD MSTORE PUSH2 0x3986 DUP2 PUSH2 0x394A JUMP JUMPDEST SWAP1 POP SWAP2 SWAP1 POP JUMP JUMPDEST PUSH32 0x5A6B486172766573743A2043616E6E6F74206368616E67652073746172745469 PUSH1 0x0 DUP3 ADD MSTORE PUSH32 0x6D652077697468206120706173742074696D657374616D702E00000000000000 PUSH1 0x20 DUP3 ADD MSTORE POP JUMP JUMPDEST PUSH1 0x0 PUSH2 0x39E9 PUSH1 0x39 DUP4 PUSH2 0x3510 JUMP JUMPDEST SWAP2 POP PUSH2 0x39F4 DUP3 PUSH2 0x398D JUMP JUMPDEST PUSH1 0x40 DUP3 ADD SWAP1 POP SWAP2 SWAP1 POP JUMP JUMPDEST PUSH1 0x0 PUSH1 0x20 DUP3 ADD SWAP1 POP DUP2 DUP2 SUB PUSH1 0x0 DUP4 ADD MSTORE PUSH2 0x3A18 DUP2 PUSH2 0x39DC JUMP JUMPDEST SWAP1 POP SWAP2 SWAP1 POP JUMP JUMPDEST PUSH32 0x5A6B486172766573743A20706F6F6C20646F6573206E6F742065786973740000 PUSH1 0x0 DUP3 ADD MSTORE POP JUMP JUMPDEST PUSH1 0x0 PUSH2 0x3A55 PUSH1 0x1E DUP4 PUSH2 0x3510 JUMP JUMPDEST SWAP2 POP PUSH2 0x3A60 DUP3 PUSH2 0x3A1F JUMP JUMPDEST PUSH1 0x20 DUP3 ADD SWAP1 POP SWAP2 SWAP1 POP JUMP JUMPDEST PUSH1 0x0 PUSH1 0x20 DUP3 ADD SWAP1 POP DUP2 DUP2 SUB PUSH1 0x0 DUP4 ADD MSTORE PUSH2 0x3A84 DUP2 PUSH2 0x3A48 JUMP JUMPDEST SWAP1 POP SWAP2 SWAP1 POP JUMP JUMPDEST PUSH32 0x5A6B486172766573743A20746F6F2068696768206861727665737420696E7465 PUSH1 0x0 DUP3 ADD MSTORE PUSH32 0x7276616C00000000000000000000000000000000000000000000000000000000 PUSH1 0x20 DUP3 ADD MSTORE POP JUMP JUMPDEST PUSH1 0x0 PUSH2 0x3AE7 PUSH1 0x24 DUP4 PUSH2 0x3510 JUMP JUMPDEST SWAP2 POP PUSH2 0x3AF2 DUP3 PUSH2 0x3A8B JUMP JUMPDEST PUSH1 0x40 DUP3 ADD SWAP1 POP SWAP2 SWAP1 POP JUMP JUMPDEST PUSH1 0x0 PUSH1 0x20 DUP3 ADD SWAP1 POP DUP2 DUP2 SUB PUSH1 0x0 DUP4 ADD MSTORE PUSH2 0x3B16 DUP2 PUSH2 0x3ADA JUMP JUMPDEST SWAP1 POP SWAP2 SWAP1 POP JUMP JUMPDEST PUSH32 0x5A6B486172766573743A20746F6F2068696768206465706F7369742066656500 PUSH1 0x0 DUP3 ADD MSTORE POP JUMP JUMPDEST PUSH1 0x0 PUSH2 0x3B53 PUSH1 0x1F DUP4 PUSH2 0x3510 JUMP JUMPDEST SWAP2 POP PUSH2 0x3B5E DUP3 PUSH2 0x3B1D JUMP JUMPDEST PUSH1 0x20 DUP3 ADD SWAP1 POP SWAP2 SWAP1 POP JUMP JUMPDEST PUSH1 0x0 PUSH1 0x20 DUP3 ADD SWAP1 POP DUP2 DUP2 SUB PUSH1 0x0 DUP4 ADD MSTORE PUSH2 0x3B82 DUP2 PUSH2 0x3B46 JUMP JUMPDEST SWAP1 POP SWAP2 SWAP1 POP JUMP JUMPDEST PUSH32 0x4E487B7100000000000000000000000000000000000000000000000000000000 PUSH1 0x0 MSTORE PUSH1 0x32 PUSH1 0x4 MSTORE PUSH1 0x24 PUSH1 0x0 REVERT JUMPDEST PUSH32 0x4E487B7100000000000000000000000000000000000000000000000000000000 PUSH1 0x0 MSTORE PUSH1 0x11 PUSH1 0x4 MSTORE PUSH1 0x24 PUSH1 0x0 REVERT JUMPDEST PUSH1 0x0 PUSH2 0x3BF2 DUP3 PUSH2 0x2FB8 JUMP JUMPDEST SWAP2 POP PUSH2 0x3BFD DUP4 PUSH2 0x2FB8 JUMP JUMPDEST SWAP3 POP DUP3 DUP3 SUB SWAP1 POP DUP2 DUP2 GT ISZERO PUSH2 0x3C15 JUMPI PUSH2 0x3C14 PUSH2 0x3BB8 JUMP JUMPDEST JUMPDEST SWAP3 SWAP2 POP POP JUMP JUMPDEST PUSH1 0x0 PUSH2 0x3C26 DUP3 PUSH2 0x2FB8 JUMP JUMPDEST SWAP2 POP PUSH2 0x3C31 DUP4 PUSH2 0x2FB8 JUMP JUMPDEST SWAP3 POP DUP3 DUP3 ADD SWAP1 POP DUP1 DUP3 GT ISZERO PUSH2 0x3C49 JUMPI PUSH2 0x3C48 PUSH2 0x3BB8 JUMP JUMPDEST JUMPDEST SWAP3 SWAP2 POP POP JUMP JUMPDEST PUSH1 0x0 PUSH1 0x60 DUP3 ADD SWAP1 POP PUSH2 0x3C64 PUSH1 0x0 DUP4 ADD DUP7 PUSH2 0x301B JUMP JUMPDEST PUSH2 0x3C71 PUSH1 0x20 DUP4 ADD DUP6 PUSH2 0x301B JUMP JUMPDEST PUSH2 0x3C7E PUSH1 0x40 DUP4 ADD DUP5 PUSH2 0x301B JUMP JUMPDEST SWAP5 SWAP4 POP POP POP POP JUMP JUMPDEST PUSH32 0x5A6B486172766573743A20626164207769746864726177616C00000000000000 PUSH1 0x0 DUP3 ADD MSTORE POP JUMP JUMPDEST PUSH1 0x0 PUSH2 0x3CBC PUSH1 0x19 DUP4 PUSH2 0x3510 JUMP JUMPDEST SWAP2 POP PUSH2 0x3CC7 DUP3 PUSH2 0x3C86 JUMP JUMPDEST PUSH1 0x20 DUP3 ADD SWAP1 POP SWAP2 SWAP1 POP JUMP JUMPDEST PUSH1 0x0 PUSH1 0x20 DUP3 ADD SWAP1 POP DUP2 DUP2 SUB PUSH1 0x0 DUP4 ADD MSTORE PUSH2 0x3CEB DUP2 PUSH2 0x3CAF JUMP JUMPDEST SWAP1 POP SWAP2 SWAP1 POP JUMP JUMPDEST PUSH1 0x0 PUSH2 0x3CFD DUP3 PUSH2 0x2FB8 JUMP JUMPDEST SWAP2 POP PUSH2 0x3D08 DUP4 PUSH2 0x2FB8 JUMP JUMPDEST SWAP3 POP DUP3 DUP3 MUL PUSH2 0x3D16 DUP2 PUSH2 0x2FB8 JUMP JUMPDEST SWAP2 POP DUP3 DUP3 DIV DUP5 EQ DUP4 ISZERO OR PUSH2 0x3D2D JUMPI PUSH2 0x3D2C PUSH2 0x3BB8 JUMP JUMPDEST JUMPDEST POP SWAP3 SWAP2 POP POP JUMP JUMPDEST PUSH32 0x4E487B7100000000000000000000000000000000000000000000000000000000 PUSH1 0x0 MSTORE PUSH1 0x12 PUSH1 0x4 MSTORE PUSH1 0x24 PUSH1 0x0 REVERT JUMPDEST PUSH1 0x0 PUSH2 0x3D6E DUP3 PUSH2 0x2FB8 JUMP JUMPDEST SWAP2 POP PUSH2 0x3D79 DUP4 PUSH2 0x2FB8 JUMP JUMPDEST SWAP3 POP DUP3 PUSH2 0x3D89 JUMPI PUSH2 0x3D88 PUSH2 0x3D34 JUMP JUMPDEST JUMPDEST DUP3 DUP3 DIV SWAP1 POP SWAP3 SWAP2 POP POP JUMP JUMPDEST PUSH32 0x4E487B7100000000000000000000000000000000000000000000000000000000 PUSH1 0x0 MSTORE PUSH1 0x41 PUSH1 0x4 MSTORE PUSH1 0x24 PUSH1 0x0 REVERT JUMPDEST PUSH32 0x4E487B7100000000000000000000000000000000000000000000000000000000 PUSH1 0x0 MSTORE PUSH1 0x22 PUSH1 0x4 MSTORE PUSH1 0x24 PUSH1 0x0 REVERT JUMPDEST PUSH1 0x0 PUSH1 0x2 DUP3 DIV SWAP1 POP PUSH1 0x1 DUP3 AND DUP1 PUSH2 0x3E0A JUMPI PUSH1 0x7F DUP3 AND SWAP2 POP JUMPDEST PUSH1 0x20 DUP3 LT DUP2 SUB PUSH2 0x3E1D JUMPI PUSH2 0x3E1C PUSH2 0x3DC3 JUMP JUMPDEST JUMPDEST POP SWAP2 SWAP1 POP JUMP JUMPDEST PUSH1 0x0 DUP2 SWAP1 POP DUP2 PUSH1 0x0 MSTORE PUSH1 0x20 PUSH1 0x0 KECCAK256 SWAP1 POP SWAP2 SWAP1 POP JUMP JUMPDEST PUSH1 0x0 PUSH1 0x20 PUSH1 0x1F DUP4 ADD DIV SWAP1 POP SWAP2 SWAP1 POP JUMP JUMPDEST PUSH1 0x0 DUP3 DUP3 SHL SWAP1 POP SWAP3 SWAP2 POP POP JUMP JUMPDEST PUSH1 0x0 PUSH1 0x8 DUP4 MUL PUSH2 0x3E85 PUSH32 0xFFFFFFFFFFFFFFFFFFFFFFFFFFFFFFFFFFFFFFFFFFFFFFFFFFFFFFFFFFFFFFFF DUP3 PUSH2 0x3E48 JUMP JUMPDEST PUSH2 0x3E8F DUP7 DUP4 PUSH2 0x3E48 JUMP JUMPDEST SWAP6 POP DUP1 NOT DUP5 AND SWAP4 POP DUP1 DUP7 AND DUP5 OR SWAP3 POP POP POP SWAP4 SWAP3 POP POP POP JUMP JUMPDEST PUSH1 0x0 PUSH2 0x3EC2 PUSH2 0x3EBD PUSH2 0x3EB8 DUP5 PUSH2 0x2FB8 JUMP JUMPDEST PUSH2 0x3065 JUMP JUMPDEST PUSH2 0x2FB8 JUMP JUMPDEST SWAP1 POP SWAP2 SWAP1 POP JUMP JUMPDEST PUSH1 0x0 DUP2 SWAP1 POP SWAP2 SWAP1 POP JUMP JUMPDEST PUSH2 0x3EDC DUP4 PUSH2 0x3EA7 JUMP JUMPDEST PUSH2 0x3EF0 PUSH2 0x3EE8 DUP3 PUSH2 0x3EC9 JUMP JUMPDEST DUP5 DUP5 SLOAD PUSH2 0x3E55 JUMP JUMPDEST DUP3 SSTORE POP POP POP POP JUMP JUMPDEST PUSH1 0x0 SWAP1 JUMP JUMPDEST PUSH2 0x3F05 PUSH2 0x3EF8 JUMP JUMPDEST PUSH2 0x3F10 DUP2 DUP5 DUP5 PUSH2 0x3ED3 JUMP JUMPDEST POP POP POP JUMP JUMPDEST JUMPDEST DUP2 DUP2 LT ISZERO PUSH2 0x3F34 JUMPI PUSH2 0x3F29 PUSH1 0x0 DUP3 PUSH2 0x3EFD JUMP JUMPDEST PUSH1 0x1 DUP2 ADD SWAP1 POP PUSH2 0x3F16 JUMP JUMPDEST POP POP JUMP JUMPDEST PUSH1 0x1F DUP3 GT ISZERO PUSH2 0x3F79 JUMPI PUSH2 0x3F4A DUP2 PUSH2 0x3E23 JUMP JUMPDEST PUSH2 0x3F53 DUP5 PUSH2 0x3E38 JUMP JUMPDEST DUP2 ADD PUSH1 0x20 DUP6 LT ISZERO PUSH2 0x3F62 JUMPI DUP2 SWAP1 POP JUMPDEST PUSH2 0x3F76 PUSH2 0x3F6E DUP6 PUSH2 0x3E38 JUMP JUMPDEST DUP4 ADD DUP3 PUSH2 0x3F15 JUMP JUMPDEST POP POP JUMPDEST POP POP POP JUMP JUMPDEST PUSH1 0x0 DUP3 DUP3 SHR SWAP1 POP SWAP3 SWAP2 POP POP JUMP JUMPDEST PUSH1 0x0 PUSH2 0x3F9C PUSH1 0x0 NOT DUP5 PUSH1 0x8 MUL PUSH2 0x3F7E JUMP JUMPDEST NOT DUP1 DUP4 AND SWAP2 POP POP SWAP3 SWAP2 POP POP JUMP JUMPDEST PUSH1 0x0 PUSH2 0x3FB5 DUP4 DUP4 PUSH2 0x3F8B JUMP JUMPDEST SWAP2 POP DUP3 PUSH1 0x2 MUL DUP3 OR SWAP1 POP SWAP3 SWAP2 POP POP JUMP JUMPDEST PUSH2 0x3FCE DUP3 PUSH2 0x3505 JUMP JUMPDEST PUSH8 0xFFFFFFFFFFFFFFFF DUP2 GT ISZERO PUSH2 0x3FE7 JUMPI PUSH2 0x3FE6 PUSH2 0x3D94 JUMP JUMPDEST JUMPDEST PUSH2 0x3FF1 DUP3 SLOAD PUSH2 0x3DF2 JUMP JUMPDEST PUSH2 0x3FFC DUP3 DUP3 DUP6 PUSH2 0x3F38 JUMP JUMPDEST PUSH1 0x0 PUSH1 0x20 SWAP1 POP PUSH1 0x1F DUP4 GT PUSH1 0x1 DUP2 EQ PUSH2 0x402F JUMPI PUSH1 0x0 DUP5 ISZERO PUSH2 0x401D JUMPI DUP3 DUP8 ADD MLOAD SWAP1 POP JUMPDEST PUSH2 0x4027 DUP6 DUP3 PUSH2 0x3FA9 JUMP JUMPDEST DUP7 SSTORE POP PUSH2 0x408F JUMP JUMPDEST PUSH1 0x1F NOT DUP5 AND PUSH2 0x403D DUP7 PUSH2 0x3E23 JUMP JUMPDEST PUSH1 0x0 JUMPDEST DUP3 DUP2 LT ISZERO PUSH2 0x4065 JUMPI DUP5 DUP10 ADD MLOAD DUP3 SSTORE PUSH1 0x1 DUP3 ADD SWAP2 POP PUSH1 0x20 DUP6 ADD SWAP5 POP PUSH1 0x20 DUP2 ADD SWAP1 POP PUSH2 0x4040 JUMP JUMPDEST DUP7 DUP4 LT ISZERO PUSH2 0x4082 JUMPI DUP5 DUP10 ADD MLOAD PUSH2 0x407E PUSH1 0x1F DUP10 AND DUP3 PUSH2 0x3F8B JUMP JUMPDEST DUP4 SSTORE POP JUMPDEST PUSH1 0x1 PUSH1 0x2 DUP9 MUL ADD DUP9 SSTORE POP POP POP JUMPDEST POP POP POP POP POP POP JUMP JUMPDEST PUSH1 0x0 DUP2 SWAP1 POP SWAP3 SWAP2 POP POP JUMP JUMPDEST DUP3 DUP2 DUP4 CALLDATACOPY PUSH1 0x0 DUP4 DUP4 ADD MSTORE POP POP POP JUMP JUMPDEST PUSH1 0x0 PUSH2 0x40BD DUP4 DUP6 PUSH2 0x4097 JUMP JUMPDEST SWAP4 POP PUSH2 0x40CA DUP4 DUP6 DUP5 PUSH2 0x40A2 JUMP JUMPDEST DUP3 DUP5 ADD SWAP1 POP SWAP4 SWAP3 POP POP POP JUMP JUMPDEST PUSH1 0x0 PUSH2 0x40E3 DUP3 DUP5 DUP7 PUSH2 0x40B1 JUMP JUMPDEST SWAP2 POP DUP2 SWAP1 POP SWAP4 SWAP3 POP POP POP JUMP JUMPDEST PUSH32 0x5A6B486172766573743A2063617465676F727920646F6573206E6F7420657869 PUSH1 0x0 DUP3 ADD MSTORE PUSH32 0x7374000000000000000000000000000000000000000000000000000000000000 PUSH1 0x20 DUP3 ADD MSTORE POP JUMP JUMPDEST PUSH1 0x0 PUSH2 0x414B PUSH1 0x22 DUP4 PUSH2 0x3510 JUMP JUMPDEST SWAP2 POP PUSH2 0x4156 DUP3 PUSH2 0x40EF JUMP JUMPDEST PUSH1 0x40 DUP3 ADD SWAP1 POP SWAP2 SWAP1 POP JUMP JUMPDEST PUSH1 0x0 PUSH1 0x20 DUP3 ADD SWAP1 POP DUP2 DUP2 SUB PUSH1 0x0 DUP4 ADD MSTORE PUSH2 0x417A DUP2 PUSH2 0x413E JUMP JUMPDEST SWAP1 POP SWAP2 SWAP1 POP JUMP JUMPDEST PUSH1 0x0 DUP2 MLOAD SWAP1 POP PUSH2 0x4190 DUP2 PUSH2 0x2FC2 JUMP JUMPDEST SWAP3 SWAP2 POP POP JUMP JUMPDEST PUSH1 0x0 PUSH1 0x20 DUP3 DUP5 SUB SLT ISZERO PUSH2 0x41AC JUMPI PUSH2 0x41AB PUSH2 0x2FAE JUMP JUMPDEST JUMPDEST PUSH1 0x0 PUSH2 0x41BA DUP5 DUP3 DUP6 ADD PUSH2 0x4181 JUMP JUMPDEST SWAP2 POP POP SWAP3 SWAP2 POP POP JUMP JUMPDEST PUSH1 0x0 PUSH1 0x40 DUP3 ADD SWAP1 POP PUSH2 0x41D8 PUSH1 0x0 DUP4 ADD DUP6 PUSH2 0x3600 JUMP JUMPDEST PUSH2 0x41E5 PUSH1 0x20 DUP4 ADD DUP5 PUSH2 0x301B JUMP JUMPDEST SWAP4 SWAP3 POP POP POP JUMP JUMPDEST PUSH32 0x5A6B486172766573743A20746F6B656E20616C72656164792072656769737465 PUSH1 0x0 DUP3 ADD MSTORE PUSH32 0x7265640000000000000000000000000000000000000000000000000000000000 PUSH1 0x20 DUP3 ADD MSTORE POP JUMP JUMPDEST PUSH1 0x0 PUSH2 0x4248 PUSH1 0x23 DUP4 PUSH2 0x3510 JUMP JUMPDEST SWAP2 POP PUSH2 0x4253 DUP3 PUSH2 0x41EC JUMP JUMPDEST PUSH1 0x40 DUP3 ADD SWAP1 POP SWAP2 SWAP1 POP JUMP JUMPDEST PUSH1 0x0 PUSH1 0x20 DUP3 ADD SWAP1 POP DUP2 DUP2 SUB PUSH1 0x0 DUP4 ADD MSTORE PUSH2 0x4277 DUP2 PUSH2 0x423B JUMP JUMPDEST SWAP1 POP SWAP2 SWAP1 POP JUMP JUMPDEST PUSH32 0x5A6B486172766573743A20746F6F2068696768205A4B48207265776172640000 PUSH1 0x0 DUP3 ADD MSTORE POP JUMP JUMPDEST PUSH1 0x0 PUSH2 0x42B4 PUSH1 0x1E DUP4 PUSH2 0x3510 JUMP JUMPDEST SWAP2 POP PUSH2 0x42BF DUP3 PUSH2 0x427E JUMP JUMPDEST PUSH1 0x20 DUP3 ADD SWAP1 POP SWAP2 SWAP1 POP JUMP JUMPDEST PUSH1 0x0 PUSH1 0x20 DUP3 ADD SWAP1 POP DUP2 DUP2 SUB PUSH1 0x0 DUP4 ADD MSTORE PUSH2 0x42E3 DUP2 PUSH2 0x42A7 JUMP JUMPDEST SWAP1 POP SWAP2 SWAP1 POP JUMP JUMPDEST PUSH1 0x0 PUSH2 0x42F5 DUP3 PUSH2 0x2FB8 JUMP JUMPDEST SWAP2 POP PUSH32 0xFFFFFFFFFFFFFFFFFFFFFFFFFFFFFFFFFFFFFFFFFFFFFFFFFFFFFFFFFFFFFFFF DUP3 SUB PUSH2 0x4327 JUMPI PUSH2 0x4326 PUSH2 0x3BB8 JUMP JUMPDEST JUMPDEST PUSH1 0x1 DUP3 ADD SWAP1 POP SWAP2 SWAP1 POP JUMP JUMPDEST PUSH32 0x5A6B48617276657374204465763A2063616C6C6572206973206E6F7420746865 PUSH1 0x0 DUP3 ADD MSTORE PUSH32 0x2064657600000000000000000000000000000000000000000000000000000000 PUSH1 0x20 DUP3 ADD MSTORE POP JUMP JUMPDEST PUSH1 0x0 PUSH2 0x438E PUSH1 0x24 DUP4 PUSH2 0x3510 JUMP JUMPDEST SWAP2 POP PUSH2 0x4399 DUP3 PUSH2 0x4332 JUMP JUMPDEST PUSH1 0x40 DUP3 ADD SWAP1 POP SWAP2 SWAP1 POP JUMP JUMPDEST PUSH1 0x0 PUSH1 0x20 DUP3 ADD SWAP1 POP DUP2 DUP2 SUB PUSH1 0x0 DUP4 ADD MSTORE PUSH2 0x43BD DUP2 PUSH2 0x4381 JUMP JUMPDEST SWAP1 POP SWAP2 SWAP1 POP JUMP JUMPDEST PUSH32 0x5A6B48617276657374204465763A206E756C6C2061646472657373206E6F7420 PUSH1 0x0 DUP3 ADD MSTORE PUSH32 0x7065726D69747465640000000000000000000000000000000000000000000000 PUSH1 0x20 DUP3 ADD MSTORE POP JUMP JUMPDEST PUSH1 0x0 PUSH2 0x4420 PUSH1 0x29 DUP4 PUSH2 0x3510 JUMP JUMPDEST SWAP2 POP PUSH2 0x442B DUP3 PUSH2 0x43C4 JUMP JUMPDEST PUSH1 0x40 DUP3 ADD SWAP1 POP SWAP2 SWAP1 POP JUMP JUMPDEST PUSH1 0x0 PUSH1 0x20 DUP3 ADD SWAP1 POP DUP2 DUP2 SUB PUSH1 0x0 DUP4 ADD MSTORE PUSH2 0x444F DUP2 PUSH2 0x4413 JUMP JUMPDEST SWAP1 POP SWAP2 SWAP1 POP JUMP JUMPDEST PUSH32 0x5A6B486172766573742046656520436F6C6C6563746F723A2063616C6C657220 PUSH1 0x0 DUP3 ADD MSTORE PUSH32 0x6973206E6F74207468652066656520636F6C6C6563746F720000000000000000 PUSH1 0x20 DUP3 ADD MSTORE POP JUMP JUMPDEST PUSH1 0x0 PUSH2 0x44B2 PUSH1 0x38 DUP4 PUSH2 0x3510 JUMP JUMPDEST SWAP2 POP PUSH2 0x44BD DUP3 PUSH2 0x4456 JUMP JUMPDEST PUSH1 0x40 DUP3 ADD SWAP1 POP SWAP2 SWAP1 POP JUMP JUMPDEST PUSH1 0x0 PUSH1 0x20 DUP3 ADD SWAP1 POP DUP2 DUP2 SUB PUSH1 0x0 DUP4 ADD MSTORE PUSH2 0x44E1 DUP2 PUSH2 0x44A5 JUMP JUMPDEST SWAP1 POP SWAP2 SWAP1 POP JUMP JUMPDEST PUSH32 0x5A6B486172766573742046656520436F6C6C6563746F723A206E756C6C206164 PUSH1 0x0 DUP3 ADD MSTORE PUSH32 0x6472657373206E6F74207065726D697474656400000000000000000000000000 PUSH1 0x20 DUP3 ADD MSTORE POP JUMP JUMPDEST PUSH1 0x0 PUSH2 0x4544 PUSH1 0x33 DUP4 PUSH2 0x3510 JUMP JUMPDEST SWAP2 POP PUSH2 0x454F DUP3 PUSH2 0x44E8 JUMP JUMPDEST PUSH1 0x40 DUP3 ADD SWAP1 POP SWAP2 SWAP1 POP JUMP JUMPDEST PUSH1 0x0 PUSH1 0x20 DUP3 ADD SWAP1 POP DUP2 DUP2 SUB PUSH1 0x0 DUP4 ADD MSTORE PUSH2 0x4573 DUP2 PUSH2 0x4537 JUMP JUMPDEST SWAP1 POP SWAP2 SWAP1 POP JUMP JUMPDEST PUSH32 0x5A6B48617276657374204465706F7369743A20706F6F6C206973206469736162 PUSH1 0x0 DUP3 ADD MSTORE PUSH32 0x6C65640000000000000000000000000000000000000000000000000000000000 PUSH1 0x20 DUP3 ADD MSTORE POP JUMP JUMPDEST PUSH1 0x0 PUSH2 0x45D6 PUSH1 0x23 DUP4 PUSH2 0x3510 JUMP JUMPDEST SWAP2 POP PUSH2 0x45E1 DUP3 PUSH2 0x457A JUMP JUMPDEST PUSH1 0x40 DUP3 ADD SWAP1 POP SWAP2 SWAP1 POP JUMP JUMPDEST PUSH1 0x0 PUSH1 0x20 DUP3 ADD SWAP1 POP DUP2 DUP2 SUB PUSH1 0x0 DUP4 ADD MSTORE PUSH2 0x4605 DUP2 PUSH2 0x45C9 JUMP JUMPDEST SWAP1 POP SWAP2 SWAP1 POP JUMP JUMPDEST PUSH32 0x5A6B48617276657374204465706F7369743A2063617465676F72792069732064 PUSH1 0x0 DUP3 ADD MSTORE PUSH32 0x697361626C656400000000000000000000000000000000000000000000000000 PUSH1 0x20 DUP3 ADD MSTORE POP JUMP JUMPDEST PUSH1 0x0 PUSH2 0x4668 PUSH1 0x27 DUP4 PUSH2 0x3510 JUMP JUMPDEST SWAP2 POP PUSH2 0x4673 DUP3 PUSH2 0x460C JUMP JUMPDEST PUSH1 0x40 DUP3 ADD SWAP1 POP SWAP2 SWAP1 POP JUMP JUMPDEST PUSH1 0x0 PUSH1 0x20 DUP3 ADD SWAP1 POP DUP2 DUP2 SUB PUSH1 0x0 DUP4 ADD MSTORE PUSH2 0x4697 DUP2 PUSH2 0x465B JUMP JUMPDEST SWAP1 POP SWAP2 SWAP1 POP JUMP JUMPDEST PUSH32 0x4F776E61626C653A206E6577206F776E657220697320746865207A65726F2061 PUSH1 0x0 DUP3 ADD MSTORE PUSH32 0x6464726573730000000000000000000000000000000000000000000000000000 PUSH1 0x20 DUP3 ADD MSTORE POP JUMP JUMPDEST PUSH1 0x0 PUSH2 0x46FA PUSH1 0x26 DUP4 PUSH2 0x3510 JUMP JUMPDEST SWAP2 POP PUSH2 0x4705 DUP3 PUSH2 0x469E JUMP JUMPDEST PUSH1 0x40 DUP3 ADD SWAP1 POP SWAP2 SWAP1 POP JUMP JUMPDEST PUSH1 0x0 PUSH1 0x20 DUP3 ADD SWAP1 POP DUP2 DUP2 SUB PUSH1 0x0 DUP4 ADD MSTORE PUSH2 0x4729 DUP2 PUSH2 0x46ED JUMP JUMPDEST SWAP1 POP SWAP2 SWAP1 POP JUMP JUMPDEST PUSH32 0x4F776E61626C653A2063616C6C6572206973206E6F7420746865206F776E6572 PUSH1 0x0 DUP3 ADD MSTORE POP JUMP JUMPDEST PUSH1 0x0 PUSH2 0x4766 PUSH1 0x20 DUP4 PUSH2 0x3510 JUMP JUMPDEST SWAP2 POP PUSH2 0x4771 DUP3 PUSH2 0x4730 JUMP JUMPDEST PUSH1 0x20 DUP3 ADD SWAP1 POP SWAP2 SWAP1 POP JUMP JUMPDEST PUSH1 0x0 PUSH1 0x20 DUP3 ADD SWAP1 POP DUP2 DUP2 SUB PUSH1 0x0 DUP4 ADD MSTORE PUSH2 0x4795 DUP2 PUSH2 0x4759 JUMP JUMPDEST SWAP1 POP SWAP2 SWAP1 POP JUMP JUMPDEST PUSH32 0x5265656E7472616E637947756172643A207265656E7472616E742063616C6C00 PUSH1 0x0 DUP3 ADD MSTORE POP JUMP JUMPDEST PUSH1 0x0 PUSH2 0x47D2 PUSH1 0x1F DUP4 PUSH2 0x3510 JUMP JUMPDEST SWAP2 POP PUSH2 0x47DD DUP3 PUSH2 0x479C JUMP JUMPDEST PUSH1 0x20 DUP3 ADD SWAP1 POP SWAP2 SWAP1 POP JUMP JUMPDEST PUSH1 0x0 PUSH1 0x20 DUP3 ADD SWAP1 POP DUP2 DUP2 SUB PUSH1 0x0 DUP4 ADD MSTORE PUSH2 0x4801 DUP2 PUSH2 0x47C5 JUMP JUMPDEST SWAP1 POP SWAP2 SWAP1 POP JUMP JUMPDEST PUSH1 0x0 PUSH1 0x60 DUP3 ADD SWAP1 POP PUSH2 0x481D PUSH1 0x0 DUP4 ADD DUP7 PUSH2 0x3600 JUMP JUMPDEST PUSH2 0x482A PUSH1 0x20 DUP4 ADD DUP6 PUSH2 0x3600 JUMP JUMPDEST PUSH2 0x4837 PUSH1 0x40 DUP4 ADD DUP5 PUSH2 0x301B JUMP JUMPDEST SWAP5 SWAP4 POP POP POP POP JUMP JUMPDEST PUSH1 0x0 DUP2 MLOAD SWAP1 POP PUSH2 0x484E DUP2 PUSH2 0x313F JUMP JUMPDEST SWAP3 SWAP2 POP POP JUMP JUMPDEST PUSH1 0x0 PUSH1 0x20 DUP3 DUP5 SUB SLT ISZERO PUSH2 0x486A JUMPI PUSH2 0x4869 PUSH2 0x2FAE JUMP JUMPDEST JUMPDEST PUSH1 0x0 PUSH2 0x4878 DUP5 DUP3 DUP6 ADD PUSH2 0x483F JUMP JUMPDEST SWAP2 POP POP SWAP3 SWAP2 POP POP JUMP JUMPDEST PUSH32 0x5361666545524332303A204552433230206F7065726174696F6E20646964206E PUSH1 0x0 DUP3 ADD MSTORE PUSH32 0x6F74207375636365656400000000000000000000000000000000000000000000 PUSH1 0x20 DUP3 ADD MSTORE POP JUMP JUMPDEST PUSH1 0x0 PUSH2 0x48DD PUSH1 0x2A DUP4 PUSH2 0x3510 JUMP JUMPDEST SWAP2 POP PUSH2 0x48E8 DUP3 PUSH2 0x4881 JUMP JUMPDEST PUSH1 0x40 DUP3 ADD SWAP1 POP SWAP2 SWAP1 POP JUMP JUMPDEST PUSH1 0x0 PUSH1 0x20 DUP3 ADD SWAP1 POP DUP2 DUP2 SUB PUSH1 0x0 DUP4 ADD MSTORE PUSH2 0x490C DUP2 PUSH2 0x48D0 JUMP JUMPDEST SWAP1 POP SWAP2 SWAP1 POP JUMP JUMPDEST PUSH32 0x416464726573733A20696E73756666696369656E742062616C616E636520666F PUSH1 0x0 DUP3 ADD MSTORE PUSH32 0x722063616C6C0000000000000000000000000000000000000000000000000000 PUSH1 0x20 DUP3 ADD MSTORE POP JUMP JUMPDEST PUSH1 0x0 PUSH2 0x496F PUSH1 0x26 DUP4 PUSH2 0x3510 JUMP JUMPDEST SWAP2 POP PUSH2 0x497A DUP3 PUSH2 0x4913 JUMP JUMPDEST PUSH1 0x40 DUP3 ADD SWAP1 POP SWAP2 SWAP1 POP JUMP JUMPDEST PUSH1 0x0 PUSH1 0x20 DUP3 ADD SWAP1 POP DUP2 DUP2 SUB PUSH1 0x0 DUP4 ADD MSTORE PUSH2 0x499E DUP2 PUSH2 0x4962 JUMP JUMPDEST SWAP1 POP SWAP2 SWAP1 POP JUMP JUMPDEST PUSH1 0x0 DUP2 MLOAD SWAP1 POP SWAP2 SWAP1 POP JUMP JUMPDEST PUSH1 0x0 DUP2 SWAP1 POP SWAP3 SWAP2 POP POP JUMP JUMPDEST PUSH1 0x0 PUSH2 0x49C6 DUP3 PUSH2 0x49A5 JUMP JUMPDEST PUSH2 0x49D0 DUP2 DUP6 PUSH2 0x49B0 JUMP JUMPDEST SWAP4 POP PUSH2 0x49E0 DUP2 DUP6 PUSH1 0x20 DUP7 ADD PUSH2 0x3521 JUMP JUMPDEST DUP1 DUP5 ADD SWAP2 POP POP SWAP3 SWAP2 POP POP JUMP JUMPDEST PUSH1 0x0 PUSH2 0x49F8 DUP3 DUP5 PUSH2 0x49BB JUMP JUMPDEST SWAP2 POP DUP2 SWAP1 POP SWAP3 SWAP2 POP POP JUMP JUMPDEST PUSH32 0x416464726573733A2063616C6C20746F206E6F6E2D636F6E7472616374000000 PUSH1 0x0 DUP3 ADD MSTORE POP JUMP JUMPDEST PUSH1 0x0 PUSH2 0x4A39 PUSH1 0x1D DUP4 PUSH2 0x3510 JUMP JUMPDEST SWAP2 POP PUSH2 0x4A44 DUP3 PUSH2 0x4A03 JUMP JUMPDEST PUSH1 0x20 DUP3 ADD SWAP1 POP SWAP2 SWAP1 POP JUMP JUMPDEST PUSH1 0x0 PUSH1 0x20 DUP3 ADD SWAP1 POP DUP2 DUP2 SUB PUSH1 0x0 DUP4 ADD MSTORE PUSH2 0x4A68 DUP2 PUSH2 0x4A2C JUMP JUMPDEST SWAP1 POP SWAP2 SWAP1 POP JUMP JUMPDEST PUSH1 0x0 PUSH1 0x20 DUP3 ADD SWAP1 POP DUP2 DUP2 SUB PUSH1 0x0 DUP4 ADD MSTORE PUSH2 0x4A89 DUP2 DUP5 PUSH2 0x355C JUMP JUMPDEST SWAP1 POP SWAP3 SWAP2 POP POP JUMP INVALID LOG2 PUSH5 0x6970667358 0x22 SLT KECCAK256 DUP3 0xAE 0xE1 CODESIZE EXTCODECOPY PUSH12 0x56C30E2EFCB400A627C2D8EA SWAP12 DELEGATECALL EXP 0xFC 0xEE DUP9 CHAINID 0xC1 DIV 0xD2 SLT PUSH30 0x180264736F6C634300081200330000000000000000000000000000000000 "},"methodIdentifiers":{"MAX_DEPOSIT_FEE_BP()":"37caa6e7","MAX_HARVEST_INTERVAL()":"0d15e044","MAX_ZKH_PER_SECOND()":"7a10c5d2","ZKHPerSecond()":"6245f148","canHarvest(uint256,address)":"2e6c998d","catInfo(uint256)":"66b0d80d","catPools(uint256,uint256)":"ec7dccb4","categoriesLength()":"73661e69","createCategory(string,uint256,bool)":"44ea8a37","createPool(uint256,address,uint256,uint256,uint256,bool)":"5b647eb0","deposit(uint256,uint256)":"e2bbb158","dev()":"91cca3db","devZKHPerSecond()":"83ab85ff","editCategory(uint256,uint256,bool)":"4633ec52","editPool(uint256,uint256,uint256,uint256,bool)":"2c7192d8","elapsedTime()":"51453f9d","emergencyWithdraw(uint256)":"5312ea8e","endTime()":"3197cbb6","farmingDuration()":"0c7d6763","feeCollector()":"c415b95c","getMultiplier(uint256,uint256)":"8dbb1e3a","massUpdatePools()":"630b5ba1","owner()":"8da5cb5b","pendingReward(uint256,address)":"98969e82","poolInfo(uint256)":"1526fe27","poolsInCategory(uint256)":"ab806935","poolsLength()":"2716ae66","renounceOwnership()":"715018a6","rewardZKHPerSecond()":"4e2f9bea","startTime()":"78e97925","tokensAdded(address)":"bbab0f64","totalCatAllocPoints()":"277c95f6","transferOwnership(address)":"f2fde38b","treasurer()":"fda49eb4","updateDev(address)":"934c1938","updateEndTime(bool)":"75c7fbc2","updateFeeCollector(address)":"d2c35ce8","updatePool(uint256)":"51eb05a6","updateStartTime(uint256)":"06bcf02f","updateZKHPerSecond(uint256,bool)":"5f5552ea","userInfo(uint256,address)":"93f1a40b","withdraw(uint256,uint256)":"441a3e70","zkh()":"aee1198b"}}}}}