{
  "_format": "hh-sol-artifact-1",
  "contractName": "zkHarvestLocker",
  "sourceName": "contracts/v2/ZKHarvestLocker.sol",
  "abi": [
    {
      "inputs": [
        {
          "internalType": "address",
          "name": "_devaddr",
          "type": "address"
        },
        {
          "internalType": "address",
          "name": "_feeAddress",
          "type": "address"
        }
      ],
      "stateMutability": "nonpayable",
      "type": "constructor"
    },
    {
      "anonymous": false,
      "inputs": [
        {
          "indexed": false,
          "internalType": "uint256",
          "name": "LockerID",
          "type": "uint256"
        },
        {
          "indexed": false,
          "internalType": "uint256",
          "name": "NewUnlockTime",
          "type": "uint256"
        }
      ],
      "name": "ExtendLock",
      "type": "event"
    },
    {
      "anonymous": false,
      "inputs": [
        {
          "indexed": false,
          "internalType": "address",
          "name": "Owner",
          "type": "address"
        },
        {
          "indexed": false,
          "internalType": "address",
          "name": "Token",
          "type": "address"
        },
        {
          "indexed": false,
          "internalType": "uint256",
          "name": "Amount",
          "type": "uint256"
        },
        {
          "indexed": false,
          "internalType": "uint256",
          "name": "UnlockTime",
          "type": "uint256"
        }
      ],
      "name": "Lock",
      "type": "event"
    },
    {
      "anonymous": false,
      "inputs": [
        {
          "indexed": true,
          "internalType": "address",
          "name": "previousOwner",
          "type": "address"
        },
        {
          "indexed": true,
          "internalType": "address",
          "name": "newOwner",
          "type": "address"
        }
      ],
      "name": "OwnershipTransferred",
      "type": "event"
    },
    {
      "anonymous": false,
      "inputs": [
        {
          "indexed": false,
          "internalType": "address",
          "name": "newAddress",
          "type": "address"
        }
      ],
      "name": "SetFeeAddress",
      "type": "event"
    },
    {
      "anonymous": false,
      "inputs": [
        {
          "indexed": false,
          "internalType": "address",
          "name": "Owner",
          "type": "address"
        },
        {
          "indexed": false,
          "internalType": "uint256",
          "name": "LockerID",
          "type": "uint256"
        }
      ],
      "name": "Unlock",
      "type": "event"
    },
    {
      "inputs": [
        {
          "internalType": "address",
          "name": "_devaddr",
          "type": "address"
        }
      ],
      "name": "dev",
      "outputs": [],
      "stateMutability": "nonpayable",
      "type": "function"
    },
    {
      "inputs": [],
      "name": "devaddr",
      "outputs": [
        {
          "internalType": "address",
          "name": "",
          "type": "address"
        }
      ],
      "stateMutability": "view",
      "type": "function"
    },
    {
      "inputs": [
        {
          "internalType": "uint256",
          "name": "_lockerId",
          "type": "uint256"
        },
        {
          "internalType": "uint256",
          "name": "_newUnlockTime",
          "type": "uint256"
        }
      ],
      "name": "extendLock",
      "outputs": [],
      "stateMutability": "nonpayable",
      "type": "function"
    },
    {
      "inputs": [],
      "name": "fee",
      "outputs": [
        {
          "internalType": "uint256",
          "name": "",
          "type": "uint256"
        }
      ],
      "stateMutability": "view",
      "type": "function"
    },
    {
      "inputs": [],
      "name": "feeAddress",
      "outputs": [
        {
          "internalType": "address",
          "name": "",
          "type": "address"
        }
      ],
      "stateMutability": "view",
      "type": "function"
    },
    {
      "inputs": [
        {
          "internalType": "address",
          "name": "user",
          "type": "address"
        }
      ],
      "name": "getUserInfo",
      "outputs": [
        {
          "internalType": "uint256[]",
          "name": "",
          "type": "uint256[]"
        }
      ],
      "stateMutability": "view",
      "type": "function"
    },
    {
      "inputs": [
        {
          "internalType": "contract IERC20",
          "name": "_token",
          "type": "address"
        },
        {
          "internalType": "uint256",
          "name": "_amount",
          "type": "uint256"
        },
        {
          "internalType": "uint256",
          "name": "_unlockTimestamp",
          "type": "uint256"
        },
        {
          "internalType": "string",
          "name": "_logoUrl",
          "type": "string"
        }
      ],
      "name": "lock",
      "outputs": [
        {
          "internalType": "bool",
          "name": "",
          "type": "bool"
        }
      ],
      "stateMutability": "nonpayable",
      "type": "function"
    },
    {
      "inputs": [
        {
          "internalType": "address",
          "name": "_owner",
          "type": "address"
        },
        {
          "internalType": "contract IERC20",
          "name": "_token",
          "type": "address"
        },
        {
          "internalType": "uint256",
          "name": "_amount",
          "type": "uint256"
        },
        {
          "internalType": "uint256",
          "name": "_unlockTimestamp",
          "type": "uint256"
        },
        {
          "internalType": "string",
          "name": "_logoUrl",
          "type": "string"
        }
      ],
      "name": "lockFor",
      "outputs": [
        {
          "internalType": "bool",
          "name": "",
          "type": "bool"
        }
      ],
      "stateMutability": "nonpayable",
      "type": "function"
    },
    {
      "inputs": [
        {
          "internalType": "uint256",
          "name": "",
          "type": "uint256"
        }
      ],
      "name": "lockInfo",
      "outputs": [
        {
          "internalType": "contract IERC20",
          "name": "token",
          "type": "address"
        },
        {
          "internalType": "uint256",
          "name": "amount",
          "type": "uint256"
        },
        {
          "internalType": "uint256",
          "name": "depositTime",
          "type": "uint256"
        },
        {
          "internalType": "uint256",
          "name": "unlockTime",
          "type": "uint256"
        },
        {
          "internalType": "address",
          "name": "owner",
          "type": "address"
        },
        {
          "internalType": "string",
          "name": "logoUrl",
          "type": "string"
        },
        {
          "internalType": "bool",
          "name": "withdrawn",
          "type": "bool"
        }
      ],
      "stateMutability": "view",
      "type": "function"
    },
    {
      "inputs": [],
      "name": "owner",
      "outputs": [
        {
          "internalType": "address",
          "name": "",
          "type": "address"
        }
      ],
      "stateMutability": "view",
      "type": "function"
    },
    {
      "inputs": [],
      "name": "renounceOwnership",
      "outputs": [],
      "stateMutability": "nonpayable",
      "type": "function"
    },
    {
      "inputs": [
        {
          "internalType": "uint256",
          "name": "_newFee",
          "type": "uint256"
        }
      ],
      "name": "setFee",
      "outputs": [],
      "stateMutability": "nonpayable",
      "type": "function"
    },
    {
      "inputs": [
        {
          "internalType": "address",
          "name": "_feeAddress",
          "type": "address"
        }
      ],
      "name": "setFeeAddress",
      "outputs": [
        {
          "internalType": "bool",
          "name": "",
          "type": "bool"
        }
      ],
      "stateMutability": "nonpayable",
      "type": "function"
    },
    {
      "inputs": [],
      "name": "totalLockers",
      "outputs": [
        {
          "internalType": "uint256",
          "name": "",
          "type": "uint256"
        }
      ],
      "stateMutability": "view",
      "type": "function"
    },
    {
      "inputs": [
        {
          "internalType": "address",
          "name": "newOwner",
          "type": "address"
        }
      ],
      "name": "transferOwnership",
      "outputs": [],
      "stateMutability": "nonpayable",
      "type": "function"
    },
    {
      "inputs": [
        {
          "internalType": "uint256",
          "name": "_lockerId",
          "type": "uint256"
        }
      ],
      "name": "unlock",
      "outputs": [],
      "stateMutability": "nonpayable",
      "type": "function"
    },
    {
      "inputs": [
        {
          "internalType": "address",
          "name": "",
          "type": "address"
        },
        {
          "internalType": "uint256",
          "name": "",
          "type": "uint256"
        }
      ],
      "name": "userInfo",
      "outputs": [
        {
          "internalType": "uint256",
          "name": "",
          "type": "uint256"
        }
      ],
      "stateMutability": "view",
      "type": "function"
    }
  ],
  "bytecode": "0x608060405260646003553480156200001657600080fd5b50604051620034bb380380620034bb83398181016040528101906200003c919062000300565b6200005c62000050620001ca60201b60201c565b620001d260201b60201c565b600073ffffffffffffffffffffffffffffffffffffffff168273ffffffffffffffffffffffffffffffffffffffff1603620000ce576040517f08c379a0000000000000000000000000000000000000000000000000000000008152600401620000c590620003ce565b60405180910390fd5b600073ffffffffffffffffffffffffffffffffffffffff168173ffffffffffffffffffffffffffffffffffffffff160362000140576040517f08c379a0000000000000000000000000000000000000000000000000000000008152600401620001379062000466565b60405180910390fd5b81600160006101000a81548173ffffffffffffffffffffffffffffffffffffffff021916908373ffffffffffffffffffffffffffffffffffffffff16021790555080600260006101000a81548173ffffffffffffffffffffffffffffffffffffffff021916908373ffffffffffffffffffffffffffffffffffffffff160217905550505062000488565b600033905090565b60008060009054906101000a900473ffffffffffffffffffffffffffffffffffffffff169050816000806101000a81548173ffffffffffffffffffffffffffffffffffffffff021916908373ffffffffffffffffffffffffffffffffffffffff1602179055508173ffffffffffffffffffffffffffffffffffffffff168173ffffffffffffffffffffffffffffffffffffffff167f8be0079c531659141344cd1fd0a4f28419497f9722a3daafe3b4186f6b6457e060405160405180910390a35050565b600080fd5b600073ffffffffffffffffffffffffffffffffffffffff82169050919050565b6000620002c8826200029b565b9050919050565b620002da81620002bb565b8114620002e657600080fd5b50565b600081519050620002fa81620002cf565b92915050565b600080604083850312156200031a576200031962000296565b5b60006200032a85828601620002e9565b92505060206200033d85828601620002e9565b9150509250929050565b600082825260208201905092915050565b7f5a4b483a206465762063616e6e6f7420626520746865207a65726f206164647260008201527f6573730000000000000000000000000000000000000000000000000000000000602082015250565b6000620003b660238362000347565b9150620003c38262000358565b604082019050919050565b60006020820190508181036000830152620003e981620003a7565b9050919050565b7f5a4b483a20466565416464726573732063616e6e6f7420626520746865207a6560008201527f726f206164647265737300000000000000000000000000000000000000000000602082015250565b60006200044e602a8362000347565b91506200045b82620003f0565b604082019050919050565b6000602082019050818103600083015262000481816200043f565b9050919050565b61302380620004986000396000f3fe608060405234801561001057600080fd5b506004361061010b5760003560e01c8063715018a6116100a25780638da5cb5b116100715780638da5cb5b146102bc578063d49e77cd146102da578063ddca3f43146102f8578063f2fde38b14610316578063f7c2ec07146103325761010b565b8063715018a61461023657806371b44de6146102405780638705fcd4146102705780638d88a90e146102a05761010b565b80635b1a4c24116100de5780635b1a4c24146101985780636198e339146101ce5780636386c1c7146101ea57806369fe0e2d1461021a5761010b565b8063070d66bf1461011057806321ce919d1461012c578063412753581461015c578063414cc5ed1461017a575b600080fd5b61012a60048036038101906101259190611a87565b610362565b005b61014660048036038101906101419190611b25565b610592565b6040516101539190611b74565b60405180910390f35b6101646105c3565b6040516101719190611b9e565b60405180910390f35b6101826105e9565b60405161018f9190611b74565b60405180910390f35b6101b260048036038101906101ad9190611bb9565b6105f6565b6040516101c59796959493929190611cf0565b60405180910390f35b6101e860048036038101906101e39190611bb9565b61071d565b005b61020460048036038101906101ff9190611d66565b61091b565b6040516102119190611e51565b60405180910390f35b610234600480360381019061022f9190611bb9565b6109b2565b005b61023e610ace565b005b61025a60048036038101906102559190611f16565b610ae2565b6040516102679190611fb0565b60405180910390f35b61028a60048036038101906102859190611d66565b6110dd565b6040516102979190611fb0565b60405180910390f35b6102ba60048036038101906102b59190611d66565b61129c565b005b6102c46113df565b6040516102d19190611b9e565b60405180910390f35b6102e2611408565b6040516102ef9190611b9e565b60405180910390f35b61030061142e565b60405161030d9190611b74565b60405180910390f35b610330600480360381019061032b9190611d66565b611434565b005b61034c60048036038101906103479190611fcb565b6114b7565b6040516103599190611fb0565b60405180910390f35b60006004838154811061037857610377612053565b5b906000526020600020906007020190503373ffffffffffffffffffffffffffffffffffffffff168160040160009054906101000a900473ffffffffffffffffffffffffffffffffffffffff1673ffffffffffffffffffffffffffffffffffffffff16148061043357503373ffffffffffffffffffffffffffffffffffffffff16600160009054906101000a900473ffffffffffffffffffffffffffffffffffffffff1673ffffffffffffffffffffffffffffffffffffffff16145b610472576040517f08c379a0000000000000000000000000000000000000000000000000000000008152600401610469906120ce565b60405180910390fd5b8060060160009054906101000a900460ff16156104c4576040517f08c379a00000000000000000000000000000000000000000000000000000000081526004016104bb9061213a565b60405180910390fd5b814210610506576040517f08c379a00000000000000000000000000000000000000000000000000000000081526004016104fd906121a6565b60405180910390fd5b8181600301541061054c576040517f08c379a000000000000000000000000000000000000000000000000000000000815260040161054390612238565b60405180910390fd5b8181600301819055507e261a981bd51747092c6c9c1c26c316e49cb6ea92a0b7c911d7d485948188328383604051610585929190612258565b60405180910390a1505050565b600560205281600052604060002081815481106105ae57600080fd5b90600052602060002001600091509150505481565b600260009054906101000a900473ffffffffffffffffffffffffffffffffffffffff1681565b6000600480549050905090565b6004818154811061060657600080fd5b90600052602060002090600702016000915090508060000160009054906101000a900473ffffffffffffffffffffffffffffffffffffffff16908060010154908060020154908060030154908060040160009054906101000a900473ffffffffffffffffffffffffffffffffffffffff1690806005018054610687906122b0565b80601f01602080910402602001604051908101604052809291908181526020018280546106b3906122b0565b80156107005780601f106106d557610100808354040283529160200191610700565b820191906000526020600020905b8154815290600101906020018083116106e357829003601f168201915b5050505050908060060160009054906101000a900460ff16905087565b60006004828154811061073357610732612053565b5b906000526020600020906007020190503373ffffffffffffffffffffffffffffffffffffffff168160040160009054906101000a900473ffffffffffffffffffffffffffffffffffffffff1673ffffffffffffffffffffffffffffffffffffffff16146107d5576040517f08c379a00000000000000000000000000000000000000000000000000000000081526004016107cc906120ce565b60405180910390fd5b428160030154111561081c576040517f08c379a00000000000000000000000000000000000000000000000000000000081526004016108139061232d565b60405180910390fd5b8060060160009054906101000a900460ff161561086e576040517f08c379a00000000000000000000000000000000000000000000000000000000081526004016108659061213a565b60405180910390fd5b6108c13382600101548360000160009054906101000a900473ffffffffffffffffffffffffffffffffffffffff1673ffffffffffffffffffffffffffffffffffffffff166115179092919063ffffffff16565b60018160060160006101000a81548160ff0219169083151502179055507f6381d9813cabeb57471b5a7e05078e64845ccdb563146a6911d536f24ce960f1338360405161090f92919061234d565b60405180910390a15050565b6060600560008373ffffffffffffffffffffffffffffffffffffffff1673ffffffffffffffffffffffffffffffffffffffff1681526020019081526020016000208054806020026020016040519081016040528092919081815260200182805480156109a657602002820191906000526020600020905b815481526020019060010190808311610992575b50505050509050919050565b6109ba6113df565b73ffffffffffffffffffffffffffffffffffffffff163373ffffffffffffffffffffffffffffffffffffffff161480610a405750600160009054906101000a900473ffffffffffffffffffffffffffffffffffffffff1673ffffffffffffffffffffffffffffffffffffffff163373ffffffffffffffffffffffffffffffffffffffff16145b610a7f576040517f08c379a0000000000000000000000000000000000000000000000000000000008152600401610a76906123e8565b60405180910390fd5b6107d0811115610ac4576040517f08c379a0000000000000000000000000000000000000000000000000000000008152600401610abb90612454565b60405180910390fd5b8060038190555050565b610ad661159d565b610ae0600061161b565b565b60008073ffffffffffffffffffffffffffffffffffffffff168673ffffffffffffffffffffffffffffffffffffffff1603610b52576040517f08c379a0000000000000000000000000000000000000000000000000000000008152600401610b49906124c0565b60405180910390fd5b60008511610b95576040517f08c379a0000000000000000000000000000000000000000000000000000000008152600401610b8c9061252c565b60405180910390fd5b848673ffffffffffffffffffffffffffffffffffffffff166370a08231336040518263ffffffff1660e01b8152600401610bcf9190611b9e565b602060405180830381865afa158015610bec573d6000803e3d6000fd5b505050506040513d601f19601f82011682018060405250810190610c109190612561565b1015610c51576040517f08c379a0000000000000000000000000000000000000000000000000000000008152600401610c48906125da565b60405180910390fd5b428411610c93576040517f08c379a0000000000000000000000000000000000000000000000000000000008152600401610c8a90612646565b60405180910390fd5b60008673ffffffffffffffffffffffffffffffffffffffff166370a08231306040518263ffffffff1660e01b8152600401610cce9190611b9e565b602060405180830381865afa158015610ceb573d6000803e3d6000fd5b505050506040513d601f19601f82011682018060405250810190610d0f9190612561565b9050610d3e3330888a73ffffffffffffffffffffffffffffffffffffffff166116df909392919063ffffffff16565b60008773ffffffffffffffffffffffffffffffffffffffff166370a08231306040518263ffffffff1660e01b8152600401610d799190611b9e565b602060405180830381865afa158015610d96573d6000803e3d6000fd5b505050506040513d601f19601f82011682018060405250810190610dba9190612561565b90506000610dd1838361176890919063ffffffff16565b90506000610dfe612710610df06003548561177e90919063ffffffff16565b61179490919063ffffffff16565b9050610e4d600260009054906101000a900473ffffffffffffffffffffffffffffffffffffffff16828c73ffffffffffffffffffffffffffffffffffffffff166115179092919063ffffffff16565b610e60818361176890919063ffffffff16565b915060046040518060e001604052808c73ffffffffffffffffffffffffffffffffffffffff1681526020018481526020014281526020018a81526020018d73ffffffffffffffffffffffffffffffffffffffff16815260200189898080601f016020809104026020016040519081016040528093929190818152602001838380828437600081840152601f19601f82011690508083019250505050505050815260200160001515815250908060018154018082558091505060019003906000526020600020906007020160009091909190915060008201518160000160006101000a81548173ffffffffffffffffffffffffffffffffffffffff021916908373ffffffffffffffffffffffffffffffffffffffff16021790555060208201518160010155604082015181600201556060820151816003015560808201518160040160006101000a81548173ffffffffffffffffffffffffffffffffffffffff021916908373ffffffffffffffffffffffffffffffffffffffff16021790555060a0820151816005019081610ff49190612837565b5060c08201518160060160006101000a81548160ff0219169083151502179055505050600560003373ffffffffffffffffffffffffffffffffffffffff1673ffffffffffffffffffffffffffffffffffffffff16815260200190815260200160002060016004805490506110689190612938565b90806001815401808255809150506001900390600052602060002001600090919091909150557f62cded90d0b4d15cd7d67fee0ae8bac1d9c61c340a9465c7d341632f495829fc338b848b6040516110c3949392919061296c565b60405180910390a160019450505050509695505050505050565b60006110e76113df565b73ffffffffffffffffffffffffffffffffffffffff163373ffffffffffffffffffffffffffffffffffffffff16148061116d5750600160009054906101000a900473ffffffffffffffffffffffffffffffffffffffff1673ffffffffffffffffffffffffffffffffffffffff163373ffffffffffffffffffffffffffffffffffffffff16145b6111ac576040517f08c379a00000000000000000000000000000000000000000000000000000000081526004016111a3906123e8565b60405180910390fd5b600073ffffffffffffffffffffffffffffffffffffffff168273ffffffffffffffffffffffffffffffffffffffff160361121b576040517f08c379a000000000000000000000000000000000000000000000000000000000815260040161121290612a23565b60405180910390fd5b81600260006101000a81548173ffffffffffffffffffffffffffffffffffffffff021916908373ffffffffffffffffffffffffffffffffffffffff1602179055507ffcb8a963756b148f85a52537b63147b6c4b40af694099c901ac3b99d317a2db88260405161128b9190611b9e565b60405180910390a160019050919050565b600073ffffffffffffffffffffffffffffffffffffffff168173ffffffffffffffffffffffffffffffffffffffff160361130b576040517f08c379a000000000000000000000000000000000000000000000000000000000815260040161130290612ab5565b60405180910390fd5b600160009054906101000a900473ffffffffffffffffffffffffffffffffffffffff1673ffffffffffffffffffffffffffffffffffffffff163373ffffffffffffffffffffffffffffffffffffffff161461139b576040517f08c379a000000000000000000000000000000000000000000000000000000000815260040161139290612b21565b60405180910390fd5b80600160006101000a81548173ffffffffffffffffffffffffffffffffffffffff021916908373ffffffffffffffffffffffffffffffffffffffff16021790555050565b60008060009054906101000a900473ffffffffffffffffffffffffffffffffffffffff16905090565b600160009054906101000a900473ffffffffffffffffffffffffffffffffffffffff1681565b60035481565b61143c61159d565b600073ffffffffffffffffffffffffffffffffffffffff168173ffffffffffffffffffffffffffffffffffffffff16036114ab576040517f08c379a00000000000000000000000000000000000000000000000000000000081526004016114a290612bb3565b60405180910390fd5b6114b48161161b565b50565b6000806114c8338888888888610ae2565b90508061150a576040517f08c379a000000000000000000000000000000000000000000000000000000000815260040161150190612c1f565b60405180910390fd5b8091505095945050505050565b6115988363a9059cbb60e01b848460405160240161153692919061234d565b604051602081830303815290604052907bffffffffffffffffffffffffffffffffffffffffffffffffffffffff19166020820180517bffffffffffffffffffffffffffffffffffffffffffffffffffffffff83818316178352505050506117aa565b505050565b6115a5611872565b73ffffffffffffffffffffffffffffffffffffffff166115c36113df565b73ffffffffffffffffffffffffffffffffffffffff1614611619576040517f08c379a000000000000000000000000000000000000000000000000000000000815260040161161090612c8b565b60405180910390fd5b565b60008060009054906101000a900473ffffffffffffffffffffffffffffffffffffffff169050816000806101000a81548173ffffffffffffffffffffffffffffffffffffffff021916908373ffffffffffffffffffffffffffffffffffffffff1602179055508173ffffffffffffffffffffffffffffffffffffffff168173ffffffffffffffffffffffffffffffffffffffff167f8be0079c531659141344cd1fd0a4f28419497f9722a3daafe3b4186f6b6457e060405160405180910390a35050565b611762846323b872dd60e01b85858560405160240161170093929190612cab565b604051602081830303815290604052907bffffffffffffffffffffffffffffffffffffffffffffffffffffffff19166020820180517bffffffffffffffffffffffffffffffffffffffffffffffffffffffff83818316178352505050506117aa565b50505050565b600081836117769190612938565b905092915050565b6000818361178c9190612ce2565b905092915050565b600081836117a29190612d53565b905092915050565b600061180c826040518060400160405280602081526020017f5361666545524332303a206c6f772d6c6576656c2063616c6c206661696c65648152508573ffffffffffffffffffffffffffffffffffffffff1661187a9092919063ffffffff16565b905060008151148061182e57508080602001905181019061182d9190612db0565b5b61186d576040517f08c379a000000000000000000000000000000000000000000000000000000000815260040161186490612e4f565b60405180910390fd5b505050565b600033905090565b60606118898484600085611892565b90509392505050565b6060824710156118d7576040517f08c379a00000000000000000000000000000000000000000000000000000000081526004016118ce90612ee1565b60405180910390fd5b6000808673ffffffffffffffffffffffffffffffffffffffff1685876040516119009190612f48565b60006040518083038185875af1925050503d806000811461193d576040519150601f19603f3d011682016040523d82523d6000602084013e611942565b606091505b50915091506119538783838761195f565b92505050949350505050565b606083156119c15760008351036119b957611979856119d4565b6119b8576040517f08c379a00000000000000000000000000000000000000000000000000000000081526004016119af90612fab565b60405180910390fd5b5b8290506119cc565b6119cb83836119f7565b5b949350505050565b6000808273ffffffffffffffffffffffffffffffffffffffff163b119050919050565b600082511115611a0a5781518083602001fd5b806040517f08c379a0000000000000000000000000000000000000000000000000000000008152600401611a3e9190612fcb565b60405180910390fd5b600080fd5b600080fd5b6000819050919050565b611a6481611a51565b8114611a6f57600080fd5b50565b600081359050611a8181611a5b565b92915050565b60008060408385031215611a9e57611a9d611a47565b5b6000611aac85828601611a72565b9250506020611abd85828601611a72565b9150509250929050565b600073ffffffffffffffffffffffffffffffffffffffff82169050919050565b6000611af282611ac7565b9050919050565b611b0281611ae7565b8114611b0d57600080fd5b50565b600081359050611b1f81611af9565b92915050565b60008060408385031215611b3c57611b3b611a47565b5b6000611b4a85828601611b10565b9250506020611b5b85828601611a72565b9150509250929050565b611b6e81611a51565b82525050565b6000602082019050611b896000830184611b65565b92915050565b611b9881611ae7565b82525050565b6000602082019050611bb36000830184611b8f565b92915050565b600060208284031215611bcf57611bce611a47565b5b6000611bdd84828501611a72565b91505092915050565b6000819050919050565b6000611c0b611c06611c0184611ac7565b611be6565b611ac7565b9050919050565b6000611c1d82611bf0565b9050919050565b6000611c2f82611c12565b9050919050565b611c3f81611c24565b82525050565b600081519050919050565b600082825260208201905092915050565b60005b83811015611c7f578082015181840152602081019050611c64565b60008484015250505050565b6000601f19601f8301169050919050565b6000611ca782611c45565b611cb18185611c50565b9350611cc1818560208601611c61565b611cca81611c8b565b840191505092915050565b60008115159050919050565b611cea81611cd5565b82525050565b600060e082019050611d05600083018a611c36565b611d126020830189611b65565b611d1f6040830188611b65565b611d2c6060830187611b65565b611d396080830186611b8f565b81810360a0830152611d4b8185611c9c565b9050611d5a60c0830184611ce1565b98975050505050505050565b600060208284031215611d7c57611d7b611a47565b5b6000611d8a84828501611b10565b91505092915050565b600081519050919050565b600082825260208201905092915050565b6000819050602082019050919050565b611dc881611a51565b82525050565b6000611dda8383611dbf565b60208301905092915050565b6000602082019050919050565b6000611dfe82611d93565b611e088185611d9e565b9350611e1383611daf565b8060005b83811015611e44578151611e2b8882611dce565b9750611e3683611de6565b925050600181019050611e17565b5085935050505092915050565b60006020820190508181036000830152611e6b8184611df3565b905092915050565b6000611e7e82611ae7565b9050919050565b611e8e81611e73565b8114611e9957600080fd5b50565b600081359050611eab81611e85565b92915050565b600080fd5b600080fd5b600080fd5b60008083601f840112611ed657611ed5611eb1565b5b8235905067ffffffffffffffff811115611ef357611ef2611eb6565b5b602083019150836001820283011115611f0f57611f0e611ebb565b5b9250929050565b60008060008060008060a08789031215611f3357611f32611a47565b5b6000611f4189828a01611b10565b9650506020611f5289828a01611e9c565b9550506040611f6389828a01611a72565b9450506060611f7489828a01611a72565b935050608087013567ffffffffffffffff811115611f9557611f94611a4c565b5b611fa189828a01611ec0565b92509250509295509295509295565b6000602082019050611fc56000830184611ce1565b92915050565b600080600080600060808688031215611fe757611fe6611a47565b5b6000611ff588828901611e9c565b955050602061200688828901611a72565b945050604061201788828901611a72565b935050606086013567ffffffffffffffff81111561203857612037611a4c565b5b61204488828901611ec0565b92509250509295509295909350565b7f4e487b7100000000000000000000000000000000000000000000000000000000600052603260045260246000fd5b7f4572726f723a204c6f636b6572206f776e657220726571756972656400000000600082015250565b60006120b8601c83611c50565b91506120c382612082565b602082019050919050565b600060208201905081810360008301526120e7816120ab565b9050919050565b7f4572726f723a20416c72656164792077697468647261776e0000000000000000600082015250565b6000612124601883611c50565b915061212f826120ee565b602082019050919050565b6000602082019050818103600083015261215381612117565b9050919050565b7f4572726f723a204e657720556e6c6f636b206e6f7420696e2066757475726500600082015250565b6000612190601f83611c50565b915061219b8261215a565b602082019050919050565b600060208201905081810360008301526121bf81612183565b9050919050565b7f4572726f723a204f6c646572207468616e2063757272656e7420756e6c6f636b60008201527f74696d6500000000000000000000000000000000000000000000000000000000602082015250565b6000612222602483611c50565b915061222d826121c6565b604082019050919050565b6000602082019050818103600083015261225181612215565b9050919050565b600060408201905061226d6000830185611b65565b61227a6020830184611b65565b9392505050565b7f4e487b7100000000000000000000000000000000000000000000000000000000600052602260045260246000fd5b600060028204905060018216806122c857607f821691505b6020821081036122db576122da612281565b5b50919050565b7f4572726f723a20556e6c6f636b2054696d65206e6f7420726561636865640000600082015250565b6000612317601e83611c50565b9150612322826122e1565b602082019050919050565b600060208201905081810360008301526123468161230a565b9050919050565b60006040820190506123626000830185611b8f565b61236f6020830184611b65565b9392505050565b7f4572726f723a205265717569726520646576656c6f706572206f72204f776e6560008201527f7200000000000000000000000000000000000000000000000000000000000000602082015250565b60006123d2602183611c50565b91506123dd82612376565b604082019050919050565b60006020820190508181036000830152612401816123c5565b9050919050565b7f6d61782066656520323025000000000000000000000000000000000000000000600082015250565b600061243e600b83611c50565b915061244982612408565b602082019050919050565b6000602082019050818103600083015261246d81612431565b9050919050565b7f546f6b656e2063616e6e6f7420626520746865207a65726f2061646472657373600082015250565b60006124aa602083611c50565b91506124b582612474565b602082019050919050565b600060208201905081810360008301526124d98161249d565b9050919050565b7f6e6f7468696e6720746f206c6f636b0000000000000000000000000000000000600082015250565b6000612516600f83611c50565b9150612521826124e0565b602082019050919050565b6000602082019050818103600083015261254581612509565b9050919050565b60008151905061255b81611a5b565b92915050565b60006020828403121561257757612576611a47565b5b60006125858482850161254c565b91505092915050565b7f6e6f7420656e6f75676820746f6b656e2062616c616e63650000000000000000600082015250565b60006125c4601883611c50565b91506125cf8261258e565b602082019050919050565b600060208201905081810360008301526125f3816125b7565b9050919050565b7f696e76616c696420756e6c6f636b2074696d6500000000000000000000000000600082015250565b6000612630601383611c50565b915061263b826125fa565b602082019050919050565b6000602082019050818103600083015261265f81612623565b9050919050565b7f4e487b7100000000000000000000000000000000000000000000000000000000600052604160045260246000fd5b60008190508160005260206000209050919050565b60006020601f8301049050919050565b600082821b905092915050565b6000600883026126f77fffffffffffffffffffffffffffffffffffffffffffffffffffffffffffffffff826126ba565b61270186836126ba565b95508019841693508086168417925050509392505050565b600061273461272f61272a84611a51565b611be6565b611a51565b9050919050565b6000819050919050565b61274e83612719565b61276261275a8261273b565b8484546126c7565b825550505050565b600090565b61277761276a565b612782818484612745565b505050565b5b818110156127a65761279b60008261276f565b600181019050612788565b5050565b601f8211156127eb576127bc81612695565b6127c5846126aa565b810160208510156127d4578190505b6127e86127e0856126aa565b830182612787565b50505b505050565b600082821c905092915050565b600061280e600019846008026127f0565b1980831691505092915050565b600061282783836127fd565b9150826002028217905092915050565b61284082611c45565b67ffffffffffffffff81111561285957612858612666565b5b61286382546122b0565b61286e8282856127aa565b600060209050601f8311600181146128a1576000841561288f578287015190505b612899858261281b565b865550612901565b601f1984166128af86612695565b60005b828110156128d7578489015182556001820191506020850194506020810190506128b2565b868310156128f457848901516128f0601f8916826127fd565b8355505b6001600288020188555050505b505050505050565b7f4e487b7100000000000000000000000000000000000000000000000000000000600052601160045260246000fd5b600061294382611a51565b915061294e83611a51565b925082820390508181111561296657612965612909565b5b92915050565b60006080820190506129816000830187611b8f565b61298e6020830186611b8f565b61299b6040830185611b65565b6129a86060830184611b65565b95945050505050565b7f5a4b483a20466565416464726573732063616e6e6f7420626520746865207a6560008201527f726f206164647265737300000000000000000000000000000000000000000000602082015250565b6000612a0d602a83611c50565b9150612a18826129b1565b604082019050919050565b60006020820190508181036000830152612a3c81612a00565b9050919050565b7f5a4b483a206465762063616e6e6f7420626520746865207a65726f206164647260008201527f6573730000000000000000000000000000000000000000000000000000000000602082015250565b6000612a9f602383611c50565b9150612aaa82612a43565b604082019050919050565b60006020820190508181036000830152612ace81612a92565b9050919050565b7f6465763a207775743f0000000000000000000000000000000000000000000000600082015250565b6000612b0b600983611c50565b9150612b1682612ad5565b602082019050919050565b60006020820190508181036000830152612b3a81612afe565b9050919050565b7f4f776e61626c653a206e6577206f776e657220697320746865207a65726f206160008201527f6464726573730000000000000000000000000000000000000000000000000000602082015250565b6000612b9d602683611c50565b9150612ba882612b41565b604082019050919050565b60006020820190508181036000830152612bcc81612b90565b9050919050565b7f4c6f636b65723a206c6f636b42795a6b68206661696c65640000000000000000600082015250565b6000612c09601883611c50565b9150612c1482612bd3565b602082019050919050565b60006020820190508181036000830152612c3881612bfc565b9050919050565b7f4f776e61626c653a2063616c6c6572206973206e6f7420746865206f776e6572600082015250565b6000612c75602083611c50565b9150612c8082612c3f565b602082019050919050565b60006020820190508181036000830152612ca481612c68565b9050919050565b6000606082019050612cc06000830186611b8f565b612ccd6020830185611b8f565b612cda6040830184611b65565b949350505050565b6000612ced82611a51565b9150612cf883611a51565b9250828202612d0681611a51565b91508282048414831517612d1d57612d1c612909565b5b5092915050565b7f4e487b7100000000000000000000000000000000000000000000000000000000600052601260045260246000fd5b6000612d5e82611a51565b9150612d6983611a51565b925082612d7957612d78612d24565b5b828204905092915050565b612d8d81611cd5565b8114612d9857600080fd5b50565b600081519050612daa81612d84565b92915050565b600060208284031215612dc657612dc5611a47565b5b6000612dd484828501612d9b565b91505092915050565b7f5361666545524332303a204552433230206f7065726174696f6e20646964206e60008201527f6f74207375636365656400000000000000000000000000000000000000000000602082015250565b6000612e39602a83611c50565b9150612e4482612ddd565b604082019050919050565b60006020820190508181036000830152612e6881612e2c565b9050919050565b7f416464726573733a20696e73756666696369656e742062616c616e636520666f60008201527f722063616c6c0000000000000000000000000000000000000000000000000000602082015250565b6000612ecb602683611c50565b9150612ed682612e6f565b604082019050919050565b60006020820190508181036000830152612efa81612ebe565b9050919050565b600081519050919050565b600081905092915050565b6000612f2282612f01565b612f2c8185612f0c565b9350612f3c818560208601611c61565b80840191505092915050565b6000612f548284612f17565b915081905092915050565b7f416464726573733a2063616c6c20746f206e6f6e2d636f6e7472616374000000600082015250565b6000612f95601d83611c50565b9150612fa082612f5f565b602082019050919050565b60006020820190508181036000830152612fc481612f88565b9050919050565b60006020820190508181036000830152612fe58184611c9c565b90509291505056fea2646970667358221220ece273db8f02477764c70e8a0784b4625777ec4e9c46739465dbcaf014471f7364736f6c63430008120033",
  "linkReferences": {},
  "deployedLinkReferences": {}
}