{
  "_format": "hh-sol-artifact-1",
  "contractName": "ZkHarvestTreasurer",
  "sourceName": "contracts/ZkHarvestTreasurer.sol",
  "abi": [
    {
      "inputs": [
        {
          "internalType": "address",
          "name": "_zkHarvest",
          "type": "address"
        },
        {
          "internalType": "contract ZkHarvestToken",
          "name": "_zkh",
          "type": "address"
        },
        {
          "internalType": "uint256",
          "name": "_lockedRewardsBP",
          "type": "uint256"
        },
        {
          "internalType": "uint256",
          "name": "_expressClaimBurnBP",
          "type": "uint256"
        },
        {
          "internalType": "uint256",
          "name": "_lockupTimeW",
          "type": "uint256"
        }
      ],
      "stateMutability": "nonpayable",
      "type": "constructor"
    },
    {
      "anonymous": false,
      "inputs": [
        {
          "indexed": true,
          "internalType": "address",
          "name": "user",
          "type": "address"
        },
        {
          "indexed": false,
          "internalType": "uint256",
          "name": "amount",
          "type": "uint256"
        }
      ],
      "name": "Claim",
      "type": "event"
    },
    {
      "anonymous": false,
      "inputs": [
        {
          "indexed": true,
          "internalType": "address",
          "name": "user",
          "type": "address"
        },
        {
          "indexed": false,
          "internalType": "uint256",
          "name": "amountClaimed",
          "type": "uint256"
        },
        {
          "indexed": false,
          "internalType": "uint256",
          "name": "amountBurnt",
          "type": "uint256"
        }
      ],
      "name": "ExpressClaim",
      "type": "event"
    },
    {
      "anonymous": false,
      "inputs": [
        {
          "indexed": true,
          "internalType": "address",
          "name": "user",
          "type": "address"
        },
        {
          "indexed": false,
          "internalType": "uint256",
          "name": "amount",
          "type": "uint256"
        },
        {
          "indexed": false,
          "internalType": "uint256",
          "name": "time",
          "type": "uint256"
        }
      ],
      "name": "LockUp",
      "type": "event"
    },
    {
      "anonymous": false,
      "inputs": [
        {
          "indexed": true,
          "internalType": "address",
          "name": "previousOwner",
          "type": "address"
        },
        {
          "indexed": true,
          "internalType": "address",
          "name": "newOwner",
          "type": "address"
        }
      ],
      "name": "OwnershipTransferred",
      "type": "event"
    },
    {
      "inputs": [],
      "name": "MAX_LOCKUP_WEEKS",
      "outputs": [
        {
          "internalType": "uint256",
          "name": "",
          "type": "uint256"
        }
      ],
      "stateMutability": "view",
      "type": "function"
    },
    {
      "inputs": [],
      "name": "MIN_LOCKUP_WEEKS",
      "outputs": [
        {
          "internalType": "uint256",
          "name": "",
          "type": "uint256"
        }
      ],
      "stateMutability": "view",
      "type": "function"
    },
    {
      "inputs": [
        {
          "internalType": "uint256[]",
          "name": "_weeksToClaim",
          "type": "uint256[]"
        }
      ],
      "name": "claimReward",
      "outputs": [],
      "stateMutability": "nonpayable",
      "type": "function"
    },
    {
      "inputs": [
        {
          "internalType": "uint256[]",
          "name": "_weeksToClaim",
          "type": "uint256[]"
        }
      ],
      "name": "claimRewardExpress",
      "outputs": [],
      "stateMutability": "nonpayable",
      "type": "function"
    },
    {
      "inputs": [
        {
          "internalType": "address",
          "name": "_user",
          "type": "address"
        }
      ],
      "name": "claimableRewards",
      "outputs": [
        {
          "internalType": "uint256",
          "name": "",
          "type": "uint256"
        }
      ],
      "stateMutability": "view",
      "type": "function"
    },
    {
      "inputs": [
        {
          "internalType": "address",
          "name": "_user",
          "type": "address"
        }
      ],
      "name": "claimableWeeksToPay",
      "outputs": [
        {
          "internalType": "uint256[]",
          "name": "",
          "type": "uint256[]"
        }
      ],
      "stateMutability": "view",
      "type": "function"
    },
    {
      "inputs": [],
      "name": "expressClaimBurnBP",
      "outputs": [
        {
          "internalType": "uint256",
          "name": "",
          "type": "uint256"
        }
      ],
      "stateMutability": "view",
      "type": "function"
    },
    {
      "inputs": [
        {
          "internalType": "address",
          "name": "_user",
          "type": "address"
        },
        {
          "internalType": "uint256",
          "name": "_week",
          "type": "uint256"
        }
      ],
      "name": "getRewardForWeek",
      "outputs": [
        {
          "internalType": "uint256",
          "name": "",
          "type": "uint256"
        }
      ],
      "stateMutability": "view",
      "type": "function"
    },
    {
      "inputs": [
        {
          "internalType": "address",
          "name": "_user",
          "type": "address"
        }
      ],
      "name": "lockedRewards",
      "outputs": [
        {
          "internalType": "uint256",
          "name": "",
          "type": "uint256"
        }
      ],
      "stateMutability": "view",
      "type": "function"
    },
    {
      "inputs": [],
      "name": "lockedRewardsBP",
      "outputs": [
        {
          "internalType": "uint256",
          "name": "",
          "type": "uint256"
        }
      ],
      "stateMutability": "view",
      "type": "function"
    },
    {
      "inputs": [],
      "name": "lockupTimeW",
      "outputs": [
        {
          "internalType": "uint256",
          "name": "",
          "type": "uint256"
        }
      ],
      "stateMutability": "view",
      "type": "function"
    },
    {
      "inputs": [],
      "name": "nextClaimableWeek",
      "outputs": [
        {
          "internalType": "uint256",
          "name": "",
          "type": "uint256"
        }
      ],
      "stateMutability": "view",
      "type": "function"
    },
    {
      "inputs": [],
      "name": "owner",
      "outputs": [
        {
          "internalType": "address",
          "name": "",
          "type": "address"
        }
      ],
      "stateMutability": "view",
      "type": "function"
    },
    {
      "inputs": [],
      "name": "renounceOwnership",
      "outputs": [],
      "stateMutability": "nonpayable",
      "type": "function"
    },
    {
      "inputs": [
        {
          "internalType": "address",
          "name": "_user",
          "type": "address"
        },
        {
          "internalType": "uint256",
          "name": "_amount",
          "type": "uint256"
        }
      ],
      "name": "rewardUser",
      "outputs": [],
      "stateMutability": "nonpayable",
      "type": "function"
    },
    {
      "inputs": [],
      "name": "totalLocked",
      "outputs": [
        {
          "internalType": "uint256",
          "name": "",
          "type": "uint256"
        }
      ],
      "stateMutability": "view",
      "type": "function"
    },
    {
      "inputs": [
        {
          "internalType": "address",
          "name": "newOwner",
          "type": "address"
        }
      ],
      "name": "transferOwnership",
      "outputs": [],
      "stateMutability": "nonpayable",
      "type": "function"
    },
    {
      "inputs": [],
      "name": "unlockMoment",
      "outputs": [
        {
          "internalType": "uint256",
          "name": "",
          "type": "uint256"
        }
      ],
      "stateMutability": "view",
      "type": "function"
    },
    {
      "inputs": [
        {
          "internalType": "uint256",
          "name": "_newExpressClaimBurnBP",
          "type": "uint256"
        }
      ],
      "name": "updateExpressClaimBurnBP",
      "outputs": [],
      "stateMutability": "nonpayable",
      "type": "function"
    },
    {
      "inputs": [
        {
          "internalType": "uint256",
          "name": "_newLockedRewardsBP",
          "type": "uint256"
        }
      ],
      "name": "updateLockedRewardsBP",
      "outputs": [],
      "stateMutability": "nonpayable",
      "type": "function"
    },
    {
      "inputs": [
        {
          "internalType": "uint256",
          "name": "_newLockupTimeW",
          "type": "uint256"
        }
      ],
      "name": "updateLockupTimeW",
      "outputs": [],
      "stateMutability": "nonpayable",
      "type": "function"
    },
    {
      "inputs": [
        {
          "internalType": "uint256",
          "name": "_newMoment",
          "type": "uint256"
        }
      ],
      "name": "updateUnlockMoment",
      "outputs": [],
      "stateMutability": "nonpayable",
      "type": "function"
    },
    {
      "inputs": [
        {
          "internalType": "address",
          "name": "_newZkHarvest",
          "type": "address"
        }
      ],
      "name": "updateZkHarvest",
      "outputs": [],
      "stateMutability": "nonpayable",
      "type": "function"
    },
    {
      "inputs": [
        {
          "internalType": "address",
          "name": "_user",
          "type": "address"
        }
      ],
      "name": "weeksToPay",
      "outputs": [
        {
          "internalType": "uint256[]",
          "name": "",
          "type": "uint256[]"
        }
      ],
      "stateMutability": "view",
      "type": "function"
    },
    {
      "inputs": [],
      "name": "zkHarvest",
      "outputs": [
        {
          "internalType": "address",
          "name": "",
          "type": "address"
        }
      ],
      "stateMutability": "view",
      "type": "function"
    },
    {
      "inputs": [],
      "name": "zkh",
      "outputs": [
        {
          "internalType": "contract ZkHarvestToken",
          "name": "",
          "type": "address"
        }
      ],
      "stateMutability": "view",
      "type": "function"
    }
  ],
  "bytecode": "0x60a0604052600060045560006008553480156200001b57600080fd5b5060405162002e1838038062002e18833981810160405281019062000041919062000398565b6200006162000055620001e260201b60201c565b620001ea60201b60201c565b6001808190555084600260006101000a81548173ffffffffffffffffffffffffffffffffffffffff021916908373ffffffffffffffffffffffffffffffffffffffff1602179055508373ffffffffffffffffffffffffffffffffffffffff1660808173ffffffffffffffffffffffffffffffffffffffff168152505061271083111562000125576040517f08c379a00000000000000000000000000000000000000000000000000000000081526004016200011c90620004a7565b60405180910390fd5b8260058190555061271082111562000174576040517f08c379a00000000000000000000000000000000000000000000000000000000081526004016200016b9062000565565b60405180910390fd5b81600681905550600481101580156200018e575060188111155b620001d0576040517f08c379a0000000000000000000000000000000000000000000000000000000008152600401620001c790620005fd565b60405180910390fd5b8060078190555050505050506200061f565b600033905090565b60008060009054906101000a900473ffffffffffffffffffffffffffffffffffffffff169050816000806101000a81548173ffffffffffffffffffffffffffffffffffffffff021916908373ffffffffffffffffffffffffffffffffffffffff1602179055508173ffffffffffffffffffffffffffffffffffffffff168173ffffffffffffffffffffffffffffffffffffffff167f8be0079c531659141344cd1fd0a4f28419497f9722a3daafe3b4186f6b6457e060405160405180910390a35050565b600080fd5b600073ffffffffffffffffffffffffffffffffffffffff82169050919050565b6000620002e082620002b3565b9050919050565b620002f281620002d3565b8114620002fe57600080fd5b50565b6000815190506200031281620002e7565b92915050565b60006200032582620002d3565b9050919050565b620003378162000318565b81146200034357600080fd5b50565b60008151905062000357816200032c565b92915050565b6000819050919050565b62000372816200035d565b81146200037e57600080fd5b50565b600081519050620003928162000367565b92915050565b600080600080600060a08688031215620003b757620003b6620002ae565b5b6000620003c78882890162000301565b9550506020620003da8882890162000346565b9450506040620003ed8882890162000381565b9350506060620004008882890162000381565b9250506080620004138882890162000381565b9150509295509295909350565b600082825260208201905092915050565b7f5a6b486172766573745472656173757265723a206c6f636b656452657761726460008201527f734250206d757374206265203c3d203130303030204250202831303025290000602082015250565b60006200048f603e8362000420565b91506200049c8262000431565b604082019050919050565b60006020820190508181036000830152620004c28162000480565b9050919050565b7f5a6b486172766573745472656173757265723a2065787072657373436c61696d60008201527f4275726e4250206d757374206265203c3d20313030303020425020283130302560208201527f2900000000000000000000000000000000000000000000000000000000000000604082015250565b60006200054d60418362000420565b91506200055a82620004c9565b606082019050919050565b6000602082019050818103600083015262000580816200053e565b9050919050565b7f5a6b486172766573745472656173757265723a206c6f636b757054696d65572060008201527f6d75737420626520696e6265747765656e203420616e64203234207765656b73602082015250565b6000620005e560408362000420565b9150620005f28262000587565b604082019050919050565b600060208201905081810360008301526200061881620005d6565b9050919050565b6080516127ba6200065e600039600081816108c501528181610d5801528181610f280152818161153e015281816115e201526116c401526127ba6000f3fe608060405234801561001057600080fd5b506004361061018e5760003560e01c80639ab41c81116100de578063e0a1ae7d11610097578063ed8b605511610071578063ed8b60551461044b578063f15fda7014610469578063f2fde38b14610499578063fde63b9f146104b55761018e565b8063e0a1ae7d146103f5578063e19b57d414610413578063e4e103dc1461042f5761018e565b80639ab41c8114610321578063adf9034014610351578063aee1198b1461036f578063c94c7ff41461038d578063d3f1a535146103a9578063dc01f60d146103c55761018e565b806340f2a5a61161014b5780636fe421fc116101255780636fe421fc146102ad578063715018a6146102dd5780638ab545e5146102e75780638da5cb5b146103035761018e565b806340f2a5a614610257578063568914121461027357806368f275d9146102915761018e565b80631833c3cc1461019357806319df2c4e146101b1578063237508da146101cf5780633379c4e3146101eb5780633c5c582c146102095780633f4f1a2d14610227575b600080fd5b61019b6104d3565b6040516101a89190611b5f565b60405180910390f35b6101b96104f0565b6040516101c69190611b5f565b60405180910390f35b6101e960048036038101906101e49190611bb0565b6104f5565b005b6101f361054c565b6040516102009190611b5f565b60405180910390f35b610211610552565b60405161021e9190611b5f565b60405180910390f35b610241600480360381019061023c9190611c3b565b610558565b60405161024e9190611b5f565b60405180910390f35b610271600480360381019061026c9190611c7b565b6105b6565b005b61027b610602565b6040516102889190611b5f565b60405180910390f35b6102ab60048036038101906102a69190611bb0565b610608565b005b6102c760048036038101906102c29190611c7b565b61065f565b6040516102d49190611d66565b60405180910390f35b6102e561075d565b005b61030160048036038101906102fc9190611bb0565b610771565b005b61030b6107d4565b6040516103189190611d97565b60405180910390f35b61033b60048036038101906103369190611c7b565b6107fd565b6040516103489190611b5f565b60405180910390f35b6103596108bd565b6040516103669190611b5f565b60405180910390f35b6103776108c3565b6040516103849190611e11565b60405180910390f35b6103a760048036038101906103a29190611e91565b6108e7565b005b6103c360048036038101906103be9190611bb0565b610a92565b005b6103df60048036038101906103da9190611c7b565b610ae9565b6040516103ec9190611b5f565b60405180910390f35b6103fd610ba9565b60405161040a9190611b5f565b60405180910390f35b61042d60048036038101906104289190611e91565b610bae565b005b61044960048036038101906104449190611c3b565b610e85565b005b61045361106b565b6040516104609190611b5f565b60405180910390f35b610483600480360381019061047e9190611c7b565b611071565b6040516104909190611d66565b60405180910390f35b6104b360048036038101906104ae9190611c7b565b61125a565b005b6104bd6112dd565b6040516104ca9190611d97565b60405180910390f35b60006007546104e142611303565b6104eb9190611f0d565b905090565b600481565b6104fd611329565b62093a808110610542576040517f08c379a000000000000000000000000000000000000000000000000000000000815260040161053990611fc4565b60405180910390fd5b8060088190555050565b60065481565b60055481565b6000600360008473ffffffffffffffffffffffffffffffffffffffff1673ffffffffffffffffffffffffffffffffffffffff168152602001908152602001600020600201600083815260200190815260200160002054905092915050565b6105be611329565b80600260006101000a81548173ffffffffffffffffffffffffffffffffffffffff021916908373ffffffffffffffffffffffffffffffffffffffff16021790555050565b60045481565b610610611329565b612710811115610655576040517f08c379a000000000000000000000000000000000000000000000000000000000815260040161064c90612056565b60405180910390fd5b8060058190555050565b60606000600360008473ffffffffffffffffffffffffffffffffffffffff1673ffffffffffffffffffffffffffffffffffffffff168152602001908152602001600020600001905060006106b2826113a7565b905060008167ffffffffffffffff8111156106d0576106cf612076565b5b6040519080825280602002602001820160405280156106fe5781602001602082028036833780820191505090505b50905060005b828110156107515761071f81856113bc90919063ffffffff16565b828281518110610732576107316120a5565b5b6020026020010181815250508080610749906120d4565b915050610704565b50809350505050919050565b610765611329565b61076f60006113d6565b565b610779611329565b6004811015801561078b575060188111155b6107ca576040517f08c379a00000000000000000000000000000000000000000000000000000000081526004016107c19061218e565b60405180910390fd5b8060078190555050565b60008060009054906101000a900473ffffffffffffffffffffffffffffffffffffffff16905090565b600080600360008473ffffffffffffffffffffffffffffffffffffffff1673ffffffffffffffffffffffffffffffffffffffff1681526020019081526020016000206002019050600061084f8461065f565b90506000815190506000805b828110156108b057846000858381518110610879576108786120a5565b5b60200260200101518152602001908152602001600020548261089b9190611f0d565b915080806108a8906120d4565b91505061085b565b5080945050505050919050565b60085481565b7f000000000000000000000000000000000000000000000000000000000000000081565b6108ef61149a565b6000600360003373ffffffffffffffffffffffffffffffffffffffff1673ffffffffffffffffffffffffffffffffffffffff168152602001908152602001600020905060008061093d6114e9565b9050600085859050905060005b81811015610a06576000878783818110610967576109666120a5565b5b905060200201359050610986818760000161150690919063ffffffff16565b158061099157508381115b1561099c57506109f3565b85600201600082815260200190815260200160002054856109bd9190611f0d565b94506000866002016000838152602001908152602001600020819055506109f0818760000161152090919063ffffffff16565b50505b80806109fe906120d4565b91505061094a565b506000831115610a82578260046000828254610a2291906121ae565b92505081905550610a33338461153a565b3373ffffffffffffffffffffffffffffffffffffffff167f47cee97cb7acd717b3c0aa1435d004cd5b3c8c57d70dbceb4e4458bbd60e39d484604051610a799190611b5f565b60405180910390a25b50505050610a8e6117a5565b5050565b610a9a611329565b612710811115610adf576040517f08c379a0000000000000000000000000000000000000000000000000000000008152600401610ad69061227a565b60405180910390fd5b8060068190555050565b600080600360008473ffffffffffffffffffffffffffffffffffffffff1673ffffffffffffffffffffffffffffffffffffffff16815260200190815260200160002060020190506000610b3b84611071565b90506000815190506000805b82811015610b9c57846000858381518110610b6557610b646120a5565b5b602002602001015181526020019081526020016000205482610b879190611f0d565b91508080610b94906120d4565b915050610b47565b5080945050505050919050565b601881565b610bb661149a565b6000600360003373ffffffffffffffffffffffffffffffffffffffff1673ffffffffffffffffffffffffffffffffffffffff16815260200190815260200160002090506000806000610c066114e9565b9050600086869050905060005b81811015610d33576000888883818110610c3057610c2f6120a5565b5b905060200201359050610c4f818860000161150690919063ffffffff16565b610c595750610d20565b83811115610cc8576000876002016000838152602001908152602001600020549050600061271082600654610c8e919061229a565b610c98919061230b565b90508087610ca69190611f0d565b96508082610cb491906121ae565b88610cbf9190611f0d565b97505050610cec565b8660020160008281526020019081526020016000205486610ce99190611f0d565b95505b600087600201600083815260200190815260200160002081905550610d1d818860000161152090919063ffffffff16565b50505b8080610d2b906120d4565b915050610c13565b506000831115610de2578260046000828254610d4f91906121ae565b925050819055507f000000000000000000000000000000000000000000000000000000000000000073ffffffffffffffffffffffffffffffffffffffff166342966c68846040518263ffffffff1660e01b8152600401610daf9190611b5f565b600060405180830381600087803b158015610dc957600080fd5b505af1158015610ddd573d6000803e3d6000fd5b505050505b6000841115610e0f578360046000828254610dfd91906121ae565b92505081905550610e0e338561153a565b5b6000841180610e1e5750600083115b15610e74573373ffffffffffffffffffffffffffffffffffffffff167fadf5216bb380095becdf9b6628139cf9bcc98eb1582676c547ffadb6e5f9c4d08585604051610e6b92919061233c565b60405180910390a25b5050505050610e816117a5565b5050565b600260009054906101000a900473ffffffffffffffffffffffffffffffffffffffff1673ffffffffffffffffffffffffffffffffffffffff163373ffffffffffffffffffffffffffffffffffffffff1614610f15576040517f08c379a0000000000000000000000000000000000000000000000000000000008152600401610f0c906123d7565b60405180910390fd5b610f1d61149a565b600081031561105f577f000000000000000000000000000000000000000000000000000000000000000073ffffffffffffffffffffffffffffffffffffffff166370a08231306040518263ffffffff1660e01b8152600401610f7f9190611d97565b602060405180830381865afa158015610f9c573d6000803e3d6000fd5b505050506040513d601f19601f82011682018060405250810190610fc0919061240c565b81600454610fce9190611f0d565b111561100f576040517f08c379a0000000000000000000000000000000000000000000000000000000008152600401611006906124ab565b60405180910390fd5b600061271082600554611022919061229a565b61102c919061230b565b90506000818361103c91906121ae565b905060008211156110525761105184836117ae565b5b61105c848261153a565b50505b6110676117a5565b5050565b60075481565b60606000600360008473ffffffffffffffffffffffffffffffffffffffff1673ffffffffffffffffffffffffffffffffffffffff168152602001908152602001600020600001905060006110c4826113a7565b90506000806110d16114e9565b905060008367ffffffffffffffff8111156110ef576110ee612076565b5b60405190808252806020026020018201604052801561111d5781602001602082028036833780820191505090505b50905060005b848110156111a557600061114082886113bc90919063ffffffff16565b9050838111156111505750611192565b61116382886113bc90919063ffffffff16565b838681518110611176576111756120a5565b5b602002602001018181525050848061118d906120d4565b955050505b808061119d906120d4565b915050611123565b5060008367ffffffffffffffff8111156111c2576111c1612076565b5b6040519080825280602002602001820160405280156111f05781602001602082028036833780820191505090505b50905060005b8481101561124b57828181518110611211576112106120a5565b5b602002602001015182828151811061122c5761122b6120a5565b5b6020026020010181815250508080611243906120d4565b9150506111f6565b50809650505050505050919050565b611262611329565b600073ffffffffffffffffffffffffffffffffffffffff168173ffffffffffffffffffffffffffffffffffffffff16036112d1576040517f08c379a00000000000000000000000000000000000000000000000000000000081526004016112c89061253d565b60405180910390fd5b6112da816113d6565b50565b600260009054906101000a900473ffffffffffffffffffffffffffffffffffffffff1681565b600062093a80620546008361131891906121ae565b611322919061230b565b9050919050565b611331611941565b73ffffffffffffffffffffffffffffffffffffffff1661134f6107d4565b73ffffffffffffffffffffffffffffffffffffffff16146113a5576040517f08c379a000000000000000000000000000000000000000000000000000000000815260040161139c906125a9565b60405180910390fd5b565b60006113b582600001611949565b9050919050565b60006113cb836000018361195a565b60001c905092915050565b60008060009054906101000a900473ffffffffffffffffffffffffffffffffffffffff169050816000806101000a81548173ffffffffffffffffffffffffffffffffffffffff021916908373ffffffffffffffffffffffffffffffffffffffff1602179055508173ffffffffffffffffffffffffffffffffffffffff168173ffffffffffffffffffffffffffffffffffffffff167f8be0079c531659141344cd1fd0a4f28419497f9722a3daafe3b4186f6b6457e060405160405180910390a35050565b6002600154036114df576040517f08c379a00000000000000000000000000000000000000000000000000000000081526004016114d690612615565b60405180910390fd5b6002600181905550565b6000611501600854426114fc91906121ae565b611303565b905090565b6000611518836000018360001b611985565b905092915050565b6000611532836000018360001b6119a8565b905092915050565b60007f000000000000000000000000000000000000000000000000000000000000000073ffffffffffffffffffffffffffffffffffffffff166370a08231306040518263ffffffff1660e01b81526004016115959190611d97565b602060405180830381865afa1580156115b2573d6000803e3d6000fd5b505050506040513d601f19601f820116820180604052508101906115d6919061240c565b9050808211156116c2577f000000000000000000000000000000000000000000000000000000000000000073ffffffffffffffffffffffffffffffffffffffff1663a9059cbb84836040518363ffffffff1660e01b815260040161163b929190612635565b6020604051808303816000875af115801561165a573d6000803e3d6000fd5b505050506040513d601f19601f8201168201806040525081019061167e9190612696565b6116bd576040517f08c379a00000000000000000000000000000000000000000000000000000000081526004016116b490612735565b60405180910390fd5b6117a0565b7f000000000000000000000000000000000000000000000000000000000000000073ffffffffffffffffffffffffffffffffffffffff1663a9059cbb84846040518363ffffffff1660e01b815260040161171d929190612635565b6020604051808303816000875af115801561173c573d6000803e3d6000fd5b505050506040513d601f19601f820116820180604052508101906117609190612696565b61179f576040517f08c379a000000000000000000000000000000000000000000000000000000000815260040161179690612735565b60405180910390fd5b5b505050565b60018081905550565b600260009054906101000a900473ffffffffffffffffffffffffffffffffffffffff1673ffffffffffffffffffffffffffffffffffffffff163373ffffffffffffffffffffffffffffffffffffffff161461183e576040517f08c379a0000000000000000000000000000000000000000000000000000000008152600401611835906123d7565b60405180910390fd5b6000600360008473ffffffffffffffffffffffffffffffffffffffff1673ffffffffffffffffffffffffffffffffffffffff1681526020019081526020016000209050600061188b6104d3565b90506118a38183600001611abc90919063ffffffff16565b508282600201600083815260200190815260200160002060008282546118c99190611f0d565b9250508190555082600460008282546118e29190611f0d565b925050819055508373ffffffffffffffffffffffffffffffffffffffff167fca3d7000c012535e5ba39235ddb28917beb0b653e36152be1f9fc5fc9388ffdb8460075460405161193392919061233c565b60405180910390a250505050565b600033905090565b600081600001805490509050919050565b6000826000018281548110611972576119716120a5565b5b9060005260206000200154905092915050565b600080836001016000848152602001908152602001600020541415905092915050565b60008083600101600084815260200190815260200160002054905060008114611ab05760006001826119da91906121ae565b90506000600186600001805490506119f291906121ae565b9050818114611a61576000866000018281548110611a1357611a126120a5565b5b9060005260206000200154905080876000018481548110611a3757611a366120a5565b5b90600052602060002001819055508387600101600083815260200190815260200160002081905550505b85600001805480611a7557611a74612755565b5b600190038181906000526020600020016000905590558560010160008681526020019081526020016000206000905560019350505050611ab6565b60009150505b92915050565b6000611ace836000018360001b611ad6565b905092915050565b6000611ae28383611985565b611b3b578260000182908060018154018082558091505060019003906000526020600020016000909190919091505582600001805490508360010160008481526020019081526020016000208190555060019050611b40565b600090505b92915050565b6000819050919050565b611b5981611b46565b82525050565b6000602082019050611b746000830184611b50565b92915050565b600080fd5b600080fd5b611b8d81611b46565b8114611b9857600080fd5b50565b600081359050611baa81611b84565b92915050565b600060208284031215611bc657611bc5611b7a565b5b6000611bd484828501611b9b565b91505092915050565b600073ffffffffffffffffffffffffffffffffffffffff82169050919050565b6000611c0882611bdd565b9050919050565b611c1881611bfd565b8114611c2357600080fd5b50565b600081359050611c3581611c0f565b92915050565b60008060408385031215611c5257611c51611b7a565b5b6000611c6085828601611c26565b9250506020611c7185828601611b9b565b9150509250929050565b600060208284031215611c9157611c90611b7a565b5b6000611c9f84828501611c26565b91505092915050565b600081519050919050565b600082825260208201905092915050565b6000819050602082019050919050565b611cdd81611b46565b82525050565b6000611cef8383611cd4565b60208301905092915050565b6000602082019050919050565b6000611d1382611ca8565b611d1d8185611cb3565b9350611d2883611cc4565b8060005b83811015611d59578151611d408882611ce3565b9750611d4b83611cfb565b925050600181019050611d2c565b5085935050505092915050565b60006020820190508181036000830152611d808184611d08565b905092915050565b611d9181611bfd565b82525050565b6000602082019050611dac6000830184611d88565b92915050565b6000819050919050565b6000611dd7611dd2611dcd84611bdd565b611db2565b611bdd565b9050919050565b6000611de982611dbc565b9050919050565b6000611dfb82611dde565b9050919050565b611e0b81611df0565b82525050565b6000602082019050611e266000830184611e02565b92915050565b600080fd5b600080fd5b600080fd5b60008083601f840112611e5157611e50611e2c565b5b8235905067ffffffffffffffff811115611e6e57611e6d611e31565b5b602083019150836020820283011115611e8a57611e89611e36565b5b9250929050565b60008060208385031215611ea857611ea7611b7a565b5b600083013567ffffffffffffffff811115611ec657611ec5611b7f565b5b611ed285828601611e3b565b92509250509250929050565b7f4e487b7100000000000000000000000000000000000000000000000000000000600052601160045260246000fd5b6000611f1882611b46565b9150611f2383611b46565b9250828201905080821115611f3b57611f3a611ede565b5b92915050565b600082825260208201905092915050565b7f5a6b486172766573745472656173757265723a206d6f6d656e74206d7573742060008201527f6265206c657373207468616e2061207765656b00000000000000000000000000602082015250565b6000611fae603383611f41565b9150611fb982611f52565b604082019050919050565b60006020820190508181036000830152611fdd81611fa1565b9050919050565b7f5a6b486172766573745472656173757265723a206c6f636b656452657761726460008201527f734250206d757374206265203c3d203130303030204250202831303025290000602082015250565b6000612040603e83611f41565b915061204b82611fe4565b604082019050919050565b6000602082019050818103600083015261206f81612033565b9050919050565b7f4e487b7100000000000000000000000000000000000000000000000000000000600052604160045260246000fd5b7f4e487b7100000000000000000000000000000000000000000000000000000000600052603260045260246000fd5b60006120df82611b46565b91507fffffffffffffffffffffffffffffffffffffffffffffffffffffffffffffffff820361211157612110611ede565b5b600182019050919050565b7f5a6b486172766573745472656173757265723a206c6f636b757054696d65572060008201527f6d75737420626520696e6265747765656e203420616e64203234207765656b73602082015250565b6000612178604083611f41565b91506121838261211c565b604082019050919050565b600060208201905081810360008301526121a78161216b565b9050919050565b60006121b982611b46565b91506121c483611b46565b92508282039050818111156121dc576121db611ede565b5b92915050565b7f5a6b486172766573745472656173757265723a2065787072657373436c61696d60008201527f4275726e4250206d757374206265203c3d20313030303020425020283130302560208201527f2900000000000000000000000000000000000000000000000000000000000000604082015250565b6000612264604183611f41565b915061226f826121e2565b606082019050919050565b6000602082019050818103600083015261229381612257565b9050919050565b60006122a582611b46565b91506122b083611b46565b92508282026122be81611b46565b915082820484148315176122d5576122d4611ede565b5b5092915050565b7f4e487b7100000000000000000000000000000000000000000000000000000000600052601260045260246000fd5b600061231682611b46565b915061232183611b46565b925082612331576123306122dc565b5b828204905092915050565b60006040820190506123516000830185611b50565b61235e6020830184611b50565b9392505050565b7f5a6b486172766573745472656173757265723a2063616c6c6572206973206e6f60008201527f74207a6b48617276657374000000000000000000000000000000000000000000602082015250565b60006123c1602b83611f41565b91506123cc82612365565b604082019050919050565b600060208201905081810360008301526123f0816123b4565b9050919050565b60008151905061240681611b84565b92915050565b60006020828403121561242257612421611b7a565b5b6000612430848285016123f7565b91505092915050565b7f5a6b486172766573745472656173757265723a206e6f205a4b48206c6566742060008201527f746f207265776172642074686973207573657200000000000000000000000000602082015250565b6000612495603383611f41565b91506124a082612439565b604082019050919050565b600060208201905081810360008301526124c481612488565b9050919050565b7f4f776e61626c653a206e6577206f776e657220697320746865207a65726f206160008201527f6464726573730000000000000000000000000000000000000000000000000000602082015250565b6000612527602683611f41565b9150612532826124cb565b604082019050919050565b600060208201905081810360008301526125568161251a565b9050919050565b7f4f776e61626c653a2063616c6c6572206973206e6f7420746865206f776e6572600082015250565b6000612593602083611f41565b915061259e8261255d565b602082019050919050565b600060208201905081810360008301526125c281612586565b9050919050565b7f5265656e7472616e637947756172643a207265656e7472616e742063616c6c00600082015250565b60006125ff601f83611f41565b915061260a826125c9565b602082019050919050565b6000602082019050818103600083015261262e816125f2565b9050919050565b600060408201905061264a6000830185611d88565b6126576020830184611b50565b9392505050565b60008115159050919050565b6126738161265e565b811461267e57600080fd5b50565b6000815190506126908161266a565b92915050565b6000602082840312156126ac576126ab611b7a565b5b60006126ba84828501612681565b91505092915050565b7f5a6b486172766573745472656173757265723a205a4b48207472616e7366657260008201527f20646964206e6f74207375636365656400000000000000000000000000000000602082015250565b600061271f603083611f41565b915061272a826126c3565b604082019050919050565b6000602082019050818103600083015261274e81612712565b9050919050565b7f4e487b7100000000000000000000000000000000000000000000000000000000600052603160045260246000fdfea2646970667358221220b299816303e2381e07a753bbb48abfd70ea7b2972954c47e52c759107e9a550664736f6c63430008120033",
  "linkReferences": {},
  "deployedLinkReferences": {}
}