{
  "_format": "hh-sol-artifact-1",
  "contractName": "ZkHarvestTreasurer",
  "sourceName": "contracts/old/ZkHarvestTreasurer.sol",
  "abi": [
    {
      "inputs": [
        {
          "internalType": "address",
          "name": "_zkHarvest",
          "type": "address"
        },
        {
          "internalType": "contract ZkHarvestToken",
          "name": "_zkh",
          "type": "address"
        },
        {
          "internalType": "uint256",
          "name": "_lockedRewardsBP",
          "type": "uint256"
        },
        {
          "internalType": "uint256",
          "name": "_expressClaimBurnBP",
          "type": "uint256"
        },
        {
          "internalType": "uint256",
          "name": "_lockupTimeW",
          "type": "uint256"
        }
      ],
      "stateMutability": "nonpayable",
      "type": "constructor"
    },
    {
      "anonymous": false,
      "inputs": [
        {
          "indexed": true,
          "internalType": "address",
          "name": "user",
          "type": "address"
        },
        {
          "indexed": false,
          "internalType": "uint256",
          "name": "amount",
          "type": "uint256"
        }
      ],
      "name": "Claim",
      "type": "event"
    },
    {
      "anonymous": false,
      "inputs": [
        {
          "indexed": true,
          "internalType": "address",
          "name": "user",
          "type": "address"
        },
        {
          "indexed": false,
          "internalType": "uint256",
          "name": "amountClaimed",
          "type": "uint256"
        },
        {
          "indexed": false,
          "internalType": "uint256",
          "name": "amountBurnt",
          "type": "uint256"
        }
      ],
      "name": "ExpressClaim",
      "type": "event"
    },
    {
      "anonymous": false,
      "inputs": [
        {
          "indexed": true,
          "internalType": "address",
          "name": "user",
          "type": "address"
        },
        {
          "indexed": false,
          "internalType": "uint256",
          "name": "amount",
          "type": "uint256"
        },
        {
          "indexed": false,
          "internalType": "uint256",
          "name": "time",
          "type": "uint256"
        }
      ],
      "name": "LockUp",
      "type": "event"
    },
    {
      "anonymous": false,
      "inputs": [
        {
          "indexed": true,
          "internalType": "address",
          "name": "previousOwner",
          "type": "address"
        },
        {
          "indexed": true,
          "internalType": "address",
          "name": "newOwner",
          "type": "address"
        }
      ],
      "name": "OwnershipTransferred",
      "type": "event"
    },
    {
      "inputs": [],
      "name": "MAX_LOCKUP_WEEKS",
      "outputs": [
        {
          "internalType": "uint256",
          "name": "",
          "type": "uint256"
        }
      ],
      "stateMutability": "view",
      "type": "function"
    },
    {
      "inputs": [],
      "name": "MIN_LOCKUP_WEEKS",
      "outputs": [
        {
          "internalType": "uint256",
          "name": "",
          "type": "uint256"
        }
      ],
      "stateMutability": "view",
      "type": "function"
    },
    {
      "inputs": [
        {
          "internalType": "uint256[]",
          "name": "_weeksToClaim",
          "type": "uint256[]"
        }
      ],
      "name": "claimReward",
      "outputs": [],
      "stateMutability": "nonpayable",
      "type": "function"
    },
    {
      "inputs": [
        {
          "internalType": "uint256[]",
          "name": "_weeksToClaim",
          "type": "uint256[]"
        }
      ],
      "name": "claimRewardExpress",
      "outputs": [],
      "stateMutability": "nonpayable",
      "type": "function"
    },
    {
      "inputs": [
        {
          "internalType": "address",
          "name": "_user",
          "type": "address"
        }
      ],
      "name": "claimableRewards",
      "outputs": [
        {
          "internalType": "uint256",
          "name": "",
          "type": "uint256"
        }
      ],
      "stateMutability": "view",
      "type": "function"
    },
    {
      "inputs": [
        {
          "internalType": "address",
          "name": "_user",
          "type": "address"
        }
      ],
      "name": "claimableWeeksToPay",
      "outputs": [
        {
          "internalType": "uint256[]",
          "name": "",
          "type": "uint256[]"
        }
      ],
      "stateMutability": "view",
      "type": "function"
    },
    {
      "inputs": [],
      "name": "expressClaimBurnBP",
      "outputs": [
        {
          "internalType": "uint256",
          "name": "",
          "type": "uint256"
        }
      ],
      "stateMutability": "view",
      "type": "function"
    },
    {
      "inputs": [
        {
          "internalType": "address",
          "name": "_user",
          "type": "address"
        },
        {
          "internalType": "uint256",
          "name": "_week",
          "type": "uint256"
        }
      ],
      "name": "getRewardForWeek",
      "outputs": [
        {
          "internalType": "uint256",
          "name": "",
          "type": "uint256"
        }
      ],
      "stateMutability": "view",
      "type": "function"
    },
    {
      "inputs": [
        {
          "internalType": "address",
          "name": "_user",
          "type": "address"
        }
      ],
      "name": "lockedRewards",
      "outputs": [
        {
          "internalType": "uint256",
          "name": "",
          "type": "uint256"
        }
      ],
      "stateMutability": "view",
      "type": "function"
    },
    {
      "inputs": [],
      "name": "lockedRewardsBP",
      "outputs": [
        {
          "internalType": "uint256",
          "name": "",
          "type": "uint256"
        }
      ],
      "stateMutability": "view",
      "type": "function"
    },
    {
      "inputs": [],
      "name": "lockupTimeW",
      "outputs": [
        {
          "internalType": "uint256",
          "name": "",
          "type": "uint256"
        }
      ],
      "stateMutability": "view",
      "type": "function"
    },
    {
      "inputs": [],
      "name": "nextClaimableWeek",
      "outputs": [
        {
          "internalType": "uint256",
          "name": "",
          "type": "uint256"
        }
      ],
      "stateMutability": "view",
      "type": "function"
    },
    {
      "inputs": [],
      "name": "owner",
      "outputs": [
        {
          "internalType": "address",
          "name": "",
          "type": "address"
        }
      ],
      "stateMutability": "view",
      "type": "function"
    },
    {
      "inputs": [],
      "name": "renounceOwnership",
      "outputs": [],
      "stateMutability": "nonpayable",
      "type": "function"
    },
    {
      "inputs": [
        {
          "internalType": "address",
          "name": "_user",
          "type": "address"
        },
        {
          "internalType": "uint256",
          "name": "_amount",
          "type": "uint256"
        }
      ],
      "name": "rewardUser",
      "outputs": [],
      "stateMutability": "nonpayable",
      "type": "function"
    },
    {
      "inputs": [],
      "name": "totalLocked",
      "outputs": [
        {
          "internalType": "uint256",
          "name": "",
          "type": "uint256"
        }
      ],
      "stateMutability": "view",
      "type": "function"
    },
    {
      "inputs": [
        {
          "internalType": "address",
          "name": "newOwner",
          "type": "address"
        }
      ],
      "name": "transferOwnership",
      "outputs": [],
      "stateMutability": "nonpayable",
      "type": "function"
    },
    {
      "inputs": [],
      "name": "unlockMoment",
      "outputs": [
        {
          "internalType": "uint256",
          "name": "",
          "type": "uint256"
        }
      ],
      "stateMutability": "view",
      "type": "function"
    },
    {
      "inputs": [
        {
          "internalType": "uint256",
          "name": "_newExpressClaimBurnBP",
          "type": "uint256"
        }
      ],
      "name": "updateExpressClaimBurnBP",
      "outputs": [],
      "stateMutability": "nonpayable",
      "type": "function"
    },
    {
      "inputs": [
        {
          "internalType": "uint256",
          "name": "_newLockedRewardsBP",
          "type": "uint256"
        }
      ],
      "name": "updateLockedRewardsBP",
      "outputs": [],
      "stateMutability": "nonpayable",
      "type": "function"
    },
    {
      "inputs": [
        {
          "internalType": "uint256",
          "name": "_newLockupTimeW",
          "type": "uint256"
        }
      ],
      "name": "updateLockupTimeW",
      "outputs": [],
      "stateMutability": "nonpayable",
      "type": "function"
    },
    {
      "inputs": [
        {
          "internalType": "uint256",
          "name": "_newMoment",
          "type": "uint256"
        }
      ],
      "name": "updateUnlockMoment",
      "outputs": [],
      "stateMutability": "nonpayable",
      "type": "function"
    },
    {
      "inputs": [
        {
          "internalType": "address",
          "name": "_newZkHarvest",
          "type": "address"
        }
      ],
      "name": "updateZkHarvest",
      "outputs": [],
      "stateMutability": "nonpayable",
      "type": "function"
    },
    {
      "inputs": [
        {
          "internalType": "address",
          "name": "_user",
          "type": "address"
        }
      ],
      "name": "weeksToPay",
      "outputs": [
        {
          "internalType": "uint256[]",
          "name": "",
          "type": "uint256[]"
        }
      ],
      "stateMutability": "view",
      "type": "function"
    },
    {
      "inputs": [],
      "name": "zkHarvest",
      "outputs": [
        {
          "internalType": "address",
          "name": "",
          "type": "address"
        }
      ],
      "stateMutability": "view",
      "type": "function"
    },
    {
      "inputs": [],
      "name": "zkh",
      "outputs": [
        {
          "internalType": "contract ZkHarvestToken",
          "name": "",
          "type": "address"
        }
      ],
      "stateMutability": "view",
      "type": "function"
    }
  ],
  "bytecode": "0x60a03461027457601f6200183438819003918201601f191683019291906001600160401b03841183851017610279578160a092849260409687528339810103126102745780516001600160a01b03808216929183900361027457602082015181811681036102745784830151906080606085015194015194600080549060018060a01b031991338382161782558951963391167f8be0079c531659141344cd1fd0a4f28419497f9722a3daafe3b4186f6b6457e08380a3600180558060045560085560025416176002556080526127109182821161020c575060055581116101985760065560048110158061018d575b1561012357600755516115a490816200029082396080518181816103cb015281816107c701528181610e4f015261142c0152f35b815162461bcd60e51b815260206004820152602481018390527f5a6b486172766573745472656173757265723a206c6f636b757054696d65572060448201527f6d75737420626520696e6265747765656e203420616e64203234207765656b736064820152608490fd5b5060188111156100ef565b825162461bcd60e51b815260206004820152604160248201527f5a6b486172766573745472656173757265723a2065787072657373436c61696d60448201527f4275726e4250206d757374206265203c3d2031303030302042502028313030256064820152602960f81b608482015260a490fd5b62461bcd60e51b815260206004820152603e60248201527f5a6b486172766573745472656173757265723a206c6f636b656452657761726460448201527f734250206d757374206265203c3d2031303030302042502028313030252900006064820152608490fd5b600080fd5b634e487b7160e01b600052604160045260246000fdfe6040608081526004908136101561001557600080fd5b600091823560e01c9081631833c3cc14610bf357816319df2c4e14610bd6578163237508da14610b3c5781633379c4e314610b1d5781633c5c582c14610afe5781633f4f1a2d14610abb57816340f2a5a614610a7c5781635689141214610a5e57816368f275d9146109c65781636fe421fc1461099f578163715018a61461094d5781638ab545e5146108a55781638da5cb5b1461087f5781639ab41c811461080a578163adf90340146107eb578163aee1198b146107a7578163c94c7ff414610677578163d3f1a535146105d5578163dc01f60d1461054a578163e0a1ae7d1461052e578163e19b57d4146102d7578163e4e103dc1461028a578163ed8b60551461026b578163f15fda7014610235578163f2fde38b1461016b575063fde63b9f1461014157600080fd5b346101675781600319360112610167576020906001600160a01b03600254169051908152f35b5080fd5b90503461023157602036600319011261023157610186610c24565b9061018f610cc7565b6001600160a01b038092169283156101df575050600054826001600160a01b0319821617600055167f8be0079c531659141344cd1fd0a4f28419497f9722a3daafe3b4186f6b6457e0600080a380f35b906020608492519162461bcd60e51b8352820152602660248201527f4f776e61626c653a206e6577206f776e657220697320746865207a65726f206160448201526564647265737360d01b6064820152fd5b8280fd5b505034610167576020366003190112610167576102679061025c610257610c24565b6112bb565b905191829182610c3f565b0390f35b5050346101675781600319360112610167576020906007549051908152f35b505034610167573660031901126102d4576102cd6102a6610c24565b6102bc6001600160a01b03600254163314610d66565b6102c4610ff6565b60243590610e11565b6001805580f35b80fd5b905034610231576102e736610c7a565b92906102f1610ff6565b3385526020926003845285838120928196829461031861031360085442610d42565b610d4f565b916002820190855b8181106104565750505050505050811515806103b3575b85159182159081610396575b509161038e575b50610358575b846001805580f35b7fadf5216bb380095becdf9b6628139cf9bcc98eb1582676c547ffadb6e5f9c4d09282519485528401523392a238808080610350565b90503861034a565b6103a1888254610d42565b90556103ad873361140e565b38610343565b6103be838354610d42565b8255866001600160a01b037f000000000000000000000000000000000000000000000000000000000000000016803b156101675781906024875180948193630852cd8d60e31b835289898401525af1801561044c5761041e575b50610337565b67ffffffffffffffff81989298116104395784529538610418565b506041602492634e487b7160e01b835252fd5b85513d8a823e3d90fd5b9091929394959a6104688284896110fe565b3590610484828760019160005201602052604060002054151590565b1561052257868211156104fb57818c918c8f8896958152868552205480600654906104ae91610dfe565b61271090049c8d6104be91610d1f565b9c6104c891610d42565b6104d191610d1f565b9d6104ef946104e9935b838352528c8120558661110e565b506110ef565b908b9594939291610320565b818d868e9f8f948f836104e9976104ef9a9961051c95525284205490610d1f565b9f6104db565b9b50506104ef906110ef565b5050346101675781600319360112610167576020905160188152f35b8284346102d4576020918260031936011261016757610567610c24565b916001600160a01b038316815260038452610587600283832001936112bb565b90815190809481935b8385106105a05787878751908152f35b90919293956105c66105cc916105b68985611248565b518652848a528786205490610d1f565b966110ef565b93929190610590565b905034610231576020366003190112610231578035916105f3610cc7565b612710831161060457505060065580f35b90602060a492519162461bcd60e51b8352820152604160248201527f5a6b486172766573745472656173757265723a2065787072657373436c61696d60448201527f4275726e4250206d757374206265203c3d2031303030302042502028313030256064820152602960f81b6084820152fd5b9050346102315761068736610c7a565b92610690610ff6565b33855284602092600384528282209582966106b061031360085442610d42565b916002820190855b81811061071c5750505050505050836106d357846001805580f35b82610700857f47cee97cb7acd717b3c0aa1435d004cd5b3c8c57d70dbceb4e4458bbd60e39d49554610d42565b905561070c843361140e565b519283523392a238808080610350565b9091929394959961072e8284896110fe565b359061074a828760019160005201602052604060002054151590565b15801561079e575b6107925781806107766104e9938f808f8f92906107869a998d925252205490610d1f565b9d52858b528d8a8120558661110e565b908a95949392916106b8565b9a5050610786906110ef565b50868211610752565b505034610167578160031936011261016757602090516001600160a01b037f0000000000000000000000000000000000000000000000000000000000000000168152f35b5050346101675781600319360112610167576020906008549051908152f35b8284346102d4576020918260031936011261016757610827610c24565b916001600160a01b0383168152600384526108476002838320019361125c565b90815190809481935b8385106108605787878751908152f35b90919293956105c6610876916105b68985611248565b93929190610850565b5050346101675781600319360112610167576001600160a01b0360209254169051908152f35b905034610231576020366003190112610231578035916108c3610cc7565b8183101580610942575b156108da57505060075580f35b60849250602081519262461bcd60e51b845283015260248201527f5a6b486172766573745472656173757265723a206c6f636b757054696d65572060448201527f6d75737420626520696e6265747765656e203420616e64203234207765656b736064820152fd5b5060188311156108cd565b83346102d457806003193601126102d457610966610cc7565b806001600160a01b038154811981168355167f8be0079c531659141344cd1fd0a4f28419497f9722a3daafe3b4186f6b6457e08280a380f35b505034610167576020366003190112610167576102679061025c6109c1610c24565b61125c565b905034610231576020366003190112610231578035916109e4610cc7565b61271083116109f557505060055580f35b906020608492519162461bcd60e51b8352820152603e60248201527f5a6b486172766573745472656173757265723a206c6f636b656452657761726460448201527f734250206d757374206265203c3d2031303030302042502028313030252900006064820152fd5b90503461023157826003193601126102315760209250549051908152f35b83346102d45760203660031901126102d4576001600160a01b03610a9e610c24565b610aa6610cc7565b166001600160a01b0319600254161760025580f35b505034610167578060031936011261016757806020926001600160a01b03610ae1610c24565b168152600384526002828220016024358252845220549051908152f35b5050346101675781600319360112610167576020906005549051908152f35b5050346101675781600319360112610167576020906006549051908152f35b90503461023157602036600319011261023157803591610b5a610cc7565b62093a80831015610b6d57505060085580f35b906020608492519162461bcd60e51b8352820152603360248201527f5a6b486172766573745472656173757265723a206d6f6d656e74206d7573742060448201527f6265206c657373207468616e2061207765656b000000000000000000000000006064820152fd5b919050346102315782600319360112610231576020925051908152f35b505034610167578160031936011261016757602090610c1d610c1442610d4f565b60075490610d1f565b9051908152f35b600435906001600160a01b0382168203610c3a57565b600080fd5b6020908160408183019282815285518094520193019160005b828110610c66575050505090565b835185529381019392810192600101610c58565b906020600319830112610c3a5760043567ffffffffffffffff92838211610c3a5780602383011215610c3a578160040135938411610c3a5760248460051b83010111610c3a576024019190565b6001600160a01b03600054163303610cdb57565b606460405162461bcd60e51b815260206004820152602060248201527f4f776e61626c653a2063616c6c6572206973206e6f7420746865206f776e65726044820152fd5b91908201809211610d2c57565b634e487b7160e01b600052601160045260246000fd5b91908203918211610d2c57565b620545ff198101908111610d2c5762093a80900490565b15610d6d57565b60405162461bcd60e51b815260206004820152602b60248201527f5a6b486172766573745472656173757265723a2063616c6c6572206973206e6f60448201526a1d081e9ad2185c9d995cdd60aa1b6064820152608490fd5b90601f8019910116810190811067ffffffffffffffff821117610de857604052565b634e487b7160e01b600052604160045260246000fd5b81810292918115918404141715610d2c57565b91908015610ff157610e2581600454610d1f565b604080516370a0823160e01b81523060048201529094916020916001600160a01b039183826024817f000000000000000000000000000000000000000000000000000000000000000087165afa918215610fe657600092610fb7575b5011610f4d57610eb69495610ea6612710610e9e87600554610dfe565b048096610d42565b9480610eb8575b5050505061140e565b565b82610ee97fca3d7000c012535e5ba39235ddb28917beb0b653e36152be1f9fc5fc9388ffdb94600254163314610d66565b8516938460005260038152600283600020610f06610c1442610d4f565b610f10818361107a565b5060005201815282600020610f26838254610d1f565b9055610f3482600454610d1f565b600455600754908351928352820152a238808080610ead565b855162461bcd60e51b815260048101839052603360248201527f5a6b486172766573745472656173757265723a206e6f205a4b48206c6566742060448201527f746f2072657761726420746869732075736572000000000000000000000000006064820152608490fd5b90918482813d8311610fdf575b610fce8183610dc6565b810103126102d45750519038610e81565b503d610fc4565b88513d6000823e3d90fd5b509050565b600260015414611007576002600155565b60405162461bcd60e51b815260206004820152601f60248201527f5265656e7472616e637947756172643a207265656e7472616e742063616c6c006044820152606490fd5b80548210156110645760005260206000200190600090565b634e487b7160e01b600052603260045260246000fd5b60008281526001820160205260409020546110e85780549068010000000000000000821015610de857826110d16110b884600180960185558461104c565b819391549060031b600019811b9283911b169119161790565b905580549260005201602052604060002055600190565b5050600090565b6000198114610d2c5760010190565b91908110156110645760051b0190565b906001820190600092818452826020526040842054908115156000146111f757600019918083018181116111e3578254908482019182116111cf5780820361119a575b5050508054801561118657820191611169838361104c565b909182549160031b1b191690555582526020526040812055600190565b634e487b7160e01b86526031600452602486fd5b6111ba6111aa6110b8938661104c565b90549060031b1c9283928661104c565b90558652846020526040862055388080611151565b634e487b7160e01b88526011600452602488fd5b634e487b7160e01b87526011600452602487fd5b5050505090565b67ffffffffffffffff8111610de85760051b60200190565b90611220826111fe565b61122d6040519182610dc6565b828152809261123e601f19916111fe565b0190602036910137565b80518210156110645760209160051b010190565b6001600160a01b031660005260038060205260406000209081549061128082611216565b9260005b838110611292575050505090565b806112a06112b6928461104c565b905490851b1c6112b08288611248565b526110ef565b611284565b6001600160a01b0316600052600390816020526040600020918254906000916112e961031360085442610d42565b916112f382611216565b9584935b83851061133c57505050505061130c81611216565b9060005b81811061131e575090925050565b8061132c6113379287611248565b516112b08286611248565b611310565b90919293948161134c878561104c565b905490861b1c116113875761137861137e91611368888661104c565b905490871b1c6112b0828c611248565b956110ef565b939291906112f7565b9461137e906110ef565b90816020910312610c3a57518015158103610c3a5790565b156113b057565b60405162461bcd60e51b815260206004820152603060248201527f5a6b486172766573745472656173757265723a205a4b48207472616e7366657260448201526f08191a59081b9bdd081cdd58d8d9595960821b6064820152608490fd5b604080516370a0823160e01b815230600482015290939260209291907f00000000000000000000000000000000000000000000000000000000000000006001600160a01b03168483602481845afa91821561156357859360009361152f575b50828111156114fe5750865163a9059cbb60e01b81526001600160a01b0390941660048501526024840191909152829081600081604481015b03925af19182156114f357610eb69394506000926114c6575b50506113a9565b6114e59250803d106114ec575b6114dd8183610dc6565b810190611391565b38806114bf565b503d6114d3565b84513d6000823e3d90fd5b875163a9059cbb60e01b81526001600160a01b039095166004860152602485015283915081600081604481016114a6565b9192909382813d831161155c575b6115478183610dc6565b810103126102d457509084929151913861146d565b503d61153d565b87513d6000823e3d90fdfea26469706673582212200f22fcd88844e6de0c7e0c24d512d528049e999a3b21a49c1b275dbde328e0b864736f6c63430008110033",
  "linkReferences": {},
  "deployedLinkReferences": {}
}