{
  "_format": "hh-sol-artifact-1",
  "contractName": "ZKHarvestPair",
  "sourceName": "contracts/v2/ZKHarvestPair.sol",
  "abi": [
    {
      "anonymous": false,
      "inputs": [
        {
          "indexed": true,
          "internalType": "address",
          "name": "owner",
          "type": "address"
        },
        {
          "indexed": true,
          "internalType": "address",
          "name": "spender",
          "type": "address"
        },
        {
          "indexed": false,
          "internalType": "uint256",
          "name": "value",
          "type": "uint256"
        }
      ],
      "name": "Approval",
      "type": "event"
    },
    {
      "anonymous": false,
      "inputs": [
        {
          "indexed": true,
          "internalType": "address",
          "name": "sender",
          "type": "address"
        },
        {
          "indexed": false,
          "internalType": "uint256",
          "name": "amount0",
          "type": "uint256"
        },
        {
          "indexed": false,
          "internalType": "uint256",
          "name": "amount1",
          "type": "uint256"
        },
        {
          "indexed": true,
          "internalType": "address",
          "name": "to",
          "type": "address"
        }
      ],
      "name": "Burn",
      "type": "event"
    },
    {
      "anonymous": false,
      "inputs": [
        {
          "indexed": false,
          "internalType": "uint8",
          "name": "version",
          "type": "uint8"
        }
      ],
      "name": "Initialized",
      "type": "event"
    },
    {
      "anonymous": false,
      "inputs": [
        {
          "indexed": true,
          "internalType": "address",
          "name": "sender",
          "type": "address"
        },
        {
          "indexed": false,
          "internalType": "uint256",
          "name": "amount0",
          "type": "uint256"
        },
        {
          "indexed": false,
          "internalType": "uint256",
          "name": "amount1",
          "type": "uint256"
        }
      ],
      "name": "Mint",
      "type": "event"
    },
    {
      "anonymous": false,
      "inputs": [
        {
          "indexed": true,
          "internalType": "address",
          "name": "sender",
          "type": "address"
        },
        {
          "indexed": false,
          "internalType": "uint256",
          "name": "amount0In",
          "type": "uint256"
        },
        {
          "indexed": false,
          "internalType": "uint256",
          "name": "amount1In",
          "type": "uint256"
        },
        {
          "indexed": false,
          "internalType": "uint256",
          "name": "amount0Out",
          "type": "uint256"
        },
        {
          "indexed": false,
          "internalType": "uint256",
          "name": "amount1Out",
          "type": "uint256"
        },
        {
          "indexed": true,
          "internalType": "address",
          "name": "to",
          "type": "address"
        }
      ],
      "name": "Swap",
      "type": "event"
    },
    {
      "anonymous": false,
      "inputs": [
        {
          "indexed": false,
          "internalType": "uint112",
          "name": "reserve0",
          "type": "uint112"
        },
        {
          "indexed": false,
          "internalType": "uint112",
          "name": "reserve1",
          "type": "uint112"
        }
      ],
      "name": "Sync",
      "type": "event"
    },
    {
      "anonymous": false,
      "inputs": [
        {
          "indexed": true,
          "internalType": "address",
          "name": "from",
          "type": "address"
        },
        {
          "indexed": true,
          "internalType": "address",
          "name": "to",
          "type": "address"
        },
        {
          "indexed": false,
          "internalType": "uint256",
          "name": "value",
          "type": "uint256"
        }
      ],
      "name": "Transfer",
      "type": "event"
    },
    {
      "inputs": [],
      "name": "DOMAIN_SEPARATOR",
      "outputs": [
        {
          "internalType": "bytes32",
          "name": "",
          "type": "bytes32"
        }
      ],
      "stateMutability": "view",
      "type": "function"
    },
    {
      "inputs": [],
      "name": "MINIMUM_LIQUIDITY",
      "outputs": [
        {
          "internalType": "uint256",
          "name": "",
          "type": "uint256"
        }
      ],
      "stateMutability": "view",
      "type": "function"
    },
    {
      "inputs": [],
      "name": "PERMIT_TYPEHASH",
      "outputs": [
        {
          "internalType": "bytes32",
          "name": "",
          "type": "bytes32"
        }
      ],
      "stateMutability": "view",
      "type": "function"
    },
    {
      "inputs": [
        {
          "internalType": "address",
          "name": "",
          "type": "address"
        },
        {
          "internalType": "address",
          "name": "",
          "type": "address"
        }
      ],
      "name": "allowance",
      "outputs": [
        {
          "internalType": "uint256",
          "name": "",
          "type": "uint256"
        }
      ],
      "stateMutability": "view",
      "type": "function"
    },
    {
      "inputs": [
        {
          "internalType": "address",
          "name": "spender",
          "type": "address"
        },
        {
          "internalType": "uint256",
          "name": "value",
          "type": "uint256"
        }
      ],
      "name": "approve",
      "outputs": [
        {
          "internalType": "bool",
          "name": "",
          "type": "bool"
        }
      ],
      "stateMutability": "nonpayable",
      "type": "function"
    },
    {
      "inputs": [
        {
          "internalType": "address",
          "name": "",
          "type": "address"
        }
      ],
      "name": "balanceOf",
      "outputs": [
        {
          "internalType": "uint256",
          "name": "",
          "type": "uint256"
        }
      ],
      "stateMutability": "view",
      "type": "function"
    },
    {
      "inputs": [
        {
          "internalType": "address",
          "name": "to",
          "type": "address"
        }
      ],
      "name": "burn",
      "outputs": [
        {
          "internalType": "uint256",
          "name": "amount0",
          "type": "uint256"
        },
        {
          "internalType": "uint256",
          "name": "amount1",
          "type": "uint256"
        }
      ],
      "stateMutability": "nonpayable",
      "type": "function"
    },
    {
      "inputs": [],
      "name": "decimals",
      "outputs": [
        {
          "internalType": "uint8",
          "name": "",
          "type": "uint8"
        }
      ],
      "stateMutability": "view",
      "type": "function"
    },
    {
      "inputs": [],
      "name": "factory",
      "outputs": [
        {
          "internalType": "address",
          "name": "",
          "type": "address"
        }
      ],
      "stateMutability": "view",
      "type": "function"
    },
    {
      "inputs": [],
      "name": "getReserves",
      "outputs": [
        {
          "internalType": "uint112",
          "name": "_reserve0",
          "type": "uint112"
        },
        {
          "internalType": "uint112",
          "name": "_reserve1",
          "type": "uint112"
        },
        {
          "internalType": "uint32",
          "name": "_blockTimestampLast",
          "type": "uint32"
        }
      ],
      "stateMutability": "view",
      "type": "function"
    },
    {
      "inputs": [],
      "name": "getReservesSimple",
      "outputs": [
        {
          "internalType": "uint112",
          "name": "",
          "type": "uint112"
        },
        {
          "internalType": "uint112",
          "name": "",
          "type": "uint112"
        }
      ],
      "stateMutability": "view",
      "type": "function"
    },
    {
      "inputs": [
        {
          "internalType": "address",
          "name": "_token0",
          "type": "address"
        },
        {
          "internalType": "address",
          "name": "_token1",
          "type": "address"
        }
      ],
      "name": "initialize",
      "outputs": [],
      "stateMutability": "nonpayable",
      "type": "function"
    },
    {
      "inputs": [],
      "name": "initialize",
      "outputs": [],
      "stateMutability": "nonpayable",
      "type": "function"
    },
    {
      "inputs": [
        {
          "internalType": "address",
          "name": "token",
          "type": "address"
        }
      ],
      "name": "isAddTaxFree",
      "outputs": [
        {
          "internalType": "bool",
          "name": "",
          "type": "bool"
        }
      ],
      "stateMutability": "view",
      "type": "function"
    },
    {
      "inputs": [
        {
          "internalType": "address",
          "name": "token",
          "type": "address"
        }
      ],
      "name": "isRemoveTaxFree",
      "outputs": [
        {
          "internalType": "bool",
          "name": "",
          "type": "bool"
        }
      ],
      "stateMutability": "view",
      "type": "function"
    },
    {
      "inputs": [],
      "name": "kLast",
      "outputs": [
        {
          "internalType": "uint256",
          "name": "",
          "type": "uint256"
        }
      ],
      "stateMutability": "view",
      "type": "function"
    },
    {
      "inputs": [],
      "name": "lpFee",
      "outputs": [
        {
          "internalType": "uint256",
          "name": "",
          "type": "uint256"
        }
      ],
      "stateMutability": "view",
      "type": "function"
    },
    {
      "inputs": [
        {
          "internalType": "address",
          "name": "to",
          "type": "address"
        }
      ],
      "name": "mint",
      "outputs": [
        {
          "internalType": "uint256",
          "name": "liquidity",
          "type": "uint256"
        }
      ],
      "stateMutability": "nonpayable",
      "type": "function"
    },
    {
      "inputs": [],
      "name": "name",
      "outputs": [
        {
          "internalType": "string",
          "name": "",
          "type": "string"
        }
      ],
      "stateMutability": "view",
      "type": "function"
    },
    {
      "inputs": [
        {
          "internalType": "address",
          "name": "",
          "type": "address"
        }
      ],
      "name": "nonces",
      "outputs": [
        {
          "internalType": "uint256",
          "name": "",
          "type": "uint256"
        }
      ],
      "stateMutability": "view",
      "type": "function"
    },
    {
      "inputs": [
        {
          "internalType": "address",
          "name": "owner",
          "type": "address"
        },
        {
          "internalType": "address",
          "name": "spender",
          "type": "address"
        },
        {
          "internalType": "uint256",
          "name": "value",
          "type": "uint256"
        },
        {
          "internalType": "uint256",
          "name": "deadline",
          "type": "uint256"
        },
        {
          "internalType": "uint8",
          "name": "v",
          "type": "uint8"
        },
        {
          "internalType": "bytes32",
          "name": "r",
          "type": "bytes32"
        },
        {
          "internalType": "bytes32",
          "name": "s",
          "type": "bytes32"
        }
      ],
      "name": "permit",
      "outputs": [],
      "stateMutability": "nonpayable",
      "type": "function"
    },
    {
      "inputs": [],
      "name": "price0CumulativeLast",
      "outputs": [
        {
          "internalType": "uint256",
          "name": "",
          "type": "uint256"
        }
      ],
      "stateMutability": "view",
      "type": "function"
    },
    {
      "inputs": [],
      "name": "price1CumulativeLast",
      "outputs": [
        {
          "internalType": "uint256",
          "name": "",
          "type": "uint256"
        }
      ],
      "stateMutability": "view",
      "type": "function"
    },
    {
      "inputs": [],
      "name": "sFee",
      "outputs": [
        {
          "internalType": "uint256",
          "name": "",
          "type": "uint256"
        }
      ],
      "stateMutability": "view",
      "type": "function"
    },
    {
      "inputs": [
        {
          "internalType": "uint256",
          "name": "_lpFee",
          "type": "uint256"
        },
        {
          "internalType": "uint256",
          "name": "_sFee",
          "type": "uint256"
        }
      ],
      "name": "setFees",
      "outputs": [
        {
          "internalType": "bool",
          "name": "",
          "type": "bool"
        }
      ],
      "stateMutability": "nonpayable",
      "type": "function"
    },
    {
      "inputs": [
        {
          "internalType": "bool",
          "name": "token0_Tax",
          "type": "bool"
        },
        {
          "internalType": "bool",
          "name": "token1_tax",
          "type": "bool"
        }
      ],
      "name": "setLiqTax",
      "outputs": [
        {
          "internalType": "bool",
          "name": "",
          "type": "bool"
        }
      ],
      "stateMutability": "nonpayable",
      "type": "function"
    },
    {
      "inputs": [
        {
          "internalType": "bool",
          "name": "token0_Tax",
          "type": "bool"
        },
        {
          "internalType": "bool",
          "name": "token1_tax",
          "type": "bool"
        }
      ],
      "name": "setRLiqTax",
      "outputs": [
        {
          "internalType": "bool",
          "name": "",
          "type": "bool"
        }
      ],
      "stateMutability": "nonpayable",
      "type": "function"
    },
    {
      "inputs": [
        {
          "internalType": "address",
          "name": "to",
          "type": "address"
        }
      ],
      "name": "skim",
      "outputs": [],
      "stateMutability": "nonpayable",
      "type": "function"
    },
    {
      "inputs": [
        {
          "internalType": "uint256",
          "name": "amount0Out",
          "type": "uint256"
        },
        {
          "internalType": "uint256",
          "name": "amount1Out",
          "type": "uint256"
        },
        {
          "internalType": "address",
          "name": "to",
          "type": "address"
        },
        {
          "internalType": "bytes",
          "name": "data",
          "type": "bytes"
        }
      ],
      "name": "swap",
      "outputs": [],
      "stateMutability": "nonpayable",
      "type": "function"
    },
    {
      "inputs": [
        {
          "internalType": "uint256",
          "name": "amount0Out",
          "type": "uint256"
        },
        {
          "internalType": "address",
          "name": "to",
          "type": "address"
        }
      ],
      "name": "swapFor0",
      "outputs": [],
      "stateMutability": "nonpayable",
      "type": "function"
    },
    {
      "inputs": [
        {
          "internalType": "uint256",
          "name": "amount1Out",
          "type": "uint256"
        },
        {
          "internalType": "address",
          "name": "to",
          "type": "address"
        }
      ],
      "name": "swapFor1",
      "outputs": [],
      "stateMutability": "nonpayable",
      "type": "function"
    },
    {
      "inputs": [],
      "name": "symbol",
      "outputs": [
        {
          "internalType": "string",
          "name": "",
          "type": "string"
        }
      ],
      "stateMutability": "view",
      "type": "function"
    },
    {
      "inputs": [],
      "name": "sync",
      "outputs": [],
      "stateMutability": "nonpayable",
      "type": "function"
    },
    {
      "inputs": [],
      "name": "token0",
      "outputs": [
        {
          "internalType": "address",
          "name": "",
          "type": "address"
        }
      ],
      "stateMutability": "view",
      "type": "function"
    },
    {
      "inputs": [],
      "name": "token1",
      "outputs": [
        {
          "internalType": "address",
          "name": "",
          "type": "address"
        }
      ],
      "stateMutability": "view",
      "type": "function"
    },
    {
      "inputs": [],
      "name": "totalSupply",
      "outputs": [
        {
          "internalType": "uint256",
          "name": "",
          "type": "uint256"
        }
      ],
      "stateMutability": "view",
      "type": "function"
    },
    {
      "inputs": [
        {
          "internalType": "address",
          "name": "to",
          "type": "address"
        },
        {
          "internalType": "uint256",
          "name": "value",
          "type": "uint256"
        }
      ],
      "name": "transfer",
      "outputs": [
        {
          "internalType": "bool",
          "name": "",
          "type": "bool"
        }
      ],
      "stateMutability": "nonpayable",
      "type": "function"
    },
    {
      "inputs": [
        {
          "internalType": "address",
          "name": "from",
          "type": "address"
        },
        {
          "internalType": "address",
          "name": "to",
          "type": "address"
        },
        {
          "internalType": "uint256",
          "name": "value",
          "type": "uint256"
        }
      ],
      "name": "transferFrom",
      "outputs": [
        {
          "internalType": "bool",
          "name": "",
          "type": "bool"
        }
      ],
      "stateMutability": "nonpayable",
      "type": "function"
    }
  ],
  "bytecode": "0x6080806040523461002a576001600655600f600e55600a600f5560016010556129e190816100308239f35b600080fdfe6080604052600436101561001257600080fd5b6000803560e01c8063022c0d9f1461190c57806306fdde03146118e45780630902f1ac1461188b578063095ea7b31461183b5780630b78f9c01461177c5780630dfe16811461175557806318160ddd1461173757806322e2d498146116a857806323b872dd1461163657806330adf81f146115fb578063313ce567146115df57806334a371ac146115a25780633644e515146115845780633bd31d7b146114a35780633f198dde14611466578063485cc955146113545780634a1c83091461121657806351415b5d146110b25780635909c0d5146110945780635a3d54931461107657806365d176f5146110405780636a62784214610d38578063704ce43e14610d1a57806370a0823114610ce25780637464fc3d14610cc45780637ecebe0014610c8c5780638129fc1c14610a4a57806389afcb441461069457806395d89b4114610651578063a9059cbb146105b3578063ba9a7a5614610596578063bc25cf771461045b578063c45a015514610434578063d21220a71461040d578063d505accf14610354578063dd62ed3e14610304578063f2512348146102e65763fff6cae9146101bf57600080fd5b346102e357806003193601126102e3576101d761212f565b6001600160a01b0380600854169060405190816370a0823160e01b9384825230600483015281602460209586935afa9182156102d857839186936102a7575b50600954169360246040518096819382523060048301525afa91821561029c578492610265575b5061025d9250600a54916001600160701b03808460701c16931691612268565b600160065580f35b90915082813d8311610295575b61027c8183611f6c565b810103126102905761025d9151903861023d565b600080fd5b503d610272565b6040513d86823e3d90fd5b8281939294503d83116102d1575b6102bf8183611f6c565b81010312610290578290519138610216565b503d6102b5565b6040513d87823e3d90fd5b80fd5b50346102e357806003193601126102e3576020600f54604051908152f35b50346102e35760403660031901126102e35761031e611f10565b6040610328611f26565b926001600160a01b03809316815260036020522091166000526020526020604060002054604051908152f35b50346102e35760e03660031901126102e3578061036f611f10565b610377611f26565b906084359060ff821680920361040857303b15610408576040519263d505accf60e01b84526001600160a01b03809216600485015216602483015260443560448301526064356064830152608482015260a43560a482015260c43560c4820152818160e48183305af180156103fd576103ed5750f35b6103f690611f3c565b6102e35780f35b6040513d84823e3d90fd5b505050fd5b50346102e357806003193601126102e35760206001600160a01b0360095416604051908152f35b50346102e357806003193601126102e35760206001600160a01b0360075416604051908152f35b50346102e35760208060031936011261059257610476611f10565b9061047f61212f565b6001600160a01b03918260085416926009541691604051936370a0823160e01b908186523060048701528286602481845afa958615610587578796610556575b506104e290846104dc6001600160701b039889600a541690612185565b916125e7565b6040519081523060048201528181602481875afa91821561054b57869261051b575b50506104dc9061025d94600a5460701c1690612185565b90809250813d8311610544575b6105328183611f6c565b810103126102905751836104dc610504565b503d610528565b6040513d88823e3d90fd5b9095508281813d8311610580575b61056e8183611f6c565b810103126102905751946104e26104bf565b503d610564565b6040513d89823e3d90fd5b5080fd5b50346102e357806003193601126102e35760206040516103e88152f35b50346102e35760403660031901126102e35761060360206105d2611f10565b60405163a9059cbb60e01b81526001600160a01b039091166004820152602480359082015291829081906044820190565b038185305af19081156103fd5760209291610624575b506040519015158152f35b6106449150823d811161064a575b61063c8183611f6c565b8101906125cf565b38610619565b503d610632565b50346102e357806003193601126102e35761069060405161067181611f50565b600681526505a4b482d4c560d41b602082015260405191829182611fb7565b0390f35b50346102e357602090816003193601126102e3576106b0611f10565b906106b961212f565b6106d8600a546001600160701b0391828216928260701c169160e01c90565b509390926001600160a01b03806008541693816009541696604051916370a0823160e01b9889845230600485015286846024818b5afa9384156103fd578294610a1b575b5060405199808b523060048c0152878b602481855afa988915610a10578a9b849b9a6109dd575b503084526002895261077f61075d8660408720549c61246a565b966107736107788d610773600154948592612192565b61210f565b9d8d612192565b998b1515806109d4575b1561097e576024939291858b92308252600284526107ab816040842054612185565b3083526002855260408320556107c381600154612185565b6001556040519081527fddf252ad1be2c89b69c2b068fc378daa952ba7f163c4a11628f55a4df523b3ef843092a380865260128252604086205460ff161561096e576108108d8b836126f9565b83865260128252604086205460ff161561095e5761082f8c8b866126f9565b604051948580928582523060048301525afa92831561029c57908991859461092d575b5060246040518094819382523060048301525afa92831561092157926108eb575b5098610882929160409a612268565b6108c8575b855191858352848484015216907fdccd412f0b1252819cb1fd330b93224ca42612892bb3f4f789976e6d81936496863392a360016006558351928352820152f35b6108e3600a546001600160701b03808260701c169116612192565b600d55610887565b929150988683813d831161091a575b6109048183611f6c565b8101031261029057915191989091906040610873565b503d6108fa565b604051903d90823e3d90fd5b8281939295503d8311610957575b6109458183611f6c565b81010312610290578890519238610852565b503d61093b565b6109698c8b866125e7565b61082f565b6109798d8b836125e7565b610810565b60405162461bcd60e51b8152600481018b9052602860248201527f7a6b486172766573743a20494e53554646494349454e545f4c495155494449546044820152671657d0955493915160c21b6064820152608490fd5b508a1515610789565b8980929c50819b503d8311610a09575b6109f78183611f6c565b81010312610290578a98519938610743565b503d6109ed565b6040513d85823e3d90fd5b9093508681813d8311610a43575b610a338183611f6c565b810103126102905751923861071c565b503d610a29565b50346102e357806003193601126102e357805460ff808260081c161590818092610c80575b8015610c6a575b610a7f9061201e565b60ff19808416600190811786559383610c59575b5084549084838360081c161591610aba8380968795610c4c575b8115610c2b575b5061201e565b8316178655610c1a575b50610acd611f8e565b6020815191012090603160f81b6020604051610ae881611f50565b86815201526040519160208301907f8b73c3c69bb8fe3d512ecc4cf759cc79239f7b179b0ffacaa9a75d522b39400f825260408401527fc89efdaa54c0f20c7adf612882df0950f5a951637e0307cdcb4c672f298b8bc660608401524660808401523060a084015260a0835260c083019280841067ffffffffffffffff851117610c045783604052519020600455610bcd575b50336001600160a01b03196007541617600755610b96575080f35b60207f7f26b83ff96e1f2b6a682f133852f6798a09c465da95921460cefb38474024989161ff00198454168455604051908152a180f35b60207f7f26b83ff96e1f2b6a682f133852f6798a09c465da95921460cefb38474024989161ff00198654168655848152a138610b7b565b634e487b7160e01b600052604160045260246000fd5b61ffff191661010117845538610ac4565b905083303b159182610c40575b505038610ab4565b87161490508338610c38565b9050838187161090610aad565b61ffff191661010117855538610a93565b50303b158015610a765750828116600114610a76565b50600181841610610a6f565b50346102e35760203660031901126102e35760406020916001600160a01b03610cb3611f10565b168152600583522054604051908152f35b50346102e357806003193601126102e3576020600d54604051908152f35b50346102e35760203660031901126102e35760406020916001600160a01b03610d09611f10565b168152600283522054604051908152f35b50346102e357806003193601126102e3576020600e54604051908152f35b50346102e357602090816003193601126102e357610d54611f10565b610d5c61212f565b610d7b600a546001600160701b0391828216928260701c169160e01c90565b506001600160a01b0393919380600854169160405195869288846370a0823160e01b9687825230600483015260249687915afa97881561054b57908991879961100f575b506009541694846040518097819382523060048301525afa9384156102d8578594610fe0575b506001600160701b039384821697610dfd8982612185565b9786851695610e0c8785612185565b98610e17878761246a565b976001549c8d15600014610fa7575050610e39610e348b8d612192565b6121a5565b6103e719810191908211610f9457509a6103e890818101809111610f7f576001556000805260028d52604060002054818101809111610f7f577fddf252ad1be2c89b69c2b068fc378daa952ba7f163c4a11628f55a4df523b3ef8e6000938493848052600283526040852055604051908152a35b8a15610f2b575090610ec58a610eca969594936121ff565b612268565b610f0d575b50604051918252838201527f4c209b5fc8ad50758f13e2e1088ba56a560dff690a1c6fef26394f4c03821c4f60403392a26001600655604051908152f35b610f2290600a5490808260701c169116612192565b600d5538610ecf565b8b60286084926040519262461bcd60e51b845260048401528201527f7a6b486172766573743a20494e53554646494349454e545f4c495155494449546044820152671657d3525395115160c21b6064820152fd5b82634e487b7160e01b60005260116004526000fd5b634e487b7160e01b815260116004529050fd5b90610773610fc08f959f938f610fc79561077391612192565b948d612192565b905080821015610fd957505b99610ead565b9050610fd3565b9093508781813d8311611008575b610ff88183611f6c565b8101031261029057519238610de5565b503d610fee565b828193929a503d8311611039575b6110278183611f6c565b81010312610290578890519738610dbf565b503d61101d565b50346102e357806003193601126102e357600a54604080516001600160701b03808416825260709390931c909216602083015290f35b50346102e357806003193601126102e3576020600c54604051908152f35b50346102e357806003193601126102e3576020600b54604051908152f35b50346102e35760403660031901126102e3576004356110cf611f26565b906110d861212f565b6110e38115156127c6565b600a54916001600160701b038084169360701c1691611103838210612812565b6001600160a01b0392611129846009541661111f8486836125e7565b85600854166128da565b61113587839893612185565b968715611142811561285e565b612710908183028381048314841517156112025760198b02918b830460191417156112025761117561117a928692612185565b612192565b6111848686612192565b8281029281840414901517156111ee576111a79594939291610ec59110156128aa565b604051938452846020850152846040850152606084015216907fd78ad95fa46c994b6551d0da85fc275fe613ce37657fb8d5e3d130840159d82260803392a3600160065580f35b634e487b7160e01b8b52601160045260248bfd5b634e487b7160e01b8c52601160045260248cfd5b50346102e35760403660031901126102e357600435611233611f26565b9061123c61212f565b6112478115156127c6565b600a54916001600160701b038084169360701c1691611267848210612812565b6001600160a01b039261128e84600854166112838486836125e7565b8560095416906128da565b61129b8382989398612185565b9687156112a8811561285e565b612710908184028481048314851517156112025760198b02918b83046019141715611202576112e0916112da91612185565b83612192565b6112ea8686612192565b8281029281840414901517156111ee5761130d9594939291610ec59110156128aa565b604051938585526020850152604084015283606084015216907fd78ad95fa46c994b6551d0da85fc275fe613ce37657fb8d5e3d130840159d82260803392a3600160065580f35b50346102e35760403660031901126102e35761136e611f10565b611376611f26565b906001600160a01b03809116918215158061145b575b1561140157816007541633036113bc576001600160a01b0319928360085416176008551690600954161760095580f35b60405162461bcd60e51b815260206004820152601460248201527f7a6b486172766573743a20464f5242494444454e0000000000000000000000006044820152606490fd5b60405162461bcd60e51b815260206004820152602c60248201527f7a6b486172766573743a20746f6b656e732063616e6e6f74206265207468652060448201526b7a65726f206164647265737360a01b6064820152608490fd5b50818116151561138c565b50346102e35760203660031901126102e35760ff60406020926001600160a01b0361148f611f10565b168152601284522054166040519015158152f35b50346102e35760403660031901126102e3576114bd612000565b6114c561200f565b906001600160a01b03906004602083600754166040519283809263094b741560e01b82525afa9081156102d857859261151385604096946115339461154b9a91611556575b501633146120a0565b8260085416845260116020528484209060ff801983541691151516179055565b600954168152209060ff801983541691151516179055565b602060405160018152f35b611577915060203d811161157d575b61156f8183611f6c565b810190612081565b3861150a565b503d611565565b50346102e357806003193601126102e3576020600454604051908152f35b50346102e35760203660031901126102e35760ff60406020926001600160a01b036115cb611f10565b168152601184522054166040519015158152f35b50346102e357806003193601126102e357602060405160128152f35b50346102e357806003193601126102e35760206040517f6e71edae12b1b97f4d1f60370fef10105fa2faae0126114a169c64845d6126c98152f35b50346102e35760603660031901126102e357611650611f10565b611658611f26565b6040516323b872dd60e01b81526001600160a01b03928316600482015291166024820152604480359082015260208160648185305af19081156103fd576020929161062457506040519015158152f35b50346102e35760403660031901126102e3576116c2612000565b6116ca61200f565b906001600160a01b03906004602083600754166040519283809263094b741560e01b82525afa9081156102d857859261171785604096946115339461154b9a9161155657501633146120a0565b8260085416845260126020528484209060ff801983541691151516179055565b50346102e357806003193601126102e3576020600154604051908152f35b50346102e357806003193601126102e35760206001600160a01b0360085416604051908152f35b50346102e35760403660031901126102e357600435602435906001600160a01b036004602082600754166040519283809263094b741560e01b82525afa9081156102d8576117d49394959161155657501633146120a0565b60196117e083836120ec565b036117f657600e55600f55602060405160018152f35b60405162461bcd60e51b815260206004820152601960248201527f546f74616c204665652073686f756c6420626520302e323525000000000000006044820152606490fd5b50346102e35760403660031901126102e357610603602061185a611f10565b60405163095ea7b360e01b81526001600160a01b039091166004820152602480359082015291829081906044820190565b50346102e357806003193601126102e357606063ffffffff6118c2600a546001600160701b0391828216928260701c169160e01c90565b909291604051936001600160701b038092168552166020840152166040820152f35b50346102e357806003193601126102e357610690611900611f8e565b60405191829182611fb7565b50346102e35760803660031901126102e3576001600160a01b038060443516604435036105925767ffffffffffffffff8060643511611f0c57366023606435011215611f0c57606435600401351161059257366024606435600401356064350101116105925761197a61212f565b600435159081158092611f01575b15611eae576119ac600a546001600160701b0391828216928260701c169160e01c90565b506001600160701b03829492166004351080611e9a575b15611e4b578260085416836009541692818560443516141580611e3d575b15611df857611de4575b602435611dd0575b60643560040135611d21575b906020602492604051938480926370a0823160e01b82523060048301525afa91821561054b578692611cea575b506020602493604051948580926370a0823160e01b82523060048301525afa92831561054b578693611cb6575b50611a6f6004356001600160701b038716612185565b821115611caf57611a94611a8e6004356001600160701b038816612185565b83612185565b945b611aab6024356001600160701b038416612185565b841115611ca857611ad0611aca6024356001600160701b038516612185565b85612185565b935b8615158715611c9f575b15611c4e57836127108102046127101484151715611c3a576019870287810460191488151715611c2657611b14906127108602612185565b61271082028281046127101483151715611c12576019870290878204601914881517156111ee57611b4f9291611b4991612185565b90612192565b611b6b6001600160701b0385166001600160701b038516612192565b906305f5e10091828102928184041490151715611c125710611bde57611b9093612268565b60405192835260208301526004356040830152602435606083015260443516907fd78ad95fa46c994b6551d0da85fc275fe613ce37657fb8d5e3d130840159d82260803392a3600160065580f35b60405162461bcd60e51b815260206004820152600c60248201526b7a6b486172766573743a204b60a01b6044820152606490fd5b634e487b7160e01b8a52601160045260248afd5b634e487b7160e01b89526011600452602489fd5b634e487b7160e01b88526011600452602488fd5b60405162461bcd60e51b8152602060048201526024808201527f7a6b486172766573743a20494e53554646494349454e545f494e5055545f414d60448201526313d5539560e21b6064820152608490fd5b50841515611adc565b8693611ad2565b8594611a96565b9092506020813d602011611ce2575b81611cd260209383611f6c565b8101031261029057519138611a59565b3d9150611cc5565b9291506020833d602011611d19575b81611d0660209383611f6c565b8101031261029057915190916020611a2c565b3d9150611cf9565b83604435163b15611dcc5760405163056901d560e31b815233600482015260043560248201526024356044820152608060648201526064356004013560848201526064356004013560246064350160a48301378660a46064356004013583010152868160a481601f19601f60643560040135011681010301818389604435165af1801561058757611db3575b506119ff565b6024929196611dc3602092611f3c565b96919250611dad565b8580fd5b611ddf602435604435856125e7565b6119f3565b611df3600435604435836125e7565b6119eb565b60405162461bcd60e51b815260206004820152601560248201527f7a6b486172766573743a20494e56414c49445f544f00000000000000000000006044820152606490fd5b5083856044351614156119e1565b60405162461bcd60e51b815260206004820152602160248201527f7a6b486172766573743a20494e53554646494349454e545f4c495155494449546044820152605960f81b6064820152608490fd5b506001600160701b038116602435106119c3565b60405162461bcd60e51b815260206004820152602560248201527f7a6b486172766573743a20494e53554646494349454e545f4f55545055545f416044820152641353d5539560da1b6064820152608490fd5b506024351515611988565b8280fd5b600435906001600160a01b038216820361029057565b602435906001600160a01b038216820361029057565b67ffffffffffffffff8111610c0457604052565b6040810190811067ffffffffffffffff821117610c0457604052565b90601f8019910116810190811067ffffffffffffffff821117610c0457604052565b60405190611f9b82611f50565b600d82526c7a6b48617276657374204c507360981b6020830152565b6020808252825181830181905290939260005b828110611fec57505060409293506000838284010152601f8019910116010190565b818101860151848201604001528501611fca565b60043590811515820361029057565b60243590811515820361029057565b1561202557565b60405162461bcd60e51b815260206004820152602e60248201527f496e697469616c697a61626c653a20636f6e747261637420697320616c72656160448201526d191e481a5b9a5d1a585b1a5e995960921b6064820152608490fd5b9081602091031261029057516001600160a01b03811681036102905790565b156120a757565b60405162461bcd60e51b815260206004820152601a60248201527f6f6e6c79207a6b486172766573742044657620616c6c6f7765640000000000006044820152606490fd5b919082018092116120f957565b634e487b7160e01b600052601160045260246000fd5b8115612119570490565b634e487b7160e01b600052601260045260246000fd5b600260065414612140576002600655565b60405162461bcd60e51b815260206004820152601f60248201527f5265656e7472616e637947756172643a207265656e7472616e742063616c6c006044820152606490fd5b919082039182116120f957565b818102929181159184041417156120f957565b90600060038311156121f257508160019080821c8281018091116120f95791905b8483106121d257505050565b909193506121e9846121e4818461210f565b6120ec565b821c91906121c6565b916121f957565b60019150565b7fddf252ad1be2c89b69c2b068fc378daa952ba7f163c4a11628f55a4df523b3ef60206001600160a01b03600093612239866001546120ec565b6001551693848452600282526122538160408620546120ec565b858552600283526040852055604051908152a3565b6001600160701b03928382111580612401575b156123bc57600a549163ffffffff9260e01c83421603918383116120f9577f1c411e9a96e071241c2f21f7726b17ae89e3cab4c78be50e062b03a9fffbbad19661234794879416801515806123b1575b806123a6575b61234c575b505050607093841b6dffffffffffffffffffffffffffff60701b1691169081174260e01b7fffffffff000000000000000000000000000000000000000000000000000000001617600a819055604080516001600160701b0393841681529190941c9094161660208401528291820190565b0390a1565b61239b9261237d612393936123786001600160e01b039361238b612383878761237d856123788961240b565b61244c565b16612192565b600b546120ec565b600b5561240b565b600c546120ec565b600c553880806122d6565b5084821615156122d1565b5084831615156122cb565b60405162461bcd60e51b815260206004820152601360248201527f7a6b486172766573743a204f564552464c4f57000000000000000000000000006044820152606490fd5b508383111561227b565b6dffffffffffffffffffffffffffff60701b6001600160701b0382169160701b16908082046e01000000000000000000000000000014901517156120f95790565b906001600160701b0316908115612119576001600160e01b03160490565b6004909291926001600160a01b036020816007541660405194858092622fcfcb60e31b82525afa92831561258357600093612563575b508216151593600d54918560001461255257826124be575b50505050565b610e346124db916124e1936001600160701b038091169116612192565b916121a5565b908181116124f0575b806124b8565b6125306125369261252a61250a600154611b498487612185565b61252461251a600f548093612192565b95600e5490612192565b92612192565b906120ec565b9061210f565b80612542575b806124ea565b61254b916121ff565b388061253c565b5050905061255c57565b6000600d55565b61257c91935060203d811161157d5761156f8183611f6c565b91386124a0565b6040513d6000823e3d90fd5b3d156125ca573d9067ffffffffffffffff8211610c0457604051916125be601f8201601f191660200184611f6c565b82523d6000602084013e565b606090565b90816020910312610290575180151581036102905790565b600092918361265d61266b82957f7472616e7366657228616464726573732c75696e743235362900000000000000602060405161262381611f50565b60198152015260405163a9059cbb60e01b602082019081526001600160a01b03909616602482015260448101919091529182906064820190565b03601f198101835282611f6c565b51925af161267761258f565b816126ca575b501561268557565b60405162461bcd60e51b815260206004820152601a60248201527f7a6b486172766573743a205452414e534645525f4641494c45440000000000006044820152606490fd5b80518015925082156126df575b50503861267d565b6126f292506020809183010191016125cf565b38806126d7565b60405163dffc1a1160e01b602082019081526001600160a01b03909316602482015260448101939093526000928392908390612738816064810161265d565b51925af161274461258f565b81612797575b501561275257565b60405162461bcd60e51b815260206004820152601f60248201527f5472616e7366657248656c7065723a205452414e534645525f4641494c4544006044820152606490fd5b80518015925082156127ac575b50503861274a565b6127bf92506020809183010191016125cf565b38806127a4565b156127cd57565b60405162461bcd60e51b815260206004820152601a60248201527f494e53554646494349454e545f4f55545055545f414d4f554e540000000000006044820152606490fd5b1561281957565b60405162461bcd60e51b815260206004820152601660248201527f494e53554646494349454e545f4c4951554944495459000000000000000000006044820152606490fd5b1561286557565b60405162461bcd60e51b815260206004820152601960248201527f494e53554646494349454e545f494e5055545f414d4f554e54000000000000006044820152606490fd5b156128b157565b60405162461bcd60e51b81526020600482015260016024820152604b60f81b6044820152606490fd5b919091604051906370a0823160e01b9182815230600482015260209485826024816001600160a01b038097165afa938415612583578692600095612976575b5060249060405194859384928352306004840152165afa93841561258357600094612945575b50509190565b8181959293953d831161296f575b61295d8183611f6c565b810103126102e357505191388061293f565b503d612953565b919282819692963d83116129a4575b61298f8183611f6c565b810103126102e3575051928591906024612919565b503d61298556fea264697066735822122081c959e5fa0c68dd12d54199d69ef2a62dfdcb589fff0ece9d3bcd537fd3acc764736f6c63430008110033",
  "linkReferences": {},
  "deployedLinkReferences": {}
}