{
  "_format": "hh-sol-artifact-1",
  "contractName": "ZKHPairProxy",
  "sourceName": "contracts/v2/proxy/ZKHPairProxy.sol",
  "abi": [
    {
      "anonymous": false,
      "inputs": [
        {
          "indexed": false,
          "internalType": "uint8",
          "name": "version",
          "type": "uint8"
        }
      ],
      "name": "Initialized",
      "type": "event"
    },
    {
      "anonymous": false,
      "inputs": [
        {
          "indexed": true,
          "internalType": "address",
          "name": "previousOwner",
          "type": "address"
        },
        {
          "indexed": true,
          "internalType": "address",
          "name": "newOwner",
          "type": "address"
        }
      ],
      "name": "OwnershipTransferred",
      "type": "event"
    },
    {
      "anonymous": false,
      "inputs": [
        {
          "indexed": true,
          "internalType": "address",
          "name": "newImplementation",
          "type": "address"
        }
      ],
      "name": "Upgraded",
      "type": "event"
    },
    {
      "stateMutability": "nonpayable",
      "type": "fallback"
    },
    {
      "inputs": [
        {
          "internalType": "address",
          "name": "initialImplementation",
          "type": "address"
        }
      ],
      "name": "initialize",
      "outputs": [],
      "stateMutability": "nonpayable",
      "type": "function"
    },
    {
      "inputs": [],
      "name": "owner",
      "outputs": [
        {
          "internalType": "address",
          "name": "",
          "type": "address"
        }
      ],
      "stateMutability": "view",
      "type": "function"
    },
    {
      "inputs": [],
      "name": "renounceOwnership",
      "outputs": [],
      "stateMutability": "nonpayable",
      "type": "function"
    },
    {
      "inputs": [
        {
          "internalType": "address",
          "name": "newOwner",
          "type": "address"
        }
      ],
      "name": "transferOwnership",
      "outputs": [],
      "stateMutability": "nonpayable",
      "type": "function"
    },
    {
      "inputs": [
        {
          "internalType": "address",
          "name": "newImplementation",
          "type": "address"
        }
      ],
      "name": "upgradeTo",
      "outputs": [],
      "stateMutability": "nonpayable",
      "type": "function"
    }
  ],
  "bytecode": "0x60808060405234610016576104e4908161001c8239f35b600080fdfe60806040526004361015610022575b3461001d5761001b610480565b005b600080fd5b6000803560e01c9081633659cfe61461008957508063715018a6146100805780638da5cb5b14610077578063c4d66de81461006e5763f2fde38b0361000e576100696102bd565b61000e565b50610069610184565b5061006961015c565b50610069610106565b346100e1576001600160a01b0361009f366100e4565b6100a7610340565b16806001600160a01b031960655416176065557fbc7cd75a20ee27fd9adebab32041f755214dbc6bffa90cc0225b39da2e5c2d3b8280a280f35b80fd5b602090600319011261001d576004356001600160a01b038116810361001d5790565b503461001d576000806003193601126100e157610121610340565b806001600160a01b0360335481198116603355167f8be0079c531659141344cd1fd0a4f28419497f9722a3daafe3b4186f6b6457e08280a380f35b503461001d57600036600319011261001d5760206001600160a01b0360335416604051908152f35b503461001d57610193366100e4565b6000549060ff8260081c1615809281936102af575b811561028f575b5015610233576101d590826101cc600160ff196000541617600055565b61021a576103e0565b6101db57005b6101eb61ff001960005416600055565b604051600181527f7f26b83ff96e1f2b6a682f133852f6798a09c465da95921460cefb384740249890602090a1005b61022e61010061ff00196000541617600055565b6103e0565b60405162461bcd60e51b815260206004820152602e60248201527f496e697469616c697a61626c653a20636f6e747261637420697320616c72656160448201526d191e481a5b9a5d1a585b1a5e995960921b6064820152608490fd5b303b159150816102a1575b50386101af565b6001915060ff16143861029a565b600160ff82161091506101a8565b503461001d576102cc366100e4565b6102d4610340565b6001600160a01b038116156102ec5761001b90610398565b60405162461bcd60e51b815260206004820152602660248201527f4f776e61626c653a206e6577206f776e657220697320746865207a65726f206160448201526564647265737360d01b6064820152608490fd5b6001600160a01b0360335416330361035457565b606460405162461bcd60e51b815260206004820152602060248201527f4f776e61626c653a2063616c6c6572206973206e6f7420746865206f776e65726044820152fd5b603354906001600160a01b0380911691826001600160a01b0319821617603355167f8be0079c531659141344cd1fd0a4f28419497f9722a3daafe3b4186f6b6457e0600080a3565b6001600160a01b039061040360ff60005460081c166103fe81610420565b610420565b61040c33610398565b166001600160a01b03196065541617606555565b1561042757565b60405162461bcd60e51b815260206004820152602b60248201527f496e697469616c697a61626c653a20636f6e7472616374206973206e6f74206960448201526a6e697469616c697a696e6760a81b6064820152608490fd5b506001600160a01b036065541660008060405192368285378336915af4903d91826000833e156104ac57f35bfdfea264697066735822122042694b8fea9db3289754f80331386bff26a02b0a5173ffd2fb16fa5e6329d22e64736f6c63430008110033",
  "linkReferences": {},
  "deployedLinkReferences": {}
}