{
  "_format": "hh-sol-artifact-1",
  "contractName": "ZKHToken",
  "sourceName": "contracts/v2/ZKHToken.sol",
  "abi": [
    {
      "anonymous": false,
      "inputs": [
        {
          "indexed": true,
          "internalType": "address",
          "name": "owner",
          "type": "address"
        },
        {
          "indexed": true,
          "internalType": "address",
          "name": "spender",
          "type": "address"
        },
        {
          "indexed": false,
          "internalType": "uint256",
          "name": "value",
          "type": "uint256"
        }
      ],
      "name": "Approval",
      "type": "event"
    },
    {
      "anonymous": false,
      "inputs": [
        {
          "indexed": false,
          "internalType": "uint256",
          "name": "",
          "type": "uint256"
        }
      ],
      "name": "Burn",
      "type": "event"
    },
    {
      "anonymous": false,
      "inputs": [
        {
          "indexed": true,
          "internalType": "address",
          "name": "delegator",
          "type": "address"
        },
        {
          "indexed": true,
          "internalType": "address",
          "name": "fromDelegate",
          "type": "address"
        },
        {
          "indexed": true,
          "internalType": "address",
          "name": "toDelegate",
          "type": "address"
        }
      ],
      "name": "DelegateChanged",
      "type": "event"
    },
    {
      "anonymous": false,
      "inputs": [
        {
          "indexed": true,
          "internalType": "address",
          "name": "delegate",
          "type": "address"
        },
        {
          "indexed": false,
          "internalType": "uint256",
          "name": "previousBalance",
          "type": "uint256"
        },
        {
          "indexed": false,
          "internalType": "uint256",
          "name": "newBalance",
          "type": "uint256"
        }
      ],
      "name": "DelegateVotesChanged",
      "type": "event"
    },
    {
      "anonymous": false,
      "inputs": [
        {
          "indexed": false,
          "internalType": "address",
          "name": "",
          "type": "address"
        }
      ],
      "name": "ExcludeFromFeeR",
      "type": "event"
    },
    {
      "anonymous": false,
      "inputs": [
        {
          "indexed": false,
          "internalType": "address",
          "name": "",
          "type": "address"
        }
      ],
      "name": "ExcludeFromFeeS",
      "type": "event"
    },
    {
      "anonymous": false,
      "inputs": [
        {
          "indexed": false,
          "internalType": "address",
          "name": "",
          "type": "address"
        }
      ],
      "name": "FeeAddressUpdated",
      "type": "event"
    },
    {
      "anonymous": false,
      "inputs": [
        {
          "indexed": false,
          "internalType": "address",
          "name": "",
          "type": "address"
        }
      ],
      "name": "IncludeInFeeR",
      "type": "event"
    },
    {
      "anonymous": false,
      "inputs": [
        {
          "indexed": false,
          "internalType": "address",
          "name": "",
          "type": "address"
        }
      ],
      "name": "IncludeInFeeS",
      "type": "event"
    },
    {
      "anonymous": false,
      "inputs": [
        {
          "indexed": false,
          "internalType": "uint8",
          "name": "version",
          "type": "uint8"
        }
      ],
      "name": "Initialized",
      "type": "event"
    },
    {
      "anonymous": false,
      "inputs": [
        {
          "indexed": false,
          "internalType": "address",
          "name": "",
          "type": "address"
        }
      ],
      "name": "NewDeveloper",
      "type": "event"
    },
    {
      "anonymous": false,
      "inputs": [
        {
          "indexed": true,
          "internalType": "address",
          "name": "previousOwner",
          "type": "address"
        },
        {
          "indexed": true,
          "internalType": "address",
          "name": "newOwner",
          "type": "address"
        }
      ],
      "name": "OwnershipTransferred",
      "type": "event"
    },
    {
      "anonymous": false,
      "inputs": [
        {
          "indexed": false,
          "internalType": "address",
          "name": "",
          "type": "address"
        },
        {
          "indexed": false,
          "internalType": "bool",
          "name": "",
          "type": "bool"
        }
      ],
      "name": "SetPair",
      "type": "event"
    },
    {
      "anonymous": false,
      "inputs": [
        {
          "indexed": false,
          "internalType": "uint256",
          "name": "",
          "type": "uint256"
        },
        {
          "indexed": false,
          "internalType": "uint256",
          "name": "",
          "type": "uint256"
        }
      ],
      "name": "TaxUpdated",
      "type": "event"
    },
    {
      "anonymous": false,
      "inputs": [
        {
          "indexed": true,
          "internalType": "address",
          "name": "from",
          "type": "address"
        },
        {
          "indexed": true,
          "internalType": "address",
          "name": "to",
          "type": "address"
        },
        {
          "indexed": false,
          "internalType": "uint256",
          "name": "value",
          "type": "uint256"
        }
      ],
      "name": "Transfer",
      "type": "event"
    },
    {
      "inputs": [],
      "name": "DELEGATION_TYPEHASH",
      "outputs": [
        {
          "internalType": "bytes32",
          "name": "",
          "type": "bytes32"
        }
      ],
      "stateMutability": "view",
      "type": "function"
    },
    {
      "inputs": [],
      "name": "DOMAIN_TYPEHASH",
      "outputs": [
        {
          "internalType": "bytes32",
          "name": "",
          "type": "bytes32"
        }
      ],
      "stateMutability": "view",
      "type": "function"
    },
    {
      "inputs": [],
      "name": "Tax",
      "outputs": [
        {
          "internalType": "uint256",
          "name": "",
          "type": "uint256"
        }
      ],
      "stateMutability": "view",
      "type": "function"
    },
    {
      "inputs": [],
      "name": "_maxSupply",
      "outputs": [
        {
          "internalType": "uint256",
          "name": "",
          "type": "uint256"
        }
      ],
      "stateMutability": "view",
      "type": "function"
    },
    {
      "inputs": [],
      "name": "_maxTxAmount",
      "outputs": [
        {
          "internalType": "uint256",
          "name": "",
          "type": "uint256"
        }
      ],
      "stateMutability": "view",
      "type": "function"
    },
    {
      "inputs": [
        {
          "internalType": "address",
          "name": "owner",
          "type": "address"
        },
        {
          "internalType": "address",
          "name": "spender",
          "type": "address"
        }
      ],
      "name": "allowance",
      "outputs": [
        {
          "internalType": "uint256",
          "name": "",
          "type": "uint256"
        }
      ],
      "stateMutability": "view",
      "type": "function"
    },
    {
      "inputs": [
        {
          "internalType": "address",
          "name": "spender",
          "type": "address"
        },
        {
          "internalType": "uint256",
          "name": "amount",
          "type": "uint256"
        }
      ],
      "name": "approve",
      "outputs": [
        {
          "internalType": "bool",
          "name": "",
          "type": "bool"
        }
      ],
      "stateMutability": "nonpayable",
      "type": "function"
    },
    {
      "inputs": [
        {
          "internalType": "address",
          "name": "account",
          "type": "address"
        }
      ],
      "name": "balanceOf",
      "outputs": [
        {
          "internalType": "uint256",
          "name": "",
          "type": "uint256"
        }
      ],
      "stateMutability": "view",
      "type": "function"
    },
    {
      "inputs": [
        {
          "internalType": "uint256",
          "name": "amount",
          "type": "uint256"
        }
      ],
      "name": "burn",
      "outputs": [],
      "stateMutability": "nonpayable",
      "type": "function"
    },
    {
      "inputs": [
        {
          "internalType": "address",
          "name": "",
          "type": "address"
        },
        {
          "internalType": "uint32",
          "name": "",
          "type": "uint32"
        }
      ],
      "name": "checkpoints",
      "outputs": [
        {
          "internalType": "uint32",
          "name": "fromBlock",
          "type": "uint32"
        },
        {
          "internalType": "uint256",
          "name": "votes",
          "type": "uint256"
        }
      ],
      "stateMutability": "view",
      "type": "function"
    },
    {
      "inputs": [],
      "name": "decimals",
      "outputs": [
        {
          "internalType": "uint8",
          "name": "",
          "type": "uint8"
        }
      ],
      "stateMutability": "view",
      "type": "function"
    },
    {
      "inputs": [
        {
          "internalType": "address",
          "name": "spender",
          "type": "address"
        },
        {
          "internalType": "uint256",
          "name": "subtractedValue",
          "type": "uint256"
        }
      ],
      "name": "decreaseAllowance",
      "outputs": [
        {
          "internalType": "bool",
          "name": "",
          "type": "bool"
        }
      ],
      "stateMutability": "nonpayable",
      "type": "function"
    },
    {
      "inputs": [
        {
          "internalType": "address",
          "name": "delegatee",
          "type": "address"
        }
      ],
      "name": "delegate",
      "outputs": [],
      "stateMutability": "nonpayable",
      "type": "function"
    },
    {
      "inputs": [
        {
          "internalType": "address",
          "name": "delegatee",
          "type": "address"
        },
        {
          "internalType": "uint256",
          "name": "nonce",
          "type": "uint256"
        },
        {
          "internalType": "uint256",
          "name": "expiry",
          "type": "uint256"
        },
        {
          "internalType": "uint8",
          "name": "v",
          "type": "uint8"
        },
        {
          "internalType": "bytes32",
          "name": "r",
          "type": "bytes32"
        },
        {
          "internalType": "bytes32",
          "name": "s",
          "type": "bytes32"
        }
      ],
      "name": "delegateBySig",
      "outputs": [],
      "stateMutability": "nonpayable",
      "type": "function"
    },
    {
      "inputs": [
        {
          "internalType": "address",
          "name": "delegator",
          "type": "address"
        }
      ],
      "name": "delegates",
      "outputs": [
        {
          "internalType": "address",
          "name": "",
          "type": "address"
        }
      ],
      "stateMutability": "view",
      "type": "function"
    },
    {
      "inputs": [],
      "name": "dev1",
      "outputs": [
        {
          "internalType": "address",
          "name": "",
          "type": "address"
        }
      ],
      "stateMutability": "view",
      "type": "function"
    },
    {
      "inputs": [],
      "name": "dev2",
      "outputs": [
        {
          "internalType": "address",
          "name": "",
          "type": "address"
        }
      ],
      "stateMutability": "view",
      "type": "function"
    },
    {
      "inputs": [
        {
          "internalType": "address",
          "name": "account",
          "type": "address"
        }
      ],
      "name": "excludeFromFeeR",
      "outputs": [],
      "stateMutability": "nonpayable",
      "type": "function"
    },
    {
      "inputs": [
        {
          "internalType": "address",
          "name": "account",
          "type": "address"
        }
      ],
      "name": "excludeFromFeeS",
      "outputs": [],
      "stateMutability": "nonpayable",
      "type": "function"
    },
    {
      "inputs": [],
      "name": "feeAddress",
      "outputs": [
        {
          "internalType": "address",
          "name": "",
          "type": "address"
        }
      ],
      "stateMutability": "view",
      "type": "function"
    },
    {
      "inputs": [
        {
          "internalType": "address",
          "name": "account",
          "type": "address"
        }
      ],
      "name": "getCurrentVotes",
      "outputs": [
        {
          "internalType": "uint256",
          "name": "",
          "type": "uint256"
        }
      ],
      "stateMutability": "view",
      "type": "function"
    },
    {
      "inputs": [
        {
          "internalType": "address",
          "name": "account",
          "type": "address"
        },
        {
          "internalType": "uint256",
          "name": "blockNumber",
          "type": "uint256"
        }
      ],
      "name": "getPriorVotes",
      "outputs": [
        {
          "internalType": "uint256",
          "name": "",
          "type": "uint256"
        }
      ],
      "stateMutability": "view",
      "type": "function"
    },
    {
      "inputs": [
        {
          "internalType": "address",
          "name": "account",
          "type": "address"
        }
      ],
      "name": "includeInFeeR",
      "outputs": [],
      "stateMutability": "nonpayable",
      "type": "function"
    },
    {
      "inputs": [
        {
          "internalType": "address",
          "name": "account",
          "type": "address"
        }
      ],
      "name": "includeInFeeS",
      "outputs": [],
      "stateMutability": "nonpayable",
      "type": "function"
    },
    {
      "inputs": [
        {
          "internalType": "address",
          "name": "spender",
          "type": "address"
        },
        {
          "internalType": "uint256",
          "name": "addedValue",
          "type": "uint256"
        }
      ],
      "name": "increaseAllowance",
      "outputs": [
        {
          "internalType": "bool",
          "name": "",
          "type": "bool"
        }
      ],
      "stateMutability": "nonpayable",
      "type": "function"
    },
    {
      "inputs": [
        {
          "internalType": "address",
          "name": "_dev2",
          "type": "address"
        },
        {
          "internalType": "address",
          "name": "_feeAddress",
          "type": "address"
        },
        {
          "internalType": "uint256",
          "name": "_initialMint",
          "type": "uint256"
        }
      ],
      "name": "initialize",
      "outputs": [],
      "stateMutability": "nonpayable",
      "type": "function"
    },
    {
      "inputs": [
        {
          "internalType": "address",
          "name": "account",
          "type": "address"
        }
      ],
      "name": "isExcludedFromFee",
      "outputs": [
        {
          "internalType": "bool",
          "name": "Rfee",
          "type": "bool"
        },
        {
          "internalType": "bool",
          "name": "SFee",
          "type": "bool"
        }
      ],
      "stateMutability": "view",
      "type": "function"
    },
    {
      "inputs": [
        {
          "internalType": "address",
          "name": "account",
          "type": "address"
        }
      ],
      "name": "isPair",
      "outputs": [
        {
          "internalType": "bool",
          "name": "",
          "type": "bool"
        }
      ],
      "stateMutability": "view",
      "type": "function"
    },
    {
      "inputs": [
        {
          "internalType": "address",
          "name": "_to",
          "type": "address"
        },
        {
          "internalType": "uint256",
          "name": "_amount",
          "type": "uint256"
        }
      ],
      "name": "mint",
      "outputs": [
        {
          "internalType": "bool",
          "name": "",
          "type": "bool"
        }
      ],
      "stateMutability": "nonpayable",
      "type": "function"
    },
    {
      "inputs": [
        {
          "internalType": "uint256",
          "name": "amount",
          "type": "uint256"
        }
      ],
      "name": "mint",
      "outputs": [
        {
          "internalType": "bool",
          "name": "",
          "type": "bool"
        }
      ],
      "stateMutability": "nonpayable",
      "type": "function"
    },
    {
      "inputs": [],
      "name": "name",
      "outputs": [
        {
          "internalType": "string",
          "name": "",
          "type": "string"
        }
      ],
      "stateMutability": "view",
      "type": "function"
    },
    {
      "inputs": [
        {
          "internalType": "address",
          "name": "",
          "type": "address"
        }
      ],
      "name": "nonces",
      "outputs": [
        {
          "internalType": "uint256",
          "name": "",
          "type": "uint256"
        }
      ],
      "stateMutability": "view",
      "type": "function"
    },
    {
      "inputs": [
        {
          "internalType": "address",
          "name": "",
          "type": "address"
        }
      ],
      "name": "numCheckpoints",
      "outputs": [
        {
          "internalType": "uint32",
          "name": "",
          "type": "uint32"
        }
      ],
      "stateMutability": "view",
      "type": "function"
    },
    {
      "inputs": [],
      "name": "owner",
      "outputs": [
        {
          "internalType": "address",
          "name": "",
          "type": "address"
        }
      ],
      "stateMutability": "view",
      "type": "function"
    },
    {
      "inputs": [],
      "name": "renounceOwnership",
      "outputs": [],
      "stateMutability": "nonpayable",
      "type": "function"
    },
    {
      "inputs": [
        {
          "internalType": "address",
          "name": "_dev",
          "type": "address"
        }
      ],
      "name": "setDev",
      "outputs": [],
      "stateMutability": "nonpayable",
      "type": "function"
    },
    {
      "inputs": [
        {
          "internalType": "address",
          "name": "_feeAddress",
          "type": "address"
        }
      ],
      "name": "setFeeAddress",
      "outputs": [],
      "stateMutability": "nonpayable",
      "type": "function"
    },
    {
      "inputs": [
        {
          "internalType": "uint256",
          "name": "maxTx",
          "type": "uint256"
        }
      ],
      "name": "setMaxTxLimit",
      "outputs": [],
      "stateMutability": "nonpayable",
      "type": "function"
    },
    {
      "inputs": [
        {
          "internalType": "address",
          "name": "_pair",
          "type": "address"
        },
        {
          "internalType": "bool",
          "name": "_status",
          "type": "bool"
        }
      ],
      "name": "setPair",
      "outputs": [],
      "stateMutability": "nonpayable",
      "type": "function"
    },
    {
      "inputs": [
        {
          "internalType": "uint256",
          "name": "_tax",
          "type": "uint256"
        }
      ],
      "name": "setTax",
      "outputs": [],
      "stateMutability": "nonpayable",
      "type": "function"
    },
    {
      "inputs": [],
      "name": "symbol",
      "outputs": [
        {
          "internalType": "string",
          "name": "",
          "type": "string"
        }
      ],
      "stateMutability": "view",
      "type": "function"
    },
    {
      "inputs": [],
      "name": "totalSupply",
      "outputs": [
        {
          "internalType": "uint256",
          "name": "",
          "type": "uint256"
        }
      ],
      "stateMutability": "view",
      "type": "function"
    },
    {
      "inputs": [
        {
          "internalType": "address",
          "name": "to",
          "type": "address"
        },
        {
          "internalType": "uint256",
          "name": "amount",
          "type": "uint256"
        }
      ],
      "name": "transfer",
      "outputs": [
        {
          "internalType": "bool",
          "name": "",
          "type": "bool"
        }
      ],
      "stateMutability": "nonpayable",
      "type": "function"
    },
    {
      "inputs": [
        {
          "internalType": "address",
          "name": "from",
          "type": "address"
        },
        {
          "internalType": "address",
          "name": "to",
          "type": "address"
        },
        {
          "internalType": "uint256",
          "name": "amount",
          "type": "uint256"
        }
      ],
      "name": "transferFrom",
      "outputs": [
        {
          "internalType": "bool",
          "name": "",
          "type": "bool"
        }
      ],
      "stateMutability": "nonpayable",
      "type": "function"
    },
    {
      "inputs": [
        {
          "internalType": "address",
          "name": "sender",
          "type": "address"
        },
        {
          "internalType": "address",
          "name": "recipient",
          "type": "address"
        },
        {
          "internalType": "uint256",
          "name": "amount",
          "type": "uint256"
        }
      ],
      "name": "transferFromTaxFree",
      "outputs": [
        {
          "internalType": "bool",
          "name": "",
          "type": "bool"
        }
      ],
      "stateMutability": "nonpayable",
      "type": "function"
    },
    {
      "inputs": [
        {
          "internalType": "address",
          "name": "newOwner",
          "type": "address"
        }
      ],
      "name": "transferOwnership",
      "outputs": [],
      "stateMutability": "nonpayable",
      "type": "function"
    },
    {
      "inputs": [
        {
          "internalType": "address",
          "name": "recipient",
          "type": "address"
        },
        {
          "internalType": "uint256",
          "name": "amount",
          "type": "uint256"
        }
      ],
      "name": "transferTaxFree",
      "outputs": [
        {
          "internalType": "bool",
          "name": "",
          "type": "bool"
        }
      ],
      "stateMutability": "nonpayable",
      "type": "function"
    }
  ],
  "bytecode": "0x6080806040523461002a576000609a556a52b7d2dcc80cd2e4000000609b55612fc290816100308239f35b600080fdfe6080604052600436101561001257600080fd5b60003560e01c806306fdde0314611f9b578063095ea7b314611f755780631794bb3c1461195a57806318160ddd1461193c57806320606b701461190157806322f4596f146118db57806323b872dd146118325780632e5bb6ff14611779578063313ce5671461175d57806337e0faf614611661578063395093511461160f57806340870fb71461151c57806340c10f19146114eb57806341275358146114c457806342966c68146112e05780634b8b213b146111ea5780635342acb41461119957806357dd378e146110ad578063587cde1e146110725780635c19a95c1461105057806364f5a5bb14610f3d5780636ea405d314610f1f5780636fcfff4514610edf57806370a0823114610ea5578063715018a614610e51578063782d6fe114610e2a5780637d1db4a514610e0c5780637ecebe0014610dd25780638013f3a714610dab57806386a22eff14610cb25780638705fcd414610bce5780638da5cb5b14610ba757806395d89b4114610ac9578063a0712d6814610a61578063a327c45d14610a3a578063a457c2d714610992578063a9059cbb1461096c578063b4b5ea57146108f1578063c3cda52014610640578063d477f05f14610565578063dd62ed3e14610510578063dffc1a1114610494578063e5e31b1314610455578063e7a324dc1461041a578063f1127ed8146103b6578063f2fde38b1461031f5763fcc47e4c1461022157600080fd5b3461031a57602036600319011261031a5761023a612000565b6001600160a01b039081609c54163314801561030d575b61025a90612570565b1680600052609860205260ff604060002054166102b6576020817f7f0b8efde83eeca00ac3031b2e14129c0465973be74ead5f4d0c101ea7c10b5c92600052609882526040600020600160ff19825416179055604051908152a1005b60405162461bcd60e51b815260206004820152602960248201527f4163636f756e7420697320616c7265616479206578636c756465642046726f6d6044820152682073656e642046656560b81b6064820152608490fd5b50609d5482163314610251565b600080fd5b3461031a57602036600319011261031a57610338612000565b61034061204b565b61034861204b565b6001600160a01b0381161561036257610360906120a3565b005b60405162461bcd60e51b815260206004820152602660248201527f4f776e61626c653a206e6577206f776e657220697320746865207a65726f206160448201526564647265737360d01b6064820152608490fd5b3461031a57604036600319011261031a576103cf612000565b60243563ffffffff9081811680910361031a576001600160a01b036040931660005260a060205282600020906000526020526001826000209182541691015482519182526020820152f35b3461031a57600036600319011261031a5760206040517fe48329057bfd03d55e49b547132e39cffd9c1820ad7b9d4c5307691425d15adf8152f35b3461031a57602036600319011261031a576001600160a01b03610476612000565b166000526099602052602060ff604060002054166040519015158152f35b3461031a57604036600319011261031a576105056104b0612000565b602435903360005260996020526104ce60ff604060002054166125bc565b6104d9828233612617565b33600052609f6020526001600160a01b0380806040600020541692166000526040600020541690612cb8565b602060405160018152f35b3461031a57604036600319011261031a57610529612000565b602435906001600160a01b039081831680930361031a571660005260346020526040600020906000526020526020604060002054604051908152f35b3461031a57602036600319011261031a577f627687be3ad53902b3d8a5c0b74eb53d18bdf6e3935607db6f304be76a2b083360206105a1612000565b6001600160a01b0380609c5416331491828015610633575b6105c290612570565b16906105cf82151561237e565b1561061c57806001600160a01b0319609c541617609c555b8060005260978252604060002060ff1990600182825416179055609883526001604060002091825416179055604051908152a1005b806001600160a01b0319609d541617609d556105e7565b50609d54821633146105b9565b3461031a5760c036600319011261031a57610659612000565b6024908135604435906064359160ff831680930361031a5761067961219b565b9182516020809401209360405194848601907f8cad95687ba82c2ce50e74f7b754645e5117c3a5bec8151c0726d5857980a8668252604087015246606087015260809530878201528681526106cd8161215d565b519020604051958587017fe48329057bfd03d55e49b547132e39cffd9c1820ad7b9d4c5307691425d15adf81526001600160a01b0397888a16604082015285606082015286838201528281526107228161215d565b519020604051908782019361190160f01b855260228301526042820152604281528181019080821067ffffffffffffffff8311176108dc5787946000948360405282519020835260a082015260843560c082015260e060a43591015282805260015afa156108d057600051938416801561087e5760005260a283526040600020908154916000198314610869576001830190550361081b5742116107ca576103608383612bb2565b6084906025856040519262461bcd60e51b845260048401528201527f5a4b483a3a64656c656761746542795369673a207369676e61747572652065786044820152641c1a5c995960da1b6064820152fd5b60405162461bcd60e51b8152600481018390526021818701527f5a4b483a3a64656c656761746542795369673a20696e76616c6964206e6f6e636044820152606560f81b6064820152608490fd5b87634e487b7160e01b60005260116004526000fd5b60405162461bcd60e51b8152600481018590526025818901527f5a4b483a3a64656c656761746542795369673a20696e76616c6964207369676e604482015264617475726560d81b6064820152608490fd5b6040513d6000823e3d90fd5b8a634e487b7160e01b60005260416004526000fd5b3461031a57602036600319011261031a576001600160a01b03610912612000565b1660005260a160205263ffffffff8060406000205416908115156000146109615760a060205261094660406000209261299e565b1660005260205260206001604060002001545b604051908152f35b505060206000610959565b3461031a57604036600319011261031a57610505610988612000565b6024359033612821565b3461031a57604036600319011261031a576109ab612000565b6024359033600052603460205260406000206001600160a01b038216600052602052604060002054918083106109e7576105059203903361227c565b60405162461bcd60e51b815260206004820152602560248201527f45524332303a2064656372656173656420616c6c6f77616e63652062656c6f77604482015264207a65726f60d81b6064820152608490fd5b3461031a57600036600319011261031a5760206001600160a01b03609c5416604051908152f35b3461031a57602036600319011261031a57610505600435610a8061204b565b610aa2610a8f82603554612259565b6a52b7d2dcc80cd2e40000001015612480565b610aac81336124cc565b33600052609f6020526001600160a01b0360406000205416612c25565b3461031a57600036600319011261031a576040516000603754610aeb816120eb565b80845290600190818116908115610b805750600114610b25575b610b2184610b1581860382612179565b60405191829182611fb7565b0390f35b6037600090815292507f42a7b7dd785cd69714a189dffb3fd7d7174edc9ece837694ce50f7078f7c31ae5b828410610b68575050508101602001610b1582610b05565b80546020858701810191909152909301928101610b50565b60ff191660208087019190915292151560051b85019092019250610b159150839050610b05565b3461031a57600036600319011261031a5760206001600160a01b0360655416604051908152f35b3461031a57602036600319011261031a57610be7612000565b6001600160a01b039081609c541633148015610ca5575b610c0790612570565b168015610c4d576020817f446e39bcf1b47cfadfaa23442cb4b34682cfe6bd9220da084894e3b1f834e4f3926001600160a01b0319609e541617609e55604051908152a1005b60405162461bcd60e51b815260206004820152602a60248201527f5a4b483a20466565416464726573732063616e6e6f7420626520746865207a65604482015269726f206164647265737360b01b6064820152608490fd5b50609d5482163314610bfe565b3461031a57604036600319011261031a57610ccb612000565b6024359081151580920361031a576001600160a01b039081609c541633148015610d9e575b610cf990612570565b16908115610d4d57816040917ff40a563af144a84735f7f6c7c3029794b0ac17713e5f048d3fd00ed85aa4ca7a9360005260996020528260002060ff1981541660ff831617905582519182526020820152a1005b60405162461bcd60e51b8152602060048201526024808201527f5a4b483a20506169722063616e6e6f7420626520746865207a65726f206164646044820152637265737360e01b6064820152608490fd5b50609d5482163314610cf0565b3461031a57600036600319011261031a5760206001600160a01b03609d5416604051908152f35b3461031a57602036600319011261031a576001600160a01b03610df3612000565b1660005260a26020526020604060002054604051908152f35b3461031a57600036600319011261031a576020609b54604051908152f35b3461031a57604036600319011261031a576020610959610e48612000565b602435906129ca565b3461031a57600036600319011261031a57610e6a61204b565b60006001600160a01b0360655481198116606555167f8be0079c531659141344cd1fd0a4f28419497f9722a3daafe3b4186f6b6457e08280a3005b3461031a57602036600319011261031a576001600160a01b03610ec6612000565b1660005260336020526020604060002054604051908152f35b3461031a57602036600319011261031a576001600160a01b03610f00612000565b1660005260a1602052602063ffffffff60406000205416604051908152f35b3461031a57600036600319011261031a576020609a54604051908152f35b3461031a57602036600319011261031a57600435610f716001600160a01b0380609c54163314908115611042575b50612570565b69021e19e0c9bab24000008110610fed576a52b7d2dcc80cd2e40000008111610f9957609b55005b60405162461bcd60e51b815260206004820152602660248201527f4572726f72203a204d6178696d756d206d617854784c696d69742069732031306044820152650609a40b496960d31b6064820152608490fd5b60405162461bcd60e51b815260206004820152602760248201527f4572726f72203a204d696e696d756d206d617854784c696d6974206973203130604482015266060606040b496960cb1b6064820152608490fd5b9050609d5416331483610f6b565b3461031a57602036600319011261031a5761036061106c612000565b33612bb2565b3461031a57602036600319011261031a5760206001600160a01b0380611096612000565b16600052609f825260406000205416604051908152f35b3461031a576111906110be36612016565b9092919233600052602093609985526110de60ff604060002054166125bc565b6110e9838383612617565b6001600160a01b039061116e82821691826000526034885260406000203360005288528560406000205461116560405161112281612141565b602881527f45524332303a207472616e7366657220616d6f756e74206578636565647320618c820152676c6c6f77616e636560c01b604082015282841115612787565b0390339061227c565b600052609f855280806040600020541692166000526040600020541690612cb8565b60405160018152f35b3461031a57602036600319011261031a576001600160a01b036111ba612000565b166000526097602052604060ff816000205416609860205260ff8260002054168251911515825215156020820152f35b3461031a57602036600319011261031a57611203612000565b6001600160a01b039081609c5416331480156112d3575b61122390612570565b1680600052609760205260ff604060002054161561127d576020817f9db16c250625b904101348d5780d97f1b70e55f4301906a99ca7bbac310bbbdd9260005260978252604060002060ff198154169055604051908152a1005b60405162461bcd60e51b815260206004820152602860248201527f4163636f756e74206973206e6f74206578636c756465642046726f6d20726563604482015267656976652046656560c01b6064820152608490fd5b50609d548216331461121a565b3461031a5760208060031936011261031a576004359033156114765733600052603381526040600020549180831061142657807fb90306ad06b2a6ff86ddc9327db583062895ef6540e62dc50add009db5b356eb93336000526033845203604060002055806035540360355560006040518281527fddf252ad1be2c89b69c2b068fc378daa952ba7f163c4a11628f55a4df523b3ef843392a333600052609f82526001600160a01b036040600020541680151580809161141d575b6113ab575b5050604051908152a1005b6113b6575b806113a0565b8061140e9160005260a1845263ffffffff8060406000205416908115156000146114145760a086526040600020906113ed8361299e565b166000528552600160406000200154905b6114088583612991565b92612da0565b836113b0565b506000906113fe565b5082151561139b565b60405162461bcd60e51b815260048101839052602260248201527f45524332303a206275726e20616d6f756e7420657863656564732062616c616e604482015261636560f01b6064820152608490fd5b6084906040519062461bcd60e51b82526004820152602160248201527f45524332303a206275726e2066726f6d20746865207a65726f206164647265736044820152607360f81b6064820152fd5b3461031a57600036600319011261031a5760206001600160a01b03609e5416604051908152f35b3461031a57604036600319011261031a576020611512611509612000565b60243590612436565b6040519015158152f35b3461031a57602036600319011261031a57611535612000565b6001600160a01b039081609c541633148015611602575b61155590612570565b1680600052609860205260ff60406000205416156115af576020817faf9521889fed691cbd77287618beaa8b03b8b799c6e0f38bafba33b760b3ee789260005260988252604060002060ff198154169055604051908152a1005b60405162461bcd60e51b815260206004820152602560248201527f4163636f756e74206973206e6f74206578636c756465642046726f6d2073656e604482015264642046656560d81b6064820152608490fd5b50609d548216331461154c565b3461031a57604036600319011261031a5761050561162b612000565b33600052603460205260406000206001600160a01b03821660005260205261165a602435604060002054612259565b903361227c565b3461031a57602036600319011261031a5761167a612000565b6001600160a01b039081609c541633148015611750575b61169a90612570565b1680600052609760205260ff604060002054166116f6576020817f80bf78a1af37a49b632b4235cc8e5903e86ec0fec4ed5cb6785e86c13cbec2e992600052609782526040600020600160ff19825416179055604051908152a1005b60405162461bcd60e51b815260206004820152602c60248201527f4163636f756e7420697320616c7265616479206578636c756465642046726f6d60448201526b20726563656976652046656560a01b6064820152608490fd5b50609d5482163314611691565b3461031a57600036600319011261031a57602060405160128152f35b3461031a57602036600319011261031a576004356117ac6001600160a01b0380609c541633149081156110425750612570565b605081116117ed5760407fb841faf0d1b32571f4ef966a2f35e3ae51f3cdda45318c3da5570a5b2ad8560591609a549080609a5582519182526020820152a1005b60405162461bcd60e51b815260206004820152601460248201527f4572726f72203a204d61785461782069732038250000000000000000000000006044820152606490fd5b3461031a5761184036612016565b906001600160a01b038316600052603460205260406000203360005260205260406000205492600019840361187a575b6105059350612821565b82841061189657611891836105059503338361227c565b611870565b60405162461bcd60e51b815260206004820152601d60248201527f45524332303a20696e73756666696369656e7420616c6c6f77616e63650000006044820152606490fd5b3461031a57600036600319011261031a5760206040516a52b7d2dcc80cd2e40000008152f35b3461031a57600036600319011261031a5760206040517f8cad95687ba82c2ce50e74f7b754645e5117c3a5bec8151c0726d5857980a8668152f35b3461031a57600036600319011261031a576020603554604051908152f35b3461031a5761196836612016565b91906000549260ff8460081c161593848095611f68575b8015611f51575b15611ef55760ff19811660011760005584611ee3575b506040516119a981612125565b60098152681e9ad2185c9d995cdd60ba1b6020820152604051906119cc82612125565b60038252620b496960eb1b60208301526119f660ff60005460081c166119f1816123d6565b6123d6565b80519067ffffffffffffffff8211611d8e578190611a156036546120eb565b601f8111611e39575b50602090601f8311600114611daf57600092611da4575b50508160011b916000199060031b1c1916176036555b80519067ffffffffffffffff8211611d8e578190611a6a6037546120eb565b601f8111611ce1575b50602090601f8311600114611c5b57600092611c50575b50508160011b916000199060031b1c1916176037555b611ab560ff60005460081c166119f1816123d6565b611abe336120a3565b6001600160a01b038080941692611ad684151561237e565b16918215611bf857611afb6001600160a01b0319923384609c541617609c5533612436565b5081609d541617609d55609e541617609e5580609c541660005260976020526040600020600160ff1982541617905580609c541660005260986020526040600020600160ff1982541617905580609d541660005260976020526040600020600160ff1982541617905580609d541660005260986020526040600020600160ff1982541617905580609e541660005260976020526040600020600160ff19825416179055609e541660005260986020526040600020600160ff19825416179055611bc057005b61ff0019600054166000557f7f26b83ff96e1f2b6a682f133852f6798a09c465da95921460cefb3847402498602060405160018152a1005b60405162461bcd60e51b815260206004820152602a60248201527f5a4b483a20666565416464726573732063616e6e6f7420626520746865207a65604482015269726f206164647265737360b01b6064820152608490fd5b015190508680611a8a565b603760009081527f42a7b7dd785cd69714a189dffb3fd7d7174edc9ece837694ce50f7078f7c31ae9350601f198516905b818110611cc95750908460019594939210611cb0575b505050811b01603755611aa0565b015160001960f88460031b161c19169055868080611ca2565b92936020600181928786015181550195019301611c8c565b9091506037600052601f830160051c7f42a7b7dd785cd69714a189dffb3fd7d7174edc9ece837694ce50f7078f7c31ae019060208410611d66575b90601f8493920160051c7f42a7b7dd785cd69714a189dffb3fd7d7174edc9ece837694ce50f7078f7c31ae01905b818110611d575750611a73565b60008155849350600101611d4a565b7f42a7b7dd785cd69714a189dffb3fd7d7174edc9ece837694ce50f7078f7c31ae9150611d1c565b634e487b7160e01b600052604160045260246000fd5b015190508780611a35565b925060366000527f4a11f94e20a93c79f6ec743a1954ec4fc2c08429ae2122118bf234b2185c81b8906000935b601f1984168510611e1e576001945083601f19811610611e05575b505050811b01603655611a4b565b015160001960f88460031b161c19169055878080611df7565b81810151835560209485019460019093019290910190611ddc565b9091506036600052601f830160051c7f4a11f94e20a93c79f6ec743a1954ec4fc2c08429ae2122118bf234b2185c81b80160208410611ebc575b908392915b601f820160051c7f4a11f94e20a93c79f6ec743a1954ec4fc2c08429ae2122118bf234b2185c81b8018110611ead5750611a1e565b60008155849350600101611e78565b507f4a11f94e20a93c79f6ec743a1954ec4fc2c08429ae2122118bf234b2185c81b8611e73565b61ffff1916610101176000558461199c565b60405162461bcd60e51b815260206004820152602e60248201527f496e697469616c697a61626c653a20636f6e747261637420697320616c72656160448201526d191e481a5b9a5d1a585b1a5e995960921b6064820152608490fd5b50303b1580156119865750600160ff821614611986565b50600160ff82161061197f565b3461031a57604036600319011261031a57610505611f91612000565b602435903361227c565b3461031a57600036600319011261031a57610b21610b1561219b565b6020808252825181830181905290939260005b828110611fec57505060409293506000838284010152601f8019910116010190565b818101860151848201604001528501611fca565b600435906001600160a01b038216820361031a57565b606090600319011261031a576001600160a01b0390600435828116810361031a5791602435908116810361031a579060443590565b6001600160a01b0360655416330361205f57565b606460405162461bcd60e51b815260206004820152602060248201527f4f776e61626c653a2063616c6c6572206973206e6f7420746865206f776e65726044820152fd5b606554906001600160a01b0380911691826001600160a01b0319821617606555167f8be0079c531659141344cd1fd0a4f28419497f9722a3daafe3b4186f6b6457e0600080a3565b90600182811c9216801561211b575b602083101461210557565b634e487b7160e01b600052602260045260246000fd5b91607f16916120fa565b6040810190811067ffffffffffffffff821117611d8e57604052565b6060810190811067ffffffffffffffff821117611d8e57604052565b60a0810190811067ffffffffffffffff821117611d8e57604052565b90601f8019910116810190811067ffffffffffffffff821117611d8e57604052565b60405190600082603654916121af836120eb565b8083529260019081811690811561223757506001146121d8575b506121d692500383612179565b565b6036600090815291507f4a11f94e20a93c79f6ec743a1954ec4fc2c08429ae2122118bf234b2185c81b85b84831061221c57506121d69350508101602001386121c9565b81935090816020925483858a01015201910190918592612203565b9050602092506121d694915060ff191682840152151560051b820101386121c9565b9190820180921161226657565b634e487b7160e01b600052601160045260246000fd5b6001600160a01b0380911691821561232d57169182156122dd5760207f8c5be1e5ebec7d5bd14f71427d1e84f3dd0314c0f7b2291e5b200ac8c7c3b925918360005260348252604060002085600052825280604060002055604051908152a3565b60405162461bcd60e51b815260206004820152602260248201527f45524332303a20617070726f766520746f20746865207a65726f206164647265604482015261737360f01b6064820152608490fd5b60405162461bcd60e51b8152602060048201526024808201527f45524332303a20617070726f76652066726f6d20746865207a65726f206164646044820152637265737360e01b6064820152608490fd5b1561238557565b60405162461bcd60e51b815260206004820152602360248201527f5a4b483a206465762063616e6e6f7420626520746865207a65726f206164647260448201526265737360e81b6064820152608490fd5b156123dd57565b60405162461bcd60e51b815260206004820152602b60248201527f496e697469616c697a61626c653a20636f6e7472616374206973206e6f74206960448201526a6e697469616c697a696e6760a81b6064820152608490fd5b9061247b9161244361204b565b612452610a8f83603554612259565b61245c82826124cc565b6001600160a01b03809116600052609f60205260406000205416612c25565b600190565b1561248757565b60405162461bcd60e51b815260206004820152601c60248201527f4572726f72203a20546f74616c20537570706c792052656163686564000000006044820152606490fd5b6001600160a01b031690811561252b577fddf252ad1be2c89b69c2b068fc378daa952ba7f163c4a11628f55a4df523b3ef60208261250e600094603554612259565b6035558484526033825260408420818154019055604051908152a3565b60405162461bcd60e51b815260206004820152601f60248201527f45524332303a206d696e7420746f20746865207a65726f2061646472657373006044820152606490fd5b1561257757565b60405162461bcd60e51b815260206004820152601a60248201527f4572726f723a20446576656c6f706572205265717569726564210000000000006044820152606490fd5b156125c357565b60405162461bcd60e51b815260206004820152602660248201527f5a4b483a204f6e6c79207a6b4861727665737420526f75746572206f72205a4b60448201526524103830b4b960d11b6064820152608490fd5b6001600160a01b0380911691821561273457169182156126e3576000828152603360205260408120549180831061268f57604082827fddf252ad1be2c89b69c2b068fc378daa952ba7f163c4a11628f55a4df523b3ef95876020965260338652038282205586815220818154019055604051908152a3565b60405162461bcd60e51b815260206004820152602660248201527f45524332303a207472616e7366657220616d6f756e7420657863656564732062604482015265616c616e636560d01b6064820152608490fd5b60405162461bcd60e51b815260206004820152602360248201527f45524332303a207472616e7366657220746f20746865207a65726f206164647260448201526265737360e81b6064820152608490fd5b60405162461bcd60e51b815260206004820152602560248201527f45524332303a207472616e736665722066726f6d20746865207a65726f206164604482015264647265737360d81b6064820152608490fd5b1561278f5750565b60405162461bcd60e51b81529081906127ab9060048301611fb7565b0390fd5b156127b657565b60405162461bcd60e51b815260206004820152603160248201527f5a4b48205472616e736665723a205472616e7366657220616d6f756e7420697360448201527f2061626f766520746865206c696d6974210000000000000000000000000000006064820152608490fd5b9291906001600160a01b038085169460008681526020966098885260409260ff8484205416801561297b575b1561287c5797609f9161286588886121d69b9c612617565b835252828083832054169416815220541690612cb8565b609a54806128a6575097609f9161286588886121d69b9c6128a1609b548411156127af565b612617565b6128b4609b548911156127af565b808802908882041488151715612967576103e890046128d38189612991565b976128de828a612259565b03612923579161286588886121d69b9c946128a187612904609f998d609e541685612617565b868a528888528b8b8b2054168c609e54168b528c8c8c20541690612cb8565b845162461bcd60e51b8152600481018b9052601f60248201527f5a4b48205472616e736665723a204665652076616c756520696e76616c6964006044820152606490fd5b634e487b7160e01b84526011600452602484fd5b5084861683526097895260ff848420541661284d565b9190820391821161226657565b63ffffffff908116600019019190821161226657565b63ffffffff918216908216039190821161226657565b43821015612b5e576001600160a01b0316600081815260209160a1835263ffffffff92604093808585205416928315612b545760a09081845286862083612a108761299e565b1687528452878388882054161115612b365780865281845286862086805284528783888820541611612b2b57612a46869561299e565b83861684821611612a6857506001975085528252848420921683525220015490565b93929190612a7a8686999897996129b4565b97612a8f637fffffff60019a8b1c16876129b4565b90818389528487528989208682168a5287528989209a8a519b8b8d018d811067ffffffffffffffff821117612b17578c5280548816808e529101549b88019b8c528c8103612ae857505050505050505050505090505190565b8c9192939495969798999a9b5010600014612b0557505094612a46565b909650612b12915061299e565b612a46565b634e487b7160e01b8c52604160045260248cfd5b505050505091505090565b6001975085528252612b4a8585209361299e565b1683525220015490565b5050505091505090565b60405162461bcd60e51b815260206004820152602660248201527f5a4b483a3a6765745072696f72566f7465733a206e6f742079657420646574656044820152651c9b5a5b995960d21b6064820152608490fd5b6121d6916001600160a01b03809216600092818452609f60205280604085205416809260336020527f3134e8a2e6d97e929a7e54011ea5485d7d196dd5f0ba4d4ef95803e8e3fc257f604087205496609f6020526040812094871694856001600160a01b031982541617905580a4612cb8565b6001600160a01b038116918215158080612caf575b612c45575b50505050565b612c50575b80612c3f565b600092835260a16020526040832054612ca09363ffffffff9182169161140891908315612ca85760019160409160a060205282822090612c8f8761299e565b168252602052200154925b83612259565b388080612c4a565b5092612c9a565b50811515612c3a565b916001600160a01b0392838316938116908482141580612d97575b612cdf575b5050505050565b81612d3b575b505082612cf4575b8080612cd8565b600092835260a16020526040832054612d339363ffffffff9182169161140891908315612ca85760019160409160a060205282822090612c8f8761299e565b388080612ced565b600091825260a16020526040822054612d899263ffffffff918216918215612d905760019160409160a060205282822090612d758661299e565b168252602052200154906114088583612991565b3880612ce5565b50906113fe565b50821515612cd3565b909192604092835190612db282612141565b60338252612e136020927f5a4b483a3a5f7772697465436865636b706f696e743a20626c6f636b206e756d848201527f6265722065786365656473203332206269747300000000000000000000000000878201526401000000004310612787565b63ffffffff81811643821681151580612f58575b15612e91575050916001600160a01b0393918593857fdec2bacdd2f05b59de34da9b523dff8be42e5e38e818c82fdb0bae774387a72498971660005260a08352612e74876000209261299e565b1660005281528160018660002001555b84519687528601521692a2565b9190925086519187830183811067ffffffffffffffff821117611d8e57885282528382019185835260016001600160a01b0388169460009286845260a088528a8420828552885282858c86209251169663ffffffff199788845416178355519101550193828511612f44579188826001600160a01b039896947fdec2bacdd2f05b59de34da9b523dff8be42e5e38e818c82fdb0bae774387a7249b9a9896945260a1865220921690825416179055612e84565b634e487b7160e01b82526011600452602482fd5b506001600160a01b03871660005260a085528760002083612f788661299e565b166000528552808389600020541614612e2756fea2646970667358221220ebd2d898cf489db7f2ccc154a644ffb5f4527d1b2ac434e6583da4681a00a55264736f6c63430008110033",
  "linkReferences": {},
  "deployedLinkReferences": {}
}