{
  "_format": "hh-sol-artifact-1",
  "contractName": "ZkHarvestToken",
  "sourceName": "contracts/old/ZkHarvestToken.sol",
  "abi": [
    {
      "inputs": [],
      "stateMutability": "nonpayable",
      "type": "constructor"
    },
    {
      "anonymous": false,
      "inputs": [
        {
          "indexed": true,
          "internalType": "address",
          "name": "owner",
          "type": "address"
        },
        {
          "indexed": true,
          "internalType": "address",
          "name": "spender",
          "type": "address"
        },
        {
          "indexed": false,
          "internalType": "uint256",
          "name": "value",
          "type": "uint256"
        }
      ],
      "name": "Approval",
      "type": "event"
    },
    {
      "anonymous": false,
      "inputs": [
        {
          "indexed": true,
          "internalType": "address",
          "name": "from",
          "type": "address"
        },
        {
          "indexed": false,
          "internalType": "uint256",
          "name": "value",
          "type": "uint256"
        }
      ],
      "name": "Burn",
      "type": "event"
    },
    {
      "anonymous": false,
      "inputs": [
        {
          "indexed": true,
          "internalType": "address",
          "name": "previousOwner",
          "type": "address"
        },
        {
          "indexed": true,
          "internalType": "address",
          "name": "newOwner",
          "type": "address"
        }
      ],
      "name": "OwnershipTransferred",
      "type": "event"
    },
    {
      "anonymous": false,
      "inputs": [
        {
          "indexed": true,
          "internalType": "address",
          "name": "from",
          "type": "address"
        },
        {
          "indexed": true,
          "internalType": "address",
          "name": "to",
          "type": "address"
        },
        {
          "indexed": false,
          "internalType": "uint256",
          "name": "value",
          "type": "uint256"
        }
      ],
      "name": "Transfer",
      "type": "event"
    },
    {
      "inputs": [
        {
          "internalType": "address",
          "name": "owner",
          "type": "address"
        },
        {
          "internalType": "address",
          "name": "spender",
          "type": "address"
        }
      ],
      "name": "allowance",
      "outputs": [
        {
          "internalType": "uint256",
          "name": "",
          "type": "uint256"
        }
      ],
      "stateMutability": "view",
      "type": "function"
    },
    {
      "inputs": [
        {
          "internalType": "address",
          "name": "spender",
          "type": "address"
        },
        {
          "internalType": "uint256",
          "name": "amount",
          "type": "uint256"
        }
      ],
      "name": "approve",
      "outputs": [
        {
          "internalType": "bool",
          "name": "",
          "type": "bool"
        }
      ],
      "stateMutability": "nonpayable",
      "type": "function"
    },
    {
      "inputs": [
        {
          "internalType": "address",
          "name": "account",
          "type": "address"
        }
      ],
      "name": "balanceOf",
      "outputs": [
        {
          "internalType": "uint256",
          "name": "",
          "type": "uint256"
        }
      ],
      "stateMutability": "view",
      "type": "function"
    },
    {
      "inputs": [
        {
          "internalType": "uint256",
          "name": "_amount",
          "type": "uint256"
        }
      ],
      "name": "burn",
      "outputs": [],
      "stateMutability": "nonpayable",
      "type": "function"
    },
    {
      "inputs": [],
      "name": "decimals",
      "outputs": [
        {
          "internalType": "uint8",
          "name": "",
          "type": "uint8"
        }
      ],
      "stateMutability": "view",
      "type": "function"
    },
    {
      "inputs": [
        {
          "internalType": "address",
          "name": "spender",
          "type": "address"
        },
        {
          "internalType": "uint256",
          "name": "subtractedValue",
          "type": "uint256"
        }
      ],
      "name": "decreaseAllowance",
      "outputs": [
        {
          "internalType": "bool",
          "name": "",
          "type": "bool"
        }
      ],
      "stateMutability": "nonpayable",
      "type": "function"
    },
    {
      "inputs": [
        {
          "internalType": "address",
          "name": "spender",
          "type": "address"
        },
        {
          "internalType": "uint256",
          "name": "addedValue",
          "type": "uint256"
        }
      ],
      "name": "increaseAllowance",
      "outputs": [
        {
          "internalType": "bool",
          "name": "",
          "type": "bool"
        }
      ],
      "stateMutability": "nonpayable",
      "type": "function"
    },
    {
      "inputs": [],
      "name": "maxSupply",
      "outputs": [
        {
          "internalType": "uint256",
          "name": "",
          "type": "uint256"
        }
      ],
      "stateMutability": "view",
      "type": "function"
    },
    {
      "inputs": [
        {
          "internalType": "address",
          "name": "_to",
          "type": "address"
        },
        {
          "internalType": "uint256",
          "name": "_amount",
          "type": "uint256"
        }
      ],
      "name": "mint",
      "outputs": [],
      "stateMutability": "nonpayable",
      "type": "function"
    },
    {
      "inputs": [],
      "name": "name",
      "outputs": [
        {
          "internalType": "string",
          "name": "",
          "type": "string"
        }
      ],
      "stateMutability": "view",
      "type": "function"
    },
    {
      "inputs": [],
      "name": "owner",
      "outputs": [
        {
          "internalType": "address",
          "name": "",
          "type": "address"
        }
      ],
      "stateMutability": "view",
      "type": "function"
    },
    {
      "inputs": [],
      "name": "renounceOwnership",
      "outputs": [],
      "stateMutability": "nonpayable",
      "type": "function"
    },
    {
      "inputs": [],
      "name": "symbol",
      "outputs": [
        {
          "internalType": "string",
          "name": "",
          "type": "string"
        }
      ],
      "stateMutability": "view",
      "type": "function"
    },
    {
      "inputs": [],
      "name": "totalMinted",
      "outputs": [
        {
          "internalType": "uint256",
          "name": "",
          "type": "uint256"
        }
      ],
      "stateMutability": "view",
      "type": "function"
    },
    {
      "inputs": [],
      "name": "totalSupply",
      "outputs": [
        {
          "internalType": "uint256",
          "name": "",
          "type": "uint256"
        }
      ],
      "stateMutability": "view",
      "type": "function"
    },
    {
      "inputs": [
        {
          "internalType": "address",
          "name": "to",
          "type": "address"
        },
        {
          "internalType": "uint256",
          "name": "amount",
          "type": "uint256"
        }
      ],
      "name": "transfer",
      "outputs": [
        {
          "internalType": "bool",
          "name": "",
          "type": "bool"
        }
      ],
      "stateMutability": "nonpayable",
      "type": "function"
    },
    {
      "inputs": [
        {
          "internalType": "address",
          "name": "from",
          "type": "address"
        },
        {
          "internalType": "address",
          "name": "to",
          "type": "address"
        },
        {
          "internalType": "uint256",
          "name": "amount",
          "type": "uint256"
        }
      ],
      "name": "transferFrom",
      "outputs": [
        {
          "internalType": "bool",
          "name": "",
          "type": "bool"
        }
      ],
      "stateMutability": "nonpayable",
      "type": "function"
    },
    {
      "inputs": [
        {
          "internalType": "address",
          "name": "newOwner",
          "type": "address"
        }
      ],
      "name": "transferOwnership",
      "outputs": [],
      "stateMutability": "nonpayable",
      "type": "function"
    }
  ],
  "bytecode": "0x6080346200040c576040906001600160401b0390808301828111828210176200030c578352600a815260209069169acb52185c9d995cdd60b21b82820152835190848201828110858211176200030c578552600393848352620b496960eb1b848401528151948186116200030c578054956001938488811c9816801562000401575b87891014620003eb578190601f9889811162000395575b5087908983116001146200032e5760009262000322575b505060001982841b1c191690841b1781555b83519182116200030c5760049384548481811c9116801562000301575b87821014620002ec57878111620002a1575b50859087841160011462000236579383949184926000956200022a575b50501b92600019911b1c19161781555b60058054336001600160a01b0319821681179092556001600160a01b03167f8be0079c531659141344cd1fd0a4f28419497f9722a3daafe3b4186f6b6457e0600080a36a36980b2b50d5438200000092836006553315620001eb575060025490838201809211620001d657506000917fddf252ad1be2c89b69c2b068fc378daa952ba7f163c4a11628f55a4df523b3ef9160025533835282815284832084815401905584519384523393a351610d6c9081620004128239f35b601190634e487b7160e01b6000525260246000fd5b60649285519262461bcd60e51b845283015260248201527f45524332303a206d696e7420746f20746865207a65726f2061646472657373006044820152fd5b0151935038806200010d565b9190601f198416928660005284886000209460005b8a898383106200028957505050106200026e575b50505050811b0181556200011d565b01519060f884600019921b161c19169055388080806200025f565b8686015189559097019694850194889350016200024b565b85600052866000208880860160051c820192898710620002e2575b0160051c019085905b828110620002d5575050620000f0565b60008155018590620002c5565b92508192620002bc565b602286634e487b7160e01b6000525260246000fd5b90607f1690620000de565b634e487b7160e01b600052604160045260246000fd5b015190503880620000af565b90869350601f1983169185600052896000209260005b8b8282106200037e575050841162000365575b505050811b018155620000c1565b015160001983861b60f8161c1916905538808062000357565b8385015186558a9790950194938401930162000344565b90915083600052876000208980850160051c8201928a8610620003e1575b918891869594930160051c01915b828110620003d157505062000098565b60008155859450889101620003c1565b92508192620003b3565b634e487b7160e01b600052602260045260246000fd5b97607f169762000081565b600080fdfe6080604081815260048036101561001557600080fd5b600092833560e01c90816306fdde03146108dc57508063095ea7b3146108b257806318160ddd1461089357806323b872dd146107c8578063313ce567146107ac578063395093511461075d57806340c10f191461062857806342966c68146104ed57806370a08231146104b7578063715018a6146104635780638da5cb5b1461043b57806395d89b411461031b578063a2309ff8146102fc578063a457c2d714610254578063a9059cbb14610223578063d5abeb01146101fd578063dd62ed3e146101b05763f2fde38b146100e957600080fd5b346101ac5760203660031901126101ac57610102610a1a565b9061010b610a4b565b6001600160a01b0380921692831561015a575050600554826001600160a01b0319821617600555167f8be0079c531659141344cd1fd0a4f28419497f9722a3daafe3b4186f6b6457e08380a380f35b906020608492519162461bcd60e51b8352820152602660248201527f4f776e61626c653a206e6577206f776e657220697320746865207a65726f206160448201526564647265737360d01b6064820152fd5b8280fd5b5050346101f957806003193601126101f957806020926101ce610a1a565b6101d6610a35565b6001600160a01b0391821683526001865283832091168252845220549051908152f35b5080fd5b5050346101f957816003193601126101f957602090516a52b7d2dcc80cd2e40000008152f35b5050346101f957806003193601126101f95760209061024d610243610a1a565b6024359033610ac6565b5160018152f35b5082346102f957826003193601126102f95761026e610a1a565b91836024359233815260016020528181206001600160a01b03861682526020522054908282106102a85760208561024d8585038733610c34565b608490602086519162461bcd60e51b8352820152602560248201527f45524332303a2064656372656173656420616c6c6f77616e63652062656c6f77604482015264207a65726f60d81b6064820152fd5b80fd5b5050346101f957816003193601126101f9576020906006549051908152f35b509190346101f957816003193601126101f957805190828454600181811c90808316928315610431575b602093848410811461041e5783885290811561040257506001146103ad575b505050829003601f01601f191682019267ffffffffffffffff84118385101761039a57508291826103969252826109d1565b0390f35b634e487b7160e01b815260418552602490fd5b8787529192508591837f8a35acfbc15ff81a39ae7d344fd709f28e8600b4aa8c65c6b64bfe7fe36bd19b5b8385106103ee5750505050830101388080610364565b8054888601830152930192849082016103d8565b60ff1916878501525050151560051b8401019050388080610364565b634e487b7160e01b895260228a52602489fd5b91607f1691610345565b5050346101f957816003193601126101f9576020906001600160a01b03600554169051908152f35b83346102f957806003193601126102f95761047c610a4b565b806001600160a01b0360055481198116600555167f8be0079c531659141344cd1fd0a4f28419497f9722a3daafe3b4186f6b6457e08280a380f35b5050346101f95760203660031901126101f957806020926001600160a01b036104de610a1a565b16815280845220549051908152f35b5090346101ac57602090816003193601126106245782359233156105d957338552848352818520549084821061058b575090837fcc16f5dbb4873280815c1ee09dbd06736cffcc184412cf7a71a0fdb75d397ca59392338752868452038186205583600254036002558481518581527fddf252ad1be2c89b69c2b068fc378daa952ba7f163c4a11628f55a4df523b3ef843392a3519283523392a280f35b825162461bcd60e51b8152908101849052602260248201527f45524332303a206275726e20616d6f756e7420657863656564732062616c616e604482015261636560f01b6064820152608490fd5b82608492519162461bcd60e51b8352820152602160248201527f45524332303a206275726e2066726f6d20746865207a65726f206164647265736044820152607360f81b6064820152fd5b8380fd5b5090346101ac57806003193601126101ac57610642610a1a565b906024359161064f610a4b565b6006546a52b7d2dcc80cd2e40000006106688286610aa3565b1161071a5790610680846001600160a01b0393610aa3565b600655169283156106d857506020827fddf252ad1be2c89b69c2b068fc378daa952ba7f163c4a11628f55a4df523b3ef926106be8795600254610aa3565b60025585855284835280852082815401905551908152a380f35b6020606492519162461bcd60e51b8352820152601f60248201527f45524332303a206d696e7420746f20746865207a65726f2061646472657373006044820152fd5b825162461bcd60e51b8152602081870152601260248201527f5a4b483a206d6178537570706c792068697400000000000000000000000000006044820152606490fd5b5050346101f957806003193601126101f95761024d6020926107a5610780610a1a565b91338152600186528481206001600160a01b0384168252865284602435912054610aa3565b9033610c34565b5050346101f957816003193601126101f9576020905160128152f35b508290346101f95760603660031901126101f9576107e4610a1a565b6107ec610a35565b9184604435946001600160a01b038416815260016020528181203382526020522054906000198203610827575b60208661024d878787610ac6565b84821061085057509183916108456020969561024d95033383610c34565b919394819350610819565b606490602087519162461bcd60e51b8352820152601d60248201527f45524332303a20696e73756666696369656e7420616c6c6f77616e63650000006044820152fd5b5050346101f957816003193601126101f9576020906002549051908152f35b5050346101f957806003193601126101f95760209061024d6108d2610a1a565b6024359033610c34565b84915083346101ac57826003193601126101ac5782600354600181811c908083169283156109c7575b602093848410811461041e578388529081156109ab575060011461095557505050829003601f01601f191682019267ffffffffffffffff84118385101761039a57508291826103969252826109d1565b600387529192508591837fc2575a0e9e593c00f959f8c92f12db2869c3395a3b0502d05e2516446f71f85b5b8385106109975750505050830101858080610364565b805488860183015293019284908201610981565b60ff1916878501525050151560051b8401019050858080610364565b91607f1691610905565b6020808252825181830181905290939260005b828110610a0657505060409293506000838284010152601f8019910116010190565b8181018601518482016040015285016109e4565b600435906001600160a01b0382168203610a3057565b600080fd5b602435906001600160a01b0382168203610a3057565b6001600160a01b03600554163303610a5f57565b606460405162461bcd60e51b815260206004820152602060248201527f4f776e61626c653a2063616c6c6572206973206e6f7420746865206f776e65726044820152fd5b91908201809211610ab057565b634e487b7160e01b600052601160045260246000fd5b6001600160a01b03809116918215610be15716918215610b9057600082815280602052604081205491808310610b3c57604082827fddf252ad1be2c89b69c2b068fc378daa952ba7f163c4a11628f55a4df523b3ef958760209652828652038282205586815220818154019055604051908152a3565b60405162461bcd60e51b815260206004820152602660248201527f45524332303a207472616e7366657220616d6f756e7420657863656564732062604482015265616c616e636560d01b6064820152608490fd5b60405162461bcd60e51b815260206004820152602360248201527f45524332303a207472616e7366657220746f20746865207a65726f206164647260448201526265737360e81b6064820152608490fd5b60405162461bcd60e51b815260206004820152602560248201527f45524332303a207472616e736665722066726f6d20746865207a65726f206164604482015264647265737360d81b6064820152608490fd5b6001600160a01b03809116918215610ce55716918215610c955760207f8c5be1e5ebec7d5bd14f71427d1e84f3dd0314c0f7b2291e5b200ac8c7c3b925918360005260018252604060002085600052825280604060002055604051908152a3565b60405162461bcd60e51b815260206004820152602260248201527f45524332303a20617070726f766520746f20746865207a65726f206164647265604482015261737360f01b6064820152608490fd5b60405162461bcd60e51b8152602060048201526024808201527f45524332303a20617070726f76652066726f6d20746865207a65726f206164646044820152637265737360e01b6064820152608490fdfea2646970667358221220ceac3ecf79bbde8f604a81ab78a159d9a9f09075acbe604bc079d015dd454af664736f6c63430008110033",
  "linkReferences": {},
  "deployedLinkReferences": {}
}