{
  "_format": "hh-sol-artifact-1",
  "contractName": "ZkHarvestIFO",
  "sourceName": "contracts/old/ZkHarvestIFO.sol",
  "abi": [
    {
      "inputs": [
        {
          "internalType": "contract ZkHarvestToken",
          "name": "_token",
          "type": "address"
        },
        {
          "internalType": "address payable",
          "name": "_team",
          "type": "address"
        }
      ],
      "stateMutability": "nonpayable",
      "type": "constructor"
    },
    {
      "anonymous": false,
      "inputs": [
        {
          "indexed": true,
          "internalType": "address",
          "name": "account",
          "type": "address"
        },
        {
          "indexed": false,
          "internalType": "uint256",
          "name": "amount",
          "type": "uint256"
        }
      ],
      "name": "Claim",
      "type": "event"
    },
    {
      "anonymous": false,
      "inputs": [
        {
          "indexed": true,
          "internalType": "address",
          "name": "account",
          "type": "address"
        },
        {
          "indexed": false,
          "internalType": "uint256",
          "name": "amount",
          "type": "uint256"
        },
        {
          "indexed": false,
          "internalType": "address",
          "name": "referral",
          "type": "address"
        }
      ],
      "name": "Commit",
      "type": "event"
    },
    {
      "anonymous": false,
      "inputs": [
        {
          "indexed": true,
          "internalType": "address",
          "name": "previousOwner",
          "type": "address"
        },
        {
          "indexed": true,
          "internalType": "address",
          "name": "newOwner",
          "type": "address"
        }
      ],
      "name": "OwnershipTransferred",
      "type": "event"
    },
    {
      "anonymous": false,
      "inputs": [
        {
          "indexed": true,
          "internalType": "address",
          "name": "account",
          "type": "address"
        },
        {
          "indexed": false,
          "internalType": "uint256",
          "name": "amount",
          "type": "uint256"
        }
      ],
      "name": "Refund",
      "type": "event"
    },
    {
      "anonymous": false,
      "inputs": [
        {
          "indexed": true,
          "internalType": "address",
          "name": "account",
          "type": "address"
        },
        {
          "indexed": false,
          "internalType": "uint256",
          "name": "amount",
          "type": "uint256"
        }
      ],
      "name": "RewardsClaim",
      "type": "event"
    },
    {
      "anonymous": false,
      "inputs": [
        {
          "indexed": false,
          "internalType": "enum ZkHarvestIFO.State",
          "name": "newState",
          "type": "uint8"
        }
      ],
      "name": "StateChange",
      "type": "event"
    },
    {
      "inputs": [],
      "name": "amountToRaise",
      "outputs": [
        {
          "internalType": "uint256",
          "name": "",
          "type": "uint256"
        }
      ],
      "stateMutability": "view",
      "type": "function"
    },
    {
      "inputs": [],
      "name": "burnUnsoldTokens",
      "outputs": [],
      "stateMutability": "nonpayable",
      "type": "function"
    },
    {
      "inputs": [],
      "name": "claim",
      "outputs": [],
      "stateMutability": "nonpayable",
      "type": "function"
    },
    {
      "inputs": [],
      "name": "claimRewards",
      "outputs": [],
      "stateMutability": "nonpayable",
      "type": "function"
    },
    {
      "inputs": [
        {
          "internalType": "address",
          "name": "_account",
          "type": "address"
        }
      ],
      "name": "claimableRewards",
      "outputs": [
        {
          "internalType": "uint256",
          "name": "",
          "type": "uint256"
        }
      ],
      "stateMutability": "view",
      "type": "function"
    },
    {
      "inputs": [
        {
          "internalType": "address",
          "name": "_account",
          "type": "address"
        }
      ],
      "name": "claimableTokens",
      "outputs": [
        {
          "internalType": "uint256",
          "name": "",
          "type": "uint256"
        }
      ],
      "stateMutability": "view",
      "type": "function"
    },
    {
      "inputs": [],
      "name": "close",
      "outputs": [],
      "stateMutability": "nonpayable",
      "type": "function"
    },
    {
      "inputs": [],
      "name": "commit",
      "outputs": [],
      "stateMutability": "payable",
      "type": "function"
    },
    {
      "inputs": [
        {
          "internalType": "address",
          "name": "_referral",
          "type": "address"
        }
      ],
      "name": "commitWithReferral",
      "outputs": [],
      "stateMutability": "payable",
      "type": "function"
    },
    {
      "inputs": [
        {
          "internalType": "address",
          "name": "",
          "type": "address"
        }
      ],
      "name": "committedAmountPerWallet",
      "outputs": [
        {
          "internalType": "uint256",
          "name": "",
          "type": "uint256"
        }
      ],
      "stateMutability": "view",
      "type": "function"
    },
    {
      "inputs": [
        {
          "internalType": "uint256",
          "name": "_supply",
          "type": "uint256"
        },
        {
          "internalType": "uint256",
          "name": "_amountToRaise",
          "type": "uint256"
        },
        {
          "internalType": "uint256",
          "name": "_minAmountToRaise",
          "type": "uint256"
        },
        {
          "internalType": "uint256",
          "name": "_minAmountPerWallet",
          "type": "uint256"
        },
        {
          "internalType": "uint256",
          "name": "_maxAmountPerWallet",
          "type": "uint256"
        },
        {
          "internalType": "uint256",
          "name": "_referralRewardBP",
          "type": "uint256"
        }
      ],
      "name": "configure",
      "outputs": [],
      "stateMutability": "nonpayable",
      "type": "function"
    },
    {
      "inputs": [
        {
          "internalType": "address",
          "name": "",
          "type": "address"
        }
      ],
      "name": "hasClaimedReferralRewards",
      "outputs": [
        {
          "internalType": "bool",
          "name": "",
          "type": "bool"
        }
      ],
      "stateMutability": "view",
      "type": "function"
    },
    {
      "inputs": [
        {
          "internalType": "address",
          "name": "",
          "type": "address"
        }
      ],
      "name": "hasFinalized",
      "outputs": [
        {
          "internalType": "bool",
          "name": "",
          "type": "bool"
        }
      ],
      "stateMutability": "view",
      "type": "function"
    },
    {
      "inputs": [],
      "name": "maxAmountPerWallet",
      "outputs": [
        {
          "internalType": "uint256",
          "name": "",
          "type": "uint256"
        }
      ],
      "stateMutability": "view",
      "type": "function"
    },
    {
      "inputs": [],
      "name": "minAmountPerWallet",
      "outputs": [
        {
          "internalType": "uint256",
          "name": "",
          "type": "uint256"
        }
      ],
      "stateMutability": "view",
      "type": "function"
    },
    {
      "inputs": [],
      "name": "minAmountToRaise",
      "outputs": [
        {
          "internalType": "uint256",
          "name": "",
          "type": "uint256"
        }
      ],
      "stateMutability": "view",
      "type": "function"
    },
    {
      "inputs": [],
      "name": "open",
      "outputs": [],
      "stateMutability": "nonpayable",
      "type": "function"
    },
    {
      "inputs": [],
      "name": "owner",
      "outputs": [
        {
          "internalType": "address",
          "name": "",
          "type": "address"
        }
      ],
      "stateMutability": "view",
      "type": "function"
    },
    {
      "inputs": [],
      "name": "raisedAmount",
      "outputs": [
        {
          "internalType": "uint256",
          "name": "",
          "type": "uint256"
        }
      ],
      "stateMutability": "view",
      "type": "function"
    },
    {
      "inputs": [],
      "name": "referralRewardBP",
      "outputs": [
        {
          "internalType": "uint256",
          "name": "",
          "type": "uint256"
        }
      ],
      "stateMutability": "view",
      "type": "function"
    },
    {
      "inputs": [
        {
          "internalType": "address",
          "name": "",
          "type": "address"
        }
      ],
      "name": "referralRewards",
      "outputs": [
        {
          "internalType": "uint256",
          "name": "",
          "type": "uint256"
        }
      ],
      "stateMutability": "view",
      "type": "function"
    },
    {
      "inputs": [],
      "name": "refund",
      "outputs": [],
      "stateMutability": "nonpayable",
      "type": "function"
    },
    {
      "inputs": [
        {
          "internalType": "address",
          "name": "_account",
          "type": "address"
        }
      ],
      "name": "refundableAmount",
      "outputs": [
        {
          "internalType": "uint256",
          "name": "",
          "type": "uint256"
        }
      ],
      "stateMutability": "view",
      "type": "function"
    },
    {
      "inputs": [],
      "name": "renounceOwnership",
      "outputs": [],
      "stateMutability": "nonpayable",
      "type": "function"
    },
    {
      "inputs": [
        {
          "internalType": "address payable",
          "name": "_team",
          "type": "address"
        }
      ],
      "name": "setTeam",
      "outputs": [],
      "stateMutability": "nonpayable",
      "type": "function"
    },
    {
      "inputs": [],
      "name": "state",
      "outputs": [
        {
          "internalType": "enum ZkHarvestIFO.State",
          "name": "",
          "type": "uint8"
        }
      ],
      "stateMutability": "view",
      "type": "function"
    },
    {
      "inputs": [],
      "name": "supply",
      "outputs": [
        {
          "internalType": "uint256",
          "name": "",
          "type": "uint256"
        }
      ],
      "stateMutability": "view",
      "type": "function"
    },
    {
      "inputs": [],
      "name": "team",
      "outputs": [
        {
          "internalType": "address payable",
          "name": "",
          "type": "address"
        }
      ],
      "stateMutability": "view",
      "type": "function"
    },
    {
      "inputs": [],
      "name": "token",
      "outputs": [
        {
          "internalType": "contract ZkHarvestToken",
          "name": "",
          "type": "address"
        }
      ],
      "stateMutability": "view",
      "type": "function"
    },
    {
      "inputs": [],
      "name": "totalReferralRewards",
      "outputs": [
        {
          "internalType": "uint256",
          "name": "",
          "type": "uint256"
        }
      ],
      "stateMutability": "view",
      "type": "function"
    },
    {
      "inputs": [
        {
          "internalType": "address",
          "name": "newOwner",
          "type": "address"
        }
      ],
      "name": "transferOwnership",
      "outputs": [],
      "stateMutability": "nonpayable",
      "type": "function"
    },
    {
      "inputs": [],
      "name": "withdraw",
      "outputs": [],
      "stateMutability": "nonpayable",
      "type": "function"
    }
  ],
  "bytecode": "0x6080346100d957601f611b5d38819003918201601f19168301916001600160401b038311848410176100de5780849260409485528339810103126100d95780516001600160a01b039182821682036100d95760200151908282168092036100d9576000549060018060a01b0319913383821617600055604051943391167f8be0079c531659141344cd1fd0a4f28419497f9722a3daafe3b4186f6b6457e0600080a36001805560025490610100600160a81b039060081b169060018060a81b031916176002556003541617600355611a6890816100f58239f35b600080fd5b634e487b7160e01b600052604160045260246000fdfe6080604081815260048036101561001557600080fd5b600092833560e01c90816303a974671461141d57508063047fc9aa146113fe578063095cf5c6146113aa5780631c853d8a1461138b57806336db71291461136c578063372500ab146111fd57806337d319ad14610eba5780633c7a3aff14610e6d5780633ccfd60b14610d0157806342b72afa14610cd157806343d726d614610c4f5780634e71d92d14610a9257806353aaa63b14610a5a578063590e1ae3146108b8578063715018a61461086657806384d24226146108365780638566f7371461081957806385f2aef2146107f15780638da5cb5b146107cb578063940bb344146106c1578063ad04673f146106a2578063b0b07c7414610489578063bd082c961461046a578063c0e002d11461044b578063c19d93fb14610409578063c59ee1dc146103ea578063ca9c71b3146103b2578063dc01f60d14610378578063eaf3786f1461033b578063f2fde38b14610270578063fc0c546a146102415763fcfff16f1461018357600080fd5b3461023d578260031936011261023d5761019b611459565b6002549060ff8216600381101561022a576101b690156114fd565b8054156101f657507fa4248ceb280c6f9303d3ba87af96d45c3b0c834338095ab6350dbe86d38c9fc591600160209260ff1916176002555160018152a180f35b606490602084519162461bcd60e51b8352820152600e60248201526d1b9bdd0818dbdb999a59dd5c995960921b6044820152fd5b634e487b7160e01b855260218252602485fd5b8280fd5b50503461026c578160031936011261026c576020906001600160a01b0360025460081c169051908152f35b5080fd5b50903461023d57602036600319011261023d578135916001600160a01b0391828416809403610337576102a1611459565b83156102e5575050600054826001600160a01b0319821617600055167f8be0079c531659141344cd1fd0a4f28419497f9722a3daafe3b4186f6b6457e0600080a380f35b906020608492519162461bcd60e51b8352820152602660248201527f4f776e61626c653a206e6577206f776e657220697320746865207a65726f206160448201526564647265737360d01b6064820152fd5b8480fd5b503461023d57602036600319011261023d57356001600160a01b03811680910361023d57818360ff9260209552600e855220541690519015158152f35b503461023d57602036600319011261023d5735916001600160a01b03831683036103af57506103a86020926118b7565b9051908152f35b80fd5b503461023d57602036600319011261023d57356001600160a01b03811680910361023d5782829160209452600a845220549051908152f35b50503461026c578160031936011261026c57602090600b549051908152f35b5091346103af57806003193601126103af575060ff60025416905190600381101561043657602092508152f35b602183634e487b7160e01b6000525260246000fd5b50503461026c578160031936011261026c576020906005549051908152f35b50503461026c578160031936011261026c576020906009549051908152f35b5091906020908160031936011261023d5783356001600160a01b03811680910361069e5760ff60025416600381101561068b5760016104c891146114fd565b6104d0611581565b3381036104eb5750505090506104e461162d565b6001805580f35b6104f7600b54346115d7565b85541061063e5733600052600a83526105143483600020546115d7565b9460075486106106055760085486116105ce57507fb1639a04bdb06ef076a04a28caa4c5163bd5748db621bb0180ca81c56dc07d7a92939433600052600a8552826000205561056534600b546115d7565b600b55801515806105c3575b610587575b8151933485528401523392a26104e4565b6105bb612710610599346009546115fa565b0482600052600c8652836000206105b18282546115d7565b9055600d546115d7565b600d55610576565b506009541515610571565b825162461bcd60e51b815290810184905260116024820152706d73672e76616c756520746f6f2062696760781b6044820152606490fd5b825162461bcd60e51b815290810184905260136024820152721b5cd9cb9d985b1d59481d1bdbc81cdb585b1b606a1b6044820152606490fd5b815162461bcd60e51b8152808601849052602160248201527f776f756c6420676f206f766572206d617820616d6f756e7420746f20726169736044820152606560f81b6064820152608490fd5b634e487b7160e01b855260218652602485fd5b8380fd5b50503461026c578160031936011261026c57602090600d549051908152f35b5091903461026c578160031936011261026c576002549260ff841660038110156107b85760026106f191146114fd565b6001600160a01b03610708816003541633146114b1565b610710611924565b90811561078257849560081c16803b15610337576024859285519687938492630852cd8d60e31b8452878401525af180156107785761074d578380f35b67ffffffffffffffff83116107655750523880808380f35b634e487b7160e01b845260419052602483fd5b82513d86823e3d90fd5b835162461bcd60e51b8152602081850152601060248201526f1b9bc81d1bdad95b9cc81d5b9cdbdb1960821b6044820152606490fd5b634e487b7160e01b845260218252602484fd5b50503461026c578160031936011261026c576001600160a01b0360209254169051908152f35b50503461026c578160031936011261026c576020906001600160a01b03600354169051908152f35b503461023d578260031936011261023d5760209250549051908152f35b503461023d57602036600319011261023d5735916001600160a01b03831683036103af57506103a860209261177d565b83346103af57806003193601126103af5761087f611459565b806001600160a01b038154811981168355167f8be0079c531659141344cd1fd0a4f28419497f9722a3daafe3b4186f6b6457e08280a380f35b50903461023d578260031936011261023d5760ff600254166003811015610a475760026108e591146114fd565b6108ed611581565b600b5460055411156109de576109023361184b565b91821561099c578380808086335af1610919611877565b50156109675750338352600e602052808320600160ff19825416179055519081527fbb28353e4598c3b9199101a66e0989549b659a59a54d2c27fbb183f1932c8e6d60203392a26001805580f35b6020606492519162461bcd60e51b8352820152601060248201526f19985a5b1959081d1bc81c99599d5b9960821b6044820152fd5b6020606492519162461bcd60e51b8352820152601160248201527f6e6f7468696e6720746f20726566756e640000000000000000000000000000006044820152fd5b906020608492519162461bcd60e51b8352820152603260248201527f726169736520676f616c20726561636865643b207573652027636c61696d272060448201527f746f2067657420796f757220746f6b656e7300000000000000000000000000006064820152fd5b634e487b7160e01b845260218352602484fd5b503461023d57602036600319011261023d57356001600160a01b03811680910361023d5782829160209452600c845220549051908152f35b50903461023d578260031936011261023d5760ff600254166003811015610a47576002610abf91146114fd565b610ac7611581565b600b5460055411610be657610adb336117d0565b918215610ba45783906001600160a01b0360025460081c1683519163a9059cbb60e01b835233908301528460248301528160448160209586945af18015610b9a57610b67575b507f47cee97cb7acd717b3c0aa1435d004cd5b3c8c57d70dbceb4e4458bbd60e39d491338552600e8252808520600160ff19825416179055519283523392a26001805580f35b8181813d8311610b93575b610b7c8183611549565b8101031261033757518015150361069e5738610b21565b503d610b72565b83513d87823e3d90fd5b6020606492519162461bcd60e51b8352820152601260248201527f6e6f20746f6b656e7320746f20636c61696d00000000000000000000000000006044820152fd5b906020608492519162461bcd60e51b8352820152603d60248201527f726169736520676f616c206e6f7420726561636865643b20757365202772656660448201527f756e642720746f2067657420796f7572206465706f736974206261636b0000006064820152fd5b5091903461026c578160031936011261026c57610c6a611459565b60025460ff81166003811015610cbe57916002602092610cad60017fa4248ceb280c6f9303d3ba87af96d45c3b0c834338095ab6350dbe86d38c9fc596146114fd565b60ff1916176002555160028152a180f35b634e487b7160e01b845260218552602484fd5b503461023d57602036600319011261023d5735916001600160a01b03831683036103af57506103a8602092611816565b50903461023d578260031936011261023d5760ff600254166003811015610a47576002610d2e91146114fd565b6001600160a01b0360035416610d458133146114b1565b600b546005548110610e155760ff60105416610dd25784808093610d6d8294600d5490611917565b905af1610d78611877565b5015610d8f5782600160ff19601054161760105580f35b906020606492519162461bcd60e51b8352820152601260248201527f6661696c656420746f20776974686472617700000000000000000000000000006044820152fd5b825162461bcd60e51b8152602081860152601560248201527f7465616d20616c726561647920776974686472657700000000000000000000006044820152606490fd5b825162461bcd60e51b8152602081860152602c60248201527f726169736520676f616c206e6f7420726561636865643b207465616d2063616e60448201526b6e6f7420776974686472617760a01b6064820152608490fd5b83828160031936011261026c5760ff60025416906003821015610ea757506001610e9791146114fd565b610e9f611581565b6104e461162d565b634e487b7160e01b835260219052602482fd5b503461023d5760c036600319011261023d57803590602491823560449283359260649485359560849182359860a4359a610ef2611459565b60025460ff811660038110156111eb57610f0c90156114fd565b86156111ab5788156111615789891061111457908d6001600160a01b03928251906370a0823160e01b8252308b830152818681602097889460081c165afa918215611109579089926110d4575b5010611085578a15611038578a8c10610fe2576105dc8d11610f8e575050505050506006555560055560075560085560095580f35b92602e8895937f77726f6e6720636f6e66696775726174696f6e3a20726566657272616c207265936d0eec2e4c840c2c4deecca40dac2f60931b96519762461bcd60e51b8952880152860152840152820152fd5b9260308895937f77726f6e6720636f6e66696775726174696f6e3a206d696e20616d6f756e7420936f18589bdd99481b585e08185b5bdd5b9d60821b96519762461bcd60e51b8952880152860152840152820152fd5b9260278895937f77726f6e6720636f6e66696775726174696f6e3a206d696e416d6f756e74506593661c95d85b1b195d60ca1b96519762461bcd60e51b8952880152860152840152820152fd5b9260298895937f77726f6e6720636f6e66696775726174696f6e3a20737570706c792061626f769368652062616c616e636560b81b96519762461bcd60e51b8952880152860152840152820152fd5b809250848092503d8311611102575b6110ed8183611549565b810103126110fe5787905138610f59565b8e80fd5b503d6110e3565b8351903d90823e3d90fd5b5064526169736560d81b92602588959360207f77726f6e6720636f6e66696775726174696f6e3a206d696e416d6f756e74546f94519762461bcd60e51b8952880152860152840152820152fd5b5061736560f01b92602288959360207f77726f6e6720636f6e66696775726174696f6e3a20616d6f756e74546f52616994519762461bcd60e51b8952880152860152840152820152fd5b5091601b7f77726f6e6720636f6e66696775726174696f6e3a20737570706c7900000000009260208995519562461bcd60e51b8752860152840152820152fd5b634e487b7160e01b8f5260218952838ffd5b50903461023d578260031936011261023d5760ff600254166003811015610a4757600261122a91146114fd565b611232611581565b600b546005541161131557611246336118eb565b9182156112e0578380808086335af161125d611877565b50156112ab5750338352600f602052808320600160ff19825416179055519081527ff0193af62631cc04f42841d590c093e885b44520cbb14dc573193023f80cb28460203392a26001805580f35b6020606492519162461bcd60e51b8352820152601060248201526f19985a5b1959081d1bc81c995dd85c9960821b6044820152fd5b6020606492519162461bcd60e51b8352820152601060248201526f6e6f7468696e6720746f20636c61696d60801b6044820152fd5b906020608492519162461bcd60e51b8352820152602b60248201527f726169736520676f616c206e6f7420726561636865643b206e6f20726577617260448201526a647320746f20636c61696d60a81b6064820152fd5b50503461026c578160031936011261026c576020906008549051908152f35b50503461026c578160031936011261026c576020906007549051908152f35b83823461026c57602036600319011261026c57356001600160a01b0380821680920361023d576113e060035491821633146114b1565b73ffffffffffffffffffffffffffffffffffffffff19161760035580f35b50503461026c578160031936011261026c576020906006549051908152f35b929190503461069e57602036600319011261069e57356001600160a01b03811680910361069e578352600f602090815292205460ff1615158152f35b6001600160a01b0360005416330361146d57565b606460405162461bcd60e51b815260206004820152602060248201527f4f776e61626c653a2063616c6c6572206973206e6f7420746865206f776e65726044820152fd5b156114b857565b60405162461bcd60e51b815260206004820152601260248201527f63616c6c6572206973206e6f74207465616d00000000000000000000000000006044820152606490fd5b1561150457565b60405162461bcd60e51b815260206004820152601b60248201527f77726f6e6720737461746520666f72207468697320616374696f6e00000000006044820152606490fd5b90601f8019910116810190811067ffffffffffffffff82111761156b57604052565b634e487b7160e01b600052604160045260246000fd5b600260015414611592576002600155565b60405162461bcd60e51b815260206004820152601f60248201527f5265656e7472616e637947756172643a207265656e7472616e742063616c6c006044820152606490fd5b919082018092116115e457565b634e487b7160e01b600052601160045260246000fd5b818102929181159184041417156115e457565b8115611617570490565b634e487b7160e01b600052601260045260246000fd5b611639600b54346115d7565b6004541061172e5733600052600a602052604061165a3482600020546115d7565b60075481106116f45760085481116116bc5733600052600a602052816000205561168634600b546115d7565b600b557fb1639a04bdb06ef076a04a28caa4c5163bd5748db621bb0180ca81c56dc07d7a815191348352600060208401523392a2565b815162461bcd60e51b81526020600482015260116024820152706d73672e76616c756520746f6f2062696760781b6044820152606490fd5b815162461bcd60e51b81526020600482015260136024820152721b5cd9cb9d985b1d59481d1bdbc81cdb585b1b606a1b6044820152606490fd5b60405162461bcd60e51b815260206004820152602160248201527f776f756c6420676f206f766572206d617820616d6f756e7420746f20726169736044820152606560f81b6064820152608490fd5b60ff6002541660038110156117ba576002148015906117ad575b6117a7576117a4906117d0565b90565b50600090565b50600b5460055411611797565b634e487b7160e01b600052602160045260246000fd5b6001600160a01b0316600052600e60205260ff6040600020541661181157600a6020526117a4611808604060002054600654906115fa565b6004549061160d565b600090565b60ff6002541660038110156117ba5760021480159061183d575b6117a7576117a49061184b565b50600b546005541115611830565b6001600160a01b0316600052600e60205260ff6040600020541661181157600a60205260406000205490565b3d156118b2573d9067ffffffffffffffff821161156b57604051916118a6601f8201601f191660200184611549565b82523d6000602084013e565b606090565b60ff6002541660038110156117ba576002148015906118de575b6117a7576117a4906118eb565b50600b54600554116118d1565b6001600160a01b0316600052600f60205260ff6040600020541661181157600c60205260406000205490565b919082039182116115e457565b600b546005548110156119aa5750602460206001600160a01b0360025460081c16604051928380926370a0823160e01b82523060048301525afa90811561199e57600091611970575090565b906020823d8211611996575b8161198960209383611549565b810103126103af57505190565b3d915061197c565b6040513d6000823e3d90fd5b602460206001600160a01b0360025460081c16604051928380926370a0823160e01b82523060048301525afa90811561199e576000916119ff575b506119f96118086117a493600654906115fa565b90611917565b906020823d8211611a2a575b81611a1860209383611549565b810103126103af5750516119f96119e5565b3d9150611a0b56fea2646970667358221220f783edffe62f6f238b549b8eb80fc1315fc78d345603b8c8c31693d894a9789864736f6c63430008110033",
  "linkReferences": {},
  "deployedLinkReferences": {}
}