{
  "_format": "hh-sol-artifact-1",
  "contractName": "ZKHMaster",
  "sourceName": "contracts/v2/ZHKMaster.sol",
  "abi": [
    {
      "inputs": [
        {
          "internalType": "contract IZKHToken",
          "name": "_rewardToken",
          "type": "address"
        },
        {
          "internalType": "address",
          "name": "_devaddr",
          "type": "address"
        },
        {
          "internalType": "address",
          "name": "_feeAddress",
          "type": "address"
        },
        {
          "internalType": "contract ITreasurer",
          "name": "_treasurer",
          "type": "address"
        },
        {
          "internalType": "uint256",
          "name": "_startTimestamp",
          "type": "uint256"
        }
      ],
      "stateMutability": "nonpayable",
      "type": "constructor"
    },
    {
      "anonymous": false,
      "inputs": [
        {
          "indexed": false,
          "internalType": "address",
          "name": "owner",
          "type": "address"
        },
        {
          "indexed": false,
          "internalType": "uint256",
          "name": "amount",
          "type": "uint256"
        }
      ],
      "name": "Claimed",
      "type": "event"
    },
    {
      "anonymous": false,
      "inputs": [
        {
          "indexed": true,
          "internalType": "address",
          "name": "user",
          "type": "address"
        },
        {
          "indexed": true,
          "internalType": "uint256",
          "name": "pid",
          "type": "uint256"
        },
        {
          "indexed": false,
          "internalType": "uint256",
          "name": "amount",
          "type": "uint256"
        }
      ],
      "name": "Deposit",
      "type": "event"
    },
    {
      "anonymous": false,
      "inputs": [
        {
          "indexed": true,
          "internalType": "address",
          "name": "user",
          "type": "address"
        },
        {
          "indexed": true,
          "internalType": "uint256",
          "name": "pid",
          "type": "uint256"
        },
        {
          "indexed": false,
          "internalType": "uint256",
          "name": "amount",
          "type": "uint256"
        }
      ],
      "name": "EmergencyWithdraw",
      "type": "event"
    },
    {
      "anonymous": false,
      "inputs": [
        {
          "indexed": false,
          "internalType": "address",
          "name": "owner",
          "type": "address"
        },
        {
          "indexed": false,
          "internalType": "uint256",
          "name": "tokenId",
          "type": "uint256"
        },
        {
          "indexed": false,
          "internalType": "uint256",
          "name": "value",
          "type": "uint256"
        }
      ],
      "name": "NFTStaked",
      "type": "event"
    },
    {
      "anonymous": false,
      "inputs": [
        {
          "indexed": false,
          "internalType": "address",
          "name": "owner",
          "type": "address"
        },
        {
          "indexed": false,
          "internalType": "uint256",
          "name": "tokenId",
          "type": "uint256"
        },
        {
          "indexed": false,
          "internalType": "uint256",
          "name": "value",
          "type": "uint256"
        }
      ],
      "name": "NFTUnstaked",
      "type": "event"
    },
    {
      "anonymous": false,
      "inputs": [
        {
          "indexed": true,
          "internalType": "address",
          "name": "previousOwner",
          "type": "address"
        },
        {
          "indexed": true,
          "internalType": "address",
          "name": "newOwner",
          "type": "address"
        }
      ],
      "name": "OwnershipTransferred",
      "type": "event"
    },
    {
      "anonymous": false,
      "inputs": [
        {
          "indexed": false,
          "internalType": "uint256",
          "name": "rewardPerSec",
          "type": "uint256"
        }
      ],
      "name": "UpdateEmissionRate",
      "type": "event"
    },
    {
      "anonymous": false,
      "inputs": [
        {
          "indexed": false,
          "internalType": "uint256",
          "name": "newStartTimestamp",
          "type": "uint256"
        }
      ],
      "name": "UpdateStartTimestamp",
      "type": "event"
    },
    {
      "anonymous": false,
      "inputs": [
        {
          "indexed": true,
          "internalType": "address",
          "name": "user",
          "type": "address"
        },
        {
          "indexed": true,
          "internalType": "uint256",
          "name": "pid",
          "type": "uint256"
        },
        {
          "indexed": false,
          "internalType": "uint256",
          "name": "amount",
          "type": "uint256"
        }
      ],
      "name": "Withdraw",
      "type": "event"
    },
    {
      "anonymous": false,
      "inputs": [
        {
          "indexed": true,
          "internalType": "uint256",
          "name": "pid",
          "type": "uint256"
        },
        {
          "indexed": false,
          "internalType": "address",
          "name": "lpToken",
          "type": "address"
        },
        {
          "indexed": false,
          "internalType": "uint256",
          "name": "allocPoint",
          "type": "uint256"
        },
        {
          "indexed": false,
          "internalType": "uint256",
          "name": "depositFee",
          "type": "uint256"
        },
        {
          "indexed": false,
          "internalType": "uint256",
          "name": "withdrawalFee",
          "type": "uint256"
        },
        {
          "indexed": false,
          "internalType": "uint256",
          "name": "rewardEndTimestamp",
          "type": "uint256"
        },
        {
          "indexed": false,
          "internalType": "uint256",
          "name": "harvestInterval",
          "type": "uint256"
        }
      ],
      "name": "addPool",
      "type": "event"
    },
    {
      "anonymous": false,
      "inputs": [
        {
          "indexed": false,
          "internalType": "address",
          "name": "",
          "type": "address"
        }
      ],
      "name": "feeAddressUpdated",
      "type": "event"
    },
    {
      "anonymous": false,
      "inputs": [
        {
          "indexed": true,
          "internalType": "uint256",
          "name": "pid",
          "type": "uint256"
        },
        {
          "indexed": false,
          "internalType": "uint256",
          "name": "allocPoint",
          "type": "uint256"
        },
        {
          "indexed": false,
          "internalType": "uint256",
          "name": "depositFee",
          "type": "uint256"
        },
        {
          "indexed": false,
          "internalType": "uint256",
          "name": "withdrawalFee",
          "type": "uint256"
        },
        {
          "indexed": false,
          "internalType": "uint256",
          "name": "rewardEndTimestamp",
          "type": "uint256"
        },
        {
          "indexed": false,
          "internalType": "uint256",
          "name": "harvestInterval",
          "type": "uint256"
        }
      ],
      "name": "setPool",
      "type": "event"
    },
    {
      "inputs": [],
      "name": "BONUS_MULTIPLIER",
      "outputs": [
        {
          "internalType": "uint256",
          "name": "",
          "type": "uint256"
        }
      ],
      "stateMutability": "view",
      "type": "function"
    },
    {
      "inputs": [],
      "name": "MAX_SUPPLY",
      "outputs": [
        {
          "internalType": "uint256",
          "name": "",
          "type": "uint256"
        }
      ],
      "stateMutability": "view",
      "type": "function"
    },
    {
      "inputs": [],
      "name": "SECONDS_PER_CYCLE",
      "outputs": [
        {
          "internalType": "uint256",
          "name": "",
          "type": "uint256"
        }
      ],
      "stateMutability": "view",
      "type": "function"
    },
    {
      "inputs": [
        {
          "internalType": "uint256",
          "name": "_allocPoint",
          "type": "uint256"
        },
        {
          "internalType": "uint256",
          "name": "_depositFee",
          "type": "uint256"
        },
        {
          "internalType": "uint256",
          "name": "_withdrawalFee",
          "type": "uint256"
        },
        {
          "internalType": "uint256",
          "name": "_harvestInterval",
          "type": "uint256"
        },
        {
          "internalType": "contract IERC20",
          "name": "_lpToken",
          "type": "address"
        },
        {
          "internalType": "uint256",
          "name": "_rewardEndTimestamp",
          "type": "uint256"
        }
      ],
      "name": "add",
      "outputs": [],
      "stateMutability": "nonpayable",
      "type": "function"
    },
    {
      "inputs": [
        {
          "internalType": "uint256",
          "name": "_poolId",
          "type": "uint256"
        },
        {
          "internalType": "address",
          "name": "_user",
          "type": "address"
        }
      ],
      "name": "canHarvest",
      "outputs": [
        {
          "internalType": "bool",
          "name": "",
          "type": "bool"
        }
      ],
      "stateMutability": "view",
      "type": "function"
    },
    {
      "inputs": [],
      "name": "canSetNFT",
      "outputs": [
        {
          "internalType": "bool",
          "name": "",
          "type": "bool"
        }
      ],
      "stateMutability": "view",
      "type": "function"
    },
    {
      "inputs": [
        {
          "internalType": "uint256",
          "name": "_pid",
          "type": "uint256"
        },
        {
          "internalType": "uint256",
          "name": "amount",
          "type": "uint256"
        }
      ],
      "name": "deposit",
      "outputs": [],
      "stateMutability": "nonpayable",
      "type": "function"
    },
    {
      "inputs": [
        {
          "internalType": "address",
          "name": "_devaddr",
          "type": "address"
        }
      ],
      "name": "dev",
      "outputs": [],
      "stateMutability": "nonpayable",
      "type": "function"
    },
    {
      "inputs": [],
      "name": "devaddr",
      "outputs": [
        {
          "internalType": "address",
          "name": "",
          "type": "address"
        }
      ],
      "stateMutability": "view",
      "type": "function"
    },
    {
      "inputs": [
        {
          "internalType": "uint256",
          "name": "_pid",
          "type": "uint256"
        }
      ],
      "name": "emergencyWithdraw",
      "outputs": [],
      "stateMutability": "nonpayable",
      "type": "function"
    },
    {
      "inputs": [],
      "name": "emissionPerSec",
      "outputs": [
        {
          "internalType": "uint256",
          "name": "",
          "type": "uint256"
        }
      ],
      "stateMutability": "view",
      "type": "function"
    },
    {
      "inputs": [],
      "name": "feeAddress",
      "outputs": [
        {
          "internalType": "address",
          "name": "",
          "type": "address"
        }
      ],
      "stateMutability": "view",
      "type": "function"
    },
    {
      "inputs": [
        {
          "internalType": "uint256",
          "name": "_from",
          "type": "uint256"
        },
        {
          "internalType": "uint256",
          "name": "_to",
          "type": "uint256"
        }
      ],
      "name": "getMultiplier",
      "outputs": [
        {
          "internalType": "uint256",
          "name": "",
          "type": "uint256"
        }
      ],
      "stateMutability": "view",
      "type": "function"
    },
    {
      "inputs": [
        {
          "internalType": "uint256",
          "name": "pid",
          "type": "uint256"
        },
        {
          "internalType": "address",
          "name": "user",
          "type": "address"
        }
      ],
      "name": "getUserNfts",
      "outputs": [
        {
          "internalType": "uint256[5]",
          "name": "",
          "type": "uint256[5]"
        }
      ],
      "stateMutability": "view",
      "type": "function"
    },
    {
      "inputs": [],
      "name": "massUpdatePools",
      "outputs": [],
      "stateMutability": "nonpayable",
      "type": "function"
    },
    {
      "inputs": [],
      "name": "nextCycleTimestamp",
      "outputs": [
        {
          "internalType": "uint256",
          "name": "",
          "type": "uint256"
        }
      ],
      "stateMutability": "view",
      "type": "function"
    },
    {
      "inputs": [],
      "name": "nft",
      "outputs": [
        {
          "internalType": "contract IERC721Enumerable",
          "name": "",
          "type": "address"
        }
      ],
      "stateMutability": "view",
      "type": "function"
    },
    {
      "inputs": [
        {
          "internalType": "uint256",
          "name": "",
          "type": "uint256"
        }
      ],
      "name": "nftBonus",
      "outputs": [
        {
          "internalType": "uint256",
          "name": "",
          "type": "uint256"
        }
      ],
      "stateMutability": "view",
      "type": "function"
    },
    {
      "inputs": [
        {
          "internalType": "uint256",
          "name": "",
          "type": "uint256"
        }
      ],
      "name": "nftOwners",
      "outputs": [
        {
          "internalType": "address",
          "name": "",
          "type": "address"
        }
      ],
      "stateMutability": "view",
      "type": "function"
    },
    {
      "inputs": [
        {
          "internalType": "address",
          "name": "",
          "type": "address"
        },
        {
          "internalType": "address",
          "name": "from",
          "type": "address"
        },
        {
          "internalType": "uint256",
          "name": "",
          "type": "uint256"
        },
        {
          "internalType": "bytes",
          "name": "",
          "type": "bytes"
        }
      ],
      "name": "onERC721Received",
      "outputs": [
        {
          "internalType": "bytes4",
          "name": "",
          "type": "bytes4"
        }
      ],
      "stateMutability": "pure",
      "type": "function"
    },
    {
      "inputs": [],
      "name": "owner",
      "outputs": [
        {
          "internalType": "address",
          "name": "",
          "type": "address"
        }
      ],
      "stateMutability": "view",
      "type": "function"
    },
    {
      "inputs": [
        {
          "internalType": "uint256",
          "name": "_pid",
          "type": "uint256"
        },
        {
          "internalType": "address",
          "name": "_user",
          "type": "address"
        }
      ],
      "name": "pendingReward",
      "outputs": [
        {
          "internalType": "uint256",
          "name": "",
          "type": "uint256"
        }
      ],
      "stateMutability": "view",
      "type": "function"
    },
    {
      "inputs": [
        {
          "internalType": "uint256",
          "name": "",
          "type": "uint256"
        }
      ],
      "name": "poolInfo",
      "outputs": [
        {
          "internalType": "contract IERC20",
          "name": "lpToken",
          "type": "address"
        },
        {
          "internalType": "uint256",
          "name": "allocPoint",
          "type": "uint256"
        },
        {
          "internalType": "uint256",
          "name": "depositFee",
          "type": "uint256"
        },
        {
          "internalType": "uint256",
          "name": "withdrawalFee",
          "type": "uint256"
        },
        {
          "internalType": "uint256",
          "name": "lastRewardTimestamp",
          "type": "uint256"
        },
        {
          "internalType": "uint256",
          "name": "accZkhPerShare",
          "type": "uint256"
        },
        {
          "internalType": "uint256",
          "name": "lpSupply",
          "type": "uint256"
        },
        {
          "internalType": "uint256",
          "name": "baseLpSupply",
          "type": "uint256"
        },
        {
          "internalType": "uint256",
          "name": "rewardEndTimestamp",
          "type": "uint256"
        },
        {
          "internalType": "uint256",
          "name": "harvestInterval",
          "type": "uint256"
        }
      ],
      "stateMutability": "view",
      "type": "function"
    },
    {
      "inputs": [],
      "name": "poolLength",
      "outputs": [
        {
          "internalType": "uint256",
          "name": "",
          "type": "uint256"
        }
      ],
      "stateMutability": "view",
      "type": "function"
    },
    {
      "inputs": [],
      "name": "renounceOwnership",
      "outputs": [],
      "stateMutability": "nonpayable",
      "type": "function"
    },
    {
      "inputs": [],
      "name": "rewardPerSecond",
      "outputs": [
        {
          "internalType": "uint256",
          "name": "",
          "type": "uint256"
        }
      ],
      "stateMutability": "view",
      "type": "function"
    },
    {
      "inputs": [],
      "name": "rewardToken",
      "outputs": [
        {
          "internalType": "contract IZKHToken",
          "name": "",
          "type": "address"
        }
      ],
      "stateMutability": "view",
      "type": "function"
    },
    {
      "inputs": [
        {
          "internalType": "uint256",
          "name": "_pid",
          "type": "uint256"
        },
        {
          "internalType": "uint256",
          "name": "_allocPoint",
          "type": "uint256"
        },
        {
          "internalType": "uint256",
          "name": "_depositFee",
          "type": "uint256"
        },
        {
          "internalType": "uint256",
          "name": "_withdrawalFee",
          "type": "uint256"
        },
        {
          "internalType": "uint256",
          "name": "_harvestInterval",
          "type": "uint256"
        },
        {
          "internalType": "uint256",
          "name": "_rewardEndTimestamp",
          "type": "uint256"
        }
      ],
      "name": "set",
      "outputs": [],
      "stateMutability": "nonpayable",
      "type": "function"
    },
    {
      "inputs": [
        {
          "internalType": "address",
          "name": "_feeAddress",
          "type": "address"
        }
      ],
      "name": "setFeeAddress",
      "outputs": [
        {
          "internalType": "bool",
          "name": "",
          "type": "bool"
        }
      ],
      "stateMutability": "nonpayable",
      "type": "function"
    },
    {
      "inputs": [],
      "name": "setMasterDisable",
      "outputs": [],
      "stateMutability": "nonpayable",
      "type": "function"
    },
    {
      "inputs": [],
      "name": "setMasterEnabled",
      "outputs": [
        {
          "internalType": "bool",
          "name": "",
          "type": "bool"
        }
      ],
      "stateMutability": "view",
      "type": "function"
    },
    {
      "inputs": [
        {
          "components": [
            {
              "internalType": "uint256",
              "name": "tokenId",
              "type": "uint256"
            },
            {
              "internalType": "uint256",
              "name": "multiplier",
              "type": "uint256"
            }
          ],
          "internalType": "struct ZKHMaster.nftDataIn[]",
          "name": "nftData",
          "type": "tuple[]"
        }
      ],
      "name": "setNFTBonusData",
      "outputs": [],
      "stateMutability": "nonpayable",
      "type": "function"
    },
    {
      "inputs": [],
      "name": "setNFTOff",
      "outputs": [],
      "stateMutability": "nonpayable",
      "type": "function"
    },
    {
      "inputs": [
        {
          "internalType": "contract IERC721Enumerable",
          "name": "_nft",
          "type": "address"
        }
      ],
      "name": "setNftAddress",
      "outputs": [],
      "stateMutability": "nonpayable",
      "type": "function"
    },
    {
      "inputs": [
        {
          "internalType": "address",
          "name": "mc",
          "type": "address"
        }
      ],
      "name": "setOwnership",
      "outputs": [],
      "stateMutability": "nonpayable",
      "type": "function"
    },
    {
      "inputs": [
        {
          "internalType": "uint256",
          "name": "sTimestamp",
          "type": "uint256"
        }
      ],
      "name": "setStartTimestamp",
      "outputs": [],
      "stateMutability": "nonpayable",
      "type": "function"
    },
    {
      "inputs": [
        {
          "internalType": "uint256",
          "name": "_pid",
          "type": "uint256"
        },
        {
          "internalType": "uint256[]",
          "name": "tokenIds",
          "type": "uint256[]"
        }
      ],
      "name": "stakeNFT",
      "outputs": [],
      "stateMutability": "nonpayable",
      "type": "function"
    },
    {
      "inputs": [],
      "name": "startTimestamp",
      "outputs": [
        {
          "internalType": "uint256",
          "name": "",
          "type": "uint256"
        }
      ],
      "stateMutability": "view",
      "type": "function"
    },
    {
      "inputs": [],
      "name": "totalAllocPoint",
      "outputs": [
        {
          "internalType": "uint256",
          "name": "",
          "type": "uint256"
        }
      ],
      "stateMutability": "view",
      "type": "function"
    },
    {
      "inputs": [
        {
          "internalType": "address",
          "name": "newOwner",
          "type": "address"
        }
      ],
      "name": "transferOwnership",
      "outputs": [],
      "stateMutability": "nonpayable",
      "type": "function"
    },
    {
      "inputs": [],
      "name": "treasurer",
      "outputs": [
        {
          "internalType": "contract ITreasurer",
          "name": "",
          "type": "address"
        }
      ],
      "stateMutability": "view",
      "type": "function"
    },
    {
      "inputs": [
        {
          "internalType": "uint256",
          "name": "_pid",
          "type": "uint256"
        },
        {
          "internalType": "uint256[]",
          "name": "tokenIds",
          "type": "uint256[]"
        }
      ],
      "name": "unstakeNFT",
      "outputs": [],
      "stateMutability": "nonpayable",
      "type": "function"
    },
    {
      "inputs": [
        {
          "internalType": "uint256",
          "name": "endTimestamp",
          "type": "uint256"
        },
        {
          "internalType": "bool",
          "name": "withUpdate",
          "type": "bool"
        }
      ],
      "name": "updateEmissionRate",
      "outputs": [],
      "stateMutability": "nonpayable",
      "type": "function"
    },
    {
      "inputs": [
        {
          "internalType": "uint256",
          "name": "multiplierNumber",
          "type": "uint256"
        }
      ],
      "name": "updateMultiplier",
      "outputs": [],
      "stateMutability": "nonpayable",
      "type": "function"
    },
    {
      "inputs": [
        {
          "internalType": "uint256",
          "name": "_pid",
          "type": "uint256"
        }
      ],
      "name": "updatePoolPb",
      "outputs": [],
      "stateMutability": "nonpayable",
      "type": "function"
    },
    {
      "inputs": [
        {
          "internalType": "uint256",
          "name": "",
          "type": "uint256"
        },
        {
          "internalType": "address",
          "name": "",
          "type": "address"
        }
      ],
      "name": "userInfo",
      "outputs": [
        {
          "internalType": "uint256",
          "name": "amount",
          "type": "uint256"
        },
        {
          "internalType": "uint256",
          "name": "baseAmount",
          "type": "uint256"
        },
        {
          "internalType": "uint256",
          "name": "rewardDebt",
          "type": "uint256"
        },
        {
          "internalType": "uint256",
          "name": "depositTime",
          "type": "uint256"
        },
        {
          "internalType": "uint256",
          "name": "nftcount",
          "type": "uint256"
        },
        {
          "internalType": "uint256",
          "name": "lockedReward",
          "type": "uint256"
        }
      ],
      "stateMutability": "view",
      "type": "function"
    },
    {
      "inputs": [
        {
          "internalType": "uint256",
          "name": "_pid",
          "type": "uint256"
        },
        {
          "internalType": "uint256",
          "name": "_amount",
          "type": "uint256"
        }
      ],
      "name": "withdraw",
      "outputs": [],
      "stateMutability": "nonpayable",
      "type": "function"
    }
  ],
  "bytecode": "0x60a0604052600160065562e01f006007556000600e553480156200002257600080fd5b50604051620073af380380620073af8339818101604052810190620000489190620008c1565b620000686200005c6200066660201b60201c565b6200066e60201b60201c565b600073ffffffffffffffffffffffffffffffffffffffff168573ffffffffffffffffffffffffffffffffffffffff1603620000da576040517f08c379a0000000000000000000000000000000000000000000000000000000008152600401620000d190620009d0565b60405180910390fd5b600073ffffffffffffffffffffffffffffffffffffffff168473ffffffffffffffffffffffffffffffffffffffff16036200014c576040517f08c379a0000000000000000000000000000000000000000000000000000000008152600401620001439062000a68565b60405180910390fd5b600073ffffffffffffffffffffffffffffffffffffffff168373ffffffffffffffffffffffffffffffffffffffff1603620001be576040517f08c379a0000000000000000000000000000000000000000000000000000000008152600401620001b59062000b00565b60405180910390fd5b600073ffffffffffffffffffffffffffffffffffffffff168273ffffffffffffffffffffffffffffffffffffffff160362000230576040517f08c379a0000000000000000000000000000000000000000000000000000000008152600401620002279062000b98565b60405180910390fd5b4281101562000276576040517f08c379a00000000000000000000000000000000000000000000000000000000081526004016200026d9062000c0a565b60405180910390fd5b84600160006101000a81548173ffffffffffffffffffffffffffffffffffffffff021916908373ffffffffffffffffffffffffffffffffffffffff16021790555083600360006101000a81548173ffffffffffffffffffffffffffffffffffffffff021916908373ffffffffffffffffffffffffffffffffffffffff16021790555082600460006101000a81548173ffffffffffffffffffffffffffffffffffffffff021916908373ffffffffffffffffffffffffffffffffffffffff1602179055508173ffffffffffffffffffffffffffffffffffffffff1660808173ffffffffffffffffffffffffffffffffffffffff168152505080600f819055506200047b60075462000467600a6200045360096200043f600160009054906101000a900473ffffffffffffffffffffffffffffffffffffffff1673ffffffffffffffffffffffffffffffffffffffff166318160ddd6040518163ffffffff1660e01b8152600401602060405180830381865afa158015620003f9573d6000803e3d6000fd5b505050506040513d601f19601f820116820180604052508101906200041f919062000c2c565b6a52b7d2dcc80cd2e40000006200073260201b62003f6f1790919060201c565b6200074a60201b62003f851790919060201c565b6200076260201b62003f9b1790919060201c565b6200076260201b62003f9b1790919060201c565b6005819055506200049f600754600f546200077a60201b62003fb11790919060201c565b6008819055506001600960006101000a81548160ff0219169083151502179055506001600260146101000a81548160ff021916908315150217905550600a604051806101400160405280600160009054906101000a900473ffffffffffffffffffffffffffffffffffffffff1673ffffffffffffffffffffffffffffffffffffffff168152602001606481526020016000815260200160008152602001600f5481526020016000815260200160008152602001600081526020017fffffffffffffffffffffffffffffffffffffffffffffffffffffffffffffffff8152602001610e1081525090806001815401808255809150506001900390600052602060002090600a020160009091909190915060008201518160000160006101000a81548173ffffffffffffffffffffffffffffffffffffffff021916908373ffffffffffffffffffffffffffffffffffffffff1602179055506020820151816001015560408201518160020155606082015181600301556080820151816004015560a0820151816005015560c0820151816006015560e082015181600701556101008201518160080155610120820151816009015550506064600e81905550505050505062000db5565b600033905090565b60008060009054906101000a900473ffffffffffffffffffffffffffffffffffffffff169050816000806101000a81548173ffffffffffffffffffffffffffffffffffffffff021916908373ffffffffffffffffffffffffffffffffffffffff1602179055508173ffffffffffffffffffffffffffffffffffffffff168173ffffffffffffffffffffffffffffffffffffffff167f8be0079c531659141344cd1fd0a4f28419497f9722a3daafe3b4186f6b6457e060405160405180910390a35050565b6000818362000742919062000c8d565b905092915050565b600081836200075a919062000cc8565b905092915050565b6000818362000772919062000d42565b905092915050565b600081836200078a919062000d7a565b905092915050565b600080fd5b600073ffffffffffffffffffffffffffffffffffffffff82169050919050565b6000620007c48262000797565b9050919050565b6000620007d882620007b7565b9050919050565b620007ea81620007cb565b8114620007f657600080fd5b50565b6000815190506200080a81620007df565b92915050565b6200081b81620007b7565b81146200082757600080fd5b50565b6000815190506200083b8162000810565b92915050565b60006200084e82620007b7565b9050919050565b620008608162000841565b81146200086c57600080fd5b50565b600081519050620008808162000855565b92915050565b6000819050919050565b6200089b8162000886565b8114620008a757600080fd5b50565b600081519050620008bb8162000890565b92915050565b600080600080600060a08688031215620008e057620008df62000792565b5b6000620008f088828901620007f9565b955050602062000903888289016200082a565b945050604062000916888289016200082a565b935050606062000929888289016200086f565b92505060806200093c88828901620008aa565b9150509295509295909350565b600082825260208201905092915050565b7f5a4b483a2052657761726420546f6b656e2063616e6e6f74206265207468652060008201527f7a65726f20616464726573730000000000000000000000000000000000000000602082015250565b6000620009b8602c8362000949565b9150620009c5826200095a565b604082019050919050565b60006020820190508181036000830152620009eb81620009a9565b9050919050565b7f5a4b483a206465762063616e6e6f7420626520746865207a65726f206164647260008201527f6573730000000000000000000000000000000000000000000000000000000000602082015250565b600062000a5060238362000949565b915062000a5d82620009f2565b604082019050919050565b6000602082019050818103600083015262000a838162000a41565b9050919050565b7f5a4b483a20466565416464726573732063616e6e6f7420626520746865207a6560008201527f726f206164647265737300000000000000000000000000000000000000000000602082015250565b600062000ae8602a8362000949565b915062000af58262000a8a565b604082019050919050565b6000602082019050818103600083015262000b1b8162000ad9565b9050919050565b7f5a4b483a205472656173757265722063616e6e6f7420626520746865207a657260008201527f6f20616464726573730000000000000000000000000000000000000000000000602082015250565b600062000b8060298362000949565b915062000b8d8262000b22565b604082019050919050565b6000602082019050818103600083015262000bb38162000b71565b9050919050565b7f5a4b483a20496e76616c69642053746172742074696d65000000000000000000600082015250565b600062000bf260178362000949565b915062000bff8262000bba565b602082019050919050565b6000602082019050818103600083015262000c258162000be3565b9050919050565b60006020828403121562000c455762000c4462000792565b5b600062000c5584828501620008aa565b91505092915050565b7f4e487b7100000000000000000000000000000000000000000000000000000000600052601160045260246000fd5b600062000c9a8262000886565b915062000ca78362000886565b925082820390508181111562000cc25762000cc162000c5e565b5b92915050565b600062000cd58262000886565b915062000ce28362000886565b925082820262000cf28162000886565b9150828204841483151762000d0c5762000d0b62000c5e565b5b5092915050565b7f4e487b7100000000000000000000000000000000000000000000000000000000600052601260045260246000fd5b600062000d4f8262000886565b915062000d5c8362000886565b92508262000d6f5762000d6e62000d13565b5b828204905092915050565b600062000d878262000886565b915062000d948362000886565b925082820190508082111562000daf5762000dae62000c5e565b5b92915050565b6080516165bb62000df4600039600081816114c401528181611e42015281816126070152818161379001528181613f4d01526141ec01526165bb6000f3fe608060405234801561001057600080fd5b50600436106102955760003560e01c80637a2b407611610167578063ad7d4795116100ce578063e440c84711610087578063e440c847146107d0578063e6fd48bc146107da578063ea846e4d146107f8578063f2fde38b14610816578063f7c618c114610832578063fda49eb41461085057610295565b8063ad7d47951461070e578063bbd94c2f1461072c578063c44bef751461075c578063cab31d6114610778578063d49e77cd14610796578063e2bbb158146107b457610295565b80638dbb1e3a116101205780638dbb1e3a146106235780638f10369a1461065357806393f1a40b1461067157806398969e82146106a6578063a7016023146106d6578063a8317702146106f257610295565b80637a2b40761461053b5780637f1761251461056b5780638705fcd41461059b5780638aa28550146105cb5780638d88a90e146105e95780638da5cb5b1461060557610295565b8063412753581161020b5780635ffe6146116101c45780635ffe6146146104c75780636113bf82146104e3578063630b5ba1146104ff57806370addc3b14610509578063715018a61461052757806371fd0e811461053157610295565b8063412753581461041b578063441a3e701461043957806345ff0d8f1461045557806347ccca02146104715780635312ea8e1461048f5780635b23e6a4146104ab57610295565b80631526fe271161025d5780631526fe271461033e57806316ee2aa11461037757806317caf6f1146103935780632e6c998d146103b157806332cb6b0c146103e157806340cb7660146103ff57610295565b8063081e3eda1461029a5780630b102d1a146102b85780630bf4d561146102d45780631504f6bc146102f2578063150b7a021461030e575b600080fd5b6102a261086e565b6040516102af9190614a01565b60405180910390f35b6102d260048036038101906102cd9190614a96565b61087b565b005b6102dc610a4a565b6040516102e99190614ade565b60405180910390f35b61030c60048036038101906103079190614b25565b610a5d565b005b61032860048036038101906103239190614be3565b610a81565b6040516103359190614ca6565b60405180910390f35b61035860048036038101906103539190614b25565b610b04565b60405161036e9a99989796959493929190614d20565b60405180910390f35b610391600480360381019061038c9190614dfa565b610b88565b005b61039b610f2c565b6040516103a89190614a01565b60405180910390f35b6103cb60048036038101906103c69190614e87565b610f32565b6040516103d89190614ade565b60405180910390f35b6103e9610fca565b6040516103f69190614a01565b60405180910390f35b61041960048036038101906104149190614ec7565b610fd9565b005b61042361132c565b6040516104309190614f63565b60405180910390f35b610453600480360381019061044e9190614f7e565b611352565b005b61046f600480360381019061046a9190614fea565b61189c565b005b610479611b1a565b604051610486919061504b565b60405180910390f35b6104a960048036038101906104a49190614b25565b611b40565b005b6104c560048036038101906104c091906150bc565b611cdc565b005b6104e160048036038101906104dc9190614b25565b61232a565b005b6104fd60048036038101906104f891906150bc565b612444565b005b610507612aba565b005b610511612b49565b60405161051e9190614a01565b60405180910390f35b61052f612b79565b005b610539612b8d565b005b61055560048036038101906105509190614b25565b612c01565b6040516105629190614a01565b60405180910390f35b61058560048036038101906105809190614e87565b612c19565b60405161059291906151c7565b60405180910390f35b6105b560048036038101906105b091906151e2565b612cbe565b6040516105c29190614ade565b60405180910390f35b6105d3612e7d565b6040516105e09190614a01565b60405180910390f35b61060360048036038101906105fe91906151e2565b612e83565b005b61060d612f57565b60405161061a9190614f63565b60405180910390f35b61063d60048036038101906106389190614f7e565b612f80565b60405161064a9190614a01565b60405180910390f35b61065b612fb1565b6040516106689190614a01565b60405180910390f35b61068b60048036038101906106869190614e87565b612fb7565b60405161069d9695949392919061520f565b60405180910390f35b6106c060048036038101906106bb9190614e87565b613000565b6040516106cd9190614a01565b60405180910390f35b6106f060048036038101906106eb91906151e2565b6131e8565b005b61070c600480360381019061070791906152c6565b6132cf565b005b610716613418565b6040516107239190614a01565b60405180910390f35b61074660048036038101906107419190614b25565b61341e565b6040516107539190614f63565b60405180910390f35b61077660048036038101906107719190614b25565b613451565b005b610780613645565b60405161078d9190614a01565b60405180910390f35b61079e61364b565b6040516107ab9190614f63565b60405180910390f35b6107ce60048036038101906107c99190614f7e565b613671565b005b6107d8613d9f565b005b6107e2613e89565b6040516107ef9190614a01565b60405180910390f35b610800613e8f565b60405161080d9190614ade565b60405180910390f35b610830600480360381019061082b91906151e2565b613ea2565b005b61083a613f25565b6040516108479190615334565b60405180910390f35b610858613f4b565b6040516108659190615370565b60405180910390f35b6000600a80549050905090565b610883612f57565b73ffffffffffffffffffffffffffffffffffffffff163373ffffffffffffffffffffffffffffffffffffffff1614806109095750600360009054906101000a900473ffffffffffffffffffffffffffffffffffffffff1673ffffffffffffffffffffffffffffffffffffffff163373ffffffffffffffffffffffffffffffffffffffff16145b610948576040517f08c379a000000000000000000000000000000000000000000000000000000000815260040161093f9061540e565b60405180910390fd5b600073ffffffffffffffffffffffffffffffffffffffff168173ffffffffffffffffffffffffffffffffffffffff16036109b7576040517f08c379a00000000000000000000000000000000000000000000000000000000081526004016109ae906154a0565b60405180910390fd5b600260149054906101000a900460ff16610a06576040517f08c379a00000000000000000000000000000000000000000000000000000000081526004016109fd9061550c565b60405180910390fd5b80600260006101000a81548173ffffffffffffffffffffffffffffffffffffffff021916908373ffffffffffffffffffffffffffffffffffffffff16021790555050565b600260149054906101000a900460ff1681565b600854421115610a7457610a6f612aba565b610a7e565b610a7d81613fc7565b5b50565b60008073ffffffffffffffffffffffffffffffffffffffff168573ffffffffffffffffffffffffffffffffffffffff1614610af1576040517f08c379a0000000000000000000000000000000000000000000000000000000008152600401610ae89061559e565b60405180910390fd5b63150b7a0260e01b905095945050505050565b600a8181548110610b1457600080fd5b90600052602060002090600a02016000915090508060000160009054906101000a900473ffffffffffffffffffffffffffffffffffffffff1690806001015490806002015490806003015490806004015490806005015490806006015490806007015490806008015490806009015490508a565b610b90612f57565b73ffffffffffffffffffffffffffffffffffffffff163373ffffffffffffffffffffffffffffffffffffffff161480610c165750600360009054906101000a900473ffffffffffffffffffffffffffffffffffffffff1673ffffffffffffffffffffffffffffffffffffffff163373ffffffffffffffffffffffffffffffffffffffff16145b610c55576040517f08c379a0000000000000000000000000000000000000000000000000000000008152600401610c4c9061540e565b60405180910390fd5b610258851115610c9a576040517f08c379a0000000000000000000000000000000000000000000000000000000008152600401610c919061560a565b60405180910390fd5b610258841115610cdf576040517f08c379a0000000000000000000000000000000000000000000000000000000008152600401610cd690615676565b60405180910390fd5b428111610d21576040517f08c379a0000000000000000000000000000000000000000000000000000000008152600401610d18906156e2565b60405180910390fd5b62069780831115610d67576040517f08c379a0000000000000000000000000000000000000000000000000000000008152600401610d5e9061574e565b60405180910390fd5b610d6f612aba565b6000600f544211610d8257600f54610d84565b425b9050610d9b87600e54613fb190919063ffffffff16565b600e81905550600a6040518061014001604052808573ffffffffffffffffffffffffffffffffffffffff1681526020018981526020018881526020018781526020018381526020016000815260200160008152602001600081526020018481526020018681525090806001815401808255809150506001900390600052602060002090600a020160009091909190915060008201518160000160006101000a81548173ffffffffffffffffffffffffffffffffffffffff021916908373ffffffffffffffffffffffffffffffffffffffff1602179055506020820151816001015560408201518160020155606082015181600301556080820151816004015560a0820151816005015560c0820151816006015560e082015181600701556101008201518160080155610120820151816009015550506001600a80549050610ee2919061579d565b7f6522c988ab83344f888407d6757986c463d25535e089e84350bc5daee1aee44d84898989878a604051610f1b969594939291906157d1565b60405180910390a250505050505050565b600e5481565b6000610fbf600a8481548110610f4b57610f4a615832565b5b90600052602060002090600a020160090154600b600086815260200190815260200160002060008573ffffffffffffffffffffffffffffffffffffffff1673ffffffffffffffffffffffffffffffffffffffff16815260200190815260200160002060030154613fb190919063ffffffff16565b421015905092915050565b6a52b7d2dcc80cd2e400000081565b610fe1612f57565b73ffffffffffffffffffffffffffffffffffffffff163373ffffffffffffffffffffffffffffffffffffffff1614806110675750600360009054906101000a900473ffffffffffffffffffffffffffffffffffffffff1673ffffffffffffffffffffffffffffffffffffffff163373ffffffffffffffffffffffffffffffffffffffff16145b6110a6576040517f08c379a000000000000000000000000000000000000000000000000000000000815260040161109d9061540e565b60405180910390fd5b6102588411156110eb576040517f08c379a00000000000000000000000000000000000000000000000000000000081526004016110e2906158ad565b60405180910390fd5b610258831115611130576040517f08c379a000000000000000000000000000000000000000000000000000000000815260040161112790615919565b60405180910390fd5b428111611172576040517f08c379a000000000000000000000000000000000000000000000000000000000815260040161116990615985565b60405180910390fd5b620697808211156111b8576040517f08c379a00000000000000000000000000000000000000000000000000000000081526004016111af9061574e565b60405180910390fd5b6111c0612aba565b61120c856111fe600a89815481106111db576111da615832565b5b90600052602060002090600a020160010154600e54613f6f90919063ffffffff16565b613fb190919063ffffffff16565b600e8190555084600a878154811061122757611226615832565b5b90600052602060002090600a02016001018190555083600a878154811061125157611250615832565b5b90600052602060002090600a02016002018190555082600a878154811061127b5761127a615832565b5b90600052602060002090600a02016003018190555080600a87815481106112a5576112a4615832565b5b90600052602060002090600a02016008018190555081600a87815481106112cf576112ce615832565b5b90600052602060002090600a020160090181905550857fcc42a835c0ea2671b3e2321f105f8c18329510d2520883dfe62f972d44647527868686858760405161131c9594939291906159a5565b60405180910390a2505050505050565b600460009054906101000a900473ffffffffffffffffffffffffffffffffffffffff1681565b6000600a838154811061136857611367615832565b5b90600052602060002090600a020190506000600b600085815260200190815260200160002060003373ffffffffffffffffffffffffffffffffffffffff1673ffffffffffffffffffffffffffffffffffffffff16815260200190815260200160002090506000816000015411611413576040517f08c379a000000000000000000000000000000000000000000000000000000000815260040161140a90615a44565b60405180910390fd5b61141c84610a5d565b6000839050816001015481111561143557816001015490505b60006114828360020154611474670de0b6b3a764000061146688600501548860000154613f8590919063ffffffff16565b613f9b90919063ffffffff16565b613f6f90919063ffffffff16565b905060008111806114975750600083600a0154115b80156114bd57506114b984600901548460030154613fb190919063ffffffff16565b4210155b15611574577f000000000000000000000000000000000000000000000000000000000000000073ffffffffffffffffffffffffffffffffffffffff1663e4e103dc3361151686600a015485613fb190919063ffffffff16565b6040518363ffffffff1660e01b8152600401611533929190615a64565b600060405180830381600087803b15801561154d57600080fd5b505af1158015611561573d6000803e3d6000fd5b50505050600083600a018190555061159e565b600081111561159d5761159483600a015482613fb190919063ffffffff16565b83600a01819055505b5b60008211156117f65760006115db84600101546115cd64e8d4a510008760000154613f8590919063ffffffff16565b613f9b90919063ffffffff16565b90506115f4838560010154613f6f90919063ffffffff16565b846001018190555060008460000154905061163364e8d4a51000611625848860010154613f8590919063ffffffff16565b613f9b90919063ffffffff16565b8560000181905550611652848760070154613f6f90919063ffffffff16565b86600701819055506116878560000154611679838960060154613f6f90919063ffffffff16565b613fb190919063ffffffff16565b86600601819055506000866003015411156117a35760006116c96127106116bb896003015488613f8590919063ffffffff16565b613f9b90919063ffffffff16565b905061173c600460009054906101000a900473ffffffffffffffffffffffffffffffffffffffff16828960000160009054906101000a900473ffffffffffffffffffffffffffffffffffffffff1673ffffffffffffffffffffffffffffffffffffffff166142ca9092919063ffffffff16565b61179d336117538388613f6f90919063ffffffff16565b8960000160009054906101000a900473ffffffffffffffffffffffffffffffffffffffff1673ffffffffffffffffffffffffffffffffffffffff166142ca9092919063ffffffff16565b506117f3565b6117f233858860000160009054906101000a900473ffffffffffffffffffffffffffffffffffffffff1673ffffffffffffffffffffffffffffffffffffffff166142ca9092919063ffffffff16565b5b50505b6117ff86610a5d565b42836003018190555061183d670de0b6b3a764000061182f86600501548660000154613f8590919063ffffffff16565b613f9b90919063ffffffff16565b8360020181905550853373ffffffffffffffffffffffffffffffffffffffff167ff279e6a1f5e320cca91135676d9cb6e44ca8a08c0b88342bcdb1144f6511b5688460405161188c9190614a01565b60405180910390a3505050505050565b6118a4612f57565b73ffffffffffffffffffffffffffffffffffffffff163373ffffffffffffffffffffffffffffffffffffffff16148061192a5750600360009054906101000a900473ffffffffffffffffffffffffffffffffffffffff1673ffffffffffffffffffffffffffffffffffffffff163373ffffffffffffffffffffffffffffffffffffffff16145b611969576040517f08c379a00000000000000000000000000000000000000000000000000000000081526004016119609061540e565b60405180910390fd5b61197f6217bb0042613fb190919063ffffffff16565b82116119c0576040517f08c379a00000000000000000000000000000000000000000000000000000000081526004016119b790615ad9565b60405180910390fd5b80156119cf576119ce612aba565b5b6119e24283613f6f90919063ffffffff16565b600781905550611ad0600754611ac2600a611ab46009611aa6600160009054906101000a900473ffffffffffffffffffffffffffffffffffffffff1673ffffffffffffffffffffffffffffffffffffffff166318160ddd6040518163ffffffff1660e01b8152600401602060405180830381865afa158015611a68573d6000803e3d6000fd5b505050506040513d601f19601f82011682018060405250810190611a8c9190615b0e565b6a52b7d2dcc80cd2e4000000613f6f90919063ffffffff16565b613f8590919063ffffffff16565b613f9b90919063ffffffff16565b613f9b90919063ffffffff16565b600581905550816008819055507f232bc60e54c3a684fb69d1cde365a10c51105f4f8ba47a6cd0c5435192010a9c600554604051611b0e9190614a01565b60405180910390a15050565b600260009054906101000a900473ffffffffffffffffffffffffffffffffffffffff1681565b6000600a8281548110611b5657611b55615832565b5b90600052602060002090600a020190506000600b600084815260200190815260200160002060003373ffffffffffffffffffffffffffffffffffffffff1673ffffffffffffffffffffffffffffffffffffffff1681526020019081526020016000209050611c0d3382600101548460000160009054906101000a900473ffffffffffffffffffffffffffffffffffffffff1673ffffffffffffffffffffffffffffffffffffffff166142ca9092919063ffffffff16565b611c2881600101548360070154613f6f90919063ffffffff16565b8260070181905550611c4b81600001548360060154613f6f90919063ffffffff16565b8260060181905550600081600001819055506000816001018190555060008160020181905550600081600a0181905550428160030181905550823373ffffffffffffffffffffffffffffffffffffffff167fbb757047c2b5f3974fe26b7c10f732e7bce710b0952a71082702781e62ae05958360000154604051611ccf9190614a01565b60405180910390a3505050565b6000600a8481548110611cf257611cf1615832565b5b90600052602060002090600a020190506000600b600086815260200190815260200160002060003373ffffffffffffffffffffffffffffffffffffffff1673ffffffffffffffffffffffffffffffffffffffff16815260200190815260200160002090506000816009015411611d9d576040517f08c379a0000000000000000000000000000000000000000000000000000000008152600401611d9490615b87565b60405180910390fd5b611da685610a5d565b60008082600001541115611e0257611dff8260020154611df1670de0b6b3a7640000611de387600501548760000154613f8590919063ffffffff16565b613f9b90919063ffffffff16565b613f6f90919063ffffffff16565b90505b6000811180611e155750600082600a0154115b8015611e3b5750611e3783600901548360030154613fb190919063ffffffff16565b4210155b15611ef2577f000000000000000000000000000000000000000000000000000000000000000073ffffffffffffffffffffffffffffffffffffffff1663e4e103dc33611e9485600a015485613fb190919063ffffffff16565b6040518363ffffffff1660e01b8152600401611eb1929190615a64565b600060405180830381600087803b158015611ecb57600080fd5b505af1158015611edf573d6000803e3d6000fd5b50505050600082600a0181905550611f1c565b6000811115611f1b57611f1282600a015482613fb190919063ffffffff16565b82600a01819055505b5b60005b858590508110156121e4576000868683818110611f3f57611f3e615832565b5b9050602002013590503373ffffffffffffffffffffffffffffffffffffffff16600d600083815260200190815260200160002060009054906101000a900473ffffffffffffffffffffffffffffffffffffffff1673ffffffffffffffffffffffffffffffffffffffff1614611fe9576040517f08c379a0000000000000000000000000000000000000000000000000000000008152600401611fe090615bf3565b60405180910390fd5b6000611ff6893384614350565b905060008190505b6001866009015461200f919061579d565b81101561206857856004016001826120279190615c13565b6005811061203857612037615832565b5b01548660040182600581106120505761204f615832565b5b0181905550808061206090615c47565b915050611ffe565b5060008560040160018760090154612080919061579d565b6005811061209157612090615832565b5b01819055508460090160008154809291906120ab90615c8f565b91905055506000600d600084815260200190815260200160002060006101000a81548173ffffffffffffffffffffffffffffffffffffffff021916908373ffffffffffffffffffffffffffffffffffffffff1602179055507fc486b9458a8637650d84d262414833a5a457bc91ae86b7da110386c8c3fa255b33834260405161213693929190615cb8565b60405180910390a1600260009054906101000a900473ffffffffffffffffffffffffffffffffffffffff1673ffffffffffffffffffffffffffffffffffffffff166323b872dd3033856040518463ffffffff1660e01b815260040161219d93929190615cef565b600060405180830381600087803b1580156121b757600080fd5b505af11580156121cb573d6000803e3d6000fd5b50505050505080806121dc90615c47565b915050611f1f565b5061220082600001548460060154613f6f90919063ffffffff16565b8360060181905550816001015482600001819055506000826009015411156122b05760005b82600901548110156122ae57612293612710612285600c600087600401866005811061225457612253615832565b5b01548152602001908152602001600020546127106122729190615c13565b8660000154613f8590919063ffffffff16565b613f9b90919063ffffffff16565b836000018190555080806122a690615c47565b915050612225565b505b6122cb82600001548460060154613fb190919063ffffffff16565b83600601819055506122dc86610a5d565b42826003018190555061231a670de0b6b3a764000061230c85600501548560000154613f8590919063ffffffff16565b613f9b90919063ffffffff16565b8260020181905550505050505050565b612332612f57565b73ffffffffffffffffffffffffffffffffffffffff163373ffffffffffffffffffffffffffffffffffffffff1614806123b85750600360009054906101000a900473ffffffffffffffffffffffffffffffffffffffff1673ffffffffffffffffffffffffffffffffffffffff163373ffffffffffffffffffffffffffffffffffffffff16145b6123f7576040517f08c379a00000000000000000000000000000000000000000000000000000000081526004016123ee9061540e565b60405180910390fd5b6000810361243a576040517f08c379a000000000000000000000000000000000000000000000000000000000815260040161243190615d98565b60405180910390fd5b8060068190555050565b6000600a848154811061245a57612459615832565b5b90600052602060002090600a020190506000600b600086815260200190815260200160002060003373ffffffffffffffffffffffffffffffffffffffff1673ffffffffffffffffffffffffffffffffffffffff16815260200190815260200160002090506000816000015411612505576040517f08c379a00000000000000000000000000000000000000000000000000000000081526004016124fc90615a44565b60405180910390fd5b6005612521826009015486869050613fb190919063ffffffff16565b1115612562576040517f08c379a000000000000000000000000000000000000000000000000000000000815260040161255990615e04565b60405180910390fd5b61256b85610a5d565b600080826000015411156125c7576125c482600201546125b6670de0b6b3a76400006125a887600501548760000154613f8590919063ffffffff16565b613f9b90919063ffffffff16565b613f6f90919063ffffffff16565b90505b60008111806125da5750600082600a0154115b801561260057506125fc83600901548360030154613fb190919063ffffffff16565b4210155b156126b7577f000000000000000000000000000000000000000000000000000000000000000073ffffffffffffffffffffffffffffffffffffffff1663e4e103dc3361265985600a015485613fb190919063ffffffff16565b6040518363ffffffff1660e01b8152600401612676929190615a64565b600060405180830381600087803b15801561269057600080fd5b505af11580156126a4573d6000803e3d6000fd5b50505050600082600a01819055506126e1565b60008111156126e0576126d782600a015482613fb190919063ffffffff16565b82600a01819055505b5b60005b8585905081101561298257600086868381811061270457612703615832565b5b9050602002013590503373ffffffffffffffffffffffffffffffffffffffff16600260009054906101000a900473ffffffffffffffffffffffffffffffffffffffff1673ffffffffffffffffffffffffffffffffffffffff16636352211e836040518263ffffffff1660e01b815260040161277f9190614a01565b602060405180830381865afa15801561279c573d6000803e3d6000fd5b505050506040513d601f19601f820116820180604052508101906127c09190615e39565b73ffffffffffffffffffffffffffffffffffffffff1614612816576040517f08c379a000000000000000000000000000000000000000000000000000000000815260040161280d90615eb2565b60405180910390fd5b600260009054906101000a900473ffffffffffffffffffffffffffffffffffffffff1673ffffffffffffffffffffffffffffffffffffffff166323b872dd3330846040518463ffffffff1660e01b815260040161287593929190615cef565b600060405180830381600087803b15801561288f57600080fd5b505af11580156128a3573d6000803e3d6000fd5b5050505080846004018560090154600581106128c2576128c1615832565b5b01819055508360090160008154809291906128dc90615c47565b919050555033600d600083815260200190815260200160002060006101000a81548173ffffffffffffffffffffffffffffffffffffffff021916908373ffffffffffffffffffffffffffffffffffffffff1602179055507f36b3725f1783bad4ff05b7f4c077c3aa68eeb23a4d054ba189db4d01ac278d3933824260405161296693929190615cb8565b60405180910390a150808061297a90615c47565b9150506126e4565b5061299e82600001548460060154613f6f90919063ffffffff16565b83600601819055508160010154826000018190555060005b8260090154811015612a3f57612a24612710612a16600c60008760040186600581106129e5576129e4615832565b5b0154815260200190815260200160002054612710612a039190615c13565b8660000154613f8590919063ffffffff16565b613f9b90919063ffffffff16565b83600001819055508080612a3790615c47565b9150506129b6565b50612a5b82600001548460060154613fb190919063ffffffff16565b8360060181905550612a6c86610a5d565b428260030181905550612aaa670de0b6b3a7640000612a9c85600501548560000154613f8590919063ffffffff16565b613f9b90919063ffffffff16565b8260020181905550505050505050565b6000600a80549050905060005b81811015612ae957612ad881613fc7565b80612ae290615c47565b9050612ac7565b50600854421115612b4657612b0960075442613fb190919063ffffffff16565b600881905550600060058190555060005b81811015612b3c57612b2b81613fc7565b80612b3590615c47565b9050612b1a565b50612b45614435565b5b50565b6000612b746009612b66600a600554613f8590919063ffffffff16565b613f9b90919063ffffffff16565b905090565b612b8161455e565b612b8b60006145dc565b565b612b9561455e565b600960009054906101000a900460ff16612be4576040517f08c379a0000000000000000000000000000000000000000000000000000000008152600401612bdb90615f1e565b60405180910390fd5b6000600960006101000a81548160ff021916908315150217905550565b600c6020528060005260406000206000915090505481565b612c216149c6565b6000600b600085815260200190815260200160002060008473ffffffffffffffffffffffffffffffffffffffff1673ffffffffffffffffffffffffffffffffffffffff168152602001908152602001600020905080600401600580602002604051908101604052809291908260058015612cb0576020028201915b815481526020019060010190808311612c9c575b505050505091505092915050565b6000612cc8612f57565b73ffffffffffffffffffffffffffffffffffffffff163373ffffffffffffffffffffffffffffffffffffffff161480612d4e5750600360009054906101000a900473ffffffffffffffffffffffffffffffffffffffff1673ffffffffffffffffffffffffffffffffffffffff163373ffffffffffffffffffffffffffffffffffffffff16145b612d8d576040517f08c379a0000000000000000000000000000000000000000000000000000000008152600401612d849061540e565b60405180910390fd5b600073ffffffffffffffffffffffffffffffffffffffff168273ffffffffffffffffffffffffffffffffffffffff1603612dfc576040517f08c379a0000000000000000000000000000000000000000000000000000000008152600401612df390615fb0565b60405180910390fd5b81600460006101000a81548173ffffffffffffffffffffffffffffffffffffffff021916908373ffffffffffffffffffffffffffffffffffffffff1602179055507f06dda798b6f2d5a0ba79bbdd7670b8eebf920cb97efececa0fead28349df475082604051612e6c9190614f63565b60405180910390a160019050919050565b60065481565b600360009054906101000a900473ffffffffffffffffffffffffffffffffffffffff1673ffffffffffffffffffffffffffffffffffffffff163373ffffffffffffffffffffffffffffffffffffffff1614612f13576040517f08c379a0000000000000000000000000000000000000000000000000000000008152600401612f0a9061601c565b60405180910390fd5b80600360006101000a81548173ffffffffffffffffffffffffffffffffffffffff021916908373ffffffffffffffffffffffffffffffffffffffff16021790555050565b60008060009054906101000a900473ffffffffffffffffffffffffffffffffffffffff16905090565b6000612fa9600654612f9b8585613f6f90919063ffffffff16565b613f8590919063ffffffff16565b905092915050565b60055481565b600b6020528160005260406000206020528060005260406000206000915091505080600001549080600101549080600201549080600301549080600901549080600a0154905086565b600080600a848154811061301757613016615832565b5b90600052602060002090600a020190506000600b600086815260200190815260200160002060008573ffffffffffffffffffffffffffffffffffffffff1673ffffffffffffffffffffffffffffffffffffffff16815260200190815260200160002090506000826005015490506000836006015490508360040154421180156130a1575060008114155b80156130b057506000600e5414155b1561317f5760006008544210156130df57846008015442106130d65784600801546130d8565b425b90506130e5565b60085490505b60006130f5866004015483612f80565b90506000613138600e5461312a896001015461311c60055487613f8590919063ffffffff16565b613f8590919063ffffffff16565b613f9b90919063ffffffff16565b905061317961316a8561315c670de0b6b3a764000085613f8590919063ffffffff16565b613f9b90919063ffffffff16565b86613fb190919063ffffffff16565b94505050505b6131dc83600201546131ce85600a01546131c0670de0b6b3a76400006131b2888a60000154613f8590919063ffffffff16565b613f9b90919063ffffffff16565b613fb190919063ffffffff16565b613f6f90919063ffffffff16565b94505050505092915050565b6131f061455e565b600960009054906101000a900460ff1661323f576040517f08c379a000000000000000000000000000000000000000000000000000000000815260040161323690615f1e565b60405180910390fd5b600160009054906101000a900473ffffffffffffffffffffffffffffffffffffffff1673ffffffffffffffffffffffffffffffffffffffff1663f2fde38b826040518263ffffffff1660e01b815260040161329a9190614f63565b600060405180830381600087803b1580156132b457600080fd5b505af11580156132c8573d6000803e3d6000fd5b5050505050565b6132d7612f57565b73ffffffffffffffffffffffffffffffffffffffff163373ffffffffffffffffffffffffffffffffffffffff16148061335d5750600360009054906101000a900473ffffffffffffffffffffffffffffffffffffffff1673ffffffffffffffffffffffffffffffffffffffff163373ffffffffffffffffffffffffffffffffffffffff16145b61339c576040517f08c379a00000000000000000000000000000000000000000000000000000000081526004016133939061540e565b60405180910390fd5b600082829050905060005b81811015613412578383828181106133c2576133c1615832565b5b90506040020160200135600c60008686858181106133e3576133e2615832565b5b90506040020160000135815260200190815260200160002081905550808061340a90615c47565b9150506133a7565b50505050565b60075481565b600d6020528060005260406000206000915054906101000a900473ffffffffffffffffffffffffffffffffffffffff1681565b613459612f57565b73ffffffffffffffffffffffffffffffffffffffff163373ffffffffffffffffffffffffffffffffffffffff1614806134df5750600360009054906101000a900473ffffffffffffffffffffffffffffffffffffffff1673ffffffffffffffffffffffffffffffffffffffff163373ffffffffffffffffffffffffffffffffffffffff16145b61351e576040517f08c379a00000000000000000000000000000000000000000000000000000000081526004016135159061540e565b60405180910390fd5b42600f5411613562576040517f08c379a000000000000000000000000000000000000000000000000000000000815260040161355990616088565b60405180910390fd5b4281116135a4576040517f08c379a000000000000000000000000000000000000000000000000000000000815260040161359b906160f4565b60405180910390fd5b6135ac612aba565b80600f819055506000600a80549050905060005b81811015613609576000600a82815481106135de576135dd615832565b5b90600052602060002090600a02019050838160040181905550508061360290615c47565b90506135c0565b507fa90edae3cef11606c5bb1d88f07e1a75420ce8660ece07077deb4a1e358e99b4826040516136399190614a01565b60405180910390a15050565b60085481565b600360009054906101000a900473ffffffffffffffffffffffffffffffffffffffff1681565b6000600a838154811061368757613686615832565b5b90600052602060002090600a020190506000600b600085815260200190815260200160002060003373ffffffffffffffffffffffffffffffffffffffff1673ffffffffffffffffffffffffffffffffffffffff16815260200190815260200160002090506136f484610a5d565b600080826000015411156137505761374d826002015461373f670de0b6b3a764000061373187600501548760000154613f8590919063ffffffff16565b613f9b90919063ffffffff16565b613f6f90919063ffffffff16565b90505b60008111806137635750600082600a0154115b8015613789575061378583600901548360030154613fb190919063ffffffff16565b4210155b15613840577f000000000000000000000000000000000000000000000000000000000000000073ffffffffffffffffffffffffffffffffffffffff1663e4e103dc336137e285600a015485613fb190919063ffffffff16565b6040518363ffffffff1660e01b81526004016137ff929190615a64565b600060405180830381600087803b15801561381957600080fd5b505af115801561382d573d6000803e3d6000fd5b50505050600082600a018190555061386a565b60008111156138695761386082600a015482613fb190919063ffffffff16565b82600a01819055505b5b6000841115613cfa5760008360000160009054906101000a900473ffffffffffffffffffffffffffffffffffffffff1673ffffffffffffffffffffffffffffffffffffffff166370a08231306040518263ffffffff1660e01b81526004016138d29190614f63565b602060405180830381865afa1580156138ef573d6000803e3d6000fd5b505050506040513d601f19601f820116820180604052508101906139139190615b0e565b90506139663330878760000160009054906101000a900473ffffffffffffffffffffffffffffffffffffffff1673ffffffffffffffffffffffffffffffffffffffff166146a0909392919063ffffffff16565b60008460000160009054906101000a900473ffffffffffffffffffffffffffffffffffffffff1673ffffffffffffffffffffffffffffffffffffffff166370a08231306040518263ffffffff1660e01b81526004016139c59190614f63565b602060405180830381865afa1580156139e2573d6000803e3d6000fd5b505050506040513d601f19601f82011682018060405250810190613a069190615b0e565b9050613a1b8282613f6f90919063ffffffff16565b9550600085600201541115613bf5576000613a57612710613a4988600201548a613f8590919063ffffffff16565b613f9b90919063ffffffff16565b9050613aca600460009054906101000a900473ffffffffffffffffffffffffffffffffffffffff16828860000160009054906101000a900473ffffffffffffffffffffffffffffffffffffffff1673ffffffffffffffffffffffffffffffffffffffff166142ca9092919063ffffffff16565b600080866001015411613ae25764e8d4a51000613b15565b613b148660010154613b0664e8d4a510008960000154613f8590919063ffffffff16565b613f9b90919063ffffffff16565b5b9050613b4082613b328a8960010154613fb190919063ffffffff16565b613f6f90919063ffffffff16565b8660010181905550600086600001549050613b7f64e8d4a51000613b71848a60010154613f8590919063ffffffff16565b613f9b90919063ffffffff16565b8760000181905550613bb083613ba28b8b60070154613fb190919063ffffffff16565b613f6f90919063ffffffff16565b8860070181905550613be58760000154613bd7838b60060154613f6f90919063ffffffff16565b613fb190919063ffffffff16565b8860060181905550505050613cf7565b600080856001015411613c0d5764e8d4a51000613c40565b613c3f8560010154613c3164e8d4a510008860000154613f8590919063ffffffff16565b613f9b90919063ffffffff16565b5b9050613c59878660010154613fb190919063ffffffff16565b8560010181905550600085600001549050613c9864e8d4a51000613c8a848960010154613f8590919063ffffffff16565b613f9b90919063ffffffff16565b8660000181905550613cb7888860070154613fb190919063ffffffff16565b8760070181905550613cec8660000154613cde838a60060154613f6f90919063ffffffff16565b613fb190919063ffffffff16565b876006018190555050505b50505b613d0385610a5d565b428260030181905550613d41670de0b6b3a7640000613d3385600501548560000154613f8590919063ffffffff16565b613f9b90919063ffffffff16565b8260020181905550843373ffffffffffffffffffffffffffffffffffffffff167f90890809c654f11d6e72a28fa60149770a0d11ec6c92319d6ceb2bb0a4ea1a1586604051613d909190614a01565b60405180910390a35050505050565b613da7612f57565b73ffffffffffffffffffffffffffffffffffffffff163373ffffffffffffffffffffffffffffffffffffffff161480613e2d5750600360009054906101000a900473ffffffffffffffffffffffffffffffffffffffff1673ffffffffffffffffffffffffffffffffffffffff163373ffffffffffffffffffffffffffffffffffffffff16145b613e6c576040517f08c379a0000000000000000000000000000000000000000000000000000000008152600401613e639061540e565b60405180910390fd5b6000600260146101000a81548160ff021916908315150217905550565b600f5481565b600960009054906101000a900460ff1681565b613eaa61455e565b600073ffffffffffffffffffffffffffffffffffffffff168173ffffffffffffffffffffffffffffffffffffffff1603613f19576040517f08c379a0000000000000000000000000000000000000000000000000000000008152600401613f1090616186565b60405180910390fd5b613f22816145dc565b50565b600160009054906101000a900473ffffffffffffffffffffffffffffffffffffffff1681565b7f000000000000000000000000000000000000000000000000000000000000000081565b60008183613f7d919061579d565b905092915050565b60008183613f9391906161a6565b905092915050565b60008183613fa99190616217565b905092915050565b60008183613fbf9190615c13565b905092915050565b6000600a8281548110613fdd57613fdc615832565b5b90600052602060002090600a0201905080600401544211613ffe57506142c7565b6000816006015490506000600854421015614031578260080154421061402857826008015461402a565b425b9050614037565b60085490505b60008203614050578083600401819055505050506142c7565b600083600101540361406d578083600401819055505050506142c7565b600080600e54146140cd576000614088856004015484612f80565b90506140c9600e546140bb87600101546140ad60055486613f8590919063ffffffff16565b613f8590919063ffffffff16565b613f9b90919063ffffffff16565b9150505b600081111561426e57600160009054906101000a900473ffffffffffffffffffffffffffffffffffffffff1673ffffffffffffffffffffffffffffffffffffffff166340c10f19600460009054906101000a900473ffffffffffffffffffffffffffffffffffffffff1661414b600985613f9b90919063ffffffff16565b6040518363ffffffff1660e01b8152600401614168929190615a64565b6020604051808303816000875af1158015614187573d6000803e3d6000fd5b505050506040513d601f19601f820116820180604052508101906141ab919061625d565b50600160009054906101000a900473ffffffffffffffffffffffffffffffffffffffff1673ffffffffffffffffffffffffffffffffffffffff166340c10f197f0000000000000000000000000000000000000000000000000000000000000000836040518363ffffffff1660e01b8152600401614229929190615a64565b6020604051808303816000875af1158015614248573d6000803e3d6000fd5b505050506040513d601f19601f8201168201806040525081019061426c919061625d565b505b6142b161429e84614290670de0b6b3a764000085613f8590919063ffffffff16565b613f9b90919063ffffffff16565b8560050154613fb190919063ffffffff16565b8460050181905550818460040181905550505050505b50565b61434b8363a9059cbb60e01b84846040516024016142e9929190615a64565b604051602081830303815290604052907bffffffffffffffffffffffffffffffffffffffffffffffffffffffff19166020820180517bffffffffffffffffffffffffffffffffffffffffffffffffffffffff8381831617835250505050614729565b505050565b600080600b600086815260200190815260200160002060008573ffffffffffffffffffffffffffffffffffffffff1673ffffffffffffffffffffffffffffffffffffffff1681526020019081526020016000206004016005806020026040519081016040528092919082600580156143dd576020028201915b8154815260200190600101908083116143c9575b5050505050905060005b600581101561442b578382826005811061440457614403615832565b5b60200201510361441857809250505061442e565b808061442390615c47565b9150506143e7565b50505b9392505050565b61451d60075461450f600a61450160096144f3600160009054906101000a900473ffffffffffffffffffffffffffffffffffffffff1673ffffffffffffffffffffffffffffffffffffffff166318160ddd6040518163ffffffff1660e01b8152600401602060405180830381865afa1580156144b5573d6000803e3d6000fd5b505050506040513d601f19601f820116820180604052508101906144d99190615b0e565b6a52b7d2dcc80cd2e4000000613f6f90919063ffffffff16565b613f8590919063ffffffff16565b613f9b90919063ffffffff16565b613f9b90919063ffffffff16565b6005819055507f232bc60e54c3a684fb69d1cde365a10c51105f4f8ba47a6cd0c5435192010a9c6005546040516145549190614a01565b60405180910390a1565b6145666147f1565b73ffffffffffffffffffffffffffffffffffffffff16614584612f57565b73ffffffffffffffffffffffffffffffffffffffff16146145da576040517f08c379a00000000000000000000000000000000000000000000000000000000081526004016145d1906162d6565b60405180910390fd5b565b60008060009054906101000a900473ffffffffffffffffffffffffffffffffffffffff169050816000806101000a81548173ffffffffffffffffffffffffffffffffffffffff021916908373ffffffffffffffffffffffffffffffffffffffff1602179055508173ffffffffffffffffffffffffffffffffffffffff168173ffffffffffffffffffffffffffffffffffffffff167f8be0079c531659141344cd1fd0a4f28419497f9722a3daafe3b4186f6b6457e060405160405180910390a35050565b614723846323b872dd60e01b8585856040516024016146c193929190615cef565b604051602081830303815290604052907bffffffffffffffffffffffffffffffffffffffffffffffffffffffff19166020820180517bffffffffffffffffffffffffffffffffffffffffffffffffffffffff8381831617835250505050614729565b50505050565b600061478b826040518060400160405280602081526020017f5361666545524332303a206c6f772d6c6576656c2063616c6c206661696c65648152508573ffffffffffffffffffffffffffffffffffffffff166147f99092919063ffffffff16565b90506000815114806147ad5750808060200190518101906147ac919061625d565b5b6147ec576040517f08c379a00000000000000000000000000000000000000000000000000000000081526004016147e390616368565b60405180910390fd5b505050565b600033905090565b60606148088484600085614811565b90509392505050565b606082471015614856576040517f08c379a000000000000000000000000000000000000000000000000000000000815260040161484d906163fa565b60405180910390fd5b6000808673ffffffffffffffffffffffffffffffffffffffff16858760405161487f919061648b565b60006040518083038185875af1925050503d80600081146148bc576040519150601f19603f3d011682016040523d82523d6000602084013e6148c1565b606091505b50915091506148d2878383876148de565b92505050949350505050565b60608315614940576000835103614938576148f885614953565b614937576040517f08c379a000000000000000000000000000000000000000000000000000000000815260040161492e906164ee565b60405180910390fd5b5b82905061494b565b61494a8383614976565b5b949350505050565b6000808273ffffffffffffffffffffffffffffffffffffffff163b119050919050565b6000825111156149895781518083602001fd5b806040517f08c379a00000000000000000000000000000000000000000000000000000000081526004016149bd9190616563565b60405180910390fd5b6040518060a00160405280600590602082028036833780820191505090505090565b6000819050919050565b6149fb816149e8565b82525050565b6000602082019050614a1660008301846149f2565b92915050565b600080fd5b600080fd5b600073ffffffffffffffffffffffffffffffffffffffff82169050919050565b6000614a5182614a26565b9050919050565b6000614a6382614a46565b9050919050565b614a7381614a58565b8114614a7e57600080fd5b50565b600081359050614a9081614a6a565b92915050565b600060208284031215614aac57614aab614a1c565b5b6000614aba84828501614a81565b91505092915050565b60008115159050919050565b614ad881614ac3565b82525050565b6000602082019050614af36000830184614acf565b92915050565b614b02816149e8565b8114614b0d57600080fd5b50565b600081359050614b1f81614af9565b92915050565b600060208284031215614b3b57614b3a614a1c565b5b6000614b4984828501614b10565b91505092915050565b614b5b81614a46565b8114614b6657600080fd5b50565b600081359050614b7881614b52565b92915050565b600080fd5b600080fd5b600080fd5b60008083601f840112614ba357614ba2614b7e565b5b8235905067ffffffffffffffff811115614bc057614bbf614b83565b5b602083019150836001820283011115614bdc57614bdb614b88565b5b9250929050565b600080600080600060808688031215614bff57614bfe614a1c565b5b6000614c0d88828901614b69565b9550506020614c1e88828901614b69565b9450506040614c2f88828901614b10565b935050606086013567ffffffffffffffff811115614c5057614c4f614a21565b5b614c5c88828901614b8d565b92509250509295509295909350565b60007fffffffff0000000000000000000000000000000000000000000000000000000082169050919050565b614ca081614c6b565b82525050565b6000602082019050614cbb6000830184614c97565b92915050565b6000819050919050565b6000614ce6614ce1614cdc84614a26565b614cc1565b614a26565b9050919050565b6000614cf882614ccb565b9050919050565b6000614d0a82614ced565b9050919050565b614d1a81614cff565b82525050565b600061014082019050614d36600083018d614d11565b614d43602083018c6149f2565b614d50604083018b6149f2565b614d5d606083018a6149f2565b614d6a60808301896149f2565b614d7760a08301886149f2565b614d8460c08301876149f2565b614d9160e08301866149f2565b614d9f6101008301856149f2565b614dad6101208301846149f2565b9b9a5050505050505050505050565b6000614dc782614a46565b9050919050565b614dd781614dbc565b8114614de257600080fd5b50565b600081359050614df481614dce565b92915050565b60008060008060008060c08789031215614e1757614e16614a1c565b5b6000614e2589828a01614b10565b9650506020614e3689828a01614b10565b9550506040614e4789828a01614b10565b9450506060614e5889828a01614b10565b9350506080614e6989828a01614de5565b92505060a0614e7a89828a01614b10565b9150509295509295509295565b60008060408385031215614e9e57614e9d614a1c565b5b6000614eac85828601614b10565b9250506020614ebd85828601614b69565b9150509250929050565b60008060008060008060c08789031215614ee457614ee3614a1c565b5b6000614ef289828a01614b10565b9650506020614f0389828a01614b10565b9550506040614f1489828a01614b10565b9450506060614f2589828a01614b10565b9350506080614f3689828a01614b10565b92505060a0614f4789828a01614b10565b9150509295509295509295565b614f5d81614a46565b82525050565b6000602082019050614f786000830184614f54565b92915050565b60008060408385031215614f9557614f94614a1c565b5b6000614fa385828601614b10565b9250506020614fb485828601614b10565b9150509250929050565b614fc781614ac3565b8114614fd257600080fd5b50565b600081359050614fe481614fbe565b92915050565b6000806040838503121561500157615000614a1c565b5b600061500f85828601614b10565b925050602061502085828601614fd5565b9150509250929050565b600061503582614ced565b9050919050565b6150458161502a565b82525050565b6000602082019050615060600083018461503c565b92915050565b60008083601f84011261507c5761507b614b7e565b5b8235905067ffffffffffffffff81111561509957615098614b83565b5b6020830191508360208202830111156150b5576150b4614b88565b5b9250929050565b6000806000604084860312156150d5576150d4614a1c565b5b60006150e386828701614b10565b935050602084013567ffffffffffffffff81111561510457615103614a21565b5b61511086828701615066565b92509250509250925092565b600060059050919050565b600081905092915050565b6000819050919050565b615145816149e8565b82525050565b6000615157838361513c565b60208301905092915050565b6000602082019050919050565b6151798161511c565b6151838184615127565b925061518e82615132565b8060005b838110156151bf5781516151a6878261514b565b96506151b183615163565b925050600181019050615192565b505050505050565b600060a0820190506151dc6000830184615170565b92915050565b6000602082840312156151f8576151f7614a1c565b5b600061520684828501614b69565b91505092915050565b600060c08201905061522460008301896149f2565b61523160208301886149f2565b61523e60408301876149f2565b61524b60608301866149f2565b61525860808301856149f2565b61526560a08301846149f2565b979650505050505050565b60008083601f84011261528657615285614b7e565b5b8235905067ffffffffffffffff8111156152a3576152a2614b83565b5b6020830191508360408202830111156152bf576152be614b88565b5b9250929050565b600080602083850312156152dd576152dc614a1c565b5b600083013567ffffffffffffffff8111156152fb576152fa614a21565b5b61530785828601615270565b92509250509250929050565b600061531e82614ced565b9050919050565b61532e81615313565b82525050565b60006020820190506153496000830184615325565b92915050565b600061535a82614ced565b9050919050565b61536a8161534f565b82525050565b60006020820190506153856000830184615361565b92915050565b600082825260208201905092915050565b7f4572726f723a205265717569726520646576656c6f706572206f72204f776e6560008201527f7200000000000000000000000000000000000000000000000000000000000000602082015250565b60006153f860218361538b565b91506154038261539c565b604082019050919050565b60006020820190508181036000830152615427816153eb565b9050919050565b7f4e465420616464726573732063616e6e6f7420626520746865207a65726f206160008201527f6464726573730000000000000000000000000000000000000000000000000000602082015250565b600061548a60268361538b565b91506154958261542e565b604082019050919050565b600060208201905081810360008301526154b98161547d565b9050919050565b7f4e46542063616e6e6f74206265206368616e6765640000000000000000000000600082015250565b60006154f660158361538b565b9150615501826154c0565b602082019050919050565b60006020820190508181036000830152615525816154e9565b9050919050565b7f43616e6e6f742073656e64206e66747320746f205661756c742064697265637460008201527f6c79000000000000000000000000000000000000000000000000000000000000602082015250565b600061558860228361538b565b91506155938261552c565b604082019050919050565b600060208201905081810360008301526155b78161557b565b9050919050565b7f414444203a204d6178204465706f736974206665652069732036250000000000600082015250565b60006155f4601b8361538b565b91506155ff826155be565b602082019050919050565b60006020820190508181036000830152615623816155e7565b9050919050565b7f414444203a204d6178205769746864726177616c206665652069732036250000600082015250565b6000615660601e8361538b565b915061566b8261562a565b602082019050919050565b6000602082019050818103600083015261568f81615653565b9050919050565b7f414444203a20696e76616c696420726577617264456e6454696d657374616d70600082015250565b60006156cc60208361538b565b91506156d782615696565b602082019050919050565b600060208201905081810360008301526156fb816156bf565b9050919050565b7f6d6178206861727665737420696e74657276616c206973203520646179730000600082015250565b6000615738601e8361538b565b915061574382615702565b602082019050919050565b600060208201905081810360008301526157678161572b565b9050919050565b7f4e487b7100000000000000000000000000000000000000000000000000000000600052601160045260246000fd5b60006157a8826149e8565b91506157b3836149e8565b92508282039050818111156157cb576157ca61576e565b5b92915050565b600060c0820190506157e66000830189614f54565b6157f360208301886149f2565b61580060408301876149f2565b61580d60608301866149f2565b61581a60808301856149f2565b61582760a08301846149f2565b979650505050505050565b7f4e487b7100000000000000000000000000000000000000000000000000000000600052603260045260246000fd5b7f534554203a204d6178204465706f736974206665652069732036250000000000600082015250565b6000615897601b8361538b565b91506158a282615861565b602082019050919050565b600060208201905081810360008301526158c68161588a565b9050919050565b7f534554203a204d6178205769746864726177616c206665652069732036250000600082015250565b6000615903601e8361538b565b915061590e826158cd565b602082019050919050565b60006020820190508181036000830152615932816158f6565b9050919050565b7f534554203a20696e76616c696420726577617264456e6454696d657374616d70600082015250565b600061596f60208361538b565b915061597a82615939565b602082019050919050565b6000602082019050818103600083015261599e81615962565b9050919050565b600060a0820190506159ba60008301886149f2565b6159c760208301876149f2565b6159d460408301866149f2565b6159e160608301856149f2565b6159ee60808301846149f2565b9695505050505050565b7f4e6f7468696e67206465706f73697465642e0000000000000000000000000000600082015250565b6000615a2e60128361538b565b9150615a39826159f8565b602082019050919050565b60006020820190508181036000830152615a5d81615a21565b9050919050565b6000604082019050615a796000830185614f54565b615a8660208301846149f2565b9392505050565b7f4d696e696d756d206475726174696f6e20697320313820646179730000000000600082015250565b6000615ac3601b8361538b565b9150615ace82615a8d565b602082019050919050565b60006020820190508181036000830152615af281615ab6565b9050919050565b600081519050615b0881614af9565b92915050565b600060208284031215615b2457615b23614a1c565b5b6000615b3284828501615af9565b91505092915050565b7f6e6f206e6674207374616b656421000000000000000000000000000000000000600082015250565b6000615b71600e8361538b565b9150615b7c82615b3b565b602082019050919050565b60006020820190508181036000830152615ba081615b64565b9050919050565b7f6e6f7420746865206e6674206f776e6572000000000000000000000000000000600082015250565b6000615bdd60118361538b565b9150615be882615ba7565b602082019050919050565b60006020820190508181036000830152615c0c81615bd0565b9050919050565b6000615c1e826149e8565b9150615c29836149e8565b9250828201905080821115615c4157615c4061576e565b5b92915050565b6000615c52826149e8565b91507fffffffffffffffffffffffffffffffffffffffffffffffffffffffffffffffff8203615c8457615c8361576e565b5b600182019050919050565b6000615c9a826149e8565b915060008203615cad57615cac61576e565b5b600182039050919050565b6000606082019050615ccd6000830186614f54565b615cda60208301856149f2565b615ce760408301846149f2565b949350505050565b6000606082019050615d046000830186614f54565b615d116020830185614f54565b615d1e60408301846149f2565b949350505050565b7f206d756c7469706c6965724e756d6265722073686f756c64206e6f742062652060008201527f6e756c6c00000000000000000000000000000000000000000000000000000000602082015250565b6000615d8260248361538b565b9150615d8d82615d26565b604082019050919050565b60006020820190508181036000830152615db181615d75565b9050919050565b7f6d6178696d756d207374616b652035204e465473000000000000000000000000600082015250565b6000615dee60148361538b565b9150615df982615db8565b602082019050919050565b60006020820190508181036000830152615e1d81615de1565b9050919050565b600081519050615e3381614b52565b92915050565b600060208284031215615e4f57615e4e614a1c565b5b6000615e5d84828501615e24565b91505092915050565b7f6e6f7420796f757220746f6b656e000000000000000000000000000000000000600082015250565b6000615e9c600e8361538b565b9150615ea782615e66565b602082019050919050565b60006020820190508181036000830152615ecb81615e8f565b9050919050565b7f736574206d61737465722064697361626c656421000000000000000000000000600082015250565b6000615f0860148361538b565b9150615f1382615ed2565b602082019050919050565b60006020820190508181036000830152615f3781615efb565b9050919050565b7f5a4b483a20466565416464726573732063616e6e6f7420626520746865207a6560008201527f726f206164647265737300000000000000000000000000000000000000000000602082015250565b6000615f9a602a8361538b565b9150615fa582615f3e565b604082019050919050565b60006020820190508181036000830152615fc981615f8d565b9050919050565b7f6465763a207775743f0000000000000000000000000000000000000000000000600082015250565b600061600660098361538b565b915061601182615fd0565b602082019050919050565b6000602082019050818103600083015261603581615ff9565b9050919050565b7f616c726561647920737461727465640000000000000000000000000000000000600082015250565b6000616072600f8361538b565b915061607d8261603c565b602082019050919050565b600060208201905081810360008301526160a181616065565b9050919050565b7f496e76616c69642054696d657374616d70000000000000000000000000000000600082015250565b60006160de60118361538b565b91506160e9826160a8565b602082019050919050565b6000602082019050818103600083015261610d816160d1565b9050919050565b7f4f776e61626c653a206e6577206f776e657220697320746865207a65726f206160008201527f6464726573730000000000000000000000000000000000000000000000000000602082015250565b600061617060268361538b565b915061617b82616114565b604082019050919050565b6000602082019050818103600083015261619f81616163565b9050919050565b60006161b1826149e8565b91506161bc836149e8565b92508282026161ca816149e8565b915082820484148315176161e1576161e061576e565b5b5092915050565b7f4e487b7100000000000000000000000000000000000000000000000000000000600052601260045260246000fd5b6000616222826149e8565b915061622d836149e8565b92508261623d5761623c6161e8565b5b828204905092915050565b60008151905061625781614fbe565b92915050565b60006020828403121561627357616272614a1c565b5b600061628184828501616248565b91505092915050565b7f4f776e61626c653a2063616c6c6572206973206e6f7420746865206f776e6572600082015250565b60006162c060208361538b565b91506162cb8261628a565b602082019050919050565b600060208201905081810360008301526162ef816162b3565b9050919050565b7f5361666545524332303a204552433230206f7065726174696f6e20646964206e60008201527f6f74207375636365656400000000000000000000000000000000000000000000602082015250565b6000616352602a8361538b565b915061635d826162f6565b604082019050919050565b6000602082019050818103600083015261638181616345565b9050919050565b7f416464726573733a20696e73756666696369656e742062616c616e636520666f60008201527f722063616c6c0000000000000000000000000000000000000000000000000000602082015250565b60006163e460268361538b565b91506163ef82616388565b604082019050919050565b60006020820190508181036000830152616413816163d7565b9050919050565b600081519050919050565b600081905092915050565b60005b8381101561644e578082015181840152602081019050616433565b60008484015250505050565b60006164658261641a565b61646f8185616425565b935061647f818560208601616430565b80840191505092915050565b6000616497828461645a565b915081905092915050565b7f416464726573733a2063616c6c20746f206e6f6e2d636f6e7472616374000000600082015250565b60006164d8601d8361538b565b91506164e3826164a2565b602082019050919050565b60006020820190508181036000830152616507816164cb565b9050919050565b600081519050919050565b6000601f19601f8301169050919050565b60006165358261650e565b61653f818561538b565b935061654f818560208601616430565b61655881616519565b840191505092915050565b6000602082019050818103600083015261657d818461652a565b90509291505056fea2646970667358221220d711650f9bc916802c42dbc9e5ef030caae4233c0fc1220037a5f5276300353f64736f6c63430008120033",
  "linkReferences": {},
  "deployedLinkReferences": {}
}